:020000040800F2
:10000000F0FF001089920408D3BA02084D65020877
:100010008D9304088D9304088D930408000000005C
:10002000000000000000000000000000D9BA020833
:10003000D7BA020800000000D5BA0208C5AC000813
:100040008D9304088D9304088D9304088D93040800
:100050008D9304088D93040881B40008ADB50008A1
:1000600071B5000835B50008F9B4000889E7000843
:1000700079E7000869E7000859E7000845E7000844
:1000800031E700081DE700088D9304088D930408EC
:100090008D9304088D9304088D930408BDB4000863
:1000A000C19B00084DA100088D930408D1A200084F
:1000B0008DA00008CD9F0008019F0008491001088D
:1000C0005110010839100108411001088D930408EE
:1000D0008D93040831AE00088D93040895AD000897
:1000E00045B400088D930408B9090308F19A000883
:1000F000919C00088D930408619D000809E70008A1
:100100008D9304088D930408319E00088D93040894
:100110008D9304088D930408C5DC0308A9DC03084B
:10012000F5E60008E1E60008CDE60008B9E60008BB
:10013000A5E600088D9304088D9304088D930408A8
:100140008D9304088D9304088D93040829DD02081B
:1001500091E600087DE6000869E60008F9AC0008B1
:1001600029100108311001088D9304088D930408AB
:100170008D9304088D9304088D9304088D930408CF
:080180008D9304088D9304081F
:08018800308E040001000000AC
:1001900010020100042C0020002C002000000000B0
:1001A000E00600080E20EA008A3D0020C445002039
:1001B00000000000150C0308130004000C4200208E
:1001C000B046002000000000E40600080101040021
:1001D0000A3D0020B446002000000000000000009E
:1001E00000010400023D0020B8460020000000008D
:1001F000E806000802010300FD3C0020BC46002088
:100200000000000045CB03080902010068450020FA
:10021000C046002000000000EC0600080C10600042
:100220009A3E0020C44600200000000019CB0308BD
:1002300001020500123D00202447002000000000BC
:10024000E5190108000205000C2E00202C470020B3
:1002500000000000000000001E0004000840002014
:100260003447002000000000EE06000822000C00C9
:10027000644400203847002000000000F206000817
:100280001B00F400802C00204447002000000000E8
:10029000CD2301080E020200C4430020384800208C
:1002A00000000000FE0600082F0011009945002004
:1002B0003C48002000000000000700080510060070
:1002C0000E3F0020504800200000000012070008E8
:1002D000F5216E00082C0020584800200000000086
:1002E0008F11010826000E00D8480020C8480020C1
:1002F00000000000651101080312330017560020AA
:10030000E4550020000000001807000825005A00EE
:10031000105500206A550020000000000000000079
:10032000F6110C003C540020305400200000000066
:100330004C0700081500700050530020C0530020E7
:1003400000000000000000002A0060009052002021
:10035000F052002000000000A90B03082C00100040
:10036000C4550020D455002000000000D9B0010879
:100370002B0024006E5600204A560020000000008A
:10038000A9B001082900640048540020AC540020A2
:100390000000000000000000041202006857002066
:1003A000C058002000000000580700080F0201009C
:1003B00064570020C4580020000000005A070008BD
:1003C00014000200344F00208D5200200000000075
:1003D0005C07000810100200E4560020C8580020F6
:1003E000000000005E07000828001000D45600201E
:1003F000CC580020000000003991010819000500C8
:10040000CC560020DC5800200000000060070008E7
:10041000F821060092560020E45800200000000059
:10042000660700080B201000E0670020C070002065
:10043000000000006C0700081F101C006C67002003
:10044000D0700020000000007C07000805020100B9
:10045000E86D0020EC700020000000009807000804
:1004600003010A0096670020F070002000000000E1
:100470009A0700081D000100247B002074800020E2
:1004800000000000A407000827000400447B0020AF
:100490007880002000000000A60700080120080066
:1004A000387900207C80002000000000AA070008A6
:1004B0001A000A0018790020848000200000000043
:1004C000B2070008030001006C7900209080002032
:1004D0000000000000000000160008006C820020F0
:1004E000BC90002000000000BC07000807020200CA
:1004F00094900020E490002000000000C407000851
:1005000002000C0074820020E8900020000000002F
:100510000000000006020C006C900020F490002007
:100520000000000011CD030808020900F48F00202C
:100530000091002000000000C1CB0308F701060075
:10054000E88F00200C91002000000000C607000882
:100550000A020A00708100201491002000000000AF
:10056000CC07000804008000B8CC0020D0D50020C3
:10057000000000000000000023001000BCCB0020A1
:1005800050D600200000000055910108F901040038
:10059000B4BF002060D6002000000000ED820008FB
:1005A000FD0124008CBF002064D600200000000064
:1005B0007D82000806101600A8B2002088D6002010
:1005C00000000000610C0308FB010100E4B1002001
:1005D000A0D600200000000085CB0308FC01090024
:1005E000B0B00020A4D60020000000008DCB03088E
:1005F0000A101E0078B00020B0D6002000000000D5
:10060000D6070008340010001CA70020D0D6002018
:1006100000000000D10B030811020800F4A600201E
:10062000E0D6002000000000F407000812120400C9
:10063000ECA60020E8D6002000000000FC0700081F
:1006400012200D00D8A60020ECD6002000000000EB
:100650000008000811000C00649B0020FCD600205C
:10066000000000000BCC0308FF010800C49A002022
:1006700008D70020000000005DCE030818202C00E1
:10068000649A002010D700200000000095C80108DF
:100690000D003400909A00203CD70020000000009C
:1006A0002DCD0308020203003C91002070D70020EA
:1006B00000000000000000000C0201002C9100204E
:1006C00074D70020000000000E080008FE01090099
:1006D000F092002078D7002000000000EDCB030846
:1006E0000000000008000400900100002800000045
:1006F0000100C800141E010064002C012800000045
:1007000000000000000000000000000000000000E9
:1007100000002000020100000000000000000000B6
:1007200000000000000000000000000000000000C9
:1007300000000000000000000000000000000000B9
:1007400000000000000000000000010000000000A8
:100750000000000000000000111800000300000568
:100760000000280100000401F40119002B21231EC0
:1007700064010100000001000A01290000000000DE
:10078000000001000000050000010203000000005D
:1007900000000000000000000000040101006C16D1
:1007A00000000000000020030000E8036400040AC9
:1007B00000017E05EA05B40532000000C40900000E
:1007C00019012828023C24010000000000004A0111
:1007D000B400D601000000300100005A0000000003
:1007E000000090012C01C80064000200000000001D
:1007F000000000000000000001010101FFFFFFFFF9
:0F080000000000010000054F42534400000001BA
:10080F00010000005001000007000000020000007E
:10081F0000000000000000000102030406070809A1
:10082F0000000100E0010000FFFFFFFF01010100D8
:10083F00DD1D010800000000A401002070F804086D
:10084F000000000000000000000000000000000099
:10085F00C4F904080000000000000000420200205C
:10086F00040000001CF804080D000000314B0108C3
:10087F00581B002000000000C8F104080D00000004
:10088F00594B01084C1B00200000000024F3040802
:10089F000800000000000000401B002004000000C2
:1008AF0028F204080D000000911E0108341B0020DF
:1008BF0000000000D8F20408030000002125010801
:1008CF00281B00200000000080F80408030000002F
:1008DF00212501081C1B00200000000058EE040811
:1008EF0001000000000000000000000000000000F8
:1008FF00000000000E0000000000000000000000DB
:10090F000000000070F80408000000000000000064
:10091F000000000000000000C4F9040800000000FF
:10092F00000000004202002004000000C8F7040885
:10093F000300000051260108101B002008000000D2
:10094F0028F204080D000000911E0108341B00203E
:10095F0000000000D8F20408030000002125010860
:10096F00281B00200000000080F80408030000008E
:10097F00212501081C1B00200000000058EE040870
:10098F000100000000000000000000000000000057
:10099F00000000000E00000000000000000000003A
:1009AF000000000088F804080000000000000000AC
:1009BF000000000000000000C4F90408000000005F
:1009CF00000000004202002004000000D0F70408DD
:1009DF000300000021250108641B00200000000017
:1009EF0058EE0408010000000000000000000000A5
:1009FF0000000000000000000E00000000000000DA
:100A0F00000000000000000020700020702D720018
:100A1F000108000042570200000001064257020081
:100A2F00000001060000000000000000CC160020AE
:100A3F00FFFFFFFFFA0000000100000001000000AF
:100A4F00FFFF2D202D2D202D2D2D2D202D2D2D0077
:100A5F000000000000000000000000000000000087
:100A6F0000010000FFFFFFFF28EE040830EE04082E
:100A7F0050EE04080000000000000000000000001D
:100A8F000000000017EC040804000000F9480108FA
:100A9F00000000000000000058EE040801000000F4
:100AAF000000000000000000000000000000000037
:100ABF000E00000000000000000000000000000019
:100ACF00A6CB00200100C40900000000A4CB002029
:100ADF000100C40900000000A2CB00200100C409DE
:100AEF0000000000A0CB00200100C409000000009E
:100AFF009CCB00200100C409000000009ECB002009
:100B0F000100C409000000009ACB00200100C409B5
:100B1F000000000098CB00200100C4090000000075
:100B2F00243D00200100C80001000000223D0020EC
:100B3F003200307532000000203D0020055A0500BC
:100B4F001D3D002000FF01001F3D0020010000009F
:100B5F00680200201B3D002002000000B4B404080E
:100B6F001C3D002000FF01001E3D00200100000081
:100B7F00680200201A3D002002000000B4B40408EF
:100B8F00103D002080C1803E050000000E3D00207A
:100B9F0080C1803E05000000083D002080C1803EDE
:100BAF0005000000063D002080C1803E05000000CA
:100BBF00003D002000FF0100FC3C00200A32010034
:100BCF00FB3C002004000000C0B40408FA3C0020E5
:100BDF0002000000D4B40408000000000000000070
:100BEF0070020020A06D00209CFF2C01000000006F
:100BFF002C0000200A000000E0B40408F03C0020A4
:100C0F00E0150C17000000002E0000200800000067
:100C1F00D0D804082D0000200500000024B60408D9
:100C2F00F23C002002000000F8B40408143F00203A
:100C3F000100FF7F010000000D3F002002000000B7
:100C4F0004B504087F3D00200300000014B504081C
:100C5F007E3D00200300000014B504087C3E0020F8
:100C6F000000F401010000007A3E00200000F401B2
:100C7F0001000000783E00200000F4010100000098
:100C8F00763E00200000F40101000000743E0020B9
:100C9F0000FF0100983E0020E803D0070A00000083
:100CAF00963E0020006401000A0000008B3E0020E9
:100CBF00006401008A3E002000640100923E002083
:100CCF00006401000A000000913E00200064010052
:100CDF000A000000903E0020006401000A0000009E
:100CEF00953E0020006401000A000000943E0020A1
:100CFF00006401000A000000933E00200064010020
:100D0F000A0000008F3E002000FF01000A000000D3
:100D1F008E3E002000FF01000A0000008D3E0020E3
:100D2F0000FF01000A000000863D00200000F401D2
:100D3F0001000000843D00200000F40101000000CC
:100D4F00823D00200000F40101000000803D0020E2
:100D5F000000F40101000000863E00201400E803AB
:100D6F0001000000843E0020E80330750100000000
:100D7F00833E002000C80100823E002000C8010011
:100D8F00813E002000C80100803E00200064010069
:100D9F000A0000007F3E002000FF01000A00000053
:100DAF00033F002000C80100023F002000C80100DF
:100DBF00013F002000C80100003F002000C80100D3
:100DCF00FF3E002000C80100FE3E002000C80100C9
:100DDF00FD3E002000C80100FC3E002000C80100BD
:100DEF00FB3E002000C8010088EE04080000000050
:100DFF0000000000000000000000000098EE040852
:100E0F00090000000000000014030020040000008F
:100E1F00A0EE0408090000000000000008030020F5
:100E2F0004000000ACF504080900000000000000F9
:100E3F00FC02002004000000C5EC040809000000BB
:100E4F0000000000F002002004000000A8EE0408DB
:100E5F000900000000000000E40200200400000070
:100E6F00B0EE04080900000000000000D8020020C6
:100E7F0004000000B8EE04080900000000000000A4
:100E8F00CC02002004000000C0EE0408090000009E
:100E9F0000000000C00200200400000058EE04080B
:100EAF000100000000000000000000000000000032
:100EBF00000000000E000000000000000000000015
:100ECF0000000000A8F0040800000000000000006F
:100EDF000000000000000000201D050807000000B2
:100EEF00000000003803002000000000B8F00408E4
:100EFF0008000000000000002C030020000000008C
:100F0F00C4F00408080000000000000020030020C7
:100F1F000000000058EE040801000000000000006F
:100F2F000000000000000000000000000E000000A4
:100F3F00000000000000000000000000CCF00408DA
:100F4F000000000000000000000000000000000092
:100F5F00DCF004080D000000000000007403002006
:100F6F0000000000E4F004080D0000000000000085
:100F7F006803002000000000ECF0040807000000E8
:100F8F00000000006003002000000000F4F00408DF
:100F9F000D000000000000005403002000000000BE
:100FAF00FCF004080D0000000000000048030020C2
:100FBF000000000004F1040807000000000000001A
:100FCF00400300200000000058EE0408010000005C
:100FDF000000000000000000000000000000000002
:100FEF000E000000000000000000000000000000E4
:100FFF000CF10408000000000000000000000000D9
:10100F0000000000201D05080C000000000000007B
:10101F00263D00200000000020F104080C00000015
:10102F0000000000283D00200000000030F10408FF
:10103F000C000000000000005E3D002000000000DA
:10104F0040F104080C00000000000000523D002099
:10105F000000000054F104080C0000000000000024
:10106F002A3D00200000000060F104080C00000081
:10107F00000000002C3D00200000000068F1040873
:10108F000C000000000000002E3D002000000000BA
:10109F007CF104080C00000000000000303D00202F
:1010AF000000000084F104080C00000000000000A4
:1010BF00323D0020000000008CF104080C000000FD
:1010CF0000000000703D002000000000A4F10408A3
:1010DF000C00000000000000343D00200000000064
:1010EF00B0F104080C00000000000000363D0020A5
:1010FF0000000000B8F104080C0000000000000020
:10110F00383D002000000000C4F104080C0000006E
:10111F00000000003A3D002000000000D0F104085C
:10112F000C000000000000003C3D0020000000000B
:10113F00C2ED04080C000000000000003E3D00203E
:10114F0000000000DCF104080C00000000000000AB
:10115F00403D002000000000E8F104080C000000F2
:10116F0000000000423D002000000000F4F10408E0
:10117F000C00000000000000563D002000000000A1
:10118F00FCF104080C00000000000000543D00209A
:10119F000000000004F204080C0000000000000032
:1011AF00623D00200000000010F204080C00000057
:1011BF0000000000643D0020000000001CF2040845
:1011CF000C000000000000006A3D0020000000003D
:1011DF0064EF04080C00000000000000443D0020F4
:1011EF000000000028F204080C00000000000000BE
:1011FF004C3D00200000000030F204080C000000FD
:10120F0000000000463D0020000000003CF20408F2
:10121F000C00000000000000483D0020000000000E
:10122F0048F204080C000000000000004A3D0020B6
:10123F000000000050F204080C0000000000000045
:10124F004E3D0020000000005CF204080C0000007E
:10125F0000000000583D00200000000064F2040868
:10126F000C00000000000000503D002000000000B6
:10127F002BED04080C00000000000000603D002072
:10128F000000000070F204080C00000000000000D5
:10129F005A3D00200000000078F204080C00000006
:1012AF00000000005C3D00200000000080F20408F8
:1012BF000C00000000000000663D00200000000050
:1012CF0088F204080C00000000000000683D0020B8
:1012DF000000000058EE04080100000000000000AC
:1012EF000000000000000000000000000E000000E1
:1012FF0000000000000000000000000090F2040851
:10130F0000000000000000000000000000000000CE
:10131F009CF204080D00000000000000CC03002028
:10132F0000000000A4F204080D00000000000000FF
:10133F00C003002000000000ACF20408070000000A
:10134F0000000000B803002000000000B8F20408FD
:10135F000700000000000000B003002000000000A4
:10136F00C4F204080900000000000000A4030020DC
:10137F0000000000D0F20408090000000000000087
:10138F009803002000000000DCF2040809000000B0
:10139F00000000008C03002000000000ECF20408A5
:1013AF000900000000000000800300200000000082
:1013BF0058EE0408010000000000000000000000CB
:1013CF0000000000000000000E0000000000000000
:1013DF00000000000000000000F3040800000000FF
:1013EF0000000000000000000000000010F30408DF
:1013FF0005000000000000007D3D002000000000FF
:10140F0058EE04080100000000000000000000007A
:10141F0000000000000000000E00000000000000AF
:10142F00000000000000000018F304080000000096
:10143F00000000000000000000000000C4F90408D4
:10144F0000000000000000004C1C00200400000001
:10145F00C1EC04080D0000005D49010820040020C4
:10146F00000000001CF804080D000000951D010885
:10147F001404002000000000C8F104080D00000053
:10148F00791D0108080400200000000024F304085F
:10149F000800000000000000FC0300200400000012
:1014AF0028F204080D000000C11C0108F003002001
:1014BF00000000002CF304080900000000000000E9
:1014CF00E403002004000000D8F204080300000029
:1014DF0021250108D80300200000000058EE040861
:1014EF0001000000000000000000000000000000EC
:1014FF00000000000E0000000000000000000000CF
:10150F000000000034F30408000000000000000099
:10151F00000000000000000044F304080D0000006C
:10152F000000000038040020000000004CF3040805
:10153F000A00000000000000A43F0020000000008F
:10154F0058F304080A00000000000000AC3F002020
:10155F000000000060F304080A0000000000000013
:10156F00B43F00200000000068F3040808000000EA
:10157F00000000002C0400200000000058EE0408BA
:10158F00010000000000000000000000000000004B
:10159F00000000000E00000000000000000000002E
:1015AF000000000070F304080000000000000000BD
:1015BF00000000000000000084F304080D0000008C
:1015CF0000000000500400200000000094F3040805
:1015DF0004000000A54B01080000000000000000FF
:1015EF009CF304080D0000000000000044040020DC
:1015FF0000000000B0F3040804000000814B010854
:10160F00000000000000000058EE04080100000078
:10161F0000000000000000000000000000000000BB
:10162F000E0000000000000000000000000000009D
:10163F00B8F30408000000000000000000000000E4
:10164F0000000000CCF304080700000000000000B9
:10165F008C04002000000000D8F3040808000000EC
:10166F00000000008004002000000000E4F30408E4
:10167F0008000000000000007404002000000000BB
:10168F00F0F30408080000000000000068040020C8
:10169F0000000000FCF30408080000000000000038
:1016AF005C0400200000000058EE04080100000058
:1016BF00000000000000000000000000000000001B
:1016CF000E000000000000000000000000000000FD
:1016DF0008F4040800000000000000000B020020C6
:1016EF000000000014F404080B00000000000000CC
:1016FF001C0500200000000020F404080B0000006F
:10170F000000000010050020000000002CF4040869
:10171F000B00000000000000040500200000000086
:10172F0038F404080B00000000000000F80400204B
:10173F000000000044F404080B000000000000004B
:10174F00EC0400200000000050F404080B0000001F
:10175F0000000000E0040020000000005CF404081A
:10176F000B00000000000000D40400200000000067
:10177F0068F404080B00000000000000C8040020FB
:10178F000000000074F404080B00000000000000CB
:10179F00BC0400200000000080F4040807000000D3
:1017AF0000000000B40400200000000088F40408CA
:1017BF000700000000000000AC0400200000000043
:1017CF0094F404080B00000000000000A0040020A7
:1017DF0000000000A0F40408080000000000000052
:1017EF00940400200000000058EE040801000000DF
:1017FF0000000000000000000000000000000000DA
:10180F000E000000000000000000000000000000BB
:10181F00ACF404080000000000000000000000000D
:10182F0000000000C0F404080800000000000000E1
:10183F004C05002000000000CCF404080800000054
:10184F00000000004005002000000000D8F404084C
:10185F000800000000000000340500200000000018
:10186F00E4F4040808000000000000002805002030
:10187F000000000058EE0408010000000000000006
:10188F000000000000000000000000000E0000003B
:10189F00000000000000000000000000ECF404084D
:1018AF0000000000000000000802002000000000FF
:1018BF00FCF404080B000000000000009405002059
:1018CF000000000008F504080B00000000000000F5
:1018DF00880500200000000014F504080700000030
:1018EF0000000000800500200000000020F5040823
:1018FF000700000000000000780500200000000035
:10190F002CF50408070000000000000070050020FF
:10191F000000000038F50408080000000000000077
:10192F00640500200000000040F5040808000000D6
:10193F0000000000580500200000000058EE0408C9
:10194F000100000000000000000000000000000087
:10195F00000000000E00000000000000000000006A
:10196F000000000048F5040800000000000000001F
:10197F00080200200000000054F5040807000000D2
:10198F0000000000E0050020000000005CF50408E6
:10199F000700000000000000D80500200000000034
:1019AF0064F504080700000000000000D0050020C7
:1019BF00000000006CF504080700000000000000A4
:1019CF00C80500200000000074F50408070000009F
:1019DF0000000000C0050020000000007CF5040896
:1019EF000700000000000000B80500200000000004
:1019FF0084F504080700000000000000B005002077
:101A0F00000000008CF50408070000000000000033
:101A1F00A80500200000000094F50408070000004E
:101A2F0000000000A00500200000000058EE040890
:101A3F000100000000000000000000000000000096
:101A4F00000000000E000000000000000000000079
:101A5F000000000000000000A5200108E80500209C
:101A6F007B3D00202F00000024B504087A3D0020A4
:101A7F0000C80100783D0020E803D00701000000F6
:101A8F004F4D4E494255534634534400193D0020A3
:101A9F0000030100183D002000030100F11F0108A1
:101AAF00CD1F0108C4060020951F0108551F01080E
:101ABF003C0700202D20010815200108F007002009
:101ACF00ED1E0108B51E0108FC0A0020BB2001080D
:101ADF0039350108D80B0020011D01080000000056
:101AEF00280C0020D126010825230108040D002011
:101AFF00E120010800000000A40D0020852101084D
:101B0F0055210108300E002011220108552201082D
:101B1F00D00E0020883E002001060100212101087F
:101B2F00F520010810100020B5210108C94B01084C
:101B3F009C10002081220108254C0108641100200F
:101B4F007E3E0020010301009CF504080000000008
:101B5F00000000000000000000000000A8F50408CD
:101B6F0008000000000000007412002000000000B8
:101B7F00B0F5040807000000000000006C12002000
:101B8F0000000000C0F504080D0000000000000078
:101B9F006012002000000000CCF5040803000000D4
:101BAF0021250108541200200000000058EE0408FF
:101BBF000100000000000000000000000000000015
:101BCF00000000000E0000000000000000000000F8
:101BDF0000000000D4F50408000000000000000021
:101BEF000000000000000000E4F504080A000000F7
:101BFF0000000000ECF5040800000000F4F50408F4
:101C0F000A00000000000000EDEB040800000000D7
:101C1F00FCF504080A00000000000000043F00204B
:101C2F000000000004F604080A0000000000000095
:101C3F00801200200000000058EE04080100000090
:101C4F000000000000000000000000000000000085
:101C5F000E00000000000000000000000000000067
:101C6F000CF6040800000000000000000000000057
:101C7F000000000018F604080300000021250108E9
:101C8F00B41200200000000024F604080300000036
:101C9F0021250108A8120020000000002CF60408DE
:101CAF0003000000212501089C1200200000000005
:101CBF0034F604080500000000000000173D002066
:101CCF00000000003CF604080700000000000000C0
:101CDF00941200200000000048F6040807000000DE
:101CEF00000000008C1200200000000058EE0408D5
:101CFF0001000000000000000000000000000000D4
:101D0F00000000000E0000000000000000000000B6
:101D1F000000000054F6040800000000000000005E
:101D2F000000000000000000DDED040803000000CB
:101D3F0021250108E41200200000000068F60408C5
:101D4F0003000000212501083000002000000000E2
:101D5F0070F604080300000021250108D8120020A6
:101D6F000000000078F60408030000002125010898
:101D7F00CC1200200000000028F20408030000002D
:101D8F0021250108C01200200000000058EE0408B1
:101D9F000100000000000000000000000000000033
:101DAF00000000000E000000000000000000000016
:101DBF000000000084F6040800000000000000008E
:101DCF00000000000000000090F60408070000006B
:101DDF00714C010840130020000000004CF2040871
:101DEF00030000002125010834130020000000002B
:101DFF009CF6040803000000212501082813002089
:101E0F0000000000A4F604080300000021250108CB
:101E1F001C13002000000000ACF6040807000000AF
:101E2F00554C010814130020000000007C29050800
:101E3F000300000021250108081300200000000006
:101E4F00B8F604080300000021250108FC12002049
:101E5F0000000000C4F6040803000000212501085B
:101E6F00F01200200000000058EE040801000000EE
:101E7F000000000000000000000000000000000053
:101E8F000E00000000000000000000000000000035
:101E9F00752001084520010848130020F122010890
:101EAF0000000000D41300203D1F0108251F01086A
:101EBF006014002000000000000000001415002036
:101ECF00C92201088D4C0108B4150020D0F6040872
:101EDF0000000000000000000000000000000000F3
:101EEF00DCF604080300000021250108C0160020BD
:101EFF0000000000E4F6040803000000212501089B
:101F0F00B416002000000000F0F6040803000000E3
:101F1F0021250108A816002000000000F4F604088F
:101F2F0003000000212501089C160020000000007E
:101F3F0000F7040803000000212501089016002077
:101F4F000000000008F7040802000000A94C010877
:101F5F00000000000000000010F70408020000005D
:101F6F00A94C010801000000000000001CF7040844
:101F7F0002000000A94C0108020000000000000050
:101F8F00000000000E000000000000000000000034
:101F9F0000000000F63C002088136F1701000000BE
:101FAF00F83C002088136F170000000028F7040882
:101FBF000000000000000000000000000000000012
:101FCF0038F704080800000000000000A0170020E8
:101FDF000400000044F7040808000000000000009F
:101FEF009417002000000000D8F20408040000003D
:101FFF0085490108000000000000000058EE0408A9
:10200F0001000000000000000000000000000000C0
:10201F00000000000E0000000000000000000000A3
:10202F0000000000F43C002088136F17010000002F
:10203F00DC6D002088136F1700000000451E01089B
:10204F0000000000AC170020BD420020010000007E
:10205F00E4B50408DE6D002001000000F0B50408AF
:10206F00D46D002002000000F8B504088ECD0020CA
:10207F0000000000000000008CCD002000000000D8
:10208F00000000008ACD00200000000000000000CA
:10209F0088CD0020000000000000000086CD002049
:1020AF00000000000000000084CD002000000000B0
:1020BF0000000000841C0020000000000000000051
:1020CF00F33C00200200000004B6040880F7040867
:1020DF0000000000000000000000000000000000F1
:1020EF0038F7040808000000000000003018002036
:1020FF000400000044F7040808000000000000007E
:10210F002418002000000000D8F20408040000008A
:10211F00151E0108000000000000000058EE040822
:10212F00010000000000000000000000000000009F
:10213F00000000000E000000000000000000000082
:10214F000000000090F704080000000000000000ED
:10215F000000000000000000A0F704080D000000C0
:10216F00D54A01086018002004000000ACF70408ED
:10217F000D0000006D1E010854180020040000001F
:10218F00B8F704080D000000994A0108481800200C
:10219F0000000000C4F704080300000071260108C6
:1021AF003C18002008000000D0F7040803000000CE
:1021BF0021250108641B00200000000058EE0408D0
:1021CF0001000000000000000000000000000000FF
:1021DF00000000000E0000000000000000000000E2
:1021EF000000000050EE0408000000000000000096
:1021FF00000000000000000017EC040804000000BD
:10220F009D490108000000000000000058EE04087E
:10221F0001000000000000000000000000000000AE
:10222F00000000000E000000000000000000000091
:10223F000000000024F80408000000000000000067
:10224F000000000000000000F01F05080D00000056
:10225F0000000000C01800200400000034F804083B
:10226F000800000000000000B41800200400000067
:10227F0040F804080800000000000000A818002023
:10228F000400000048F804080800000000000000E7
:10229F009C1800200400000050F8040808000000FB
:1022AF0000000000901800200400000058F80408F7
:1022BF000800000000000000841800200400000047
:1022CF0060F80408080000000000000078180020E3
:1022DF000400000068F80408080000000000000077
:1022EF006C1800200400000058EE040801000000E4
:1022FF0000000000000000000000000000000000CF
:10230F000E000000000000000000000000000000B0
:10231F002D1E010800000000CC1800200000000056
:10232F000000000044190020000000000000000021
:10233F00E4190020DA6D00200400000010B6040834
:10234F00D86D0020E0150C1700000000D76D00209D
:10235F0008000000D0D80408D66D0020050000004A
:10236F0024B604080000000000000000341A00200A
:10237F00D601000035A00108000000000000000099
:10238F00010000000001010100010000010102FF36
:10239F00FF000000685E0C00FFFFFFFFFF00000062
:1023AF000403090412010002020200408304405793
:1023BF00000201020301000009024300020100C0F4
:1023CF00320904000001020201000524001001057A
:1023DF0024010001042402020524060001070582DE
:1023EF00030800FF09040100020A000000070501AD
:1023FF00024000000705810240000000FF000000BE
:10240F0000FFFF0000000000AA55050100000100B9
:10241F00000000000102030401020304060708097B
:10242F0023D6020821DB02089DD60208359E02083A
:10243F00A1A30208459E0208619E02080F9E020892
:10244F00019E020800000000000000002D202D2D2D
:10245F00202D2D2D2D202D2D2D2D000000000000C5
:10246F000000000000000000000000AA550B010052
:10247F0000AA5507010000AA55090200000000003C
:10248F0001000000C012AA5503009F00FF1FFF1F8D
:10249F00641D0508000000000000000059CB030870
:1024AF00A0860100040000000000000000000000F2
:1024BF00000000000000000000000000000000000D
:1024CF00000000004CF20408DCEE040800000000DD
:1024DF00F96603087D000000060000000000000000
:1024EF0000000000000000000000000000000000DD
:1024FF000000000000000000D41C050800000000D0
:10250F0000000000E1900208E80300000300000053
:10251F0000000000000000000000000000000000AC
:10252F0000000000000000000000000054F004084C
:10253F0000000000000000005F10030810270000DB
:10254F000300000000000000000000000000000079
:10255F00000000000000000000000000000000006C
:10256F00ACF804080000000051AD0108AD6A020884
:10257F00204E0000050000000000000000000000D9
:10258F00000000000000000000000000000000003C
:10259F0000000000001F0508000000000000000000
:1025AF003196020810270000010000000000000013
:1025BF00000000000000000000000000000000000C
:1025CF000000000000000000042B050800000000C0
:1025DF00000000003D1F0208E80300000500000096
:1025EF0000000000000000000000000000000000DC
:1025FF00000000000000000000000000102B050884
:10260F00000000000000000041E10308204E000020
:10261F0003000000000000000000000000000000A8
:10262F00000000000000000000000000000000009B
:10263F00202B0508000000000000000035DF030814
:10264F00204E00000300000000000000000000000A
:10265F00000000000000000000000000000000006B
:10266F0000000000302B05080000000000000000F3
:10267F0059200208400D0300030000000000000075
:10268F00000000000000000000000000000000003B
:10269F000000000000000000281E050800000000D8
:1026AF00000000007DEF030810270000010000006C
:1026BF00000000000000000000000000000000000B
:1026CF00000000000000000000000000A8F804084F
:1026DF0000000000000000007D66010810270000C8
:1026EF0003000000000000000000000000000000D8
:1026FF0000000000000000000000000000000000CB
:10270F00402B05080000000000000000A500020893
:10271F00A086010001000000000000000000000082
:10272F00000000000000000000000000000000009A
:10273F0000000000D81C0508000000000000000089
:10274F00C150020850C3000001000000000000004B
:10275F00000000000000000000000000000000006A
:10276F000000000000000000DCEF04080000000083
:10277F000000000055110108701101000100000058
:10278F00000000000000000000000000000000003A
:10279F0000000000000000000000000064EF0408CB
:1027AF0000000000000000003D490208A861000081
:1027BF000100000000000000000000000000000009
:1027CF0000000000000000000000000000000000FA
:1027DF00482B05080000000000000000B97B01082D
:1027EF00A0860100010000000000000000000000B2
:1027FF0000000000000000000000000000000000CA
:10280F0000000000081F0508000000000000000085
:10281F00C9220208A00F0000010000000000000004
:10282F000000000000000000000000000000000099
:10283F000000000000000000542B050800000000FD
:10284F00000000006D2801081027000001000000A3
:10285F000000000000000000000000000000000069
:10286F00000000000000000000000000501E0508DE
:10287F00000000000000000085CE0308A00F00003C
:10288F000100000000000000000000000000000038
:10289F000000000000000000000000000000000029
:1028AF00F0F6040800000000000000007189010824
:1028BF001A410000010000000000000000000000AD
:1028CF0000000000000000000000000000000000F9
:1028DF000000000024EF04080000000000000000CA
:1028EF0071A6020810270000010000000000000080
:1028FF0000000000000000000000000000000000C9
:10290F0000000000000000002CFA04080000000086
:10291F0000000000454E01081A41000001000000B0
:10292F000000000000000000000000000000000098
:10293F00000000000000000000000000602B0508F0
:10294F000000000000000000C5F30208400D030066
:10295F000000000000000000000000000000000068
:10296F000000000000000000000000000000000058
:10297F00682B05080000000000000000F91E020887
:10298F00400D0300000000000000000000000000E8
:10299F000000000000000000000000000000000028
:1029AF0000000000702B0508000000000000000070
:1029BF00A56C0108A08601000300000000000000C4
:1029CF0000000000000000000000000000000000F8
:1029DF0000000000000000007C2B05080000000034
:1029EF000000000001DF030840420F00000000005C
:1029FF0000000000000000000000000000000000C8
:102A0F00000000000000000000000000882B0508F7
:102A1F000000000000000000D9F1030850C30000BF
:102A2F000000000000000000000000000000000097
:102A3F000000000000000000000000000000000087
:102A4F000000803F000000000000000000000000B8
:102A5F000000803F000000000000000000000000A8
:102A6F000000000000000000000000000000000057
:102A7F0000000000000000000000803F0000000088
:102A8F000000000000000000FFFFFFFF010000003A
:102A9F000000803F00000000000000000000000068
:102AAF000000803F00000000D490002008000000CC
:102ABF0000000000C4900020080000000CE0040893
:102ACF00050804000000000024B60408D0D804084C
:102ADF0010B60408000000000000000038E00408F1
:102AEF0005080A000000000024B60408D0D8040826
:102AFF00E0B404080000000000000000080000001F
:102B0F0013A302087FA20208B5AC02080000000060
:102B1F00DD9D020835A1020817A20208A3A0020832
:102B2F000000000000000000D19D0208E19C020897
:102B3F00DF9C0208DD9C0208D79C0208D59C020886
:102B4F00DB9C0208D99C0208F19C0208E39C020856
:102B5F003DAB020851AB020829AB020815AB0208C6
:102B6F00FFAA02080060024010600240000000004F
:102B7F0000000000000B000000000000000000003B
:102B8F0000000000006002402860024001000000C9
:102B9F0000000000060C0000000000000000000014
:102BAF000000000000600240406002400200000090
:102BBF0000000000100D00000000000000000000E9
:102BCF000000000000600240586002400300000057
:102BDF0000000000160E00000000000000000000C2
:102BEF00000000000060024070600240040000001E
:102BFF0000000000200F0000000000000000000097
:102C0F0000000000006002408860024005000000E4
:102C1F00000000002610000000000000000000006F
:102C2F000000000000600240A060024006000000AB
:102C3F000000000030110000000000000000000044
:102C4F000000000000600240B86002400700000072
:102C5F0000000000362F0000000000000000000000
:102C6F0000000000006402401064024000000000F9
:102C7F00000000000038000000000000000000000D
:102C8F0000000000006402402864024001000000C0
:102C9F0000000000063900000000000000000000E6
:102CAF000000000000640240406402400200000087
:102CBF0000000000103A00000000000000000000BB
:102CCF00000000000064024058640240030000004E
:102CDF0000000000163B0000000000000000000094
:102CEF000000000000640240706402400400000015
:102CFF0000000000203C0000000000000000000069
:102D0F0000000000006402408864024005000000DB
:102D1F00000000002644000000000000000000003A
:102D2F000000000000640240A064024006000000A2
:102D3F00000000003045000000000000000000000F
:102D4F000000000000640240B86402400700000069
:102D5F0000000000364600000000000000000000E8
:102D6F0000000000010000000000803F0000803FD5
:102D7F006F12033A782500200000000000000000C9
:102D8F000000000000000000000000000000000034
:102D9F000000000000000000000000000000000024
:102DAF000000000000000000000000000000000014
:102DBF000000000000000000000000000000000004
:102DCF0000000000000000000000000000000000F4
:102DDF0000000000000000004300000000000000A1
:102DEF0000000000000000000000000000000000D4
:102DFF000000000000000000430000000000000081
:102E0F0000000000000000000000000000000000B3
:102E1F000000000000000000430000000000000060
:102E2F000000000000000000000000000000000093
:102E3F000000000000000000430000000000000040
:102E4F000000000000000000000000000000000073
:102E5F000000000000000000430000000000000020
:102E6F000000000000000000000000000000000053
:102E7F000000000000000000430000000000000000
:102E8F000000000000000000000000000000000033
:102E9F0000000000000000004300000000000000E0
:102EAF000000000000000000000000000000000013
:102EBF000000000000000000BB970408979704086B
:102ECF00000000005A33050813EC0408F02B050826
:102EDF00F02B0508F02B0508F02B0508F02B050843
:102EEF00F02B0508F02B0508F02B0508F02B050833
:102EFF00FFFFFFFFFFFFFFFFFFFFFFFFFFFF0000D1
:102F0F000100415343494900000000000000000048
:102F1F0000000000000000000000000000000000A2
:102F2F000000415343494900000000000000000029
:102F3F000000000000000000000000000000000082
:042F4F00000000007E
:10800000254B1B880B332DE9F04F8A4601F1060BF7
:108010001FFA83F94FF00108002100251AF801EB3F
:108020002C464A460127A2F10B039BB207E001331D
:108030009BB2B0F80CC0C6F814C093420AD000EB53
:108040008306002FF3D100EB830601339BB29342EA
:108050007761F4D1043300EB83030134092D5960B7
:10806000E4B20CD0092C14D008FA05F313EA0E0F71
:1080700014BF012700270C3292B20135D3E709F172
:108080007809DA451FFA89F9C7D1034B1980BDE891
:10809000F08F0027EFE700BF482700202DE9F047C9
:1080A000DFF860E0BEF8023004338A461FFA83FC32
:1080B00001F1090801271AF8016BE1460025A9F131
:1080C000040307FA05F29BB23240C2B1818900EB8A
:1080D000830401339BB24B456161F6D10135043312
:1080E000082D1FFA83F9EAD10CF1200CC2451FFAC2
:1080F0008CFCE0D10023AEF80230BDE8F0871146D9
:10810000E5E700BF4827002010B5027C01681F2A60
:108110004FF020030ED94C68203A93401C4208D0FF
:108120000B4A406800241470026822F001020260C9
:10813000CB6010BD0C6893401C42FAD0044A4068E2
:1081400000241470026822F0010202608B60F0E7E4
:1081500042810020436A8269D154436A0169826B7B
:1081600001338B4228BF00234362DAB1EFF311835E
:10817000502282F31288826B1168C9070ED470B442
:108180005468FCB9D0E909518D4211D1012280F81F
:108190005C20DBB283F3118870BC7047DBB283F3E1
:1081A00011887047826DD36843F08003D3607047B5
:1081B00086690E44D6600ED9691A51608562002125
:1081C00080F85C10116841F00101DBB2116083F3AB
:1081D000118870BC70470569691A51608462EEE7C6
:1081E000034610B4446BD968406954B1DA6C8C1AF8
:1081F000013A005D5DF8044B08BF0A46C0B2DA647C
:1082000070471A6A805C01328A4228BF2246C0B297
:108210001A625DF8044B7047836B13B190F85C00F1
:108220007047D0E90903181AB0FA80F04009704786
:10823000D0E909120369914238BFC9188A1A816BC3
:10824000013B19B149680A449A4201D2981A704711
:1082500000207047436B43B1C26C5B689A4291BF88
:10826000981AC0689B1AC0187047D0E907239A4231
:108270002FBFD01AC0688018C01A70470A4B30B59B
:1082800003F1140493F900205D78072AC8BF143A5B
:10829000811804330D7313F8025C855413F8012C14
:1082A0000A769C42EED130BDF0AD040803682DE99A
:1082B000F041DD691DB12B46BDE8F0411847002AA9
:1082C000174611DD04460E460F4400E023689B6804
:1082D000204698470028F9D0236816F8011B1B6830
:1082E00020469847BE42F1D1BDE8F0810023252207
:1082F000027043708370C370704700BF0028F0B4F1
:1083000003DA2D230B7040420131092804464FF057
:10831000010307DD03EB83035B00B0FBF3F2092AE3
:10832000F8D883B10F48A0FB0326B4FBF3F2092A67
:1083300002F1570C02F1300709DD03FB1244F30888
:1083400001F801CBEFD100230B70F0BC704703FBA9
:108350001244F30801F8017BE5D100230B70F0BC57
:10836000704700BFCDCCCCCC884270B44FF0010434
:1083700042D301FB04F4B0FBF4F58D42F9D2ECB129
:1083800042BB092D04FB150005F1570605F130022B
:108390000EDDB4FBF1F403F8016B7CB1B0FBF4F536
:1083A000092D04FB150005F1570605F13002F0DC3C
:1083B000B4FBF1F403F8012B002CEFD100221A706A
:1083C00070BC704703F8016BB4FBF1F4002CF5D0DE
:1083D000B0FBF4F5092D04FB150005F1370605F196
:1083E0003002EFDCB4FBF1F403F8012B002CEFD1E9
:1083F00000221A7070BC70470546002AEAD1C0E717
:108400002DE9F04714461D46064600234FF47A72C4
:108410002046294640F06CFDDFF848814B4A4C4F1E
:1084200088FB00310144C31782FB002CC3EB6111B0
:1084300088FB012887FB00278444464AC3EBEC2CC9
:10844000C1EB011E82FB0C29A0EB8E0E0744424AB1
:1084500086F806E0C3EB27474FEAEC7E08EB010AFB
:10846000CEEBA90E82FB07824FEAE1780EEB4E0EAF
:10847000C8EB6A18ACEBCE0CC8EB0818DFF8E8E0E4
:1084800086F804C0A1EB880171718EFB0010F9170A
:10849000C1EBE21240F2B55101FB1272C3EBE050A6
:1084A000B2F5896F4FEA80073FDA40F2DA239A4249
:1084B00043DCB2F5B77FB4BF4FF0000E4FF0010EB2
:1084C0004FEA4E08254B08EB0E0103EBC1031FFAE0
:1084D0008EFC588D224908EB0E0301EBC3011631C7
:1084E0000B2301E031F8020D90421BDD013BF9D175
:1084F0001A4BC64403EBCE0E0123BEF81400B37032
:1085000007F2B2770132121ABC44F270A6F800C02A
:10851000204629464FF47A72002340F0E9FC32816C
:10852000BDE8F0870133DBB2E9E74FF0030CE64624
:1085300040F296504FF00608CCE74FF0020CE646AA
:1085400040F229404FF00408C4E700BFC5B3A29130
:1085500007452EC2ABAAAA2A73B06D16F0AD040867
:1085600004AE040889888888792D031103685A1C91
:1085700002601970704700BF2DE9F047089C25780C
:10858000002B804689460CBF4FF0200A4FF0300A7E
:10859000661C25B3002A26DD334601E0024698B169
:1085A00013F8011B501E0029F8D1971E60B13D46FB
:1085B000013D51464046C8476B1C002BF8DC25782E
:1085C00027EAE770013045B1041B29464046C847F9
:1085D000301916F8015B002DF7D1BDE8F087002AAD
:1085E00003DC2846F9E70020EEE7571EDFE700BF6F
:1085F000D0E9012300EB830101339342D0ED037AEC
:1086000081ED040A836004BF0023836000EB8303D1
:1086100093ED047A036870EE277A9A42C0ED037AEC
:1086200077EEC77AC0ED037A0CDA013307EE103A21
:10863000F8EEC76AB7EE007A87EEA60A036030EE5E
:10864000070A704707EE102AB8EEC77A87EE870A46
:10865000704700BF90ED057A90ED004AD0ED066AB4
:10866000D0ED014AD0ED047A90ED035AD0ED025AD4
:10867000A4EE007AB0EE406AB0EE470AB0EE667A39
:10868000A4EE867A67EEC07AA5EE407AE5EE867AA9
:1086900080ED057AC0ED067A704700BFD0ED057A0F
:1086A00090ED013AD0ED003AD0ED064A90ED024A45
:1086B00090ED077A90ED035A90ED086AD0ED045AD8
:1086C000C0ED067AF0EE406A27EE830AC0ED056A37
:1086D000A3EEA60A80ED087AA4EE240AA5EE470AC6
:1086E000A5EEC60A80ED070A704700BFD0ED007AFC
:1086F00090ED017A30EE670AE7EE007AB0EE670A95
:10870000C0ED007A704700BF704700BF0A44914235
:1087100015D030B40139551E41F2210211F8014F34
:10872000082380EA042004044CBF82EA4000400091
:10873000013B80B2F7D18D42F0D130BC7047704719
:108740000378407840EA032010FB01F04FF4807179
:1087500090FBF1F000F30F0000B270476D4B2DE974
:10876000F04F5C686C4BB3F80AE0B3F804809A8968
:108770004FEA0E2AB4EB0A044FEA1E6B4FF00005D5
:1087800087B065EB0B05CDE900450746009C1889CD
:10879000019EA0FB044500FB0655E00940EA456048
:1087A0004FEA08448C46E9114FEA184510EB0408DB
:1087B000D888009C41EB0509CDE90489A0FB04455C
:1087C000B3F8028000FB0655200A40EA05604FEA34
:1087D000C83429124FEA584510EB040841EB05094B
:1087E0000099A2FB010102FB06114FEAD05A4AEAA6
:1087F000412A1AF5FA634FEAE15B4BF10004B3F545
:10880000FA6FCDE9023474F10003424E64DA0524B4
:10881000AAFB040104FB0B1100FB0BF40AFB01444F
:10882000DDE90423A0FB0A0121444D104FEA300486
:10883000121B4FEA900463EB050344EA8174B8EB22
:108840000408CDE90423DDE9023434484FEAA105E8
:1088500069EB05094FF0FF31834274EB010326DA1F
:1088600040F6AC501AEB00024FF000014BEB010355
:1088700002FB03F1A2FB022303EB4103D400DD0062
:10888000101B45EA527563EB0501DDE90445241828
:108890004D41CDE904450B24A2FB040104FB031167
:1088A00049104FEA3000B8EB000869EB0109DDE937
:1088B00000325343009ADDE90201A2FB02AB0BEB4D
:1088C000430B4FEADA7242EA4B02801A4FEAEB732B
:1088D00061EB0301CDE9020197B1B168A1FB082367
:1088E00001FB0933540D5D1544EAC324DDE904237B
:1088F000A21A65EB03031D46D30B43EA45433B60D5
:10890000BCF1000F02D0029BCCF8003007B0BDE8EC
:10891000F08F00BF482700203457002024FAFFFFC3
:108920002DE9F04FDFF8DCC1754CDCF80C502288E3
:10893000B4F90AA0C2EB25135200C2EBE502B4F968
:1089400002505B436A43B4F904501B135D43AD13FB
:1089500005EBE225B5F5FA324FEAE57B85B04BF140
:10896000FF33CDE90023DDE900325343009AA561CE
:10897000A2FB0289CDE90201B4F90820019900980F
:1089800009EB43095143D31700FB0311A2FB00235A
:108990000B444FEAEA7B0AFB09F11F0308FB0B13A8
:1089A000AAFB080119444FEA102A4AEA016A160391
:1089B0004FEA212B47EA12571AEB0602E6884BEBE7
:1089C000070312F1000A43F5004BAAFB060106FB60
:1089D0000B114A10CB1752EA030100F08E80B4F954
:1089E0001060009806FB09F1F71708FB0711A6FBBA
:1089F00008673944B4F90E808B4601994FEAE8794B
:108A000008FB01F100FB0911A8FB00898944DCF88F
:108A100010104FEA4947C1F5801C47EAD837B246E3
:108A20004FEA4846B4F90C801AEB060A66464BEB4F
:108A3000070BF7174FEAC806019600260096F907BC
:108A4000DDE900674FEACC7016EB0A0647EB0B072F
:108A500041EA5C01801B61EB070140F6354C894619
:108A6000A0FB0C010CFB091140F042FAB4F91620EE
:108A7000B4F914A04E13470B47EAC14702FB06FCAA
:108A8000D31707FB03CCA2FB07236344564307FB22
:108A90000366A2FB07233344560E46EAC316321878
:108AA0004FEA636747EB010380460AFB01F14FEA97
:108AB000EA7B08FB0B17AAFB08013944C60C46EAFF
:108AC000413612EB06084FEAE147B4F9122043EBB6
:108AD00007094FEA182141EA096113010B44029A80
:108AE0000AB11B0A1360039B23B105EB8505803592
:108AF0002D121D6005B0BDE8F08F0023EFE700BF29
:108B00004857002048270020704770472DE9F04162
:108B1000334B344E9A8A7489B6F91450B6F90480EE
:108B2000B6F90E70B6F920C09B69121B3489544304
:108B3000E213B6F912401544E40294FBF5F4B6F9D9
:108B400002501444A4F57A6E0EFB0EF20EFB05F5EE
:108B50000EFB08FEB6F90C80F4611213574302FBBA
:108B600008F2121402EB6E32ED1205EBE727023227
:108B7000B6F90050B6F806E0921002F5004207EB95
:108B800085070EFB02F207FA0CF74FEAD23E0237D6
:108B90004CF25032A3EBA70742FA0CF37B4355BFCC
:108BA0005B00B3FBFEF3B3FBFEF35B0078B11A127C
:108BB00002FB02F540F6DE326A430B4D12145D43B0
:108BC00002EB254202F6CF6203EB2213036021B1D0
:108BD0000A235C43083424110C60BDE8F08100BF17
:108BE000482700201057002043E3FFFF4FF40063A5
:108BF000838270474FF40063838270474FF40063B1
:108C000083827047012380F848307047F0B4037CBA
:108C1000456902681F2B37D9203B202154689940B1
:108C20000C4223D010249C40D160D4605168D940BC
:108C3000CE074ED4EFF31183502282F31288AA6B31
:108C40001168C90709D45468002C52D1D5E90961CB
:108C50008E4243D1012285F85C20DBB283F3118878
:108C6000037C02681F2B194614D9203B0821506849
:108C70009940084200D0D1600421506801FA03F302
:108C8000184223D1F0BC7047202416689C4026422D
:108C90000FD11946082310688B40184200D093600A
:108CA0000423106803FA01F10842EBD09160F0BC94
:108CB000704710219940946091601168D940CC07A9
:108CC000B8D5012101FA03F39360B3E7D360F0BC98
:108CD0007047012101FA03F3D360ABE7AF690F449A
:108CE000D7600ED82E69711A5160AC62002185F8E8
:108CF0005C10116841F00101DBB2116083F311884F
:108D0000AEE7711A5160AE62F0E700BF70B4037C49
:108D100001681F2B26D9A3F1200520224C68AA4008
:108D2000224214BF01220022D2B142691B481C4CCE
:108D300002EB420200EB4212257854682068CDB95C
:108D4000E56856892C6824F001042C6082891F2B69
:108D500022EA060282811AD8202202FA03F38B60EB
:108D600070BC704720220C689A40224214BF012236
:108D70000022D9E7A469226822F0010222608289D8
:108D800022F480721204120C1F2B8281E4D9A3F109
:108D9000200220239340CB6070BC7047D0B20020EB
:108DA000CCB20020844B1A78002A00F00481834B57
:108DB0001978834B30B4002965D11868B3F82C5169
:108DC00041628489012A44EA05048481A3F82C11B4
:108DD00057D0D3F83001B3F85C5241628489022A3B
:108DE00044EA05048481A3F85C124AD0D3F86002F7
:108DF000B3F88C5341628489032A44EA05048481D0
:108E0000A3F88C133DD0D3F89003B3F8BC5441625F
:108E10008489042A44EA05048481A3F8BC1430D070
:108E2000D3F8C004B3F8EC5541628489052A44EABA
:108E300005048481A3F8EC1523D0D3F8F005B3F82A
:108E40001C5741628489062A44EA05048481A3F8F8
:108E50001C1716D0D3F82007B3F84C584162848908
:108E6000072A44EA05048481A3F84C1809D0D3F8F2
:108E70005028B3F87C495162908920439081A3F82F
:108E80007C1930BC70475C68198961602568186876
:108E900045F0010540F20D312560A0F848108489A5
:108EA000012A44F480748481EBD0D3F83441B3F8C0
:108EB0003851D3F830016560256845F0010525601B
:108EC000A0F848108489022A44F480748481D8D0A0
:108ED000D3F86442B3F86852D3F86002656025683D
:108EE00045F001052560A0F848108489032A44F460
:108EF00080748481C5D0D3F89443B3F89853D3F8E1
:108F000090036560256845F001052560A0F84810CC
:108F10008489042A44F480748481B2D0D3F8C44490
:108F2000B3F8C854D3F8C0046560256845F001055E
:108F30002560A0F848108489052A44F4807484814F
:108F40009FD0D3F8F445B3F8F855D3F8F005656031
:108F5000256845F001052560A0F848108489062A97
:108F600044F4807484818CD0D3F82447B3F8285714
:108F7000D3F820076560256845F001052560A0F855
:108F800048108489072A44F4807484813FF479AFBF
:108F9000D3F85428B3F85808D3F850385060106804
:108FA00040F001001060A3F848109A8942F48072E2
:108FB0009A8130BC70477047D0B50020CCB20020F9
:108FC000D4B5002010B4037C02681F2B09D9203BC4
:108FD0002021546801FA03F31C4214D15DF8044BBC
:108FE00070472021146801FA03F31C42F6D00C49A3
:108FF000406800240C7001685DF8044B21F0010109
:109000000160936070470649406800240C70016855
:109010005DF8044B21F001010160D360704700BF8F
:109020002E3000202DE9F041C40023189B00B749E1
:10903000CA585268958AADB2EFB2FE070B4461D4AC
:10904000BE0737D5BFF35F8F1D7EEDB2012D00F057
:10905000BB80AF4E138BBFF35F8F231801EB8303ED
:109060001D7E022D00F0CE80231801EB83031D7EB0
:10907000032D05D19B7E1BB1737F002B40F01A811D
:10908000938896F91CC043F480639380231801EB06
:1090900083031B7E013363450AD1B37F00257577B7
:1090A000002B40F08A80204401EB800000234375B0
:1090B000BDE8F081964E17F0040F96F91CC04DD113
:1090C00017F0400700F0B280178A1D6AFFB205F85A
:1090D0000C705FFA8CF56F1C93F818E07BB2DF1C04
:1090E000BE4533779C4600F00981271801EB8707BE
:1090F0003F7EBB42CAD105F1020C4FFA8CFC86F8C8
:109100001CC0C3E71588824E25F400652D042D0C84
:109110001580158845F4806515809D7E002737777A
:10912000002D3DD0757F002D37D0231801EB830330
:1091300001251B7E7577022B03D1138843F400634E
:109140001380231801EB83039B7D43F001031382FB
:10915000204401EB8000037EBDE8F0819F7E757F97
:109160004FF0010E86F81EE0002F5CD0002D78D164
:10917000231801EB83035B7E002B00F0A48013888F
:109180000CF1010C4FFA8CFC43F4007386F81CC000
:1091900013801388DF05FCD478E7DB7DFF2BC4D078
:1091A000231801EB83039D7D05F0FE051582DB7D11
:1091B000FF2BCDD0FF233377CAE7938823F4407386
:1091C0001B041B0C93806EE79B7E514E002B3FF4DB
:1091D00041AF737F002B3FF43DAF138823F48063CE
:1091E0001B041B0C1380BFF35F8F138B1388B577A1
:1091F00043F400731380938896F91CC043F4806392
:10920000938043E79B7E002B3FF42EAF737F002BB0
:109210003FF42AAF138896F91CC023F480631B0423
:109220001B0C138016E0002DA2D0A8E72D067FF5B9
:109230002DAFBCF1FF3F6DD0DD6915F80C501582E4
:109240000CF1010C1D7E4FFA8CF39D429C46337746
:109250007FF41CAF938823F480631B041B0C938062
:1092600014E71F7ED3F820805FFA8CF5AE44022FFE
:109270004FFA8EFE17882DD927F480673F043F0CE4
:109280001780178AFFB208F80C701788D3F820C02F
:1092900047F400731380138ADBB20CF80E30938806
:1092A00005F1020C4FFA8CFC43F4806386F81CC075
:1092B00093806EE7938896F91CC023F480631B04A7
:1092C0001B0C9380E2E61388012543F4807313801E
:1092D00075775EE747F400771780178AFFB208F8C2
:1092E0000C70178AD3F8208005F1030C4FFA8CFC20
:1092F000FBB286F81CC008F80E304AE7978827F4BE
:1093000080673F043F0C9780EFE600BF009000208D
:1093100048270020DD7D15829D7E37771DB91B7E95
:10932000002B7FF415AF938823F480631B041B0C80
:1093300093800DE7054B10B51A6A054C2178501C37
:1093400009B91A6210BD0246F8E700BF482700209D
:1093500042810020F0B50C2934D8DFE801F08A33CF
:1093600033335F333333343333330700048C96891C
:10937000B2F802C01788744D24F480542404240CDD
:109380000484038C8488818B23F4005321F4E64108
:109390001B0409041B0C46EA0C06090C43EA0633BD
:1093A00041EA0721A8429BB2A4B289B200F09E8094
:1093B00005F58065A84200F09980926884808183D9
:1093C00002640384F0BD048C9589B2F802E017882A
:1093D0005D4E24F480742404240C0484038CB0F8BF
:1093E00004C0818B23F400731B0421F0730145EA50
:1093F0000E041B0C090443EA0423090CB0429BB27F
:109400001FFA8CF541EA07015BD0504CA04258D0BE
:10941000926885808183C2630384F0BD048C958942
:10942000B2F802E0B2F800C0474E24F01004240461
:10943000240C0484038C8788018B23F0200321F4FF
:10944000E6411B0409041B0C45EA0E04090C43EA1F
:10945000041341EA0C21B0429BB2BFB289B25BD087
:109460003A4CA04258D0926887800183826303847B
:10947000F0BD048C9589B2F802C01788324E24F0F2
:1094800001042404240C0484018C8488038B21F0BF
:10949000020123F0730309041B04090C45EA0C05BF
:1094A0001B0CB04241EA0501A4B243EA070324D0F1
:1094B000264DA84221D092688480038342630184B0
:1094C000F0BDD489168A578A23F4006343EA042343
:1094D0004FF6FF341C40938825F440553E4344EA40
:1094E000032345EA06149BB2A5B291E7158A24F43A
:1094F000804444EA8514A4B25FE7D689158A578A66
:1095000021F008013143968824F4407421F00401CD
:109510003D4331432C43CEE7D489168AB2F812C0BA
:1095200023F0800343EA04134FF6BF741C40938872
:1095300027F4406546EA0C0644EA031345EA86042C
:109540009BB2A7B28FE700BF0000014000040140BA
:109550002DE9F84FDFF864828E488F4C8F4E904F84
:10956000DFF85C92DFF85CA24FF4B472002140F0A7
:109570005FF945468B4A8C48DFF84CC2DFF84CE275
:1095800008F5077134E0B3F1804F00F0CB80A342BF
:1095900000F0CF80B34200F0DB80BB4200F0DB8004
:1095A000634500F0DB80734500F0DB804B4500F045
:1095B000DB80534500F0DB80DFF814B25B4500F040
:1095C000D9800BF5806B5B4500F0D780ABF5983BFD
:1095D0005B4500F0D5800BF5806B5B4500F0D380D8
:1095E0000BF5806B5B4500F0D1802435A9420BD090
:1095F0002B689342C7D14FF0010B436C243543EAEB
:109600000B03A9424364F3D1684F694E4FF0030A3C
:109610004FF0020998F80630002B7CD098F80430FF
:109620001C09013C032C03F00F0374D837F8140015
:1096300040FA03F2D2076ED54FF0010B0BFA03F399
:10964000013B18403FF0A4FC5A4B1B5D184416EB3D
:10965000C00460D056F83030574898F8081003F12D
:109660003F4202F57E02920A825C02F01F0052091C
:10967000032A0BFA00FB65D0042A5DD0022A04D12C
:109680004948426C4BEA02024264B4F804C0BCFA96
:109690008CF2C2F11F0292B2D00803EB800002F0FC
:1096A0000702046A92004FF00F0E0EFA02FE24EA3F
:1096B0000E040462046A01FA02F2224302624FF0CD
:1096C000010E00220EFA02F434EA0C0120D15000FF
:1096D000D3F800B00AFA00F1C9430BEA010BC3F852
:1096E00000B0D3F800B009FA00F040EA0B001860AF
:1096F00098680840986098689860586820EA040460
:109700005C6058685860D8680140D960D968D960F1
:109710000132102AD6D108F1240845457FF47AAFEA
:10972000BDE8F88F4FF0010B036C43EA0B030364B1
:109730005BE74FF0020BF7E71B48026B4BEA0202B4
:109740000263A2E71848026C4BEA020202649CE73B
:109750004FF0040BE8E74FF0080BE5E74FF0100B74
:10976000E2E74FF0200BDFE74FF0020B45E74FF445
:10977000803B42E74FF4003B3FE74FF4802B3CE750
:109780004FF0400BD0E74FF0800BCDE74FF4807BDC
:10979000CAE700BF08930020000400400008004012
:1097A000000C00400000014000380240E4E20408E0
:1097B00044910020ECE2040864E004089CE0040802
:1097C000000401400040014000100040001400402F
:1097D0000044014000B9704703682DE9F04F03F1E0
:1097E0003F4404F57E04534EA40A0125345D04F081
:1097F0001F066409032C05FA06F500F09580042C79
:1098000000F08D80022C45D08588B5FA85F0C0F136
:109810001F0080B2C40803EB840400F00700266A2E
:1098200080000F27874026EA07062662276A01F094
:1098300003068240701E3A4301282262C1F3810E62
:10984000C1F300184FF000024FEA51114FF0010C24
:1098500025D94FF0030E0CFA02F0A84315D15000A1
:109860001F680EFA00F4E44327401F60D3F800801D
:1098700006FA00F747EA08071F60DF683C40DC6033
:10988000DC6801FA00F02043D8600132102AE2D1EE
:10989000BDE8F08F284C666C35436564B4E74FF043
:1098A00003090CFA02F737EA050033D15000D3F868
:1098B00000A009FA00F4E4430AEA040AC3F800A08D
:1098C000D3F800B006FA00FA4AEA0B0AC3F800A07F
:1098D000D3F808A004EA0A0AC3F808A0D3F808B02D
:1098E0000EFA00FA4AEA0B0AC3F808A0D3F804A05B
:1098F0002AEA07075F60D3F804A008FA02F747EAEC
:109900000A075F60DF683C40DC60DC6801FA00F059
:109910002043D8600132102AC3D1BDE8F08F064C35
:10992000266B354325636FE7034C266C354325646E
:109930006AE700BF64E004080038024003682DE9CC
:10994000F04F03F13F4404F57E04534EA40A012571
:10995000345D04F01F066409032C05FA06F500F0D7
:109960009580042C00F08D80022C46D08588B5FAB5
:1099700085F0C0F11F0080B2C40803EB840400F03E
:109980000700266A80000F27874026EA070626621E
:10999000276A01F0030602FA00F0721E3843012A1A
:1099A000C1F3810EC1F3001820624FEA51114FF04C
:1099B00000024FF0010C25D94FF0030E0CFA02F013
:1099C000A84315D150001F680EFA00F4E443274065
:1099D0001F60D3F8008006FA00F747EA08071F6007
:1099E000DF683C40DC60DC6801FA00F02043D860AE
:1099F0000132102AE2D1BDE8F08F284C666C354365
:109A00006564B3E74FF003090CFA02F737EA050083
:109A100033D15000D3F800A009FA00F4E4430AEA75
:109A2000040AC3F800A0D3F800B006FA00FA4AEA24
:109A30000B0AC3F800A0D3F808A004EA0A0AC3F886
:109A400008A0D3F808B00EFA00FA4AEA0B0AC3F8E5
:109A500008A0D3F804A02AEA07075F60D3F804A09F
:109A600008FA02F747EA0A075F60DF683C40DC60FB
:109A7000DC6801FA00F02043D8600132102AC3D11B
:109A8000B9E7064C266B354325636FE7034C266C1C
:109A9000354325646AE700BF64E0040800380240EB
:109AA00010B50409013C032C17D80E4B33F81420D1
:109AB00000F00F0042FA00F313F001030FD001236E
:109AC00003FA00F0013810403FF062FA064A074BF3
:109AD000125D104403EBC00010BD002010BD1846FD
:109AE00010BD00BFE4E20408ECE204084491002049
:109AF0002DE9F843304D2B8AB5F80C8018EA03089D
:109B000027D02E4E4FF00047B8FA88F327FA03F219
:109B1000D24391B21B3B08EA02082982042B15D8D4
:109B2000DFE803F0372D23190300D6F86431002B4A
:109B300039D1EB6A1FFA83F9D6F8604134B1236852
:109B40002046494698476468002CF8D1B8F1000FC8
:109B5000DAD1BDE8F883D6F84001696B036889B2B1
:109B60009847B8F1000FCFD1F3E7D6F84401A96BBD
:109B7000036889B29847B8F1000FC5D1E9E7D6F874
:109B80004801E96B036889B29847B8F1000FBBD16F
:109B9000DFE7D6F84C01296C036889B29847B8F121
:109BA000000FB1D1D5E703F1FF3900231FFA89F97E
:109BB000C6F86431C0E700BF0018004008930020D9
:109BC0002DE9F843304D2B8AB5F80C8018EA0308CC
:109BD00027D02E4E4FF00047B8FA88F327FA03F249
:109BE000D24391B21B3B08EA02082982042B15D804
:109BF000DFE803F0372D23190300D6F81431002BCA
:109C000039D1EB6A1FFA83F9D6F8104134B12368D1
:109C10002046494698476468002CF8D1B8F1000FF7
:109C2000DAD1BDE8F883D6F8F000696B036889B231
:109C30009847B8F1000FCFD1F3E7D6F8F400A96B3D
:109C4000036889B29847B8F1000FC5D1E9E7D6F8A3
:109C5000F800E96B036889B29847B8F1000FBBD1EF
:109C6000DFE7D6F8FC00296C036889B29847B8F1A1
:109C7000000FB1D1D5E703F1FF3900231FFA89F9AD
:109C8000C6F81431C0E700BF00400140089300202F
:109C90002DE9F843304D2B8AB5F80C8018EA0308FB
:109CA00027D02E4E4FF00047B8FA88F327FA03F278
:109CB000D24391B21B3B08EA02082982042B15D833
:109CC000DFE803F0372D23190300D6F8EC30002B22
:109CD00039D1EB6A1FFA83F9D6F8E84034B123682A
:109CE0002046494698476468002CF8D1B8F1000F27
:109CF000DAD1BDE8F883D6F8C800696B036889B289
:109D00009847B8F1000FCFD1F3E7D6F8CC00A96B94
:109D1000036889B29847B8F1000FC5D1E9E7D6F8D2
:109D2000D000E96B036889B29847B8F1000FBBD146
:109D3000DFE7D6F8D400296C036889B29847B8F1F8
:109D4000000FB1D1D5E703F1FF3900231FFA89F9DC
:109D5000C6F8EC30C0E700BF0004014008930020C3
:109D60002DE9F843304D2B8AB5F80C8018EA03082A
:109D700027D02E4E4FF00047B8FA88F327FA03F2A7
:109D8000D24391B21B3B08EA02082982042B15D862
:109D9000DFE803F0372D23190300D6F8EC30002B51
:109DA00039D1EB6A1FFA83F9D6F8E84034B1236859
:109DB0002046494698476468002CF8D1B8F1000F56
:109DC000DAD1BDE8F883D6F8C800696B036889B2B8
:109DD0009847B8F1000FCFD1F3E7D6F8CC00A96BC4
:109DE000036889B29847B8F1000FC5D1E9E7D6F802
:109DF000D000E96B036889B29847B8F1000FBBD176
:109E0000DFE7D6F8D400296C036889B29847B8F127
:109E1000000FB1D1D5E703F1FF3900231FFA89F90B
:109E2000C6F8EC30C0E700BF0004014008930020F2
:109E30002DE9F843304D2B8AB5F80C8018EA030859
:109E400027D02E4E4FF00047B8FA88F327FA03F2D6
:109E5000D24391B21B3B08EA02082982042B15D891
:109E6000DFE803F0372D23190300D6F8C430002BA8
:109E700039D1EB6A1FFA83F9D6F8C04034B12368B0
:109E80002046494698476468002CF8D1B8F1000F85
:109E9000DAD1BDE8F883D6F8A000696B036889B20F
:109EA0009847B8F1000FCFD1F3E7D6F8A400A96B1B
:109EB000036889B29847B8F1000FC5D1E9E7D6F831
:109EC000A800E96B036889B29847B8F1000FBBD1CD
:109ED000DFE7D6F8AC00296C036889B29847B8F17F
:109EE000000FB1D1D5E703F1FF3900231FFA89F93B
:109EF000C6F8C430C0E700BF000C00400893002043
:109F00002DE9F8432F4D2B8AB5F80C8018EA030889
:109F100027D02D4E4FF00047B8FA88F327FA03F206
:109F2000D24391B21B3B08EA02082982042B15D8C0
:109F3000DFE803F0352B22190300D6F89C30002B04
:109F400037D1EB6A1FFA83F9D6F8984034B1236809
:109F50002046494698476468002CF8D1B8F1000FB4
:109F6000DAD1BDE8F883B06F696B036889B29847AE
:109F7000B8F1000FD0D1F4E7F06FA96B036889B294
:109F80009847B8F1000FC7D1EBE7D6F88000E96B2E
:109F9000036889B29847B8F1000FBDD1E1E7D6F860
:109FA0008400296C036889B29847B8F1000FB3D1D7
:109FB000D7E703F1FF3900231FFA89F9C6F89C306F
:109FC000C2E700BF00080040089300202DE9F843D5
:109FD0002C4D2B8AB5F80C8018EA030825D02A4EA0
:109FE0004FF00047B8FA88F327FA03F2D24391B250
:109FF0001B3B08EA02082982042B13D8DFE803F090
:10A00000322920170300736F002B34D1EB6A1FFA3B
:10A0100083F9346F34B12368204649469847646811
:10A02000002CF8D1B8F1000FDCD1BDE8F883306D19
:10A03000696B036889B29847B8F1000FD2D1F4E791
:10A04000706DA96B036889B29847B8F1000FC9D148
:10A05000EBE7B06DE96B036889B29847B8F1000F80
:10A06000C0D1E2E7F06D296C036889B29847B8F176
:10A07000000FB7D1D9E703F1FF3900231FFA89F99F
:10A080007367C6E700040040089300202DE9F843F9
:10A090004FF080452B8AB5F80C8018EA030825D0CC
:10A0A000294E4FF00047B8FA88F327FA03F2D2435B
:10A0B00091B21B3B08EA02082982042B13D8DFE87F
:10A0C00003F0322920170300F36C002B34D1EB6A24
:10A0D0001FFA83F9B46C34B1236820464946984787
:10A0E0006468002CF8D1B8F1000FDCD1BDE8F8832A
:10A0F000B06A696B036889B29847B8F1000FD2D192
:10A10000F4E7F06AA96B036889B29847B8F1000FC9
:10A11000C9D1EBE7306BE96B036889B29847B8F1B6
:10A12000000FC0D1E2E7706B296C036889B29847D1
:10A13000B8F1000FB7D1D9E703F1FF3900231FFAB7
:10A1400089F9F364C6E700BF089300202DE9F843BE
:10A150005C4D2B8AB5F80C8018EA030826D05A4EBD
:10A160004FF00047B8FA88F327FA03F2D24391B2CE
:10A170001B3B08EA02082982042B14D8DFE803F00D
:10A180004C433A310300736A002B40F09480EB6A31
:10A190001FFA83F9346A34B1236820464946984748
:10A1A0006468002CF8D1B8F1000FDBD1474D2B8A41
:10A1B000B5F80C8018EA03084BD0434E4FF0004727
:10A1C000B8FA88F327FA03F2D24391B21B3B08EAAC
:10A1D00002082982042B39D8DFE803F05B51473DA0
:10A1E00027003068696B036889B29847B8F1000F9F
:10A1F000B8D1DBE77068A96B036889B29847B8F1FA
:10A20000000FAFD1D2E7B068E96B036889B2984715
:10A21000B8F1000FA6D1C9E7F068296C036889B2CC
:10A220009847B8F1000F9DD1C0E7D6F83C31002B1C
:10A2300039D1EB6A1FFA83F9D6F8384134B1236873
:10A240002046494698476468002CF8D1B8F1000FC1
:10A25000B6D1BDE8F883D6F81801696B036889B2F6
:10A260009847B8F1000FABD1F3E7D6F81C01A96B02
:10A27000036889B29847B8F1000FA1D1E9E7D6F891
:10A280002001E96B036889B29847B8F1000F97D1B4
:10A29000DFE7D6F82401296C036889B29847B8F142
:10A2A000000F8DD1D5E703F1FF3900231FFA89F99B
:10A2B000C6F83C31C0E703F1FF3900231FFA89F9E2
:10A2C000736267E7000001400893002000440140EA
:10A2D0002DE9F8432C4D2B8AB5F80C8018EA0308B9
:10A2E00025D02A4E4FF00047B8FA88F327FA03F238
:10A2F000D24391B21B3B08EA02082982042B13D8EF
:10A30000DFE803F0322920170300736A002B34D1F1
:10A31000EB6A1FFA83F9346A34B123682046494650
:10A3200098476468002CF8D1B8F1000FDCD1BDE883
:10A33000F8833068696B036889B29847B8F1000FF9
:10A34000D2D1F4E77068A96B036889B29847B8F175
:10A35000000FC9D1EBE7B068E96B036889B2984791
:10A36000B8F1000FC0D1E2E7F068296C036889B248
:10A370009847B8F1000FB7D1D9E703F1FF390023AF
:10A380001FFA89F97362C6E70000014008930020B4
:10A39000F0B50668B30AA3F58013512B00F2838051
:10A3A000DFE803F08F929589818129818181818104
:10A3B000818181818181818181818181818181818D
:10A3C000818181818181818181818181818181817D
:10A3D000818181818181818181818181818181816D
:10A3E000818181818C828181818181818181818151
:10A3F00081818181988508254FF4B0774379B6F83B
:10A400000CE0022023FA00F4A0401FFA80FCA80010
:10A410002346441903EB4403384C002963D04CEA2B
:10A420000E0C03F1040E44F8231044F82E20A6F875
:10A430000CC0E319EFF31181502282F31288421904
:10A4400004EBC202D2F810C0BCF1000F03D044F8F4
:10A4500007C013690433421904EBC202576917B1EC
:10A460001F6053690433421904EBC202976917B1A4
:10A470001F6093690433421904EBC202D76917B114
:10A480001F60D36904330027CAB21F6082F31188AA
:10A49000284404EBC004236A03BBB38923F00103FF
:10A4A0001B041B0CB381F0BD0525E827A6E7072593
:10A4B0004FF49C77A2E70425C0279FE700252027BB
:10A4C0009CE70125482799E70225702796E7032591
:10A4D000982793E706254FF488778FE7B38943F0F1
:10A4E0000103B381F0BD2EEA0C0C03F1040EA6F8B3
:10A4F0000CC044F8231044F82E209AE7089300205B
:10A5000010B503687C487D4C0139834282B02468D1
:10A5100089B200F0AF80A0F58060834200F0AA808D
:10A5200000F58040834200F0818000F58060834226
:10A530007CD000F58060834278D018886408B4FB32
:10A54000F2F4013CA4B282B2B3F1804F0AD06C485D
:10A55000834207D000F58060834203D000F580601D
:10A56000834202D122F0700292B26648834200F028
:10A570008F8000F58060834200F0938022F4407267
:10A5800000F56C4092B283421A80D9621C8540F07B
:10A590009180012100221A86998219885A4841F037
:10A5A00001018342198049D0B3F1804F00F08D80C2
:10A5B000534A934200F08B8002F58062934200F090
:10A5C000888002F58062934200F0858002F5806207
:10A5D000934200F0828002F5806293427FD002F5C0
:10A5E000704293427DD002F5705293427BD002F5C7
:10A5F0008062934279D002F58062934277D0A2F5CF
:10A600009832934275D002F58062934215D002F5DC
:10A610008062934208BF0D2210D002A84FF00123A0
:10A6200040F8043D23F0EAFA02B010BD1888B4FBEC
:10A63000F2F4013CA4B282B286E70C22334B03EB66
:10A64000C20201A854798DF80440012300228DF83C
:10A6500005308DF807308DF8062023F0CFFA1B2C3B
:10A660000FD02E2CE0D12A4B019301A823F0C6FA7B
:10A6700002B010BD1888B4FBF2F4013CA4B282B25F
:10A6800070E7244B019301A823F0B8FA02B010BD83
:10A6900001201A80D9621C8598821A8802431A8088
:10A6A00086E701201A80D9621C8598821A880243A5
:10A6B0001A8079E7104A93423FF46BAF01229A82E5
:10A6C0001A8842F001021A806EE70122B6E70222E0
:10A6D000B4E70322B2E70422B0E70522AEE7062280
:10A6E000ACE70722AAE70822A8E70922A6E70A2280
:10A6F000A4E70B22A2E700BF0004014054BF0020E2
:10A7000000040040001000400000014028E304085D
:10A710002C010001190100010B4A0C4B90421B68EF
:10A7200010D0A2F5806290420CD002F58042904297
:10A7300008D002F58062904204D002F58062904217
:10A7400018BF5B08184670470004014054BF002042
:10A750002B4B98423CD0B0F1804F3BD0A3F57C43CB
:10A76000984239D003F58063984237D003F580636F
:10A77000984235D003F58063984233D003F5806367
:10A78000984233D003F57043984231D003F57053AB
:10A79000984229D003F5806398422BD003F580635B
:10A7A000984229D0A3F59833984227D003F58063C7
:10A7B000984207D003F58063984208BF0D2202D06B
:10A7C000002070470C220F4B03EBC203187970472F
:10A7D0000022F8E70122F6E70222F4E70322F2E77B
:10A7E0000422F0E70522EEE70822ECE70622EAE77A
:10A7F0000722E8E70922E6E70A22E4E70B22E2E77C
:10A800000000014028E304082DE9F04F83B08E4D8D
:10A81000DFF8408201908B460BF1FF339B460133FA
:10A8200000F00E8137F038FE884C894FDFF828C2DF
:10A830004FF4FA7A4FF0100E4FF47A76DCF80430C9
:10A84000C3F30803002B40F0DF80EFF31183002BEC
:10A8500040F0DA802168AA6800BF23689942F9D1E4
:10A86000386806FB00F39A1AB2FBF0F206FB0121EE
:10A87000DCF80430C3F30803002B40F0A680EFF3AC
:10A880001183002B40F0A1802368A86800BF2268D4
:10A890009342F9D1D7F8009006FB09F2101AB0FBE9
:10A8A000F9F006FB03035B1AB3F57A7FE0D3BAF144
:10A8B000010AC3D1019B581CC0B237F049FCDFF834
:10A8C00098C1DCF804304FF47A7AC3F30803564693
:10A8D0004FF0100E002B38D1EFF31183002B34D141
:10A8E0002168AA6800BF23689942F9D1386806FB3D
:10A8F00000F39A1AB2FBF0F206FB0121DCF80430F7
:10A90000C3F30803002B41D1EFF31183002B3DD19A
:10A910002368A86800BF22689342F9D1D7F8009055
:10A9200006FB09F2101AB0FBF9F006FB03035B1AF1
:10A93000B3F57A7FE2D3BAF1010A3FF46DAFDCF8E8
:10A940000430C3F30803002BC6D0EFF311828EF35B
:10A950001288A8682B68D90303D50123C8F80030F2
:10A96000A8682368D8F80010D2B282F311883A6838
:10A97000194406FB02F31B1AB3FBF2F306FB013189
:10A98000DCF80430C3F30803002BBDD0EFF31180D3
:10A990008EF31288D5F808902B68DB0304D50123C9
:10A9A000C8F80030D5F808902368D8F80020C0B265
:10A9B00080F311883868134406FB00F2A2EB090209
:10A9C000B2FBF0F206FB0323B1E7EFF311808EF345
:10A9D0001288D5F808902B68DB0304D50123C8F84A
:10A9E0000030D5F808902368D8F80020C0B280F372
:10A9F00011883868134406FB00F2A2EB0902B2FB8F
:10AA0000F0F206FB03234EE7EFF311828EF3128878
:10AA1000A8682B68D90303D50123C8F80030A868BB
:10AA20002368D8F80010D2B282F311883A6819442A
:10AA300006FB02F31B1AB3FBF2F306FB013117E727
:10AA400003B0BDE8F08F00BF10E000E0D49200201A
:10AA5000D8920020D092002000ED00E0204B5B68EF
:10AA6000C3F3080330B4BBB9EFF31183A3B91D4A94
:10AA70001D481368846800BF11688B42F9D11B4AD6
:10AA800011684FF47A7202FB01F0001B30BCB0FB7E
:10AA9000F1F002FB03007047EFF31182102383F300
:10AAA00012881149124D8C680B68DB0344BF0123E7
:10AAB0002B600C4B48BF8C681B682868D2B282F3AD
:10AAC00011880A4A11684FF47A72184402FB01F3A4
:10AAD0001B1B30BCB3FBF1F302FB0030704700BF1F
:10AAE00000ED00E0D492002010E000E0D8920020B9
:10AAF000D09200202DE9F84F0746264E264DFFF74D
:10AB0000ADFF264A2649DFF89CC04FF0100E4FF4E7
:10AB10007A744FF001086B68C3F30803CBB9EFF305
:10AB20001183B3B91368D1F808A000BFD2F8009020
:10AB30004B45F7D1D6F8009004FB09FBABEB0A0AB2
:10AB4000BAFBF9FA04FB03A31B1ABB42E3D3BDE82B
:10AB5000F88FEFF3118A8EF31288D1F808B00B68E2
:10AB6000DB0344BFCCF80080D1F808B01368DCF8F0
:10AB700000905FFA8AFA8AF31188D6F800A04B4455
