:020000040800F2
:10000000F0FF0010A5850408636F01088D02010848
:10001000A9860408A9860408A9860408000000002F
:10002000000000000000000000000000696F0108EF
:10003000676F010800000000656F010875FB00088C
:10004000A9860408A9860408A9860408A9860408C4
:10005000A9860408A9860408B5030108E10401087B
:10006000A5040108690401082D0401085DB3000816
:100070004DB300083DB300082DB3000819B30008C4
:1000800005B30008F1B20008A9860408A98604088F
:10009000A9860408A9860408A9860408F1030108B2
:1000A00009E7000895EC0008A986040819EE000885
:1000B000D5EB000815EB000849EA000885CD0008DB
:1000C0008BCD000879CD00087FCD0008A9860408F3
:1000D000A9860408E1FC0008A986040845FC00087C
:1000E00079030108A9860408F1B8010839E6000877
:1000F000D9E70008A9860408A9E80008DDB20008CD
:10010000A9860408A986040879E90008A9860408D4
:10011000A9860408A9860408796302085D630208B9
:10012000C9B20008B5B20008A1B200088DB200083B
:1001300079B20008A9860408A9860408A9860408DB
:10014000A9860408A9860408A98604082D90010838
:1001500065B2000851B200083DB20008A9FB0008D2
:100160006DCD000873CD0008A9860408A98604088F
:10017000A9860408A9860408A9860408A986040893
:08018000A9860408A986040801
:080188004C810400010000009D
:1001900010020100B42B0020B02B00200000000052
:1001A000E00600080B201000B43B0020B03F002008
:1001B00000000000E20600081F101C003C3B00206D
:1001C000C03F002000000000F20600080502010008
:1001D000943D0020DC3F0020000000000E070008D6
:1001E00003010A00663B0020E03F00200000000001
:1001F000100700082C0010006C4E00205C4E002000
:10020000000000008BE201082B002400A04E00201B
:100210007C4E0020000000005DE20108290064001F
:100220007C4D0020C44E00200000000000000000B3
:1002300004120200E44C0020284F002000000000BF
:100240001C0700080F020100E04C00202C4F00208A
:10025000000000001E07000814000200B048002043
:10026000304F00200000000020070008101002009E
:10027000604C0020344F00200000000022070008DE
:1002800028001000504C0020384F002000000000D3
:1002900089C30108230010009C460020484F00201D
:1002A00000000000A3C3010819000500484C00200D
:1002B000584F00200000000024070008F821060025
:1002C000404C0020604F0020000000002A0700087A
:1002D0000E20EA0076400020684F00200000000059
:1002E00001AB0308130004008C450020545000208B
:1002F000000000003007000801010400FC3F00205E
:100300005850002000000000000000000001040020
:10031000F43F00205C50002000000000340700087B
:1003200002010300EF3F00206050002000000000A9
:100330001D4D0208070202006C670020B467002010
:10034000000000003807000802000C00446700208D
:10035000B8670020000000000000000006020C004A
:1003600038670020C46700200000000029540208FC
:1003700008020900C0660020D067002000000000CD
:10038000994D0208F7010600B4660020DC670020E2
:10039000000000003A0700080A020A000C5600207C
:1003A000E467002000000000400700081D00010075
:1003B000D8580020F0670020000000004A0700081D
:1003C00027000400EC580020F46700200000000023
:1003D0004C07000809020100507F0020C47F002064
:1003E00000000000500700080C106000FA7B00209D
:1003F000C87F0020000000009D4C0208010205009B
:10040000607B0020288000200000000049F10208E5
:1004100000020500FC690020308000200000000080
:10042000000000001E0004004479002038800020F5
:10043000000000005207000822000C004C7E002043
:100440003C80002000000000560700081B00F4005C
:10045000706800204880002000000000D5F50208E8
:100460000E020200AC7D00203C8100200000000054
:10047000620700082F001100787F002040810020D3
:100480000000000064070008051006009E7F0020A1
:10049000548100200000000076070008F5216E005E
:1004A000F86700205C81002000000000F3E80208EB
:1004B00026000E00DC810020CC810020000000001E
:1004C000C9E8020816000800F4810020DC8500203D
:1004D000000000007C070008012008003C9000207C
:1004E0001492002000000000840700081A000A008F
:1004F0001C9000201C920020000000008C070008C7
:1005000003000100709000202892002000000000ED
:10051000000000000312330025870020DE91002038
:10052000000000009607000825005A00CC87002034
:10053000849100200000000000000000F6110C0073
:100540009C9000207891002000000000CC0700085B
:1005500015007000E88500200891002000000000D0
:10056000000000002A0060006C870020A890002096
:100570000000000095AA0308040080003CCC002085
:1005800078D500200000000000000000F901040000
:1005900000C10020F8D5002000000000BDD20008F6
:1005A000FD012400D8C00020FCD500200000000080
:1005B0004DD2000806101600F4B3002020D600200B
:1005C0000000000055AB0308FB01010030B3002020
:1005D00038D60020000000005D4D0208FC01090033
:1005E000FCB100203CD6002000000000654D020850
:1005F0000A101E00C4B1002048D6002000000000F0
:10060000D80700083400100068A8002068D6002031
:1006100000000000BDAA03081102080040A8002045
:1006200078D6002000000000F6070008121204002F
:1006300038A8002080D6002000000000FE07000837
:1006400012200D0024A8002084D600200000000005
:100650000208000811000C00B09C002094D6002075
:1006600000000000E34D0208FF010800109C00207C
:10067000A0D60020000000001157020818202C000E
:10068000B09B0020A8D60020000000008D070208C3
:100690000D003400DC9B0020D4D6002000000000B8
:1006A00045540208020203008892002008D7002067
:1006B00000000000000000000C0201007892002001
:1006C0000CD700200000000010080008FE010900FF
:1006D0003C94002010D7002000000000C54D020807
:1006E00000002B21231E64010100000001000A010B
:1006F00029000000000000000100000005000001CA
:1007000002030000000000000000000000000000E4
:10071000040101006C160000000000001118000028
:10072000030000050000280100000401F401190085
:100730000800040090010000023C240100000000B9
:1007400000004A01B400D6010000000020030000B0
:10075000280000000100C800141E010064002C01E4
:100760002800000000000000000000000000000061
:10077000000000000000200002010000C409000089
:1007800019012828E8036400040A00017E05EA052F
:10079000B40532000000000000000000000000006E
:1007A0000000000000000000000000000000000049
:1007B0000000000000000000000000000000000039
:1007C0000000000000000000010000000000000028
:1007D000000000000000000000300100005A00008E
:1007E0000000000090012C01C8006400020000001D
:1007F0000000000000000000000001010101FFFFF7
:10080000FFFF000000010000054F425344000000BC
:0108100001E6
:10081100010000005001000007000000020000007C
:10082100000000000000000001020304060708099F
:10083100FF0000000403090412010002020200404B
:100841008304405700020102030100000902430032
:10085100020100C032090400000102020100052466
:1008610000100105240100010424020205240600F0
:1008710001070582030800FF09040100020A0000C4
:100881000007050102400000070581024000000049
:10089100FF00000000FFFF0000000000AA55050155
:1008A1000000010000000000010203040102030432
:1008B1000607080927890108258E0108A189010871
:1008C10091520108FD570108A1520108BD520108CA
:1008D1006B5201085D520108000000000000000099
:1008E1002D202D2D202D2D2D2D202D2D2D2D0000B8
:1008F100000000000000000000000000000000AA4D
:10090100550B010000AA5507010000AA5509020074
:100911000000000001000000C012AA5503009F0062
:10092100FF1FFF1F20700020702D7200D6010000F4
:10093100B1D2010800000000000000000100000029
:100941000000000000000000B8150020FFFFFFFFBD
:10095100FA00000001000000010000000001010197
:100961000001000000D7040808D7040828D70408AC
:100971000000000000000000000000000000000076
:10098100BBD1040804000000451803080000000062
:100991000000000030D70408010000000000000042
:1009A1000000000000000000000000000E00000038
:1009B100000000000000000000000000EECC00205C
:1009C1000100C40900000000ECCC00200100C409B2
:1009D10000000000EACC00200100C4090000000072
:1009E100E8CC00200100C40900000000E4CC002094
:1009F1000100C40900000000E6CC00200100C40988
:100A010000000000E2CC00200100C4090000000049
:100A1100E0CC00200100C4090000000010400020CB
:100A21000100C800010000000E40002032003075B6
:100A3100320000000D400020055A05000A40002048
:100A410000FF01000C4000200100000054010020C3
:100A5100084000200200000040A7040809400020CF
:100A610000FF01000B4000200100000054010020A4
:100A7100074000200200000040A7040802400020B7
:100A810080C1803E050000000040002080C1803E02
:100A910005000000FA3F002080C1803E05000000F3
:100AA100F83F002080C1803E05000000F23F002099
:100AB10000FF0100EE3F00200A320100ED3F00205F
:100AC10004000000909B0408EC3F0020020000009D
:100AD100A49B040800000000000000005C0100204D
:100AE1004C3D00209CFF2C0100000000001700205D
:100AF1000A000000B09B0408E0780020E0150C1704
:100B01000000000002170020080000000097040800
:100B110001170020050000008CA70408E2780020DE
:100B210002000000C89B04089A4100200100FF7FD9
:100B3100010000009941002002000000D49B04083C
:100B41006B40002003000000E49B04086A40002081
:100B510003000000E49B0408684100200000F40148
:100B610001000000664100200000F40101000000C6
:100B7100644100200000F4010100000062410020F6
:100B81000000F401010000006041002000FF0100AD
:100B910084410020E803D0070A00000082410020C0
:100BA100006401000A000000774100200064010098
:100BB10076410020006401007E41002000640100B4
:100BC1000A0000007D410020006401000A000000CD
:100BD1007C410020006401000A00000081410020E6
:100BE100006401000A00000080410020006401004F
:100BF1000A0000007F410020006401000A0000009B
:100C01007B41002000FF01000A0000007A41002022
:100C110000FF01000A0000007941002000FF0100EF
:100C21000A000000724000200000F40101000000F1
:100C3100704000200000F401010000006E4000201F
:100C41000000F401010000006C4000200000F401EC
:100C510001000000724100201400E80301000000BF
:100C610070410020E8033075010000006F41002051
:100C710000C801006E41002000C801006D41002044
:100C810000C801006C410020006401000A0000005E
:100C91006B41002000FF01000A0000008F4100208D
:100CA10000C801008E41002000C801008D410020D4
:100CB10000C801008C41002000C801008B410020C8
:100CC10000C801008A41002000C8010089410020BC
:100CD10000C801008841002000C8010087410020B0
:100CE10000C8010060D704080000000000000000F7
:100CF100000000000000000070D704080900000097
:100D010000000000000200200400000078D7040861
:100D11000900000000000000F401002004000000B0
:100D210040DE04080900000000000000E801002086
:100D310004000000DCD004080900000000000000ED
:100D4100DC0100200400000080D704080900000035
:100D510000000000D00100200400000088D7040832
:100D61000900000000000000C40100200400000090
:100D710090D704080900000000000000B80100201D
:100D81000400000098D704080900000000000000DA
:100D9100AC0100200400000030D70408010000006D
:100DA1000000000000000000000000000000000042
:100DB1000E00000000000000000000000000000024
:100DC10038D9040800000000000000000000000005
:100DD100000000006C0E0508070000000000000084
:100DE100240200200000000048D904080800000087
:100DF10000000000180200200000000054D904087F
:100E010008000000000000000C02002000000000AB
:100E110030D70408010000000000000000000000BD
:100E210000000000000000000E00000000000000B3
:100E310000000000000000005CD904080000000070
:100E41000000000000000000000000006CD9040850
:100E51000D00000000000000600200200000000002
:100E610074D904080D0000000000000054020020A5
:100E7100000000007CD90408070000000000000009
:100E81004C0200200000000084D904080D0000007D
:100E91000000000040020020000000008CD904087E
:100EA1000D000000000000003402002000000000DE
:100EB10094D9040807000000000000002C02002063
:100EC1000000000030D7040801000000000000000D
:100ED1000000000000000000000000000E00000003
:100EE1000000000000000000000000009CD9040880
:100EF10000000000000000000000000000000000F1
:100F01006C0E05080C0000000000000012400020DB
:100F110000000000B0D904080C000000000000002F
:100F21001440002000000000C0D904080C0000009B
:100F3100000000004A40002000000000D0D9040851
:100F41000C000000000000003E40002000000000F6
:100F5100E4D904080C000000000000001640002045
:100F610000000000F0D904080C000000000000009F
:100F71001840002000000000F8D904080C0000000F
:100F8100000000001A400020000000000CDA0408F4
:100F91000C000000000000001C40002000000000C8
:100FA10014DA04080C000000000000001E400020BC
:100FB100000000001CDA04080C0000000000000022
:100FC1005C4000200000000034DA04080C0000003E
:100FD10000000000204000200000000040DA04086A
:100FE1000C00000000000000224000200000000072
:100FF10048DA04080C000000000000002440002032
:101001000000000054DA04080C0000000000000099
:10101100264000200000000060DA04080C000000F7
:101021000000000028400020000000006CDA0408E5
:101031000C000000000000002A4000200000000019
:1010410078DA04080C000000000000002C400020A9
:101051000000000084DA04080C0000000000000019
:101061002E4000200000000090DA04080C0000006F
:1010710000000000424000200000000098DA04084F
:101081000C000000000000004040002000000000B3
:10109100A0DA04080C000000000000004E4000200F
:1010A10000000000ACDA04080C00000000000000A1
:1010B1005040002000000000B8DA04080C000000D5
:1010C1000000000056400020000000003CD8040849
:1010D1000C00000000000000304000200000000073
:1010E100C4DA04080C0000000000000038400020B1
:1010F10000000000CCDA04080C0000000000000031
:101101003240002000000000D8DA04080C00000082
:10111100000000003440002000000000E4DA040870
:101121000C0000000000000036400020000000001C
:10113100ECDA04080C000000000000003A40002036
:1011410000000000F8DA04080C00000000000000B4
:10115100444000200000000000DB04080C000000F7
:10116100000000003C400020000000000CDB0408EF
:101171000C000000000000004C40002000000000B6
:1011810018DB04080C0000000000000046400020AD
:101191000000000020DB04080C000000000000003B
:1011A100484000200000000028DB04080C0000007B
:1011B10000000000524000200000000030DB040865
:1011C1000C0000000000000054400020000000005E
:1011D10030D70408010000000000000000000000FA
:1011E10000000000000000000E00000000000000F0
:1011F100000000000000000038DB040800000000CF
:1012010000000000000000000000000044DB0408B2
:101211000D00000000000000B802002000000000E6
:101221004CDB04080D00000000000000AC020020AF
:101231000000000054DB040807000000000000006B
:10124100A40200200000000060DB04080700000089
:10125100000000009C020020000000006CDB04087C
:1012610009000000000000009002002000000000C2
:1012710078DB04080900000000000000840200205F
:101281000000000084DB04080900000000000000E9
:10129100780200200000000094DB0408090000002F
:1012A100000000006C0200200000000030D704089C
:1012B100010000000000000000000000000000002C
:1012C100000000000E00000000000000000000000F
:1012D10000000000A8DB040800000000000000007E
:1012E1000000000000000000B8DB04080500000059
:1012F10000000000694000200000000030D7040811
:1013010001000000000000000000000000000000DB
:10131100000000000E0000000000000000000000BE
:1013210000000000C0DB0408000000000000000015
:10133100000000000000000034E904080000000083
:1013410000000000D000002004000000CCDB0408F5
:101351000D000000A91803080C0300200000000084
:1013610098E704080D000000F9F4020800030020CA
:101371000000000058DA04080D000000DDF4020846
:10138100F402002000000000D0DB04080800000087
:1013910000000000E802002004000000C4DA040894
:1013A1000D00000025F40208DC020020000000000E
:1013B100D8DB04080900000000000000D002002072
:1013C1000400000080DB0408030000001DE901089F
:1013D100C40200200000000030D704080100000012
:1013E10000000000000000000000000000000000FC
:1013F1000E000000000000000000000000000000DE
:10140100E0DB040800000000000000000000000014
:1014110000000000F0DB04080D00000000000000E7
:101421002403002000000000F8DB04080A0000008B
:1014310000000000904500200000000004DC0408CA
:101441000A00000000000000984500200000000094
:101451000CDC04080A00000000000000A045002088
:101461000000000014DC0408080000000000000077
:10147100180300200000000030D70408010000001C
:10148100000000000000000000000000000000005B
:101491000E0000000000000000000000000000003D
:1014A1001CDC040800000000000000000000000037
:1014B1000000000030DC04080D0000000000000006
:1014C1003C0300200000000040DC04080400000090
:1014D10009E60108000000000000000048DC0408E3
:1014E1000D0000000000000030030020000000009B
:1014F1005CDC040804000000E5E5010800000000D0
:101501000000000030D704080100000000000000C6
:101511000000000000000000000000000E000000BC
:1015210000000000000000000000000064DC04086E
:1015310000000000000000000000000000000000AA
:1015410078DC040807000000000000007803002098
:101551000000000084DC0408080000000000000016
:101561006C0300200000000090DC0408080000006B
:101571000000000060030020000000009CDC040863
:1015810008000000000000005403002000000000DB
:10159100A8DC040808000000000000004803002047
:1015A1000000000030D70408010000000000000026
:1015B1000000000000000000000000000E0000001C
:1015C100000000000000000000000000B4DC04087E
:1015D10000000000000000001701002000000000D2
:1015E100C0DC04080B00000000000000080400201B
:1015F10000000000CCDC04080B000000000000002B
:10160100FC03002000000000D8DC04080B000000EF
:1016110000000000F003002000000000E4DC0408EA
:101621000B00000000000000E403002000000000A7
:10163100F0DC04080B00000000000000D8030020CB
:1016410000000000FCDC04080B00000000000000AA
:10165100CC0300200000000008DD04080B0000009E
:1016610000000000C00300200000000014DD040899
:101671000B00000000000000B40300200000000087
:1016810020DD04080B00000000000000A80300207A
:10169100000000002CDD040807000000000000002D
:1016A100A00300200000000034DD04080700000052
:1016B10000000000980300200000000040DD040845
:1016C1000B000000000000008C030020000000005F
:1016D1004CDD040808000000000000008003002029
:1016E1000000000030D704080100000000000000E5
:1016F1000000000000000000000000000E000000DB
:1017010000000000000000000000000058DD040897
:1017110000000000000000000000000000000000C8
:101721006CDD0408080000000000000038040020FF
:101731000000000078DD040808000000000000003F
:101741002C0400200000000084DD040808000000D3
:1017510000000000200400200000000090DD0408CB
:101761000800000000000000140400200000000038
:1017710030D7040801000000000000000000000054
:1017810000000000000000000E000000000000004A
:10179100000000000000000098DD040800000000C7
:1017A100000000001401002000000000A8DD040872
:1017B1000B00000000000000800400200000000079
:1017C100B4DD04080B0000000000000074040020D8
:1017D10000000000C0DD0408070000000000000058
:1017E1006C04002000000000CCDD040807000000AC
:1017F100000000006404002000000000D8DD04089F
:1018010007000000000000005C0400200000000050
:10181100E4DD04080800000000000000500400207E
:1018210000000000ECDD04080800000000000000DA
:10183100440400200000000030D70408010000002B
:101841000000000000000000000000000000000097
:101851000E00000000000000000000000000000079
:10186100F4DD040800000000000000001401002065
:101871000000000000DE0408070000000000000076
:10188100CC0400200000000008DE0408070000006E
:1018910000000000C40400200000000010DE040865
:1018A1000700000000000000BC0400200000000050
:1018B100A4D004080700000000000000B4040020C8
:1018C10000000000ACD00408070000000000000088
:1018D100AC04002000000000B4D0040807000000A0
:1018E10000000000A40400200000000018DE04082D
:1018F10007000000000000009C0400200000000020
:1019010020DE04080700000000000000940400200D
:101911000000000028DE04080700000000000000AD
:101921008C0400200000000030D7040801000000F2
:1019310000000000000000000000000000000000A6
:101941000E00000000000000000000000000000088
:1019510000000000C9BF0108D40400206740002036
:1019610024000000F49B04086640002000C8010028
:1019710064400020E803D007010000004F4D4E49AC
:1019810042555346345344000640002000030100F1
:10199100054000200003010015BF0108F1BE010848
:1019A100B0050020B5BE010871BE0108280600205F
:1019B10051BF010839BF0108DC06002009BE01083A
:1019C100D9BD0108E8090020DFBF0108B5E501081C
:1019D100C40A002065F4020800000000140B002076
:1019E1000DE7010845C20108F00B002005C0010800
:1019F10000000000900C0020A9C0010879C0010876
:101A01001C0D002035C1010879C10108BC0D002061
:101A1100744100200106010045C0010819C00108F8
:101A2100FC0E0020D9C001082DE60108880F002016
:101A3100A5C1010889E60108501000206A41002073
:101A41000103010030DE0408000000000000000076
:101A510000000000000000003CDE04080800000057
:101A610000000000601100200000000044DE0408B6
:101A710007000000000000005811002000000000D5
:101A810054DE04080D000000000000004C1100208D
:101A91000000000060DE0408030000001DE90108E9
:101AA100401100200000000030D7040801000000B0
:101AB1000000000000000000000000000000000025
:101AC1000E00000000000000000000000000000007
:101AD10068DE0408000000000000000000000000B3
:101AE1000000000078DE04080A0000000000000089
:101AF10080DE04080000000088DE04080A000000FF
:101B01000000000028D204080000000090DE040854
:101B11000A000000000000009041002000000000C9
:101B210098DE04080A000000000000006C1100208B
:101B31000000000030D70408010000000000000090
:101B41000000000000000000000000000E00000086
:101B5100000000000000000000000000A0DE0408FA
:101B61000000000000000000000000000000000074
:101B7100ACDE0408030000001DE90108A0110020EB
:101B810000000000B8DE0408030000001DE90108A0
:101B91009411002000000000C0DE040803000000D2
:101BA1001DE901088811002000000000C8DE0408BA
:101BB10005000000000000000440002000000000BB
:101BC100D0DE0408070000000000000080110020A2
:101BD10000000000DCDE0408070000000000000037
:101BE100781100200000000030D704080100000037
:101BF10000000000000000000000000000000000E4
:101C01000E000000000000000000000000000000C5
:101C1100E8DE0408000000000000000000000000F1
:101C210000000000FCDE0408030000001DE90108BB
:101C3100D01100200000000008DF040803000000AC
:101C41001DE90108041700200000000010DF04084E
:101C5100030000001DE90108C4110020000000007C
:101C610018DF0408030000001DE90108B811002075
:101C710000000000C4DA0408030000001DE90108A7
:101C8100AC1100200000000030D704080100000062
:101C91000000000000000000000000000000000043
:101CA1000E00000000000000000000000000000025
:101CB10024DF040800000000000000000000000014
:101CC1000000000030DF040807000000D5E601082D
:101CD1002C12002000000000E8DA040803000000D4
:101CE1001DE9010820120020000000003CDF04086B
:101CF100030000001DE9010814120020000000008B
:101D010044DF0408030000001DE901080812002057
:101D1100000000004CDF040807000000B9E60108DC
:101D2100001200200000000038D004080300000069
:101D31001DE90108F41100200000000058DF04082B
:101D4100030000001DE90108E81100200000000067
:101D510064DF0408030000001DE90108DC11002014
:101D61000000000030D7040801000000000000005E
:101D71000000000000000000000000000E00000054
:101D810000000000000000000000000099BF0108F1
:101D910069BF01083412002011C2010800000000CF
:101DA100C012002055BE010839BE01084C130020A5
:101DB100000000000000000000140020E9C101083B
:101DC100F1E60108A014002070DF04080000000003
:101DD1000000000000000000000000007CDF04089B
:101DE100030000001DE90108AC15002000000000FF
:101DF10084DF0408030000001DE90108A01500208C
:101E01000000000090DF0408030000001DE9010844
:101E1100941500200000000094DF04080300000076
:101E21001DE901088815002000000000A0DF04085A
:101E3100030000001DE901087C15002000000000DE
:101E4100A8DF0408020000009DE90108000000006D
:101E510000000000B0DF0408020000009DE9010855
:101E61000100000000000000BCDF040802000000C7
:101E71009DE90108020000000000000000000000D0
:101E81000E00000000000000000000000000000043
:101E910000000000A467002008000000000000000E
:101EA10094670020080000000000803F000000004F
:101EB10000000000000000000000803F96000000CC
:101EC1000000803FD4A004080508040000000000C1
:101ED1008CA704080097040878A7040800000000F4
:101EE1000000000000A1040805080A00000000002D
:101EF1008CA7040800970408B09B040800000000A8
:101F01000000000000000100E0010000FFFFFFFFF2
:101F11000101010015F502080000000078180020F9
:101F2100ECE70408000000000000000000000000D1
:101F31000000000034E90408000000000000000077
:101F4100842200200400000098E704080D0000002E
:101F51008DE501086C2200200000000058DA040819
:101F61000D00000065E5010860220020000000006E
:101F7100D0DB04080800000000000000542200200B
:101F810004000000C4DA04080D000000B5BD01081A
:101F9100482200200000000080DB0408030000004C
:101FA1001DE901083C22002000000000FCE70408B4
:101FB100030000001DE9010830220020000000009C
:101FC10030D70408010000000000000000000000FC
:101FD10000000000000000000E00000000000000F2
:101FE1000000000000000000ECE704080000000011
:101FF10000000000000000000000000034E90408B7
:102001000000000000000000842200200400000005
:1020110040E704080300000019F702082422002009
:1020210008000000C4DA04080D000000B5BD010875
:10203100482200200000000080DB040803000000AB
:102041001DE901083C22002000000000FCE7040813
:10205100030000001DE901083022002000000000FB
:1020610030D704080100000000000000000000005B
:1020710000000000000000000E0000000000000051
:10208100000000000000000004E804080000000057
:1020910000000000000000000000000034E9040816
:1020A1000000000000000000842200200400000065
:1020B10048E70408030000001DE901087822002018
:1020C1000000000030D704080100000000000000FB
:1020D1000000000000000000000000000E000000F1
:1020E10000000000000000000000000001080000E6
:1020F100425702000000010642570200000001069B
:10210100C0E904080000000000000000314D020891
:10211100A086010004000000000000000000000093
:1021210000000000000000000000000000000000AE
:1021310000000000E8DA0408B4D704080000000039
:10214100D57D02087D0000000600000000000000AF
:10215100000000000000000000000000000000007E
:102161000000000000000000B0E3040800000000CF
:10217100000000001D100108E8030000030000003A
:10218100000000000000000000000000000000004E
:102191000000000000000000000000002CD904082D
:1021A1000000000000000000E9AF03081027000054
:1021B100030000000000000000000000000000001B
:1021C100000000000000000000000000000000000E
:1021D1001CE8040800000000CDDF0108892801087F
:1021E100204E00000500000000000000000000007B
:1021F10000000000000000000000000000000000DE
:102201000000000030100508000000000000000080
:10221100511A010810270000010000000000000011
:1022210000000000000000000000000000000000AD
:102231000000000000000000C8E9040800000000E0
:1022410000000000D5CE0008E803000005000000F2
:10225100000000000000000000000000000000007D
:10226100000000000000000000000000D4E90408A4
:10227100000000000000000011680208204E00006C
:10228100030000000000000000000000000000004A
:10229100000000000000000000000000000000003D
:1022A100E4E904080000000000000000E9650208FC
:1022B100204E0000030000000000000000000000AC
:1022C100000000000000000000000000000000000D
:1022D10000000000F4E90408000000000000000014
:1022E100C9D60008400D03000300000000000000F3
:1022F10000000000000000000000000000000000DD
:102301000000000000000000BCE104080000000023
:1023110000000000E5D502081027000001000000C0
:1023210000000000000000000000000000000000AC
:1023310000000000000000000000000018E8040890
:1023410000000000000000004D2D030810270000D0
:102351000300000000000000000000000000000079
:10236100000000000000000000000000000000006C
:1023710004EA04080000000000000000DD32020849
:10238100A086010001000000000000000000000024
:10239100000000000000000000000000000000003C
:1023A100000000005CE104080000000000000000E3
:1023B100E188030850C30000010000000000000094
:1023C100000000000000000000000000000000000C
:1023D1000000000000000000B4D804080000000064
:1023E10000000000B9E802087011010001000000BE
:1023F10000000000000000000000000000000000DC
:102401000000000000000000000000003CD80408AB
:10241100000000000000000069810308A8610000BD
:1024210001000000000000000000000000000000AA
:10243100000000000000000000000000000000009B
:102441000CEA040800000000000000007D420308BF
:10245100A086010001000000000000000000000053
:10246100000000000000000000000000000000006B
:102471000000000000E2040800000000000000006D
:102481008D660308A00F000001000000000000009D
:10249100000000000000000000000000000000003B
:1024A100000000000000000018EA0408000000001D
:1024B1000000000035F802081027000001000000AC
:1024C100000000000000000000000000000000000B
:1024D10000000000000000000000000024EA0408E1
:1024E100000000000000000039570208A00F0000A2
:1024F10001000000000000000000000000000000DA
:1025010000000000000000000000000000000000CA
:1025110090DF04080000000000000000D54D030812
:102521001A4100000100000000000000000000004E
:10253100000000000000000000000000000000009A
:1025410000000000FCD704080000000000000000AB
:10255100CD5A010810270000010000000000000012
:10256100000000000000000000000000000000006A
:10257100000000000000000088E9040800000000DD
:102581000000000031EB01081A41000001000000C9
:10259100000000000000000000000000000000003A
:1025A10000000000000000000000000030EA040804
:1025B1000000000000000000D9A60108400D030042
:1025C100000000000000000000000000000000000A
:1025D10000000000000000000000000000000000FA
:1025E10038EA04080000000000000000215503083B
:1025F100400D03000000000000000000000000008A
:1026010000000000000000000000000000000000C9
:102611000000000040EA0408000000000000000083
:1026210069330308A08601000300000000000000D8
:102631000000000000000000000000000000000099
:1026410000000000000000004CEA04080000000047
:1026510000000000B565020840420F0000000000C4
:102661000000000000000000000000000000000069
:1026710000000000000000000000000058EA04080B
:1026810000000000000000000DD8020850C3000047
:102691000000000000000000000000000000000039
:1026A1000000000000000000000000000000000029
:1026B100FFFF0100FFFFFFFFE678002088136F177F
:1026C10001000000E878002088136F170000000067
:1026D1009CE604080000000000000000000000006B
:1026E10000000000ACE60408080000000000000043
:1026F100B41E002004000000B8E604080800000031
:1027010000000000A81E00200000000080DB04087B
:1027110004000000D11803080000000000000000C0
:1027210030D7040801000000000000000000000094
:1027310000000000000000000E000000000000008A
:102741000000000000000000E478002088136F17EB
:1027510001000000883D002088136F170000000071
:102761007DF5020800000000C01E00205A7C0020F8
:10277100010000004CA704088A3D00200100000070
:1027810058A70408803D00200200000060A704084B
:1027910036CD0020000000000000000034CD0020F4
:1027A100000000000000000032CD00200000000009
:1027B1000000000030CD00200000000000000000FB
:1027C1002ECD002000000000000000002CCD0020D4
:1027D10000000000000000000801002000000000CF
:1027E10000000000E3780020020000006CA704084C
:1027F100F8E60408000000000000000000000000EE
:1028010000000000ACE60408080000000000000021
:10281100441F002004000000B8E60408080000007E
:1028210000000000381F00200000000080DB0408C9
:10283100040000004DF50208000000000000000047
:1028410030D7040801000000000000000000000073
:1028510000000000000000000E0000000000000069
:10286100000000000000000008E70408000000006C
:1028710000000000000000000000000018E704084C
:102881000D0000000DE50108741F00200400000088
:1028910024E704080D000000B5E40108681F0020CA
:1028A1000400000030E704080D000000D9E401082D
:1028B1005C1F0020000000003CE70408030000004A
:1028C10039F70208501F00200800000048E70408FB
:1028D100030000001DE9010878220020000000002B
:1028E10030D70408010000000000000000000000D3
:1028F10000000000000000000E00000000000000C9
:10290100000000000000000028D7040800000000BB
:1029110000000000000000000000000050E7040873
:1029210004000000E9180308000000000000000096
:1029310030D7040801000000000000000000000082
:1029410000000000000000000E0000000000000078
:102951000000000000000000A0E7040800000000E3
:102961000000000000000000000000001411050834
:102971000D00000000000000D41F00200400000032
:10298100B0E704080800000000000000C81F002094
:1029910004000000BCE7040808000000000000007B
:1029A100BC1F002004000000C4E704080800000068
:1029B10000000000B01F002004000000CCE7040864
:1029C1000800000000000000A41F00200400000017
:1029D100D4E704080800000000000000981F002050
:1029E10004000000DCE7040808000000000000000B
:1029F1008C1F002004000000E4E704080800000028
:102A010000000000801F00200400000030D70408EF
:102A110001000000000000000000000000000000B4
:102A2100000000000E000000000000000000000097
:102A31000000000065F5020800000000E01F002012
:102A410000000000000000005820002000000000ED
:102A510000000000F8200020863D00200400000056
:102A610078A70408843D0020E0150C170000000041
:102A7100833D00200800000000970408823D0020EB
:102A8100050000008CA70408000000000000000001
:102A9100482100202D202D2D202D2D2D2D202D2DB7
:102AA1002D000000000000000000000000000000F8
:102AB10000000000010102FFFF000000685E0C0041
:102AC100FFFFFFFF0000803F00000000000000004A
:102AD100000000000000803F000000000000000036
:102AE10000000000000000000000000000000000E5
:102AF1000000000000000000000000000000803F16
:102B0100000000000000000000000000FFFFFFFFC8
:102B110001000000080000006F570108DB560108A2
:102B21008164010800000000395201089155010833
:102B310073560108FF540108000000000000000066
:102B41002D5201085D5001085B50010859500108E0
:102B510053500108515001085750010855500108C0
:102B61006D5001085F5001080562010819620108F2
:102B7100F1610108DD610108C761010800600240DF
:102B8100106002400000000000000000000B000087
:102B91000000000000000000000000000060024092
:102BA100286002400100000000000000060C000047
:102BB1000000000000000000000000000060024072
:102BC100406002400200000000000000100D000003
:102BD1000000000000000000000000000060024052
:102BE100586002400300000000000000160E0000C3
:102BF1000000000000000000000000000060024032
:102C0100706002400400000000000000200F00007E
:102C11000000000000000000000000000060024011
:102C2100886002400500000000000000261000003E
:102C310000000000000000000000000000600240F1
:102C4100A0600240060000000000000030110000FA
:102C510000000000000000000000000000600240D1
:102C6100B86002400700000000000000362F00009D
:102C710000000000000000000000000000640240AD
:102C81001064024000000000000000000038000055
:102C9100000000000000000000000000006402408D
:102CA1002864024001000000000000000639000015
:102CB100000000000000000000000000006402406D
:102CC100406402400200000000000000103A0000D1
:102CD100000000000000000000000000006402404D
:102CE100586402400300000000000000163B000091
:102CF100000000000000000000000000006402402D
:102D0100706402400400000000000000203C00004C
:102D1100000000000000000000000000006402400C
:102D21008864024005000000000000002644000005
:102D310000000000000000000000000000640240EC
:102D4100A0640240060000000000000030450000C1
:102D510000000000000000000000000000640240CC
:102D6100B864024007000000000000003646000081
:102D71000000000000000000000000000100000051
:102D81000000803F782500200000000000000000C6
:102D91000000000000000000000000000000000032
:102DA1000000000000000000000000000000000022
:102DB1000000000000000000000000000000000012
:102DC1000000000000000000000000000000000002
:102DD10000000000000000000000000000000000F2
:102DE100000000000000000043000000000000009F
:102DF10000000000000000000000000000000000D2
:102E0100000000000000000043000000000000007E
:102E110000000000000000000000000000000000B1
:102E2100000000000000000043000000000000005E
:102E31000000000000000000000000000000000091
:102E4100000000000000000043000000000000003E
:102E51000000000000000000000000000000000071
:102E6100000000000000000043000000000000001E
:102E71000000000000000000000000000000000051
:102E810000000000000000004300000000000000FE
:102E91000000000000000000000000000000000031
:102EA10000000000000000004300000000000000DE
:102EB1000000000000000000000000000000000011
:102EC10000000000000000007B8A0408578A040803
:102ED1000000000076180508B7D104085AEB040871
:102EE1005AEB04085AEB04085AEB04085AEB04089D
:102EF1005AEB04085AEB04085AEB04085AEB04088D
:102F0100FFFFFFFFFFFFFFFFFFFFFFFFFFFF0000CE
:102F11000100415343494900000000000000000046
:102F210000000000000000000000000000000000A0
:102F31000000415343494900000000000000000027
:102F41000000000000000000000000000000000080
:042F5100000000007C
:108000000378407840EA032010FB01F04FF48071C0
:1080100090FBF1F000F30F0000B270476D4B2DE9BB
:10802000F04F1C686C4BB3F80AE0B3F804809A89EF
:108030004FEA0E2AB4EB0A044FEA1E6B4FF000051C
:1080400087B065EB0B05CDE900450746009C188914
:10805000019EA0FB044500FB0655E00940EA45608F
:108060004FEA08448C46E9114FEA184510EB040822
:10807000D888009C41EB0509CDE90489A0FB0445A3
:10808000B3F8028000FB0655200A40EA05604FEA7B
:10809000C83429124FEA584510EB040841EB050992
:1080A0000099A2FB010102FB06114FEAD05A4AEAED
:1080B000412A1AF5FA634FEAE15B4BF10004B3F58C
:1080C000FA6FCDE9023474F10003424E64DA0524FC
:1080D000AAFB040104FB0B1100FB0BF40AFB014497
:1080E000DDE90423A0FB0A0121444D104FEA3004CE
:1080F000121B4FEA900463EB050344EA8174B8EB6A
:108100000408CDE90423DDE9023434484FEAA1052F
:1081100069EB05094FF0FF31834274EB010326DA66
:1081200040F6AC501AEB00024FF000014BEB01039C
:1081300002FB03F1A2FB022303EB4103D400DD00A9
:10814000101B45EA527563EB0501DDE9044524186F
:108150004D41CDE904450B24A2FB040104FB0311AE
:1081600049104FEA3000B8EB000869EB0109DDE97E
:1081700000325343009ADDE90201A2FB02AB0BEB94
:10818000430B4FEADA7242EA4B02801A4FEAEB7372
:1081900061EB0301CDE9020197B17168A1FB0823EE
:1081A00001FB0933540D5D1544EAC324DDE90423C2
:1081B000A21A65EB03031D46D30B43EA45433B601C
:1081C000BCF1000F02D0029BCCF8003007B0BDE834
:1081D000F08F00BF48270020B04C002024FAFFFF9A
:1081E0002DE9F04FDFF8DCC1754CDCF8085022882F
:1081F000B4F90AA0C2EB25135200C2EBE502B4F9B0
:1082000002505B436A43B4F904501B135D43AD1342
:1082100005EBE225B5F5FA324FEAE57B85B04BF187
:10822000FF33CDE90023DDE900325343009AA56115
:10823000A2FB0289CDE90201B4F908200199009856
:1082400009EB43095143D31700FB0311A2FB0023A1
:108250000B444FEAEA7B0AFB09F11F0308FB0B13EF
:10826000AAFB080119444FEA102A4AEA016A1603D8
:108270004FEA212B47EA12571AEB0602E6884BEB2E
:10828000070312F1000A43F5004BAAFB060106FBA7
:108290000B114A10CB1752EA030100F08E80B4F99B
:1082A0001060009806FB09F1F71708FB0711A6FB01
:1082B00008673944B4F90E808B4601994FEAE87992
:1082C00008FB01F100FB0911A8FB00898944DCF8D7
:1082D0000C104FEA4947C1F5801C47EAD837B2462F
:1082E0004FEA4846B4F90C801AEB060A66464BEB97
:1082F000070BF7174FEAC806019600260096F90704
:10830000DDE900674FEACC7016EB0A0647EB0B0776
:1083100041EA5C01801B61EB070140F6354C894660
:10832000A0FB0C010CFB09113FF070FFB4F9162003
:10833000B4F914A04E13470B47EAC14702FB06FCF1
:10834000D31707FB03CCA2FB07236344564307FB69
:108350000366A2FB07233344560E46EAC3163218BF
:108360004FEA636747EB010380460AFB01F14FEADE
:10837000EA7B08FB0B17AAFB08013944C60C46EA46
:10838000413612EB06084FEAE147B4F9122043EBFD
:1083900007094FEA182141EA096113010B44029AC7
:1083A0000AB11B0A1360039B23B105EB85058035D9
:1083B0002D121D6005B0BDE8F08F0023EFE700BF70
:1083C000C44C002048270020704770472DE9F04139
:1083D000334B344E1A8A7489B6F91450B6F90480B6
:1083E000B6F90E70B6F920C05B69121B348954438C
:1083F000E213B6F912401544E40294FBF5F4B6F921
:1084000002501444A4F57A6E0EFB0EF20EFB05F535
:108410000EFB08FEB6F90C80F4611213574302FB01
:1084200008F2121402EB6E32ED1205EBE72702326E
:10843000B6F90050B6F806E0921002F5004207EBDC
:1084400085070EFB02F207FA0CF74FEAD23E02371D
:108450004CF25032A3EBA70742FA0CF37B4355BF13
:108460005B00B3FBFEF3B3FBFEF35B0078B11A12C3
:1084700002FB02F540F6DE326A430B4D12145D43F7
:1084800002EB254202F6CF6203EB2213036021B117
:108490000A235C43083424110C60BDE8F08100BF5E
:1084A000482700208C4C002043E3FFFF4FF400637B
:1084B000838270474FF40063838270474FF40063F8
:1084C00083827047012380F8483070470122482199
:1084D00008F006BA0122582108F002BA3122F4212C
:1084E00008F0FEB9044B93F820209201343202F0D8
:1084F000FC02F42108F0F4B98C4C00202E22F42167
:1085000008F0EEB9F0B4037C456902681F2B37D937
:10851000203B2021546899400C4223D010249C40D9
:10852000D160D4605168D940CE074ED4EFF31183A7
:10853000502282F31288AA6B1168C90709D45468C3
:10854000002C52D1D5E909618E4243D1012285F830
:108550005C20DBB283F31188037C02681F2B194671
:1085600014D9203B082150689940084200D0D160BE
:108570000421506801FA03F3184223D1F0BC70477C
:10858000202416689C4026420FD119460823106803
:108590008B40184200D093600423106803FA01F165
:1085A0000842EBD09160F0BC704710219940946074
:1085B00091601168D940CC07B8D5012101FA03F3C5
:1085C0009360B3E7D360F0BC7047012101FA03F375
:1085D000D360ABE7AF690F44D7600ED82E69711A2C
:1085E0005160AC62002185F85C10116841F0010116
:1085F000DBB2116083F31188AEE7711A5160AE628D
:10860000F0E770B4037C01681F2B26D9A3F1200585
:1086100020224C68AA40224214BF01220022D2B17B
:1086200042691C481C4C02EB420200EB42122578C6
:1086300054682068CDB9E56856892C6824F0010497
:108640002C6082891F2B22EA060282811AD82022FE
:1086500002FA03F38B6070BC704720220C689A40CA
:10866000224214BF01220022D9E7A469226822F025
:1086700001022260828922F480721204120C1F2BE4
:108680008281E4D9A3F1200220239340CB6070BC07
:10869000704700BF1CB4002018B40020844B1A7827
:1086A000002A00F00481834B1978834B30B40029F1
:1086B00065D11868B3F82C5141628489012A44EAD3
:1086C00005048481A3F82C1157D0D3F83001B3F8F6
:1086D0005C5241628489022A44EA05048481A3F839
:1086E0005C124AD0D3F86002B3F88C53416284899B
:1086F000032A44EA05048481A3F88C133DD0D3F8FF
:108700009003B3F8BC5441628489042A44EA050406
:108710008481A3F8BC1430D0D3F8C004B3F8EC556E
:1087200041628489052A44EA05048481A3F8EC1592
:1087300023D0D3F8F005B3F81C5741628489062A88
:1087400044EA05048481A3F81C1716D0D3F8200747
:10875000B3F84C5841628489072A44EA05048481AD
:10876000A3F84C1809D0D3F85028B3F87C495162CB
:10877000908920439081A3F87C1930BC70475C68D5
:10878000198961602568186845F0010540F20D31CE
:108790002560A0F848108489012A44F480748481FB
:1087A000EBD0D3F83441B3F83851D3F830016560D9
:1087B000256845F001052560A0F848108489022A43
:1087C00044F480748481D8D0D3F86442B3F86852FA
:1087D000D3F860026560256845F001052560A0F8C2
:1087E00048108489032A44F480748481C5D0D3F866
:1087F0009443B3F89853D3F890036560256845F027
:1088000001052560A0F848108489042A44F4807486
:108810008481B2D0D3F8C444B3F8C854D3F8C004A8
:108820006560256845F001052560A0F84810848939
:10883000052A44F4807484819FD0D3F8F445B3F8BA
:10884000F855D3F8F0056560256845F00105256009
:10885000A0F848108489062A44F4807484818CD05E
:10886000D3F82447B3F82857D3F820076560256864
:1088700045F001052560A0F848108489072A44F4D2
:10888000807484813FF479AFD3F85428B3F8580842
:10889000D3F850385060106840F001001060A3F821
:1088A00048109A8942F480729A8130BC70477047B0
:1088B0001CB7002018B4002020B7002010B4037C9F
:1088C00002681F2B09D9203B2021546801FA03F3C9
:1088D0001C4214D15DF8044B70472021146801FA42
:1088E00003F31C42F6D00C49406800240C70016868
:1088F0005DF8044B21F00101016093607047064967
:10890000406800240C7001685DF8044B21F00101FF
:108910000160D360704700BF1E6C00202DE9F0415C
:10892000C40023189B00B749CA585268958AADB253
:10893000EFB2FE070B4461D4BE0737D5BFF35F8F9C
:108940001D7EEDB2012D00F0BB80AF4E138BBFF347
:108950005F8F231801EB83031D7E022D00F0CE8074
:10896000231801EB83031D7E032D05D19B7E1BB1D4
:10897000737E002B40F01A81938896F918C043F457
:1089800080639380231801EB83031B7E01336345CF
:108990000AD1B37E00257576002B40F08A802044F2
:1089A00001EB800000234375BDE8F081964E17F07F
:1089B000040F96F918C04DD117F0400700F0B280AF
:1089C000178A1D6AFFB205F80C705FFA8CF56F1CF0
:1089D00093F818E07BB2DF1CBE4533769C4600F06E
:1089E0000981271801EB87073F7EBB42CAD105F1F9
:1089F000020C4FFA8CFC86F818C0C3E71588824E2B
:108A000025F400652D042D0C1580158845F480652E
:108A100015809D7E00273776002D3DD0757E002D78
:108A200037D0231801EB830301251B7E7576022BBB
:108A300003D1138843F400631380231801EB8303ED
:108A40009B7D43F001031382204401EB8000037EF1
:108A5000BDE8F0819F7E757E4FF0010E86F81AE02A
:108A6000002F5CD0002D78D1231801EB83035B7EAF
:108A7000002B00F0A48013880CF1010C4FFA8CFC41
:108A800043F4007386F818C013801388DF05FCD404
:108A900078E7DB7DFF2BC4D0231801EB83039D7D9A
:108AA00005F0FE051582DB7DFF2BCDD0FF2333764D
:108AB000CAE7938823F440731B041B0C93806EE772
:108AC0009B7E514E002B3FF441AF737E002B3FF451
:108AD0003DAF138823F480631B041B0C1380BFF38A
:108AE0005F8F138B1388B57643F4007313809388DC
:108AF00096F918C043F48063938043E79B7E002B74
:108B00003FF42EAF737E002B3FF42AAF138896F903
:108B100018C023F480631B041B0C138016E0002D87
:108B2000A2D0A8E72D067FF52DAFBCF1FF3F6DD099
:108B3000DD6915F80C5015820CF1010C1D7E4FFA01
:108B40008CF39D429C4633767FF41CAF938823F4CC
:108B500080631B041B0C938014E71F7ED3F82080D6
:108B60005FFA8CF5AE44022F4FFA8EFE17882DD98E
:108B700027F480673F043F0C1780178AFFB208F87C
:108B80000C701788D3F820C047F400731380138A41
:108B9000DBB20CF80E30938805F1020C4FFA8CFC16
:108BA00043F4806386F818C093806EE7938896F943
:108BB00018C023F480631B041B0C9380E2E6138827
:108BC000012543F48073138075765EE747F40077E0
:108BD0001780178AFFB208F80C70178AD3F8208024
:108BE00005F1030C4FFA8CFCFBB286F818C008F8AC
:108BF0000E304AE7978827F480673F043F0C978040
:108C0000EFE600BFCC66002048270020DD7D1582FE
:108C10009D7E37761DB91B7E002B7FF415AF9388A0
:108C200023F480631B041B0C93800DE7F0B5876968
:108C300083B0064617B13B68BA885A837069DFF87B
:108C4000A8E08389C3244FF47A734FF0060C6D4675
:108C50004FF6FF710EF1010E03E0013B9BB28B4218
:108C600020D002899207F8D5A3B283814FF47A739A
:108C700002E0A3B28B4215D00289D20703F1FF3480
:108C8000F7D5828992B20DB12A700135BCF1000F7F
:108C90000BD00CF1FF3CFF24BEF1000FE1D09EF899
:108CA0000040D7E707F02CFDB76917B13B68BA88D9
:108CB0001A839DF805009DF801509DF802109DF85B
:108CC00003409DF804209DF8063041EA052143EA5F
:108CD000002342EA04220120A6F84410A6F8462008
:108CE000A6F8483003B0F0BD8C93040837B50623CE
:108CF0006A4604460D460C30032107F023FD024668
:108D000090B1B4F91A106846FFF77AF92880B4F9DF
:108D10001E100DF10200FFF773F9A880B4F91C10C2
:108D200001A8FFF76DF96880104603B030BD2DE94A
:108D3000F74F4FF4807343838383C38300F10C05A3
:108D40000446322006F0B4FE11220021284607F026
:108D5000C7FD60220121284607F0C2FD642006F00D
:108D6000A7FE69462046FFF7C1FF112200212846D1
:108D700007F0B6FD0026DFF818A14FF00A09B0464B
:108D8000374601220221284607F0AAFD142006F0EA
:108D90008FFE69462046FFF7A9FFBDF90230BDF9F5
:108DA0000410BDF900208B429844A8BF0B469342A3
:108DB000A8BF1346534517440E4461DB012007F05A
:108DC00051F8B9F10109DCD14FF00109122200215B
:108DD000284607F085FDDFF8B8B04FF00A0A0122F7
:108DE0000221284607F07CFD142006F061FE69464A
:108DF0002046FFF77BFFBDF90230BDF90410BDF935
:108E000000208B42A8EB0308A8BF0B469342A8BFE3
:108E100013465B45A7EB0207A6EB010633DB0120F7
:108E200007F020F8BAF1010AD9D1184B93FBF7F7F4
:108E300093FBF8F87022A3F58423002193FBF6F648
:108E40006783A4F81C80E683284607F049FD2022AA
:108E50000121284607F044FD00220221284607F0A0
:108E60003FFD642006F024FEB9F1000F04D14FF459
:108E700080736383A383E383012003B0BDE8F08F95
:108E80004FF00009A2E74FF00009CEE700D03B0009
:108E900001F0FFFF07B5032301AA002107F052FCF0
:108EA0009DF805309DF804001B0243EA00439DF83D
:108EB0000600184303B05DF804FB08B5FFF7EAFFAE
:108EC000014B586008BD00BF4827002008B5FFF7D8
:108ED000E1FF014B186008BD4827002007B50623B5
:108EE0006A46F72107F02EFC9DF801309DF800102E
:108EF0000B4A1B0143EA01339DF8021043EA1113A8
:108F0000D3609DF804309DF803101B0143EA013340
:108F10009DF8051043EA1113936003B05DF804FB5C
:108F20004827002007B5032301AAF62107F00AFC11
:108F30009DF805309DF804201B0243EA02439DF88A
:108F400006201343054AB2F92020C2F10802D3409B
:108F5000034A536103B05DF804FB00BF8C4C002052
:108F60004827002007B5022301AAF62107F0EAFBF3
:108F70009DF804209DF8053043EA0223024A13823B
:108F800003B05DF804FB00BF4827002070B582B035
:108F90000446062310306A46432107F0D3FBC0B1D4
:108FA0009DF804009DF800609DF801109DF80250A6
:108FB0009DF803209DF8053041EA062143EA00238D
:108FC00042EA0522A4F84410A4F84620A4F8483048
:108FD000012002B070BD70B582B00446062308308F
:108FE0006A463B2107F0AEFBA8B19DF804009DF84E
:108FF00000609DF801109DF802509DF803209DF837
:10900000053041EA062143EA002342EA0522E182D3
:1090100022836383012002B070BD2DE9F04F90F8E8
:10902000583085B00746002B40F028848B4B786978
:10903000DB7E002B00F0C680894B984210D003F5F0
:10904000806398420CD0038823F040031B041B0C60
:109050000380038823F038031B041B0C38220BE029
:10906000038823F040031B041B0C0380038823F0B8
:1090700038031B041B0C3022134303800388BA6996
:1090800043F04003038097F8564012B1136892886A
:109090005A8340F2E93302E0002B00F0298502896F
:1090A000013B12F0020F9BB2F6D01A23838140F2EB
:1090B000E93302E0002B00F01B850289013B12F02E
:1090C000010F9BB2F6D0838940F2E93302E0002B16
:1090D00000F00A850289013B12F0020F9BB2F6D024
:1090E000A4B2848140F2E93302E0002B00F0FC845A
:1090F0000289013B12F0010F9BB2F6D08389BB6954
:1091000013B11A689B881383012006F04BFC7B691E
:10911000534A934210D002F5806293420CD01A88D1
:1091200022F040021204120C1A801A8822F038022F
:109130001204120C08210BE01A8822F040021204DB
:10914000120C1A801A8822F038021204120C002124
:109150000A431A801A8842F040021A8043210623EB
:1091600002AA07F1100007F0EDFAF0B19DF80A50DD
:109170009DF80B309DF808409DF809109DF80C00F3
:109180009DF80D2043EA05231BB2A7F846305BB2D9
:1091900041EA042142EA00220133A7F84410A7F86B
:1091A000482007D005B0BDE8F08FB7F946305BB274
:1091B0000133F7D197F944300133F3D1062006F09B
:1091C000ABF8EFE7264B984200F0978403F58063F5
:1091D000984200F09284038823F040031B041B0C88
:1091E0000380038823F038031B041B0C382213432D
:1091F00003800388BA6943F04003038012B1136807
:1092000092885A8340F2E93302E0002B00F0FE849A
:109210000289013B12F0020F9BB2F6D06B238381CF
:1092200040F2E93302E0002B00F0F0840289013BB8
:1092300012F0010F9BB2F6D0838940F2E93302E0CD
:10924000002B00F0E8840289013B12F0020F9BB270
:10925000F6D08023838140F2E93306E048270020DE
:1092600000380040002B00F0D6840289013B12F048
:10927000010F9BB2F6D08389BB6913B11A689B8832
:1092800013839623A84CA94EDFF8A882A84DDFF8D7
:10929000A89201974FF0100A1F4606F037FB4FF4D3
:1092A0007A7C4FF0010ED8F80430C3F30803002B8A
:1092B00040F05E84EFF31183002B40F05984236863
:1092C000A96800BF22689342F9D132680CFB02FB07
:1092D000ABEB0101B1FBF2F10CFB03131B1AB3F56D
:1092E0007A7FE0D3013FD8D1019FBB6913B11A68DF
:1092F0009B885383786940F2E93302E0002B00F049
:109300007C840289013B12F0020F9BB2F6D06823E5
:10931000838140F2E93302E0002B00F06E84028981
:10932000013B12F0010F9BB2F6D0838940F2E93382
:1093300002E0002B00F066840289013B12F0020F6C
:109340009BB2F6D00323838140F2E93302E0002B85
:1093500000F058840289013B12F0010F9BB2F6D055
:109360008389BB6913B11A689B8813839623DFF83E
:10937000C4816F4DDFF8C09101974FF0100A1F466E
:1093800006F0C4FA4FF47A7C4FF0010ED8F804309E
:10939000C3F30803002B40F0CD83EFF31183002BC0
:1093A00040F0C8832368A96800BF22689342F9D1BE
:1093B00032680CFB02FBABEB0101B1FBF2F10CFBE1
:1093C00003131B1AB3F57A7FE0D3013FD8D1019F75
:1093D000BB6913B11A689B885383786940F2E933FB
:1093E00002E0002B00F0FB830289013B12F0020F28
:1093F0009BB2F6D06B23838140F2E93302E0002B6D
:1094000000F0ED830289013B12F0010F9BB2F6D010
:10941000838940F2E93302E0002B00F0E483028903
:10942000013B12F0020F9BB2F6D00323838140F27E
:10943000E93302E0002B00F0D6830289013B12F0F1
:10944000010F9BB2F6D08389BB6913B11A689B8860
:1094500013830F2006F0A6FABB6913B11A689B8824
:109460005383786940F2E93302E0002B00F0BE83B9
:109470000289013B12F0020F9BB2F6D06A2383816E
:1094800040F2E93302E0002B00F0B0830289013B97
:1094900012F0010F9BB2F6D0838940F2E93302E06B
:1094A000002B00F0A7830289013B12F0020F9BB250
:1094B000F6D01023838140F2E93302E0002B00F064
:1094C00099830289013B12F0010F9BB2F6D0838988
:1094D000BB6913B11A689B8813830F2006F062FAE8
:1094E000BB6913B11A689B885383786940F2E933EA
:1094F00002E0002B00F0A1830289013B12F0020F71
:109500009BB2F6D06C23838140F2E93302E0002B5A
:1095100000F093830289013B12F0010F9BB2F6D059
:10952000838940F2E9330CE0209400202494002049
:1095300010E000E000ED00E01C940020002B00F0A3
:1095400080830289013B12F0020F9BB2F6D0002308
:10955000838140F2E93302E0002B00F0728302893C
:10956000013B12F0010F9BB2F6D08389BB6913B1A6
:109570001A689B8813830F2006F014FABB6997F8CA
:10958000574013B11A689B885383786940F2E933D6
:1095900002E0002B00F058830289013B12F0020F19
:1095A0009BB2F6D01923838140F2E93302E0002B0D
:1095B00000F04A830289013B12F0010F9BB2F6D002
:1095C000838940F2E93302E0002B00F041830289F5
:1095D000013B12F0020F9BB2F6D0A4B2848140F29C
:1095E000E93302E0002B00F033830289013B12F0E3
:1095F000010F9BB2F6D08389BB6913B11A689B88AF
:1096000013830F2006F0CEF9BB6913B11A689B884B
:109610005383786940F2E93302E0002B00F01B83AA
:109620000289013B12F0020F9BB2F6D01B2383810B
:1096300040F2E93302E0002B00F00D830289013B88
:1096400012F0010F9BB2F6D0838940F2E93302E0B9
:10965000002B00F004830289013B12F0020F9BB241
:10966000F6D01823838140F2E93302E0002B00F0AA
:10967000F6820289013B12F0010F9BB2F6D083897A
:10968000BB6913B11A689B8813830F2006F08AF90F
:10969000BB6913B11A689B885383786940F2E93338
:1096A00002E0002B00F0DE820289013B12F0020F83
:1096B0009BB2F6D01C23838140F2E93302E0002BF9
:1096C00000F0D0820289013B12F0010F9BB2F6D06C
:1096D000838940F2E93302E0002B00F0C78202895F
:1096E000013B12F0020F9BB2F6D01823838140F2A7
:1096F000E93302E0002B00F0B9820289013B12F04D
:10970000010F9BB2F6D08389BB6913B11A689B889D
:1097100013830F2006F046F9BB6913B11A689B88C2
:109720005383786940F2E93302E0002B00F077823E
:109730000289013B12F0020F9BB2F6D037238381DE
:1097400040F2E93302E0002B00F069820289013B1C
:1097500012F0010F9BB2F6D0838940F2E93302E0A8
:10976000002B00F060820289013B12F0020F9BB2D5
:10977000F6D01023838140F2E93302E0002B00F0A1
:1097800052820289013B12F0010F9BB2F6D083890D
:10979000BB6913B11A689B8813830F2006F002F986
:1097A000BB6913B11A689B885383786940F2E93327
:1097B00002E0002B00F03A820289013B12F0020F16
:1097C0009BB2F6D03823838140F2E93302E0002BCC
:1097D00000F02C820289013B12F0010F9BB2F6D0FF
:1097E000838940F2E93302E0002B00F023820289F2
:1097F000013B12F0020F9BB2F6D00123838140F2AD
:10980000E93302E0002B00F015820289013B12F0DF
:10981000010F9BB2F6D08389BB6913B11A689B888C
:1098200013830F2006F0BEF87B69124A934200F0C2
:10983000BE8102F58062934200F0B9811A8822F05D
:1098400040021204120C1A801A8822F03802120404
:10985000120C08210A431A801A8842F040021A802A
:10986000012006F09FF8044A78690123D376FFF7B8
:10987000E3BB00BF00380040482700201C09013C22
:10988000032C03F00F0300F29F81A34A32F8140067
:1098900040FA03F2D20740F19781012505FA03F35C
:1098A000013B18403EF002FD9C4B9D4A1B5D184455
:1098B00012EBC00400F0888120210023A171E37124
:1098C00052F83030974903F13F4202F57E02920A86
:1098D0008A5C02F01F015209032A05FA01F500F023
:1098E000CD81042A00F0C581022A03D18E4A516C31
:1098F0000D435564A288D6070BD5196821F00301E2
:10990000196019681960D96821F00301D960D96814
:10991000D96095070BD5196821F00C0119601968F9
:109920001960D96821F00C01D960D968D960500755
:109930000BD5196821F03001196019681960D968D0
:1099400021F03001D960D968D96011070BD51968A9
:1099500021F0C001196019681960D96821F0C001AF
:10996000D960D968D960D6060BD5196821F4407141
:10997000196019681960D96821F44071D960D968F3
:10998000D96095060BD5196821F4406119601968F2
:109990001960D96821F44061D960D968D96050064E
:1099A0000BD5196821F44051196019681960D968FC
:1099B00021F44051D960D968D96011060BD51968D6
:1099C00021F44041196019681960D96821F44041B7
:1099D000D960D968D960D6050BD5196821F4403112
:1099E000196019681960D96821F44031D960D968C3
:1099F000D96095050BD5196821F4402119601968C3
:109A00001960D96821F44021D960D968D96050051E
:109A10000BD5196821F44011196019681960D968CB
:109A200021F44011D960D968D96011050BD51968A6
:109A300021F44001196019681960D96821F44001C6
:109A4000D960D968D960D6040BD5196821F0407166
:109A5000196019681960D96821F04071D960D96816
:109A6000D96095040BD5196821F040611960196817
:109A70001960D96821F04061D960D968D960500473
:109A80000BD5196821F04051196019681960D9681F
:109A900021F04051D960D968D96011040BD51A68FA
:109AA00022F040421A601A681A60DA6822F04042D6
:109AB000DA60DA68DA6039461C4B41F80C3FF02274
:109AC0000823204606F02AFDA388B3FA83F3C3F1E6
:109AD0001F03012212FA03F33FF4A8AA14490A68EB
:109AE00013430B60FFF7A2BA06F00AFEFFF707BBAD
:109AF00006F006FE7869FFF7E7BA038823F0400313
:109B00001B041B0C0380038823F038031B041B0C6D
:109B10003022FFF76CBB00BF58C8040860C80408B7
:109B200090920020D8C5040800380240C58400087F
:109B3000003C0140EFF311818AF31288D5F808B098
:109B40002B68DB0344BFC9F800E0D5F808B02368F0
:109B5000D9F80020C9B281F31188316813440CFB95
:109B600001F2A2EB0B02B2FBF1F20CFB032328E49F
:109B7000EFF311818AF31288D5F808B02B68DA0365
:109B800044BFC9F800E0D5F808B02368D9F8002030
:109B9000C9B281F31188316813440CFB01F2A2EBC6
:109BA0000B02B2FBF1F20CFB0323FFF797BB1A8801
:109BB00022F040021204120C1A801A8822F0380295
:109BC0001204120C002145E639462F4B41F80C3F98
:109BD000F0220823002006F0A1FCFFF727BA06F0C8
:109BE0008FFD786915E406F08BFD2DE406F088FD05
:109BF000786952E406F084FD6AE406F081FD786934
:109C0000FFF794BB06F07CFDFFF7ABBB06F078FDD9
:109C10007869FFF712BB06F073FDFFF72DBB06F066
:109C20006FFD786999E506F06BFDB1E506F068FD1A
:109C30007869D6E506F064FDEEE506F061FD786929
:109C40006FE406F05DFD91E406F05AFD7869B8E432
:109C500006F056FDD0E406F053FD7869F5E406F011
:109C60004FFD0DE506F04CFD786932E506F048FD44
:109C70004AE5064A116B0D4315633BE6034A116C36
:109C80000D43156436E600BFC58400080038024065
:109C9000144B984223D003F5806398421FD0038869
:109CA00023F040031B041B0C0380038823F03803BC
:109CB0001B041B0C69B141F48071002991FAA1F1D8
:109CC000B1FA81F108BF4FF0FF31013943EAC10316
:109CD0009BB20380038843F0400303807047490828
:109CE000DDE700BF0038004008B540F2E93300E08E
:109CF000A3B10289013B12F0020F9BB2F8D089B2E6
:109D0000818140F2E93300E043B10289013B12F066
:109D1000010F9BB2F8D08089C0B208BD06F0F0FCFC
:109D2000C0B208BDA949AA48AA4A2DE9F84F0123A3
:109D300003700B88128823F040031B041B0C0B805C
:109D40000B8823F038031B0452084FEA13430DD04D
:109D500042F48072002A92FAA2F2B2FA82F208BFAA
:109D60004FF0FF32013A43EAC2039BB2974A138095
:109D7000138843F040031380974B1B6813B11A6894
:109D80009B88538340F2E933904902E0002B00F0B6
:109D90009F810A89013B12F0020F9BB2F6D0052386
:109DA0008B8140F2E933894902E0002B00F0908179
:109DB0000A89013B12F0010F9BB2F6D08B898348D0
:109DC00040F2E93302E0002B00F0A6810289013B5A
:109DD00012F0020F9BB2F6D0002383817B4940F240
:109DE000E93302E0002B00F097810A89013B12F071
:109DF000010F9BB2F6D08B89744840F2E93302E040
:109E0000002B00F085810289013B12F0020F9BB20A
:109E1000F6D0062383816D4940F2E93302E0002B3E
:109E200000F076810A89013B12F0010F9BB2F6D057
:109E30008B89664840F2E93302E0002B00F0648130
:109E40000289013B12F0020F9BB2F6D000238381FE
:109E50005E4940F2E93302E0002B00F055810A89A7
:109E6000013B12F0010F9BB2F6D08B89DFF86CA199
:109E700056489AF81C4040F2E93344F0010402E0ED
:109E8000002B00F03D810289013B12F0020F9BB2D2
:109E9000F6D0042383814D4940F2E93302E0002BE0
:109EA00000F02E810A89013B12F0010F9BB2F6D01F
:109EB0008B89464840F2E93302E0002B00F01C8118
:109EC0000289013B12F0020F9BB2F6D0A4B23F49C7
:109ED000848140F2E93302E0002B00F00D810A8911
:109EE000013B12F0010F9BB2F6D08B89DFF8F090A6
:109EF000B9F80030002B47D0DFF8E880DFF8E8B091
:109F0000324C474607261BF8015F40F2E93302E076
:109F1000002B00F0D9802089013B10F0020F9BB28A
:109F2000F6D0A68140F2E93302E0002B00F0CC80AD
:109F30002089013B10F0010F9BB2F6D0A38940F2BB
:109F4000E93302E0002B00F0BB802089013B10F0D8
:109F5000020F9BB2F6D0ADB2A58140F2E93302E028
:109F6000002B00F0AD802089013B10F0010F9BB267
:109F7000F6D0A3899BF8003007F8013BB9F8000040
:109F8000A7EB08039842BEDC104840F2E93302E038
:109F9000002B00F0AD800289013B12F0020F9BB252
:109FA000F6D007238381094940F2E93302E0002B10
:109FB00000F09E800A89013B12F0010F9BB2F6D09F
:109FC0008B89024840F2E93312E000BF003C0040B8
:109FD0005D7B002004230020709200204827002091
:109FE000F816002068270020036A0020002B7BD091
:109FF0000289013B12F0020F9BB2F7D0FF2383814D
:10A00000474940F2E93301E0002B6DD00A89013B5A
:10A0100012F0010F9BB2F7D08B899AF81C40404890
:10A0200040F2E93301E0002B5AD00289013B12F0E3
:10A03000020F9BB2F7D004238381394940F2E93300
:10A0400001E0002B4CD00A89013B12F0010F9BB2BA
:10A05000F7D08B89324840F2E93301E0002B3BD046
:10A060000289013B12F0020F9BB2F7D0A4B22C4937
:10A07000848140F2E93300E073B30A89013B12F0B6
:10A08000010F9BB2F8D08B89264B1B6813B11A685D
:10A090009B881383224A138823F040031B041B0C64
:10A0A0001380138823F038031B041B0C13801388C0
:10A0B00043F0400313801C4B00211970BDE8F88F5A
:10A0C000204606F01DFB55E7204606F019FB36E753
:10A0D000134806F015FB72E6114806F011FBD3E7B2
:10A0E0000F4806F00DFBB5E70D4806F009FB94E7B5
:10A0F0000B4806F005FB64E7094806F001FBF5E6AE
:10A10000074806F0FDFAD4E6054806F0F9FAADE690
:10A11000034806F0F5FA8CE6014806F0F1FA6BE622
:10A12000003C0040709200205D7B0020A9490A8815
:10A1300022F040022DE9F0471204A74E120C33889A
:10A140000A800A8822F0380212045B084FEA1242A1
:10A150000DD043F48071002991FAA1F1B1FA81F197
:10A1600008BF4FF0FF31013942EAC10292B299496A
:10A170009A4D0A800A8842F040020A80296811B18B
:10A180000A6888885083964A1278012A00F005826E
:10A19000C0F0E581022A00F0D481924F3A7812F0A3
:10A1A000400F0CBF4FF4C3724FF4F072DFF83C82E3
:10A1B0008848A8F80020028822F040021204120CFD
:10A1C0000280028822F038021204120C6BB143F4B0
:10A1D0008073002B93FAA3F3B3FA83F308BF4FF015
:10A1E000FF33013B42EAC30292B27A4B1A801A88CB
:10A1F00042F040021A8011B10B688A885A83754C6C
:10A200004FF010094FF0010A40F2E93302E0002B51
:10A2100000F09D812289013B12F0020F9BB2F6D023
:10A220001FFA89F3A38140F2E93302E0002B00F02A
:10A230008E812289013B12F0010F9BB2F6D0A389D7
:10A2400040F2E93302E0002B00F085812289013BD6
:10A2500012F0020F9BB2F6D0A4F80CA040F2E93342
:10A2600002E0002B00F077812289013B12F0010F00
:10A270009BB2F6D0A38909F10109B9F1200FC3D12E
:10A28000296811B10B688A881A83524B1A8822F008
:10A2900040021204120C1A801A8822F038021204AA
:10A2A000120C1A801A8842F040021A8018883288EC
:10A2B00020F040000004000C18801B8823F03803B5
:10A2C0001B0452084FEA13430DD042F48072002A57
:10A2D00092FAA2F2B2FA82F208BF4FF0FF32013ACC
:10A2E00043EAC2039BB23B4A1380138843F0400306
:10A2F000138011B10B688A885A833C78354840F244
:10A30000E93302E0002B00F052810289013B12F098
:10A31000020F9BB2F6D0002383812E4940F2E9332D
:10A3200002E0002B00F043810A89013B12F0010F8B
:10A330009BB2F6D08B89274840F2E93302E0002B2C
:10A3400000F039810289013B12F0020F9BB2F6D076
:10A35000A4B22049848140F2E93302E0002B00F0EE
:10A360002A810A89013B12F0010F9BB2F6D08B893A
:10A370001D4B18481C7840F2E93302E0002B00F036
:10A380001E810289013B12F0020F9BB2F6D002231C
:10A390008381104940F2E93302E0002B00F00F8185
:10A3A0000A89013B12F0010F9BB2F6D08B89094854
:10A3B00040F2E93302E0002B00F005810289013B05
:10A3C00012F0020F9BB2F6D0A4B20249848140F28F
:10A3D000E93310E0003C004004230020709200208C
:10A3E00084920020DD1800208B920020F8160020B7
:10A3F000002B00F0E8800A89013B12F0010F9BB2AC
:10A40000F6D08B89794B7A481C7840F2E93302E028
:10A41000002B00F0DC800289013B12F0020F9BB29E
:10A42000F6D003238381724940F2E93302E0002B26
:10A4300000F0CD800A89013B12F0010F9BB2F6D0EB
:10A440008B896B4840F2E93302E0002B00F0C380B7
:10A450000289013B12F0020F9BB2F6D0A4B264490C
:10A46000848140F2E93302E0002B00F0B4800A89D5
:10A47000013B12F0010F9BB2F6D08B895D4B5C481B
:10A480001C7F40F2E93344F0040402E0002B00F0AA
:10A49000A6800289013B12F0020F9BB2F6D0042382
:10A4A0008381534940F2E93302E0002B00F09780AA
:10A4B0000A89013B12F0010F9BB2F6D08B894C4800
:10A4C00040F2E93301E0002B6DD00289013B12F02C
:10A4D000020F9BB2F7D0A4B24549848140F2E93320
:10A4E00001E0002B5FD00A89013B12F0010F9BB203
:10A4F000F7D08B892B6813B11A689B8813833C4A69
:10A500003D4C13883D4823F040031B041B0C138073
:10A51000138823F038031B041B0C1380138843F0AB
:10A5200040031380B8F8002000213EF0E1FA2378C0
:10A530002BB1334B1B78002B55D000232370BDE883
:10A54000F087304F08223A704FF4C3722EE620464F
:10A5500006F0D6F874E6204606F0D2F88BE6A02185
:10A560002348FFF7C1FB00212148FFF7BDFB00F0A6
:10A570000603022B0AD000F00500012806D1214F66
:10A580003388296848223A705B0809E01D4F3388F8
:10A59000296808223A705B08D6E71A4F48223A70B9
:10A5A0004FF4F07202E6124806F0AAF8A2E710484B
:10A5B00006F0A6F8BFE60E4806F0A2F8D8E60C486A
:10A5C00006F09EF8F3E60A4806F09AF81AE70848FB
:10A5D00006F096F835E7064806F092F84EE704488C
:10A5E00006F08EF86BE7FFF79DFBA6E78C92002044
:10A5F000003C004048270020000000206827002081
:10A600005D7B0020DD1800202DE9F84FA84F3B7836
:10A6100003B1FEE7A74C2288012322F040023B70E1
:10A620001204A54B120C1B882280228822F03802CB
:10A6300012045B084FEA12420DD043F48073002BE2
:10A6400093FAA3F3B3FA83F308BF4FF0FF33013B50
:10A6500042EAC3039AB2974BDFF868821A801A88DD
:10A6600042F040021A80D8F8003013B11A689B8873
:10A670005383924B01228B461A7004468D4940F257
:10A68000E93302E0002B00F0A1810A89013B12F0BE
:10A69000020F9BB2F6D000238B8140F2E93385494B
:10A6A00002E0002B00F092810A89013B12F0010FB9
:10A6B0009BB2F6D08B897F4840F2E93302E0002B51
:10A6C00000F098810289013B12F0020F9BB2F6D094
:10A6D00000238381774940F2E93302E0002B00F048
:10A6E00089810A89013B12F0010F9BB2F6D08B8958
:10A6F000704840F2E93302E0002B00F077810289D4
:10A70000013B12F0020F9BB2F6D009238381694905
:10A7100040F2E93302E0002B00F068810A89013B36
:10A7200012F0010F9BB2F6D08B89624840F2E933F8
:10A7300002E0002B00F056810289013B12F0020F6B
:10A740009BB2F6D0A4B25B49848140F2E93302E0C7
:10A75000002B00F047810A89013B12F0010F9BB2E8
:10A76000F6D08B89564E534C0BF1FF3B4FF000094E
:10A770004FF00A0A40F2E93302E0002B00F00D81AD
:10A780002289013B12F0020F9BB2F6D0A4F80CA074
:10A7900040F2E93302E0002B00F0FF802289013B08
:10A7A00012F0010F9BB2F6D0A38940F2E93302E028
:10A7B000002B00F0F6802289013B12F0020F9BB2C1
:10A7C000F6D01FFA89F3A38140F2E93302E0002BAF
:10A7D00000F0E7802289013B12F0010F9BB2F6D016
:10A7E000A3891BF8015F40F2E93302E0002B00F07F
:10A7F000DC802289013B12F0020F9BB2F6D00B23C2
:10A80000A38140F2E93302E0002B00F0CE802289E0
:10A81000013B12F0010F9BB2F6D0A38940F2E9335D
:10A8200002E0002B00F0C5802289013B12F0020FEC
:10A830009BB2F6D0ADB2A58140F2E93302E0002B25
:10A8400000F0B7802289013B12F0010F9BB2F6D0D5
:10A85000A389336833B11A689B8851690B4214BFCE
:10A860005383138309F10109B9F1360F82D140F204
:10A87000E933104802E0002B00F0B0800289013B70
:10A8800012F0020F9BB2F6D008238381094940F2EF
:10A89000E93302E0002B00F0A1800A89013B12F0AD
:10A8A000010F9BB2F6D08B89024840F2E9330EE0EB
:10A8B0005D7B0020003C004004230020657B0020DD
:10A8C000EC93002070920020002B00F0838002891E
:10A8D000013B12F0020F9BB2F6D0A02383814749BF
:10A8E00040F2E93301E0002B74D00A89013B12F0F9
:10A8F000010F9BB2F7D08B89404CA02540F2E93381
:10A9000001E0002B59D02289013B12F0020F9BB2CB
:10A91000F7D0A58140F2E93301E0002B4DD0228928
:10A92000013B12F0010F9BB2F7D0A38940F2E9334B
:10A9300001E0002B45D02289013B12F0020F9BB2AF
:10A94000F7D00023A38140F2E93301E0002B38D097
:10A950002289013B12F0010F9BB2F7D0A089C0B24F
:10A960008306CBD4D8F8003013B11A689B881383C0
:10A97000224A138823F040031B041B0C1380138806
:10A9800023F038031B041B0C13801388002143F0B1
:10A99000400313803970BDE8F88F204605F0B0FE03
:10A9A00003E7204605F0ACFE1BE7204605F0A8FEB5
:10A9B00034E7204605F0A4FE4BE7204605F0A0FE54
:10A9C000B4E7204605F09CFEC0B2C9E70B4805F08D
:10A9D00097FE70E6094805F093FE8DE7074805F0FD
:10A9E0008FFE61E7054805F08BFEBBE6034805F0E6
:10A9F00087FE9AE6014805F083FE79E6003C0040B8
:10AA00001378C3B130B41E240B4D14FB010129444B
:10AA1000801A84181D2C07DC01F8013B12F8013F55
:10AA2000002BF6D130BC704712F8013F0131002BEA
:10AA3000EFD130BC70477047046A0020F8B5424C33
:10AA4000424A2388128823F040031B041B0C2380F6
:10AA50002388C1F1030123F0380341EA80071B0476
:10AA60005208FFB24FEA13430DD042F48072002A1D
:10AA700092FAA2F2B2FA82F208BF4FF0FF32013A24
:10AA800043EAC2039BB2304A314D1380138843F02E
:10AA9000400313802B6813B11A689B8853832A4C98
:10AAA000BFB2102640F2E93301E0002B44D02289E6
:10AAB000013B12F0020F9BB2F7D0B3B2A38140F278
:10AAC000E93301E0002B37D02289013B12F0010F5E
:10AAD0009BB2F7D0A38940F2E93301E0002B2FD0DD
:10AAE0002289013B12F0020F9BB2F7D0A78140F2FE
:10AAF000E93300E023B32289013B12F0010F9BB23E
:10AB0000F8D0A3890136202ECCD12B6813B11A6856
:10AB10009B8813830C4A138823F040031B041B0CEF
:10AB20001380138823F038031B041B0C1380138835
:10AB300043F040031380F8BD204605F0E1FDCAE76D
:10AB4000204605F0DDFDDDE7003C00400423002049
:10AB50007092002038B5444C257F002879D105F04B
:10AB6000F7054249424A0B881288257723F04003B3
:10AB70001B041B0C0B800B8823F038031B045208AA
