:020000040800F2
:10000000F0FF0010098604089F6F0108AD02010887
:100010000D8704080D8704080D8704080000000000
:10002000000000000000000000000000A56F0108B3
:10003000A36F010800000000A16F010895FB0008F4
:100040000D8704080D8704080D8704080D87040830
:100050000D8704080D870408D50301080105010870
:10006000C5040108890401084D0401085DB30008B6
:100070004DB300083DB300082DB3000819B30008C4
:1000800005B30008F1B200080D8704080D870408C5
:100090000D8704080D8704080D8704081104010862
:1000A00029E70008B5EC00080D87040839EE0008C0
:1000B000F5EB000835EB000869EA0008A5CD00085B
:1000C000ABCD000899CD00089FCD00080D8704082E
:1000D0000D87040801FD00080D87040865FC000871
:1000E000990301080D8704082DB9010859E6000895
:1000F000F9E700080D870408C9E80008DDB2000828
:100100000D8704080D87040899E900080D87040885
:100110000D8704080D870408B56302089963020877
:10012000C9B20008B5B20008A1B200088DB200083B
:1001300079B200080D8704080D8704080D870408AC
:100140000D8704080D8704080D87040869900108CD
:1001500065B2000851B200083DB20008C9FB0008B2
:100160008DCD000893CD00080D8704080D87040885
:100170000D8704080D8704080D8704080D870408FF
:080180000D8704080D87040837
:08018800B08104000100000039
:1001900010020100B42B0020B02B00200000000052
:1001A000E00600080B201000B43B0020B03F002008
:1001B00000000000E20600081F101C003C3B00206D
:1001C000C03F002000000000F20600080502010008
:1001D000943D0020DC3F0020000000000E070008D6
:1001E00003010A00663B0020E03F00200000000001
:1001F000100700082C0010006C4E00205C4E002000
:1002000000000000C7E201082B002400A04E0020DF
:100210007C4E00200000000099E2010829006400E3
:100220007C4D0020C44E00200000000000000000B3
:1002300004120200E44C0020284F002000000000BF
:100240001C0700080F020100E04C00202C4F00208A
:10025000000000001E07000814000200B048002043
:10026000304F00200000000020070008101002009E
:10027000604C0020344F00200000000022070008DE
:1002800028001000504C0020384F002000000000D3
:10029000C5C30108230010009C460020484F0020E1
:1002A00000000000DFC3010819000500484C0020D1
:1002B000584F00200000000024070008F821060025
:1002C000404C0020604F0020000000002A0700087A
:1002D0000E20EA0076400020684F00200000000059
:1002E00051AB0308130004008C450020545000203B
:1002F000000000003007000801010400FC3F00205E
:100300005850002000000000000000000001040020
:10031000F43F00205C50002000000000340700087B
:1003200002010300EF3F00206050002000000000A9
:10033000594D02080702020070670020B8670020CC
:10034000000000003807000802000C004867002089
:10035000BC670020000000000000000006020C0046
:100360003C670020C86700200000000065540208B8
:1003700008020900C4660020D467002000000000C5
:10038000D54D0208F7010600B8660020E06700209E
:10039000000000003A0700080A020A000C5600207C
:1003A000E867002000000000400700081D00010071
:1003B000D8580020F4670020000000004A07000819
:1003C00027000400F0580020F8670020000000001B
:1003D0004C07000809020100547F0020C87F00205C
:1003E00000000000500700080C106000FE7B002099
:1003F000CC7F002000000000D94C0208010205005B
:10040000647B00202C8000200000000089F102089D
:1004100000020500006A0020348000200000000077
:10042000000000001E000400487900203C800020ED
:10043000000000005207000822000C00507E00203F
:100440004080002000000000560700081B00F40058
:10045000746800204C8000200000000015F602089F
:100460000E020200B07D002040810020000000004C
:10047000620700082F0011007C7F002044810020CB
:10048000000000006407000805100600A27F00209D
:10049000588100200000000076070008F5216E005A
:1004A000FC670020608100200000000033E90208A2
:1004B00026000E00E0810020D08100200000000016
:1004C00009E9020816000800FC810020DC850020F4
:1004D000000000007C070008012008004890002070
:1004E0002092002000000000840700081A000A0083
:1004F0002890002028920020000000008C070008AF
:10050000030001007C9000203492002000000000D5
:10051000000000000312330031870020EA91002020
:10052000000000009607000825005A00D887002028
:10053000909100200000000000000000F6110C0067
:10054000A89000208491002000000000CC07000843
:1005500015007000E88500201491002000000000C4
:10056000000000002A00600078870020B49000207E
:1005700000000000E5AA03080400800048CC002029
:1005800084D500200000000000000000F9010400F4
:100590000CC1002004D6002000000000DDD20008BD
:1005A000FD012400E4C0002008D600200000000067
:1005B0006DD200080610160000B400202CD60020D2
:1005C00000000000A5AB0308FB0101003CB30020C4
:1005D00044D6002000000000994D0208FC010900EB
:1005E00008B2002048D6002000000000A14D0208FB
:1005F0000A101E00D0B1002054D6002000000000D8
:10060000D80700083400100074A8002074D6002019
:10061000000000000DAB0308110208004CA80020E8
:1006200084D6002000000000F60700081212040023
:1006300044A800208CD6002000000000FE0700081F
:1006400012200D0030A8002090D6002000000000ED
:100650000208000811000C00BC9C0020A0D600205D
:10066000000000001F4E0208FF0108001C9C002033
:10067000ACD60020000000004D57020818202C00C6
:10068000BC9B0020B4D6002000000000C90702086F
:100690000D003400E89B0020E0D6002000000000A0
:1006A00081540208020203009492002014D7002013
:1006B00000000000000000000C02010084920020F5
:1006C00018D700200000000010080008FE010900F3
:1006D000489400201CD7002000000000014E0208B2
:1006E00000002B21231E64010100000001000A010B
:1006F00029000000000000000100000005000001CA
:1007000002030000000000000000000000000000E4
:10071000040101006C160000000000001118000028
:10072000030000050000280100000401F401190085
:100730000800040090010000023C240100000000B9
:1007400000004A01B400D6010000000020030000B0
:10075000280000000100C800141E010064002C01E4
:100760002800000000000000000000000000000061
:10077000000000000000200002010000C409000089
:1007800019012828E8036400040A00017E05EA052F
:10079000B40532000000000000000000000000006E
:1007A0000000000000000000000000000000000049
:1007B0000000000000000000000000000000000039
:1007C0000000000000000000010000000000000028
:1007D000000000000000000000300100005A00008E
:1007E0000000000090012C01C8006400020000001D
:1007F0000000000000000000000001010101FFFFF7
:10080000FFFF000000010000054F425344000000BC
:0108100001E6
:10081100010000005001000007000000020000007C
:10082100000000000000000001020304060708099F
:10083100FF0000000403090412010002020200404B
:100841008304405700020102030100000902430032
:10085100020100C032090400000102020100052466
:1008610000100105240100010424020205240600F0
:1008710001070582030800FF09040100020A0000C4
:100881000007050102400000070581024000000049
:10089100FF00000000FFFF0000000000AA55050155
:1008A1000000010000000000010203040102030432
:1008B1000607080963890108618E0108DD890108BD
:1008C100B15201081D580108C1520108DD52010849
:1008D1008B5201087D520108000000000000000059
:1008E1002D202D2D202D2D2D2D202D2D2D2D0000B8
:1008F100000000000000000000000000000000AA4D
:10090100550B010000AA5507010000AA5509020074
:100911000000000001000000C012AA5503009F0062
:10092100FF1FFF1F20700020702D7200D6010000F4
:10093100EDD20108000000000000000001000000ED
:100941000000000000000000B8150020FFFFFFFFBD
:10095100FA00000001000000010000000001010197
:100961000001000064D704086CD704088CD7040880
:100971000000000000000000000000000000000076
:100981001FD20408040000008518030800000000BD
:100991000000000094D704080100000000000000DE
:1009A1000000000000000000000000000E00000038
:1009B100000000000000000000000000FACC002050
:1009C1000100C40900000000F8CC00200100C409A6
:1009D10000000000F6CC00200100C4090000000066
:1009E100F4CC00200100C40900000000F0CC00207C
:1009F1000100C40900000000F2CC00200100C4097C
:100A010000000000EECC00200100C409000000003D
:100A1100ECCC00200100C4090000000010400020BF
:100A21000100C800010000000E40002032003075B6
:100A3100320000000D400020055A05000A40002048
:100A410000FF01000C4000200100000054010020C3
:100A51000840002002000000A4A70408094000206B
:100A610000FF01000B4000200100000054010020A4
:100A71000740002002000000A4A704080240002053
:100A810080C1803E050000000040002080C1803E02
:100A910005000000FA3F002080C1803E05000000F3
:100AA100F83F002080C1803E05000000F23F002099
:100AB10000FF0100EE3F00200A320100ED3F00205F
:100AC10004000000F09B0408EC3F0020020000003D
:100AD100049C040800000000000000005C010020EC
:100AE1004C3D00209CFF2C0100000000001700205D
:100AF1000A000000109C0408E4780020E0150C179F
:100B010000000000021700200800000060970408A0
:100B11000117002005000000F0A70408E678002076
:100B210002000000289C04089A4100200100FF7F78
:100B3100010000009941002002000000349C0408DB
:100B41006B40002003000000449C04086A40002020
:100B510003000000449C0408684100200000F401E7
:100B610001000000664100200000F40101000000C6
:100B7100644100200000F4010100000062410020F6
:100B81000000F401010000006041002000FF0100AD
:100B910084410020E803D0070A00000082410020C0
:100BA100006401000A000000774100200064010098
:100BB10076410020006401007E41002000640100B4
:100BC1000A0000007D410020006401000A000000CD
:100BD1007C410020006401000A00000081410020E6
:100BE100006401000A00000080410020006401004F
:100BF1000A0000007F410020006401000A0000009B
:100C01007B41002000FF01000A0000007A41002022
:100C110000FF01000A0000007941002000FF0100EF
:100C21000A000000724000200000F40101000000F1
:100C3100704000200000F401010000006E4000201F
:100C41000000F401010000006C4000200000F401EC
:100C510001000000724100201400E80301000000BF
:100C610070410020E8033075010000006F41002051
:100C710000C801006E41002000C801006D41002044
:100C810000C801006C410020006401000A0000005E
:100C91006B41002000FF01000A0000008F4100208D
:100CA10000C801008E41002000C801008D410020D4
:100CB10000C801008C41002000C801008B410020C8
:100CC10000C801008A41002000C8010089410020BC
:100CD10000C801008841002000C8010087410020B0
:100CE10000C80100C4D70408000000000000000093
:100CF1000000000000000000D4D704080900000033
:100D0100000000000002002004000000DCD70408FD
:100D11000900000000000000F401002004000000B0
:100D2100ACDE04080900000000000000E80100201A
:100D31000400000040D10408090000000000000088
:100D4100DC01002004000000E4D7040809000000D1
:100D510000000000D001002004000000ECD70408CE
:100D61000900000000000000C40100200400000090
:100D7100F4D704080900000000000000B8010020B9
:100D810004000000FCD70408090000000000000076
:100D9100AC0100200400000094D704080100000009
:100DA1000000000000000000000000000000000042
:100DB1000E00000000000000000000000000000024
:100DC100A4D9040800000000000000000000000099
:100DD10000000000D80E0508070000000000000018
:100DE1002402002000000000B4D90408080000001B
:100DF100000000001802002000000000C0D9040813
:100E010008000000000000000C02002000000000AB
:100E110094D7040801000000000000000000000059
:100E210000000000000000000E00000000000000B3
:100E31000000000000000000C8D904080000000004
:100E4100000000000000000000000000D8D90408E4
:100E51000D00000000000000600200200000000002
:100E6100E0D904080D000000000000005402002039
:100E710000000000E8D9040807000000000000009D
:100E81004C02002000000000F0D904080D00000011
:100E9100000000004002002000000000F8D9040812
:100EA1000D000000000000003402002000000000DE
:100EB10000DA040807000000000000002C020020F6
:100EC1000000000094D704080100000000000000A9
:100ED1000000000000000000000000000E00000003
:100EE10000000000000000000000000008DA040813
:100EF10000000000000000000000000000000000F1
:100F0100D80E05080C00000000000000124000206F
:100F1100000000001CDA04080C00000000000000C2
:100F210014400020000000002CDA04080C0000002E
:100F3100000000004A400020000000003CDA0408E4
:100F41000C000000000000003E40002000000000F6
:100F510050DA04080C0000000000000016400020D8
:100F6100000000005CDA04080C0000000000000032
:100F7100184000200000000064DA04080C000000A2
:100F8100000000001A4000200000000078DA040888
:100F91000C000000000000001C40002000000000C8
:100FA10080DA04080C000000000000001E40002050
:100FB1000000000088DA04080C00000000000000B6
:100FC1005C40002000000000A0DA04080C000000D2
:100FD100000000002040002000000000ACDA0408FE
:100FE1000C00000000000000224000200000000072
:100FF100B4DA04080C0000000000000024400020C6
:1010010000000000C0DA04080C000000000000002D
:101011002640002000000000CCDA04080C0000008B
:10102100000000002840002000000000D8DA040879
:101031000C000000000000002A4000200000000019
:10104100E4DA04080C000000000000002C4000203D
:1010510000000000F0DA04080C00000000000000AD
:101061002E40002000000000FCDA04080C00000003
:1010710000000000424000200000000004DB0408E2
:101081000C000000000000004040002000000000B3
:101091000CDB04080C000000000000004E400020A2
:1010A1000000000018DB04080C0000000000000034
:1010B100504000200000000024DB04080C00000068
:1010C100000000005640002000000000A0D80408E5
:1010D1000C00000000000000304000200000000073
:1010E10030DB04080C000000000000003840002044
:1010F1000000000038DB04080C00000000000000C4
:10110100324000200000000044DB04080C00000015
:1011110000000000344000200000000050DB040803
:101121000C0000000000000036400020000000001C
:1011310058DB04080C000000000000003A400020C9
:101141000000000064DB04080C0000000000000047
:1011510044400020000000006CDB04080C0000008B
:10116100000000003C4000200000000078DB040883
:101171000C000000000000004C40002000000000B6
:1011810084DB04080C000000000000004640002041
:10119100000000008CDB04080C00000000000000CF
:1011A100484000200000000094DB04080C0000000F
:1011B1000000000052400020000000009CDB0408F9
:1011C1000C0000000000000054400020000000005E
:1011D10094D7040801000000000000000000000096
:1011E10000000000000000000E00000000000000F0
:1011F1000000000000000000A4DB04080000000063
:10120100000000000000000000000000B0DB040846
:101211000D00000000000000B802002000000000E6
:10122100B8DB04080D00000000000000AC02002043
:1012310000000000C0DB04080700000000000000FF
:10124100A402002000000000CCDB0408070000001D
:10125100000000009C02002000000000D8DB040810
:1012610009000000000000009002002000000000C2
:10127100E4DB0408090000000000000084020020F3
:1012810000000000F0DB040809000000000000007D
:10129100780200200000000000DC040809000000C2
:1012A100000000006C0200200000000094D7040838
:1012B100010000000000000000000000000000002C
:1012C100000000000E00000000000000000000000F
:1012D1000000000014DC0408000000000000000011
:1012E100000000000000000024DC040805000000EC
:1012F10000000000694000200000000094D70408AD
:1013010001000000000000000000000000000000DB
:10131100000000000E0000000000000000000000BE
:10132100000000002CDC04080000000000000000A8
:101331000000000000000000A0E904080000000017
:1013410000000000D00000200400000038DC040888
:101351000D000000E91803080C0300200000000044
:1013610004E804080D00000039F50208000300201C
:1013710000000000C4DA04080D0000001DF5020899
:10138100F4020020000000003CDC0408080000001A
:1013910000000000E80200200400000030DB040827
:1013A1000D00000065F40208DC02002000000000CE
:1013B10044DC04080900000000000000D002002005
:1013C10004000000ECDB04080300000059E90108F7
:1013D100C40200200000000094D7040801000000AE
:1013E10000000000000000000000000000000000FC
:1013F1000E000000000000000000000000000000DE
:101401004CDC0408000000000000000000000000A7
:10141100000000005CDC04080D000000000000007A
:10142100240300200000000064DC04080A0000001E
:1014310000000000904500200000000070DC04085E
:101441000A00000000000000984500200000000094
:1014510078DC04080A00000000000000A04500201C
:101461000000000080DC040808000000000000000B
:10147100180300200000000094D7040801000000B8
:10148100000000000000000000000000000000005B
:101491000E0000000000000000000000000000003D
:1014A10088DC0408000000000000000000000000CB
:1014B100000000009CDC04080D000000000000009A
:1014C1003C03002000000000ACDC04080400000024
:1014D10045E601080000000000000000B4DC04083B
:1014E1000D0000000000000030030020000000009B
:1014F100C8DC04080400000021E601080000000027
:101501000000000094D70408010000000000000062
:101511000000000000000000000000000E000000BC
:10152100000000000000000000000000D0DC040802
:1015310000000000000000000000000000000000AA
:10154100E4DC04080700000000000000780300202C
:1015510000000000F0DC04080800000000000000AA
:101561006C03002000000000FCDC040808000000FF
:1015710000000000600300200000000008DD0408F6
:1015810008000000000000005403002000000000DB
:1015910014DD0408080000000000000048030020DA
:1015A1000000000094D704080100000000000000C2
:1015B1000000000000000000000000000E0000001C
:1015C10000000000000000000000000020DD040811
:1015D10000000000000000001701002000000000D2
:1015E1002CDD04080B0000000000000008040020AE
:1015F1000000000038DD04080B00000000000000BE
:10160100FC0300200000000044DD04080B00000082
:1016110000000000F00300200000000050DD04087D
:101621000B00000000000000E403002000000000A7
:101631005CDD04080B00000000000000D80300205E
:101641000000000068DD04080B000000000000003D
:10165100CC0300200000000074DD04080B00000032
:1016610000000000C00300200000000080DD04082D
:101671000B00000000000000B40300200000000087
:101681008CDD04080B00000000000000A80300200E
:101691000000000098DD04080700000000000000C1
:1016A100A003002000000000A0DD040807000000E6
:1016B100000000009803002000000000ACDD0408D9
:1016C1000B000000000000008C030020000000005F
:1016D100B8DD0408080000000000000080030020BD
:1016E1000000000094D70408010000000000000081
:1016F1000000000000000000000000000E000000DB
:10170100000000000000000000000000C4DD04082B
:1017110000000000000000000000000000000000C8
:10172100D8DD040808000000000000003804002093
:1017310000000000E4DD04080800000000000000D3
:101741002C04002000000000F0DD04080800000067
:10175100000000002004002000000000FCDD04085F
:101761000800000000000000140400200000000038
:1017710094D70408010000000000000000000000F0
:1017810000000000000000000E000000000000004A
:10179100000000000000000004DE0408000000005A
:1017A10000000000140100200000000014DE040805
:1017B1000B00000000000000800400200000000079
:1017C10020DE04080B00000000000000740400206B
:1017D100000000002CDE04080700000000000000EB
:1017E1006C0400200000000038DE0408070000003F
:1017F10000000000640400200000000044DE040832
:1018010007000000000000005C0400200000000050
:1018110050DE040808000000000000005004002011
:101821000000000058DE040808000000000000006D
:10183100440400200000000094D7040801000000C7
:101841000000000000000000000000000000000097
:101851000E00000000000000000000000000000079
:1018610060DE0408000000000000000014010020F8
:10187100000000006CDE040807000000000000000A
:10188100CC0400200000000074DE04080700000002
:1018910000000000C4040020000000007CDE0408F9
:1018A1000700000000000000BC0400200000000050
:1018B10008D104080700000000000000B404002063
:1018C1000000000010D10408070000000000000023
:1018D100AC0400200000000018D10408070000003B
:1018E10000000000A40400200000000084DE0408C1
:1018F10007000000000000009C0400200000000020
:101901008CDE0408070000000000000094040020A1
:101911000000000094DE0408070000000000000041
:101921008C0400200000000094D70408010000008E
:1019310000000000000000000000000000000000A6
:101941000E00000000000000000000000000000088
:101951000000000005C00108D404002067400020F9
:1019610025000000549C04086640002000C80100C6
:1019710064400020E803D007010000004F4D4E49AC
:1019810042555346345344000640002000030100F1
:10199100054000200003010051BF01082DBF0108CF
:1019A100B0050020F1BE0108ADBE010828060020E7
:1019B1008DBF010875BF0108DC06002045BE010886
:1019C10015BE0108E80900201BC00108F1E5010866
:1019D100C40A0020A5F4020800000000140B002036
:1019E10049E7010881C20108F00B002041C001084C
:1019F10000000000900C0020E5C00108B5C00108FE
:101A01001C0D002071C10108B5C10108BC0D0020E9
:101A1100744100200106010081C0010855C0010880
:101A2100FC0E002015C1010869E60108880F00209D
:101A3100E1C10108C5E60108501000206A410020FB
:101A4100010301009CDE040800000000000000000A
:101A51000000000000000000A8DE040808000000EB
:101A6100000000006011002000000000B0DE04084A
:101A710007000000000000005811002000000000D5
:101A8100C0DE04080D000000000000004C11002021
:101A910000000000CCDE04080300000059E9010841
:101AA100401100200000000094D70408010000004C
:101AB1000000000000000000000000000000000025
:101AC1000E00000000000000000000000000000007
:101AD100D4DE040800000000000000000000000047
:101AE10000000000E4DE04080A000000000000001D
:101AF100ECDE040800000000F4DE04080A00000027
:101B0100000000008CD2040800000000FCDE040884
:101B11000A000000000000009041002000000000C9
:101B210004DF04080A000000000000006C1100201E
:101B31000000000094D7040801000000000000002C
:101B41000000000000000000000000000E00000086
:101B51000000000000000000000000000CDF04088D
:101B61000000000000000000000000000000000074
:101B710018DF04080300000059E90108A011002042
:101B81000000000024DF04080300000059E90108F7
:101B910094110020000000002CDF04080300000065
:101BA10059E90108881100200000000034DF040811
:101BB10005000000000000000440002000000000BB
:101BC1003CDF040807000000000000008011002035
:101BD1000000000048DF04080700000000000000CA
:101BE100781100200000000094D7040801000000D3
:101BF10000000000000000000000000000000000E4
:101C01000E000000000000000000000000000000C5
:101C110054DF040800000000000000000000000084
:101C21000000000068DF04080300000059E9010812
:101C3100D01100200000000074DF04080300000040
:101C410059E9010804170020000000007CDF0408A6
:101C51000300000059E90108C41100200000000040
:101C610084DF04080300000059E90108B8110020CD
:101C71000000000030DB04080300000059E90108FE
:101C8100AC1100200000000094D7040801000000FE
:101C91000000000000000000000000000000000043
:101CA1000E00000000000000000000000000000025
:101CB10090DF0408000000000000000000000000A8
:101CC100000000009CDF04080700000011E7010884
:101CD1002C1200200000000054DB04080300000067
:101CE10059E901082012002000000000A8DF0408C3
:101CF1000300000059E9010814120020000000004F
:101D0100B0DF04080300000059E9010808120020AF
:101D110000000000B8DF040807000000F5E6010834
:101D210000120020000000009CD004080300000005
:101D310059E90108F411002000000000C4DF040883
:101D41000300000059E90108E8110020000000002B
:101D5100D0DF04080300000059E90108DC1100206C
:101D61000000000094D704080100000000000000FA
:101D71000000000000000000000000000E00000054
:101D8100000000000000000000000000D5BF0108B5
:101D9100A5BF0108341200204DC201080000000057
:101DA100C012002091BE010875BE01084C1300202D
:101DB10000000000000000000014002025C20108FE
:101DC1002DE70108A0140020DCDF0408000000005A
:101DD100000000000000000000000000E8DF04082F
:101DE1000300000059E90108AC15002000000000C3
:101DF100F0DF04080300000059E90108A0150020E4
:101E010000000000FCDF04080300000059E901089C
:101E1100941500200000000000E004080300000009
:101E210059E9010888150020000000000CE00408B1
:101E31000300000059E901087C15002000000000A2
:101E410014E0040802000000D9E9010800000000C4
:101E5100000000001CE0040802000000D9E90108AC
:101E6100010000000000000028E00408020000005A
:101E7100D9E9010802000000000000000000000094
:101E81000E00000000000000000000000000000043
:101E910000000000A867002008000000000000000A
:101EA10098670020080000000000803F000000004B
:101EB10000000000000000000000803F96000000CC
:101EC1000000803F38A1040805080400000000005C
:101ED100F0A7040860970408DCA7040800000000CC
:101EE1000000000064A1040805080A0000000000C9
:101EF100F0A7040860970408109C04080000000083
:101F01000000000000000100E0010000FFFFFFFFF2
:101F11000101010055F502080000000078180020B9
:101F210058E8040800000000000000000000000064
:101F310000000000A0E9040800000000000000000B
:101F4100842200200400000004E804080D000000C1
:101F5100C9E501086C22002000000000C4DA040871
:101F61000D000000A1E50108602200200000000032
:101F71003CDC04080800000000000000542200209E
:101F81000400000030DB04080D000000F1BD010871
:101F91004822002000000000ECDB040803000000E0
:101FA10059E901083C2200200000000068E804080B
:101FB1000300000059E90108302200200000000060
:101FC10094D7040801000000000000000000000098
:101FD10000000000000000000E00000000000000F2
:101FE100000000000000000058E8040800000000A4
:101FF100000000000000000000000000A0E904084B
:102001000000000000000000842200200400000005
:10201100ACE704080300000059F70208242200205D
:102021000800000030DB04080D000000F1BD0108CC
:102031004822002000000000ECDB0408030000003F
:1020410059E901083C2200200000000068E804086A
:102051000300000059E901083022002000000000BF
:1020610094D70408010000000000000000000000F7
:1020710000000000000000000E0000000000000051
:10208100000000000000000070E8040800000000EB
:10209100000000000000000000000000A0E90408AA
:1020A1000000000000000000842200200400000065
:1020B100B4E704080300000059E901087822002070
:1020C1000000000094D70408010000000000000097
:1020D1000000000000000000000000000E000000F1
:1020E10000000000000000000000000001080000E6
:1020F100425702000000010642570200000001069B
:102101002CEA040800000000000000006D4D0208E8
:10211100A086010004000000000000000000000093
:1021210000000000000000000000000000000000AE
:102131000000000054DB040818D804080000000067
:10214100117E02087D000000060000000000000072
:10215100000000000000000000000000000000007E
:1021610000000000000000001CE404080000000062
:10217100000000003D100108E8030000030000001A
:10218100000000000000000000000000000000004E
:1021910000000000000000000000000090D90408C9
:1021A100000000000000000039B003081027000003
:1021B100030000000000000000000000000000001B
:1021C100000000000000000000000000000000000E
:1021D10088E804080000000009E00108A9280108B6
:1021E100204E00000500000000000000000000007B
:1021F10000000000000000000000000000000000DE
:10220100000000009C100508000000000000000014
:10221100711A0108102700000100000000000000F1
:1022210000000000000000000000000000000000AD
:10223100000000000000000034EA04080000000073
:1022410000000000F5CE0008E803000005000000D2
:10225100000000000000000000000000000000007D
:1022610000000000000000000000000040EA040837
:1022710000000000000000004D680208204E000030
:10228100030000000000000000000000000000004A
:10229100000000000000000000000000000000003D
:1022A10050EA040800000000000000002566020852
:1022B100204E0000030000000000000000000000AC
:1022C100000000000000000000000000000000000D
:1022D1000000000060EA04080000000000000000A7
:1022E100E9D60008400D03000300000000000000D3
:1022F10000000000000000000000000000000000DD
:10230100000000000000000028E2040800000000B6
:102311000000000025D6020810270000010000007F
:1023210000000000000000000000000000000000AC
:1023310000000000000000000000000084E8040824
:1023410000000000000000008D2D03081027000090
:102351000300000000000000000000000000000079
:10236100000000000000000000000000000000006C
:1023710070EA0408000000000000000019330208A0
:10238100A086010001000000000000000000000024
:10239100000000000000000000000000000000003C
:1023A10000000000C8E10408000000000000000077
:1023B1003189030850C30000010000000000000043
:1023C100000000000000000000000000000000000C
:1023D100000000000000000018D9040800000000FF
:1023E10000000000F9E8020870110100010000007E
:1023F10000000000000000000000000000000000DC
:10240100000000000000000000000000A0D8040847
:102411000000000000000000E5810308A861000041
:1024210001000000000000000000000000000000AA
:10243100000000000000000000000000000000009B
:1024410078EA04080000000000000000BD42030813
:10245100A086010001000000000000000000000053
:10246100000000000000000000000000000000006B
:10247100000000006CE20408000000000000000001
:10248100CD660308A00F000001000000000000005D
:10249100000000000000000000000000000000003B
:1024A100000000000000000084EA040800000000B1
:1024B1000000000075F8020810270000010000006C
:1024C100000000000000000000000000000000000B
:1024D10000000000000000000000000090EA040875
:1024E100000000000000000075570208A00F000066
:1024F10001000000000000000000000000000000DA
:1025010000000000000000000000000000000000CA
:10251100FCDF04080000000000000000154E030865
:102521001A4100000100000000000000000000004E
:10253100000000000000000000000000000000009A
:102541000000000060D80408000000000000000046
:10255100ED5A0108102700000100000000000000F2
:10256100000000000000000000000000000000006A
:102571000000000000000000F4E904080000000071
:10258100000000006DEB01081A410000010000008D
:10259100000000000000000000000000000000003A
:1025A1000000000000000000000000009CEA040898
:1025B100000000000000000015A70108400D030005
:1025C100000000000000000000000000000000000A
:1025D10000000000000000000000000000000000FA
:1025E100A4EA04080000000000000000615503088F
:1025F100400D03000000000000000000000000008A
:1026010000000000000000000000000000000000C9
:1026110000000000ACEA0408000000000000000017
:10262100A9330308A0860100030000000000000098
:102631000000000000000000000000000000000099
:102641000000000000000000B8EA040800000000DB
:1026510000000000F165020840420F000000000088
:102661000000000000000000000000000000000069
:10267100000000000000000000000000C4EA04089F
:1026810000000000000000004DD8020850C3000007
:102691000000000000000000000000000000000039
:1026A1000000000000000000000000000000000029
:1026B100FFFF0100FFFFFFFFEA78002088136F177B
:1026C10001000000EC78002088136F170000000063
:1026D10008E70408000000000000000000000000FE
:1026E1000000000018E704080800000000000000D6
:1026F100B41E00200400000024E7040808000000C4
:1027010000000000A81E002000000000ECDB04080F
:10271100040000001119030800000000000000007F
:1027210094D7040801000000000000000000000030
:1027310000000000000000000E000000000000008A
:102741000000000000000000E878002088136F17E7
:1027510001000000883D002088136F170000000071
:10276100BDF5020800000000C01E00205E7C0020B4
:1027710001000000B0A704088A3D0020010000000C
:10278100BCA70408803D002002000000C4A7040883
:1027910042CD0020000000000000000040CD0020DC
:1027A10000000000000000003ECD002000000000FD
:1027B100000000003CCD00200000000000000000EF
:1027C1003ACD0020000000000000000038CD0020BC
:1027D10000000000000000000801002000000000CF
:1027E10000000000E778002002000000D0A70408E4
:1027F10064E7040800000000000000000000000081
:102801000000000018E704080800000000000000B4
:10281100441F00200400000024E704080800000011
:1028210000000000381F002000000000ECDB04085D
:10283100040000008DF50208000000000000000007
:1028410094D704080100000000000000000000000F
:1028510000000000000000000E0000000000000069
:10286100000000000000000074E704080000000000
:1028710000000000000000000000000084E70408E0
:102881000D00000049E50108741F0020040000004C
:1028910090E704080D000000F1E40108681F002022
:1028A100040000009CE704080D00000015E5010884
:1028B1005C1F002000000000A8E7040803000000DE
:1028C10079F70208501F002008000000B4E704084F
:1028D1000300000059E901087822002000000000EF
:1028E10094D704080100000000000000000000006F
:1028F10000000000000000000E00000000000000C9
:1029010000000000000000008CD704080000000057
:10291100000000000000000000000000BCE7040807
:102921000400000029190308000000000000000055
:1029310094D704080100000000000000000000001E
:1029410000000000000000000E0000000000000078
:1029510000000000000000000CE804080000000076
:1029610000000000000000000000000080110508C8
:102971000D00000000000000D41F00200400000032
:102981001CE804080800000000000000C81F002027
:102991000400000028E8040808000000000000000E
:1029A100BC1F00200400000030E8040808000000FB
:1029B10000000000B01F00200400000038E80408F7
:1029C1000800000000000000A41F00200400000017
:1029D10040E804080800000000000000981F0020E3
:1029E1000400000048E8040808000000000000009E
:1029F1008C1F00200400000050E8040808000000BB
:102A010000000000801F00200400000094D704088B
:102A110001000000000000000000000000000000B4
:102A2100000000000E000000000000000000000097
:102A310000000000A5F5020800000000E01F0020D2
:102A410000000000000000005820002000000000ED
:102A510000000000F8200020863D00200400000056
:102A6100DCA70408843D0020E0150C1700000000DD
:102A7100833D00200800000060970408823D00208B
:102A810005000000F0A7040800000000000000009D
:102A9100482100202D202D2D202D2D2D2D202D2DB7
:102AA1002D000000000000000000000000000000F8
:102AB10000000000010102FFFF000000685E0C0041
:102AC100FFFFFFFF0000803F00000000000000004A
:102AD100000000000000803F000000000000000036
:102AE10000000000000000000000000000000000E5
:102AF1000000000000000000000000000000803F16
:102B0100000000000000000000000000FFFFFFFFC8
:102B110001000000080000008F570108FB56010862
:102B2100BD6401080000000059520108B1550108B7
:102B3100935601081F550108000000000000000025
:102B41004D5201087D5001087B5001087950010860
:102B51007350010871500108775001087550010840
:102B61008D5001087F50010841620108556201083A
:102B71002D62010819620108036201080060024028
:102B8100106002400000000000000000000B000087
:102B91000000000000000000000000000060024092
:102BA100286002400100000000000000060C000047
:102BB1000000000000000000000000000060024072
:102BC100406002400200000000000000100D000003
:102BD1000000000000000000000000000060024052
:102BE100586002400300000000000000160E0000C3
:102BF1000000000000000000000000000060024032
:102C0100706002400400000000000000200F00007E
:102C11000000000000000000000000000060024011
:102C2100886002400500000000000000261000003E
:102C310000000000000000000000000000600240F1
:102C4100A0600240060000000000000030110000FA
:102C510000000000000000000000000000600240D1
:102C6100B86002400700000000000000362F00009D
:102C710000000000000000000000000000640240AD
:102C81001064024000000000000000000038000055
:102C9100000000000000000000000000006402408D
:102CA1002864024001000000000000000639000015
:102CB100000000000000000000000000006402406D
:102CC100406402400200000000000000103A0000D1
:102CD100000000000000000000000000006402404D
:102CE100586402400300000000000000163B000091
:102CF100000000000000000000000000006402402D
:102D0100706402400400000000000000203C00004C
:102D1100000000000000000000000000006402400C
:102D21008864024005000000000000002644000005
:102D310000000000000000000000000000640240EC
:102D4100A0640240060000000000000030450000C1
:102D510000000000000000000000000000640240CC
:102D6100B864024007000000000000003646000081
:102D71000000000000000000000000000100000051
:102D81000000803F782500200000000000000000C6
:102D91000000000000000000000000000000000032
:102DA1000000000000000000000000000000000022
:102DB1000000000000000000000000000000000012
:102DC1000000000000000000000000000000000002
:102DD10000000000000000000000000000000000F2
:102DE100000000000000000043000000000000009F
:102DF10000000000000000000000000000000000D2
:102E0100000000000000000043000000000000007E
:102E110000000000000000000000000000000000B1
:102E2100000000000000000043000000000000005E
:102E31000000000000000000000000000000000091
:102E4100000000000000000043000000000000003E
:102E51000000000000000000000000000000000071
:102E6100000000000000000043000000000000001E
:102E71000000000000000000000000000000000051
:102E810000000000000000004300000000000000FE
:102E91000000000000000000000000000000000031
:102EA10000000000000000004300000000000000DE
:102EB1000000000000000000000000000000000011
:102EC1000000000000000000DF8A0408BB8A04083B
:102ED10000000000E21805081BD20408C6EB040834
:102EE100C6EB0408C6EB0408C6EB0408C6EB0408ED
:102EF100C6EB0408C6EB0408C6EB0408C6EB0408DD
:102F0100FFFFFFFFFFFFFFFFFFFFFFFFFFFF0000CE
:102F11000100415343494900000000000000000046
:102F210000000000000000000000000000000000A0
:102F31000000415343494900000000000000000027
:102F41000000000000000000000000000000000080
:042F5100000000007C
:108000000378407840EA032010FB01F04FF48071C0
:1080100090FBF1F000F30F0000B270476D4B2DE9BB
:10802000F04F1C686C4BB3F80AE0B3F804809A89EF
:108030004FEA0E2AB4EB0A044FEA1E6B4FF000051C
:1080400087B065EB0B05CDE900450746009C188914
:10805000019EA0FB044500FB0655E00940EA45608F
:108060004FEA08448C46E9114FEA184510EB040822
:10807000D888009C41EB0509CDE90489A0FB0445A3
:10808000B3F8028000FB0655200A40EA05604FEA7B
:10809000C83429124FEA584510EB040841EB050992
:1080A0000099A2FB010102FB06114FEAD05A4AEAED
:1080B000412A1AF5FA634FEAE15B4BF10004B3F58C
:1080C000FA6FCDE9023474F10003424E64DA0524FC
:1080D000AAFB040104FB0B1100FB0BF40AFB014497
:1080E000DDE90423A0FB0A0121444D104FEA3004CE
:1080F000121B4FEA900463EB050344EA8174B8EB6A
:108100000408CDE90423DDE9023434484FEAA1052F
:1081100069EB05094FF0FF31834274EB010326DA66
:1081200040F6AC501AEB00024FF000014BEB01039C
:1081300002FB03F1A2FB022303EB4103D400DD00A9
:10814000101B45EA527563EB0501DDE9044524186F
:108150004D41CDE904450B24A2FB040104FB0311AE
:1081600049104FEA3000B8EB000869EB0109DDE97E
:1081700000325343009ADDE90201A2FB02AB0BEB94
:10818000430B4FEADA7242EA4B02801A4FEAEB7372
:1081900061EB0301CDE9020197B17168A1FB0823EE
:1081A00001FB0933540D5D1544EAC324DDE90423C2
:1081B000A21A65EB03031D46D30B43EA45433B601C
:1081C000BCF1000F02D0029BCCF8003007B0BDE834
:1081D000F08F00BF48270020B04C002024FAFFFF9A
:1081E0002DE9F04FDFF8DCC1754CDCF8085022882F
:1081F000B4F90AA0C2EB25135200C2EBE502B4F9B0
:1082000002505B436A43B4F904501B135D43AD1342
:1082100005EBE225B5F5FA324FEAE57B85B04BF187
:10822000FF33CDE90023DDE900325343009AA56115
:10823000A2FB0289CDE90201B4F908200199009856
:1082400009EB43095143D31700FB0311A2FB0023A1
:108250000B444FEAEA7B0AFB09F11F0308FB0B13EF
:10826000AAFB080119444FEA102A4AEA016A1603D8
:108270004FEA212B47EA12571AEB0602E6884BEB2E
:10828000070312F1000A43F5004BAAFB060106FBA7
:108290000B114A10CB1752EA030100F08E80B4F99B
:1082A0001060009806FB09F1F71708FB0711A6FB01
:1082B00008673944B4F90E808B4601994FEAE87992
:1082C00008FB01F100FB0911A8FB00898944DCF8D7
:1082D0000C104FEA4947C1F5801C47EAD837B2462F
:1082E0004FEA4846B4F90C801AEB060A66464BEB97
:1082F000070BF7174FEAC806019600260096F90704
:10830000DDE900674FEACC7016EB0A0647EB0B0776
:1083100041EA5C01801B61EB070140F6354C894660
:10832000A0FB0C010CFB09113FF0A2FFB4F91620D1
:10833000B4F914A04E13470B47EAC14702FB06FCF1
:10834000D31707FB03CCA2FB07236344564307FB69
:108350000366A2FB07233344560E46EAC3163218BF
:108360004FEA636747EB010380460AFB01F14FEADE
:10837000EA7B08FB0B17AAFB08013944C60C46EA46
:10838000413612EB06084FEAE147B4F9122043EBFD
:1083900007094FEA182141EA096113010B44029AC7
:1083A0000AB11B0A1360039B23B105EB85058035D9
:1083B0002D121D6005B0BDE8F08F0023EFE700BF70
:1083C000C44C002048270020704770472DE9F04139
:1083D000334B344E1A8A7489B6F91450B6F90480B6
:1083E000B6F90E70B6F920C05B69121B348954438C
:1083F000E213B6F912401544E40294FBF5F4B6F921
:1084000002501444A4F57A6E0EFB0EF20EFB05F535
:108410000EFB08FEB6F90C80F4611213574302FB01
:1084200008F2121402EB6E32ED1205EBE72702326E
:10843000B6F90050B6F806E0921002F5004207EBDC
:1084400085070EFB02F207FA0CF74FEAD23E02371D
:108450004CF25032A3EBA70742FA0CF37B4355BF13
:108460005B00B3FBFEF3B3FBFEF35B0078B11A12C3
:1084700002FB02F540F6DE326A430B4D12145D43F7
:1084800002EB254202F6CF6203EB2213036021B117
:108490000A235C43083424110C60BDE8F08100BF5E
:1084A000482700208C4C002043E3FFFF4FF400637B
:1084B000838270474FF40063838270474FF40063F8
:1084C00083827047012380F8483070470122482199
:1084D00008F016BA0122582108F012BA3122F4210C
:1084E00008F00EBA044B93F820209201343202F0C7
:1084F000FC02F42108F004BA8C4C00202E22F42156
:1085000008F0FEB9F0B4037C456902681F2B37D927
:10851000203B2021546899400C4223D010249C40D9
:10852000D160D4605168D940CE074ED4EFF31183A7
:10853000502282F31288AA6B1168C90709D45468C3
:10854000002C52D1D5E909618E4243D1012285F830
:108550005C20DBB283F31188037C02681F2B194671
:1085600014D9203B082150689940084200D0D160BE
:108570000421506801FA03F3184223D1F0BC70477C
:10858000202416689C4026420FD119460823106803
:108590008B40184200D093600423106803FA01F165
:1085A0000842EBD09160F0BC704710219940946074
:1085B00091601168D940CC07B8D5012101FA03F3C5
:1085C0009360B3E7D360F0BC7047012101FA03F375
:1085D000D360ABE7AF690F44D7600ED82E69711A2C
:1085E0005160AC62002185F85C10116841F0010116
:1085F000DBB2116083F31188AEE7711A5160AE628D
:10860000F0E770B4037C01681F2B26D9A3F1200585
:1086100020224C68AA40224214BF01220022D2B17B
:1086200042691C481C4C02EB420200EB42122578C6
:1086300054682068CDB9E56856892C6824F0010497
:108640002C6082891F2B22EA060282811AD82022FE
:1086500002FA03F38B6070BC704720220C689A40CA
:10866000224214BF01220022D9E7A469226822F025
:1086700001022260828922F480721204120C1F2BE4
:108680008281E4D9A3F1200220239340CB6070BC07
:10869000704700BF28B4002024B40020844B1A780F
:1086A000002A00F00481834B1978834B30B40029F1
:1086B00065D11868B3F82C5141628489012A44EAD3
:1086C00005048481A3F82C1157D0D3F83001B3F8F6
:1086D0005C5241628489022A44EA05048481A3F839
:1086E0005C124AD0D3F86002B3F88C53416284899B
:1086F000032A44EA05048481A3F88C133DD0D3F8FF
:108700009003B3F8BC5441628489042A44EA050406
:108710008481A3F8BC1430D0D3F8C004B3F8EC556E
:1087200041628489052A44EA05048481A3F8EC1592
:1087300023D0D3F8F005B3F81C5741628489062A88
:1087400044EA05048481A3F81C1716D0D3F8200747
:10875000B3F84C5841628489072A44EA05048481AD
:10876000A3F84C1809D0D3F85028B3F87C495162CB
:10877000908920439081A3F87C1930BC70475C68D5
:10878000198961602568186845F0010540F20D31CE
:108790002560A0F848108489012A44F480748481FB
:1087A000EBD0D3F83441B3F83851D3F830016560D9
:1087B000256845F001052560A0F848108489022A43
:1087C00044F480748481D8D0D3F86442B3F86852FA
:1087D000D3F860026560256845F001052560A0F8C2
:1087E00048108489032A44F480748481C5D0D3F866
:1087F0009443B3F89853D3F890036560256845F027
:1088000001052560A0F848108489042A44F4807486
:108810008481B2D0D3F8C444B3F8C854D3F8C004A8
:108820006560256845F001052560A0F84810848939
:10883000052A44F4807484819FD0D3F8F445B3F8BA
:10884000F855D3F8F0056560256845F00105256009
:10885000A0F848108489062A44F4807484818CD05E
:10886000D3F82447B3F82857D3F820076560256864
:1088700045F001052560A0F848108489072A44F4D2
:10888000807484813FF479AFD3F85428B3F8580842
:10889000D3F850385060106840F001001060A3F821
:1088A00048109A8942F480729A8130BC70477047B0
:1088B00028B7002024B400202CB7002010B4037C7B
:1088C00002681F2B09D9203B2021546801FA03F3C9
:1088D0001C4214D15DF8044B70472021146801FA42
:1088E00003F31C42F6D00C49406800240C70016868
:1088F0005DF8044B21F00101016093607047064967
:10890000406800240C7001685DF8044B21F00101FF
:108910000160D360704700BF226C00202DE9F04158
:10892000C40023189B00B749CA585268958AADB253
:10893000EFB2FE070B4461D4BE0737D5BFF35F8F9C
:108940001D7EEDB2012D00F0BB80AF4E138BBFF347
:108950005F8F231801EB83031D7E022D00F0CE8074
:10896000231801EB83031D7E032D05D19B7E1BB1D4
:10897000737E002B40F01A81938896F918C043F457
:1089800080639380231801EB83031B7E01336345CF
:108990000AD1B37E00257576002B40F08A802044F2
:1089A00001EB800000234375BDE8F081964E17F07F
:1089B000040F96F918C04DD117F0400700F0B280AF
:1089C000178A1D6AFFB205F80C705FFA8CF56F1CF0
:1089D00093F818E07BB2DF1CBE4533769C4600F06E
:1089E0000981271801EB87073F7EBB42CAD105F1F9
:1089F000020C4FFA8CFC86F818C0C3E71588824E2B
:108A000025F400652D042D0C1580158845F480652E
:108A100015809D7E00273776002D3DD0757E002D78
:108A200037D0231801EB830301251B7E7576022BBB
:108A300003D1138843F400631380231801EB8303ED
:108A40009B7D43F001031382204401EB8000037EF1
:108A5000BDE8F0819F7E757E4FF0010E86F81AE02A
:108A6000002F5CD0002D78D1231801EB83035B7EAF
:108A7000002B00F0A48013880CF1010C4FFA8CFC41
:108A800043F4007386F818C013801388DF05FCD404
:108A900078E7DB7DFF2BC4D0231801EB83039D7D9A
:108AA00005F0FE051582DB7DFF2BCDD0FF2333764D
:108AB000CAE7938823F440731B041B0C93806EE772
:108AC0009B7E514E002B3FF441AF737E002B3FF451
:108AD0003DAF138823F480631B041B0C1380BFF38A
:108AE0005F8F138B1388B57643F4007313809388DC
:108AF00096F918C043F48063938043E79B7E002B74
:108B00003FF42EAF737E002B3FF42AAF138896F903
:108B100018C023F480631B041B0C138016E0002D87
:108B2000A2D0A8E72D067FF52DAFBCF1FF3F6DD099
:108B3000DD6915F80C5015820CF1010C1D7E4FFA01
:108B40008CF39D429C4633767FF41CAF938823F4CC
:108B500080631B041B0C938014E71F7ED3F82080D6
:108B60005FFA8CF5AE44022F4FFA8EFE17882DD98E
:108B700027F480673F043F0C1780178AFFB208F87C
:108B80000C701788D3F820C047F400731380138A41
:108B9000DBB20CF80E30938805F1020C4FFA8CFC16
:108BA00043F4806386F818C093806EE7938896F943
:108BB00018C023F480631B041B0C9380E2E6138827
:108BC000012543F48073138075765EE747F40077E0
:108BD0001780178AFFB208F80C70178AD3F8208024
:108BE00005F1030C4FFA8CFCFBB286F818C008F8AC
:108BF0000E304AE7978827F480673F043F0C978040
:108C0000EFE600BFD066002048270020DD7D1582FA
:108C10009D7E37761DB91B7E002B7FF415AF9388A0
:108C200023F480631B041B0C93800DE7F0B5876968
:108C300083B0064617B13B68BA885A837069DFF87B
:108C4000A8E08389C3244FF47A734FF0060C6D4675
:108C50004FF6FF710EF1010E03E0013B9BB28B4218
:108C600020D002899207F8D5A3B283814FF47A739A
:108C700002E0A3B28B4215D00289D20703F1FF3480
:108C8000F7D5828992B20DB12A700135BCF1000F7F
:108C90000BD00CF1FF3CFF24BEF1000FE1D09EF899
:108CA0000040D7E707F03CFDB76917B13B68BA88C9
:108CB0001A839DF805009DF801509DF802109DF85B
:108CC00003409DF804209DF8063041EA052143EA5F
:108CD000002342EA04220120A6F84410A6F8462008
:108CE000A6F8483003B0F0BDEC93040837B506236E
:108CF0006A4604460D460C30032107F033FD024658
:108D000090B1B4F91A106846FFF77AF92880B4F9DF
:108D10001E100DF10200FFF773F9A880B4F91C10C2
:108D200001A8FFF76DF96880104603B030BD2DE94A
:108D3000F74F4FF4807343838383C38300F10C05A3
:108D40000446322006F0C4FE11220021284607F016
:108D5000D7FD60220121284607F0D2FD642006F0ED
:108D6000B7FE69462046FFF7C1FF112200212846C1
:108D700007F0C6FD0026DFF818A14FF00A09B0463B
:108D8000374601220221284607F0BAFD142006F0DA
:108D90009FFE69462046FFF7A9FFBDF90230BDF9E5
:108DA0000410BDF900208B429844A8BF0B469342A3
:108DB000A8BF1346534517440E4461DB012007F05A
:108DC00061F8B9F10109DCD14FF00109122200214B
:108DD000284607F095FDDFF8B8B04FF00A0A0122E7
:108DE0000221284607F08CFD142006F071FE69462A
:108DF0002046FFF77BFFBDF90230BDF90410BDF935
:108E000000208B42A8EB0308A8BF0B469342A8BFE3
:108E100013465B45A7EB0207A6EB010633DB0120F7
:108E200007F030F8BAF1010AD9D1184B93FBF7F7E4
:108E300093FBF8F87022A3F58423002193FBF6F648
:108E40006783A4F81C80E683284607F059FD20229A
:108E50000121284607F054FD00220221284607F090
:108E60004FFD642006F034FEB9F1000F04D14FF439
:108E700080736383A383E383012003B0BDE8F08F95
:108E80004FF00009A2E74FF00009CEE700D03B0009
:108E900001F0FFFF07B5032301AA002107F062FCE0
:108EA0009DF805309DF804001B0243EA00439DF83D
:108EB0000600184303B05DF804FB08B5FFF7EAFFAE
:108EC000014B586008BD00BF4827002008B5FFF7D8
:108ED000E1FF014B186008BD4827002007B50623B5
:108EE0006A46F72107F03EFC9DF801309DF800101E
:108EF0000B4A1B0143EA01339DF8021043EA1113A8
:108F0000D3609DF804309DF803101B0143EA013340
:108F10009DF8051043EA1113936003B05DF804FB5C
:108F20004827002007B5032301AAF62107F01AFC01
:108F30009DF805309DF804201B0243EA02439DF88A
:108F400006201343054AB2F92020C2F10802D3409B
:108F5000034A536103B05DF804FB00BF8C4C002052
:108F60004827002007B5022301AAF62107F0FAFBE3
:108F70009DF804209DF8053043EA0223024A13823B
:108F800003B05DF804FB00BF4827002070B582B035
:108F90000446062310306A46432107F0E3FBC0B1C4
:108FA0009DF804009DF800609DF801109DF80250A6
:108FB0009DF803209DF8053041EA062143EA00238D
:108FC00042EA0522A4F84410A4F84620A4F8483048
:108FD000012002B070BD70B582B00446062308308F
:108FE0006A463B2107F0BEFBA8B19DF804009DF83E
:108FF00000609DF801109DF802509DF803209DF837
:10900000053041EA062143EA002342EA0522E182D3
:1090100022836383012002B070BD2DE9F04F90F8E8
:10902000583085B00746002B40F028848B4B786978
:10903000DB7E002B00F0C680894B984210D003F5F0
:10904000806398420CD0038823F040031B041B0C60
:109050000380038823F038031B041B0C38220BE029
:10906000038823F040031B041B0C0380038823F0B8
:1090700038031B041B0C3022134303800388BA6996
:1090800043F04003038097F8564012B1136892886A
:109090005A8340F2E93302E0002B00F0298502896F
:1090A000013B12F0020F9BB2F6D01A23838140F2EB
:1090B000E93302E0002B00F01B850289013B12F02E
:1090C000010F9BB2F6D0838940F2E93302E0002B16
:1090D00000F00A850289013B12F0020F9BB2F6D024
:1090E000A4B2848140F2E93302E0002B00F0FC845A
:1090F0000289013B12F0010F9BB2F6D08389BB6954
:1091000013B11A689B881383012006F05BFC7B690E
:10911000534A934210D002F5806293420CD01A88D1
:1091200022F040021204120C1A801A8822F038022F
:109130001204120C08210BE01A8822F040021204DB
:10914000120C1A801A8822F038021204120C002124
:109150000A431A801A8842F040021A8043210623EB
:1091600002AA07F1100007F0FDFAF0B19DF80A50CD
:109170009DF80B309DF808409DF809109DF80C00F3
:109180009DF80D2043EA05231BB2A7F846305BB2D9
:1091900041EA042142EA00220133A7F84410A7F86B
:1091A000482007D005B0BDE8F08FB7F946305BB274
:1091B0000133F7D197F944300133F3D1062006F09B
:1091C000BBF8EFE7264B984200F0978403F58063E5
:1091D000984200F09284038823F040031B041B0C88
:1091E0000380038823F038031B041B0C382213432D
:1091F00003800388BA6943F04003038012B1136807
:1092000092885A8340F2E93302E0002B00F0FE849A
:109210000289013B12F0020F9BB2F6D06B238381CF
:1092200040F2E93302E0002B00F0F0840289013BB8
:1092300012F0010F9BB2F6D0838940F2E93302E0CD
:10924000002B00F0E8840289013B12F0020F9BB270
:10925000F6D08023838140F2E93306E048270020DE
:1092600000380040002B00F0D6840289013B12F048
:10927000010F9BB2F6D08389BB6913B11A689B8832
:1092800013839623A84CA94EDFF8A882A84DDFF8D7
:10929000A89201974FF0100A1F4606F047FB4FF4C3
:1092A0007A7C4FF0010ED8F80430C3F30803002B8A
:1092B00040F05E84EFF31183002B40F05984236863
:1092C000A96800BF22689342F9D132680CFB02FB07
:1092D000ABEB0101B1FBF2F10CFB03131B1AB3F56D
:1092E0007A7FE0D3013FD8D1019FBB6913B11A68DF
:1092F0009B885383786940F2E93302E0002B00F049
:109300007C840289013B12F0020F9BB2F6D06823E5
:10931000838140F2E93302E0002B00F06E84028981
:10932000013B12F0010F9BB2F6D0838940F2E93382
:1093300002E0002B00F066840289013B12F0020F6C
:109340009BB2F6D00323838140F2E93302E0002B85
:1093500000F058840289013B12F0010F9BB2F6D055
:109360008389BB6913B11A689B8813839623DFF83E
:10937000C4816F4DDFF8C09101974FF0100A1F466E
:1093800006F0D4FA4FF47A7C4FF0010ED8F804308E
:10939000C3F30803002B40F0CD83EFF31183002BC0
:1093A00040F0C8832368A96800BF22689342F9D1BE
:1093B00032680CFB02FBABEB0101B1FBF2F10CFBE1
:1093C00003131B1AB3F57A7FE0D3013FD8D1019F75
:1093D000BB6913B11A689B885383786940F2E933FB
:1093E00002E0002B00F0FB830289013B12F0020F28
:1093F0009BB2F6D06B23838140F2E93302E0002B6D
:1094000000F0ED830289013B12F0010F9BB2F6D010
:10941000838940F2E93302E0002B00F0E483028903
:10942000013B12F0020F9BB2F6D00323838140F27E
:10943000E93302E0002B00F0D6830289013B12F0F1
:10944000010F9BB2F6D08389BB6913B11A689B8860
:1094500013830F2006F0B6FABB6913B11A689B8814
:109460005383786940F2E93302E0002B00F0BE83B9
:109470000289013B12F0020F9BB2F6D06A2383816E
:1094800040F2E93302E0002B00F0B0830289013B97
:1094900012F0010F9BB2F6D0838940F2E93302E06B
:1094A000002B00F0A7830289013B12F0020F9BB250
:1094B000F6D01023838140F2E93302E0002B00F064
:1094C00099830289013B12F0010F9BB2F6D0838988
:1094D000BB6913B11A689B8813830F2006F072FAD8
:1094E000BB6913B11A689B885383786940F2E933EA
:1094F00002E0002B00F0A1830289013B12F0020F71
:109500009BB2F6D06C23838140F2E93302E0002B5A
:1095100000F093830289013B12F0010F9BB2F6D059
:10952000838940F2E9330CE02C9400203094002031
:1095300010E000E000ED00E028940020002B00F097
:1095400080830289013B12F0020F9BB2F6D0002308
:10955000838140F2E93302E0002B00F0728302893C
:10956000013B12F0010F9BB2F6D08389BB6913B1A6
:109570001A689B8813830F2006F024FABB6997F8BA
:10958000574013B11A689B885383786940F2E933D6
:1095900002E0002B00F058830289013B12F0020F19
:1095A0009BB2F6D01923838140F2E93302E0002B0D
:1095B00000F04A830289013B12F0010F9BB2F6D002
:1095C000838940F2E93302E0002B00F041830289F5
:1095D000013B12F0020F9BB2F6D0A4B2848140F29C
:1095E000E93302E0002B00F033830289013B12F0E3
:1095F000010F9BB2F6D08389BB6913B11A689B88AF
:1096000013830F2006F0DEF9BB6913B11A689B883B
:109610005383786940F2E93302E0002B00F01B83AA
:109620000289013B12F0020F9BB2F6D01B2383810B
:1096300040F2E93302E0002B00F00D830289013B88
:1096400012F0010F9BB2F6D0838940F2E93302E0B9
:10965000002B00F004830289013B12F0020F9BB241
:10966000F6D01823838140F2E93302E0002B00F0AA
:10967000F6820289013B12F0010F9BB2F6D083897A
:10968000BB6913B11A689B8813830F2006F09AF9FF
:10969000BB6913B11A689B885383786940F2E93338
:1096A00002E0002B00F0DE820289013B12F0020F83
:1096B0009BB2F6D01C23838140F2E93302E0002BF9
:1096C00000F0D0820289013B12F0010F9BB2F6D06C
:1096D000838940F2E93302E0002B00F0C78202895F
:1096E000013B12F0020F9BB2F6D01823838140F2A7
:1096F000E93302E0002B00F0B9820289013B12F04D
:10970000010F9BB2F6D08389BB6913B11A689B889D
:1097100013830F2006F056F9BB6913B11A689B88B2
:109720005383786940F2E93302E0002B00F077823E
:109730000289013B12F0020F9BB2F6D037238381DE
:1097400040F2E93302E0002B00F069820289013B1C
:1097500012F0010F9BB2F6D0838940F2E93302E0A8
:10976000002B00F060820289013B12F0020F9BB2D5
:10977000F6D01023838140F2E93302E0002B00F0A1
:1097800052820289013B12F0010F9BB2F6D083890D
:10979000BB6913B11A689B8813830F2006F012F976
:1097A000BB6913B11A689B885383786940F2E93327
:1097B00002E0002B00F03A820289013B12F0020F16
:1097C0009BB2F6D03823838140F2E93302E0002BCC
:1097D00000F02C820289013B12F0010F9BB2F6D0FF
:1097E000838940F2E93302E0002B00F023820289F2
:1097F000013B12F0020F9BB2F6D00123838140F2AD
:10980000E93302E0002B00F015820289013B12F0DF
:10981000010F9BB2F6D08389BB6913B11A689B888C
:1098200013830F2006F0CEF87B69124A934200F0B2
:10983000BE8102F58062934200F0B9811A8822F05D
:1098400040021204120C1A801A8822F03802120404
:10985000120C08210A431A801A8842F040021A802A
:10986000012006F0AFF8044A78690123D376FFF7A8
:10987000E3BB00BF00380040482700201C09013C22
:10988000032C03F00F0300F29F81A34A32F8140067
:1098900040FA03F2D20740F19781012505FA03F35C
:1098A000013B18403EF034FD9C4B9D4A1B5D184423
:1098B00012EBC00400F0888120210023A171E37124
:1098C00052F83030974903F13F4202F57E02920A86
:1098D0008A5C02F01F015209032A05FA01F500F023
:1098E000CD81042A00F0C581022A03D18E4A516C31
:1098F0000D435564A288D6070BD5196821F00301E2
:10990000196019681960D96821F00301D960D96814
:10991000D96095070BD5196821F00C0119601968F9
:109920001960D96821F00C01D960D968D960500755
:109930000BD5196821F03001196019681960D968D0
:1099400021F03001D960D968D96011070BD51968A9
:1099500021F0C001196019681960D96821F0C001AF
:10996000D960D968D960D6060BD5196821F4407141
:10997000196019681960D96821F44071D960D968F3
:10998000D96095060BD5196821F4406119601968F2
:109990001960D96821F44061D960D968D96050064E
:1099A0000BD5196821F44051196019681960D968FC
:1099B00021F44051D960D968D96011060BD51968D6
:1099C00021F44041196019681960D96821F44041B7
:1099D000D960D968D960D6050BD5196821F4403112
:1099E000196019681960D96821F44031D960D968C3
:1099F000D96095050BD5196821F4402119601968C3
:109A00001960D96821F44021D960D968D96050051E
:109A10000BD5196821F44011196019681960D968CB
:109A200021F44011D960D968D96011050BD51968A6
:109A300021F44001196019681960D96821F44001C6
:109A4000D960D968D960D6040BD5196821F0407166
:109A5000196019681960D96821F04071D960D96816
:109A6000D96095040BD5196821F040611960196817
:109A70001960D96821F04061D960D968D960500473
:109A80000BD5196821F04051196019681960D9681F
:109A900021F04051D960D968D96011040BD51A68FA
:109AA00022F040421A601A681A60DA6822F04042D6
:109AB000DA60DA68DA6039461C4B41F80C3FF02274
:109AC0000823204606F03AFDA388B3FA83F3C3F1D6
:109AD0001F03012212FA03F33FF4A8AA14490A68EB
:109AE00013430B60FFF7A2BA06F01AFEFFF707BB9D
:109AF00006F016FE7869FFF7E7BA038823F0400303
:109B00001B041B0C0380038823F038031B041B0C6D
:109B10003022FFF76CBB00BFBCC80408C4C80408EF
:109B20009C9200203CC6040800380240C58400080E
:109B3000003C0140EFF311818AF31288D5F808B098
:109B40002B68DB0344BFC9F800E0D5F808B02368F0
:109B5000D9F80020C9B281F31188316813440CFB95
:109B600001F2A2EB0B02B2FBF1F20CFB032328E49F
:109B7000EFF311818AF31288D5F808B02B68DA0365
:109B800044BFC9F800E0D5F808B02368D9F8002030
:109B9000C9B281F31188316813440CFB01F2A2EBC6
:109BA0000B02B2FBF1F20CFB0323FFF797BB1A8801
:109BB00022F040021204120C1A801A8822F0380295
:109BC0001204120C002145E639462F4B41F80C3F98
:109BD000F0220823002006F0B1FCFFF727BA06F0B8
:109BE0009FFD786915E406F09BFD2DE406F098FDD5
:109BF000786952E406F094FD6AE406F091FD786914
:109C0000FFF794BB06F08CFDFFF7ABBB06F088FDB9
:109C10007869FFF712BB06F083FDFFF72DBB06F056
:109C20007FFD786999E506F07BFDB1E506F078FDEA
:109C30007869D6E506F074FDEEE506F071FD786909
:109C40006FE406F06DFD91E406F06AFD7869B8E412
:109C500006F066FDD0E406F063FD7869F5E406F0F1
:109C60005FFD0DE506F05CFD786932E506F058FD14
:109C70004AE5064A116B0D4315633BE6034A116C36
:109C80000D43156436E600BFC58400080038024065
:109C9000144B984223D003F5806398421FD0038869
:109CA00023F040031B041B0C0380038823F03803BC
:109CB0001B041B0C69B141F48071002991FAA1F1D8
:109CC000B1FA81F108BF4FF0FF31013943EAC10316
:109CD0009BB20380038843F0400303807047490828
:109CE000DDE700BF0038004008B540F2E93300E08E
:109CF000A3B10289013B12F0020F9BB2F8D089B2E6
:109D0000818140F2E93300E043B10289013B12F066
:109D1000010F9BB2F8D08089C0B208BD06F000FDEB
:109D2000C0B208BDA949AA48AA4A2DE9F84F0123A3
:109D300003700B88128823F040031B041B0C0B805C
:109D40000B8823F038031B0452084FEA13430DD04D
:109D500042F48072002A92FAA2F2B2FA82F208BFAA
:109D60004FF0FF32013A43EAC2039BB2974A138095
:109D7000138843F040031380974B1B6813B11A6894
:109D80009B88538340F2E933904902E0002B00F0B6
:109D90009F810A89013B12F0020F9BB2F6D0052386
:109DA0008B8140F2E933894902E0002B00F0908179
:109DB0000A89013B12F0010F9BB2F6D08B898348D0
:109DC00040F2E93302E0002B00F0A6810289013B5A
:109DD00012F0020F9BB2F6D0002383817B4940F240
:109DE000E93302E0002B00F097810A89013B12F071
:109DF000010F9BB2F6D08B89744840F2E93302E040
:109E0000002B00F085810289013B12F0020F9BB20A
:109E1000F6D0062383816D4940F2E93302E0002B3E
:109E200000F076810A89013B12F0010F9BB2F6D057
:109E30008B89664840F2E93302E0002B00F0648130
:109E40000289013B12F0020F9BB2F6D000238381FE
:109E50005E4940F2E93302E0002B00F055810A89A7
:109E6000013B12F0010F9BB2F6D08B89DFF86CA199
:109E700056489AF81C4040F2E93344F0010402E0ED
:109E8000002B00F03D810289013B12F0020F9BB2D2
:109E9000F6D0042383814D4940F2E93302E0002BE0
:109EA00000F02E810A89013B12F0010F9BB2F6D01F
:109EB0008B89464840F2E93302E0002B00F01C8118
:109EC0000289013B12F0020F9BB2F6D0A4B23F49C7
:109ED000848140F2E93302E0002B00F00D810A8911
:109EE000013B12F0010F9BB2F6D08B89DFF8F090A6
:109EF000B9F80030002B47D0DFF8E880DFF8E8B091
:109F0000324C474607261BF8015F40F2E93302E076
:109F1000002B00F0D9802089013B10F0020F9BB28A
:109F2000F6D0A68140F2E93302E0002B00F0CC80AD
:109F30002089013B10F0010F9BB2F6D0A38940F2BB
:109F4000E93302E0002B00F0BB802089013B10F0D8
:109F5000020F9BB2F6D0ADB2A58140F2E93302E028
:109F6000002B00F0AD802089013B10F0010F9BB267
:109F7000F6D0A3899BF8003007F8013BB9F8000040
:109F8000A7EB08039842BEDC104840F2E93302E038
:109F9000002B00F0AD800289013B12F0020F9BB252
:109FA000F6D007238381094940F2E93302E0002B10
:109FB00000F09E800A89013B12F0010F9BB2F6D09F
:109FC0008B89024840F2E93312E000BF003C0040B8
:109FD000617B0020042300207C9200204827002081
:109FE000F816002068270020076A0020002B7BD08D
:109FF0000289013B12F0020F9BB2F7D0FF2383814D
:10A00000474940F2E93301E0002B6DD00A89013B5A
:10A0100012F0010F9BB2F7D08B899AF81C40404890
:10A0200040F2E93301E0002B5AD00289013B12F0E3
:10A03000020F9BB2F7D004238381394940F2E93300
:10A0400001E0002B4CD00A89013B12F0010F9BB2BA
:10A05000F7D08B89324840F2E93301E0002B3BD046
:10A060000289013B12F0020F9BB2F7D0A4B22C4937
:10A07000848140F2E93300E073B30A89013B12F0B6
:10A08000010F9BB2F8D08B89264B1B6813B11A685D
:10A090009B881383224A138823F040031B041B0C64
:10A0A0001380138823F038031B041B0C13801388C0
:10A0B00043F0400313801C4B00211970BDE8F88F5A
:10A0C000204606F02DFB55E7204606F029FB36E733
:10A0D000134806F025FB72E6114806F021FBD3E792
:10A0E0000F4806F01DFBB5E70D4806F019FB94E795
:10A0F0000B4806F015FB64E7094806F011FBF5E68E
:10A10000074806F00DFBD4E6054806F009FBADE66E
:10A11000034806F005FB8CE6014806F001FB6BE600
:10A12000003C00407C920020617B0020A9490A8805
:10A1300022F040022DE9F0471204A74E120C33889A
:10A140000A800A8822F0380212045B084FEA1242A1
:10A150000DD043F48071002991FAA1F1B1FA81F197
:10A1600008BF4FF0FF31013942EAC10292B299496A
:10A170009A4D0A800A8842F040020A80296811B18B
:10A180000A6888885083964A1278012A00F005826E
:10A19000C0F0E581022A00F0D481924F3A7812F0A3
:10A1A000400F0CBF4FF4C3724FF4F072DFF83C82E3
:10A1B0008848A8F80020028822F040021204120CFD
:10A1C0000280028822F038021204120C6BB143F4B0
:10A1D0008073002B93FAA3F3B3FA83F308BF4FF015
:10A1E000FF33013B42EAC30292B27A4B1A801A88CB
:10A1F00042F040021A8011B10B688A885A83754C6C
:10A200004FF010094FF0010A40F2E93302E0002B51
:10A2100000F09D812289013B12F0020F9BB2F6D023
:10A220001FFA89F3A38140F2E93302E0002B00F02A
:10A230008E812289013B12F0010F9BB2F6D0A389D7
:10A2400040F2E93302E0002B00F085812289013BD6
:10A2500012F0020F9BB2F6D0A4F80CA040F2E93342
:10A2600002E0002B00F077812289013B12F0010F00
:10A270009BB2F6D0A38909F10109B9F1200FC3D12E
:10A28000296811B10B688A881A83524B1A8822F008
:10A2900040021204120C1A801A8822F038021204AA
:10A2A000120C1A801A8842F040021A8018883288EC
:10A2B00020F040000004000C18801B8823F03803B5
:10A2C0001B0452084FEA13430DD042F48072002A57
:10A2D00092FAA2F2B2FA82F208BF4FF0FF32013ACC
:10A2E00043EAC2039BB23B4A1380138843F0400306
:10A2F000138011B10B688A885A833C78354840F244
:10A30000E93302E0002B00F052810289013B12F098
:10A31000020F9BB2F6D0002383812E4940F2E9332D
:10A3200002E0002B00F043810A89013B12F0010F8B
:10A330009BB2F6D08B89274840F2E93302E0002B2C
:10A3400000F039810289013B12F0020F9BB2F6D076
:10A35000A4B22049848140F2E93302E0002B00F0EE
:10A360002A810A89013B12F0010F9BB2F6D08B893A
:10A370001D4B18481C7840F2E93302E0002B00F036
:10A380001E810289013B12F0020F9BB2F6D002231C
:10A390008381104940F2E93302E0002B00F00F8185
:10A3A0000A89013B12F0010F9BB2F6D08B89094854
:10A3B00040F2E93302E0002B00F005810289013B05
:10A3C00012F0020F9BB2F6D0A4B20249848140F28F
:10A3D000E93310E0003C0040042300207C92002080
:10A3E00090920020DD18002097920020F81600209F
:10A3F000002B00F0E8800A89013B12F0010F9BB2AC
:10A40000F6D08B89794B7A481C7840F2E93302E028
:10A41000002B00F0DC800289013B12F0020F9BB29E
:10A42000F6D003238381724940F2E93302E0002B26
:10A4300000F0CD800A89013B12F0010F9BB2F6D0EB
:10A440008B896B4840F2E93302E0002B00F0C380B7
:10A450000289013B12F0020F9BB2F6D0A4B264490C
:10A46000848140F2E93302E0002B00F0B4800A89D5
:10A47000013B12F0010F9BB2F6D08B895D4B5C481B
:10A480001C7F40F2E93344F0040402E0002B00F0AA
:10A49000A6800289013B12F0020F9BB2F6D0042382
:10A4A0008381534940F2E93302E0002B00F09780AA
:10A4B0000A89013B12F0010F9BB2F6D08B894C4800
:10A4C00040F2E93301E0002B6DD00289013B12F02C
:10A4D000020F9BB2F7D0A4B24549848140F2E93320
:10A4E00001E0002B5FD00A89013B12F0010F9BB203
:10A4F000F7D08B892B6813B11A689B8813833C4A69
:10A500003D4C13883D4823F040031B041B0C138073
:10A51000138823F038031B041B0C1380138843F0AB
:10A5200040031380B8F8002000213EF013FB23788D
:10A530002BB1334B1B78002B55D000232370BDE883
:10A54000F087304F08223A704FF4C3722EE620464F
:10A5500006F0E6F874E6204606F0E2F88BE6A02165
:10A560002348FFF7C1FB00212148FFF7BDFB00F0A6
:10A570000603022B0AD000F00500012806D1214F66
:10A580003388296848223A705B0809E01D4F3388F8
:10A59000296808223A705B08D6E71A4F48223A70B9
:10A5A0004FF4F07202E6124806F0BAF8A2E710483B
:10A5B00006F0B6F8BFE60E4806F0B2F8D8E60C484A
:10A5C00006F0AEF8F3E60A4806F0AAF81AE70848DB
:10A5D00006F0A6F835E7064806F0A2F84EE704486C
:10A5E00006F09EF86BE7FFF79DFBA6E79892002028
:10A5F000003C004048270020000000206827002081
:10A60000617B0020DD1800202DE9F84FA84F3B7832
:10A6100003B1FEE7A74C2288012322F040023B70E1
:10A620001204A54B120C1B882280228822F03802CB
:10A6300012045B084FEA12420DD043F48073002BE2
:10A6400093FAA3F3B3FA83F308BF4FF0FF33013B50
:10A6500042EAC3039AB2974BDFF868821A801A88DD
:10A6600042F040021A80D8F8003013B11A689B8873
:10A670005383924B01228B461A7004468D4940F257
:10A68000E93302E0002B00F0A1810A89013B12F0BE
:10A69000020F9BB2F6D000238B8140F2E93385494B
:10A6A00002E0002B00F092810A89013B12F0010FB9
:10A6B0009BB2F6D08B897F4840F2E93302E0002B51
:10A6C00000F098810289013B12F0020F9BB2F6D094
:10A6D00000238381774940F2E93302E0002B00F048
:10A6E00089810A89013B12F0010F9BB2F6D08B8958
:10A6F000704840F2E93302E0002B00F077810289D4
:10A70000013B12F0020F9BB2F6D009238381694905
:10A7100040F2E93302E0002B00F068810A89013B36
:10A7200012F0010F9BB2F6D08B89624840F2E933F8
:10A7300002E0002B00F056810289013B12F0020F6B
:10A740009BB2F6D0A4B25B49848140F2E93302E0C7
:10A75000002B00F047810A89013B12F0010F9BB2E8
:10A76000F6D08B89564E534C0BF1FF3B4FF000094E
:10A770004FF00A0A40F2E93302E0002B00F00D81AD
:10A780002289013B12F0020F9BB2F6D0A4F80CA074
:10A7900040F2E93302E0002B00F0FF802289013B08
:10A7A00012F0010F9BB2F6D0A38940F2E93302E028
:10A7B000002B00F0F6802289013B12F0020F9BB2C1
:10A7C000F6D01FFA89F3A38140F2E93302E0002BAF
:10A7D00000F0E7802289013B12F0010F9BB2F6D016
:10A7E000A3891BF8015F40F2E93302E0002B00F07F
:10A7F000DC802289013B12F0020F9BB2F6D00B23C2
:10A80000A38140F2E93302E0002B00F0CE802289E0
:10A81000013B12F0010F9BB2F6D0A38940F2E9335D
:10A8200002E0002B00F0C5802289013B12F0020FEC
:10A830009BB2F6D0ADB2A58140F2E93302E0002B25
:10A8400000F0B7802289013B12F0010F9BB2F6D0D5
:10A85000A389336833B11A689B8851690B4214BFCE
:10A860005383138309F10109B9F1360F82D140F204
:10A87000E933104802E0002B00F0B0800289013B70
:10A8800012F0020F9BB2F6D008238381094940F2EF
:10A89000E93302E0002B00F0A1800A89013B12F0AD
:10A8A000010F9BB2F6D08B89024840F2E9330EE0EB
:10A8B000617B0020003C004004230020697B0020D5
:10A8C000F89300207C920020002B00F08380028906
:10A8D000013B12F0020F9BB2F6D0A02383814749BF
:10A8E00040F2E93301E0002B74D00A89013B12F0F9
:10A8F000010F9BB2F7D08B89404CA02540F2E93381
:10A9000001E0002B59D02289013B12F0020F9BB2CB
:10A91000F7D0A58140F2E93301E0002B4DD0228928
:10A92000013B12F0010F9BB2F7D0A38940F2E9334B
:10A9300001E0002B45D02289013B12F0020F9BB2AF
:10A94000F7D00023A38140F2E93301E0002B38D097
:10A950002289013B12F0010F9BB2F7D0A089C0B24F
:10A960008306CBD4D8F8003013B11A689B881383C0
:10A97000224A138823F040031B041B0C1380138806
:10A9800023F038031B041B0C13801388002143F0B1
:10A99000400313803970BDE8F88F204605F0C0FEF3
:10A9A00003E7204605F0BCFE1BE7204605F0B8FE95
:10A9B00034E7204605F0B4FE4BE7204605F0B0FE34
:10A9C000B4E7204605F0ACFEC0B2C9E70B4805F07D
:10A9D000A7FE70E6094805F0A3FE8DE7074805F0DD
:10A9E0009FFE61E7054805F09BFEBBE6034805F0C6
:10A9F00097FE9AE6014805F093FE79E6003C004098
:10AA00001378C3B130B41E240B4D14FB010129444B
:10AA1000801A84181D2C07DC01F8013B12F8013F55
:10AA2000002BF6D130BC704712F8013F0131002BEA
:10AA3000EFD130BC70477047086A0020F8B5424C2F
:10AA4000424A2388128823F040031B041B0C2380F6
:10AA50002388C1F1030123F0380341EA80071B0476
:10AA60005208FFB24FEA13430DD042F48072002A1D
:10AA700092FAA2F2B2FA82F208BF4FF0FF32013A24
:10AA800043EAC2039BB2304A314D1380138843F02E
:10AA9000400313802B6813B11A689B8853832A4C98
:10AAA000BFB2102640F2E93301E0002B44D02289E6
:10AAB000013B12F0020F9BB2F7D0B3B2A38140F278
:10AAC000E93301E0002B37D02289013B12F0010F5E
:10AAD0009BB2F7D0A38940F2E93301E0002B2FD0DD
:10AAE0002289013B12F0020F9BB2F7D0A78140F2FE
:10AAF000E93300E023B32289013B12F0010F9BB23E
:10AB0000F8D0A3890136202ECCD12B6813B11A6856
:10AB10009B8813830C4A138823F040031B041B0CEF
:10AB20001380138823F038031B041B0C1380138835
:10AB300043F040031380F8BD204605F0F1FDCAE75D
:10AB4000204605F0EDFDDDE7003C00400423002039
:10AB50007C92002038B5444C257F002879D105F03F
:10AB6000F7054249424A0B881288257723F04003B3
:10AB70001B041B0C0B800B8823F038031B045208AA
