:020000040800F2
:10000000F0FF00106D6D040817380208C94E010892
:10001000716E0408716E0408716E0408000000001F
:100020000000000000000000000000001D38020871
:100030001B3802080000000019380208D5AC00087F
:10004000716E0408716E0408716E0408716E040804
:10005000716E0408716E040891B40008BDB5000803
:1000600081B5000845B5000809B5000805F000088D
:10007000F5EF0008E5EF0008D5EF0008C1EF000834
:10008000ADEF000899EF0008716E0408716E040866
:10009000716E0408716E0408716E0408CDB4000816
:1000A0009D9C000829A20008716E0408E9A20008BE
:1000B00069A10008A9A00008DD9F000851080108F7
:1000C00059080108450801084D080108716E040827
:1000D000716E040841AE0008716E0408A5AD0008F9
:1000E00055B40008716E040879700208CD9B0008B1
:1000F0006D9D0008716E04083D9E000885EF0008A4
:10010000716E0408716E04080D9F0008716E04087A
:10011000716E0408716E0408394D03081D4D030803
:1001200071EF00085DEF000849EF000835EF0008A7
:1001300021EF0008716E0408716E0408716E0408E6
:10014000716E0408716E0408716E0408154002088F
:100150000DEF0008F9EE0008E5EE000809AD000813
:100160003908010841080108716E0408716E04081D
:10017000716E0408716E0408716E0408716E0408D3
:08018000716E0408716E0408A1
:080188001469040001000000ED
:1001900010020100382C0020342C00200000000048
:1001A000E006000803123300973E0020643E002062
:1001B00000000000E406000825005A00903D0020E1
:1001C000EA3D00200000000000000000F6110C00D5
:1001D000BC3C0020B03C00200000000018070008D4
:1001E00015007000D03B0020403C002000000000C3
:1001F000000000002A006000103B0020703B00203F
:1002000000000000F58102082C001000443E002090
:10021000543E00200000000081A401082B002400AF
:10022000EE3E0020CA3E00200000000051A401085C
:1002300029006400C83C00202C3D00200000000084
:100240000000000004120200E43F002040410020B2
:1002500000000000240700080F020100E03F00201A
:10026000444100200000000026070008140002009E
:100270009C3700200E3B00200000000028070008EB
:1002800010100200603F00204841002000000000E4
:100290002A07000828001000503F00204C41002091
:1002A00000000000A985010819000500483F002052
:1002B0005C410020000000002C070008F821060027
:1002C000F63A0020644100200000000032070008D8
:1002D0001B00F4004C51002034640020000000009A
:1002E00035A603080E0202004457002028650020AE
:1002F00000000000380700082F001100FA630020FA
:100300002C650020000000003A07000805100600D8
:100310002864002040650020000000004C07000811
:10032000F5216E00FC4A0020486500200000000016
:100330005B21020826000E00C8650020B865002079
:1003400000000000312102080B2010006C4B00203F
:10035000D865002000000000520700081F101C0094
:10036000DC4A0020E8650020000000006207000869
:1003700005020100985300200466002000000000E0
:100380007E07000803010A00864B00200866002053
:10039000000000008007000803000100F06F00204B
:1003A000A070002000000000000000001D000100FF
:1003B00008700020A4700020000000008A070008D8
:1003C0002700040028700020A87000200000000012
:1003D0008C07000801200800306E0020AC7000205F
:1003E00000000000900700081A000A00106E0020AC
:1003F000B4700020000000009807000816000800F4
:1004000058770020AC85002000000000A2070008FB
:100410000702020084850020D4850020000000002F
:10042000AA07000802000C0060770020D885002091
:10043000000000000000000006020C005C850020A7
:10044000E4850020000000002D4403080802090094
:10045000E4840020F085002000000000A943030888
:10046000F7010600D8840020FC8500200000000071
:10047000AC0700080A020A009471002004860020DC
:1004800000000000B20700080E20EA00D488002017
:100490004090002000000000618202081300040068
:1004A0006C8C00202C91002000000000BC0700088C
:1004B0000101040054880020309100200000000059
:1004C00000000000000104004C880020349100204E
:1004D00000000000C0070008020103004788002058
:1004E00038910020000000002D430308090201009C
:1004F000708F00203C91002000000000C40700081D
:100500000C106000E48900204091002000000000F1
:1005100001430308010205005C880020A09100202F
:1005200000000000ED9D0308000205002486002065
:10053000A891002000000000000000001E00040040
:10054000688A0020B091002000000000C607000863
:1005500022000C006C8E0020B491002000000000EE
:10056000CA07000804008000D4CC0020ECD500208D
:10057000000000000000000023001000D8CB002085
:100580006CD6002000000000C5850108F9010400B8
:10059000D0BF00207CD6002000000000B5830008FA
:1005A000FD012400A8BF002080D60020000000002C
:1005B0004583000806101600C4B20020A4D600200F
:1005C00000000000B1820208FB01010000B200201F
:1005D000BCD60020000000006D430308FC010900A8
:1005E000CCB00020C0D600200000000075430308F6
:1005F0000A101E0044A80020CCD6002000000000F5
:10060000D60700083400100038A70020ECD60020E0
:10061000000000001D8202081102080010A700203F
:10062000FCD6002000000000F407000812120400AD
:1006300008A7002004D7002000000000FC070008E5
:1006400012200D00F4A6002008D7002000000000B2
:100650000008000811000C00809B002018D7002023
:1006600000000000E743030818202C00209B002016
:1006700024D700200000000009BD01080D0034004F
:100680004C9B002050D70020000000004944030884
:10069000FA010200B493002084D70020000000007B
:1006A0000988000802020300D891002088D70020A2
:1006B00000000000000000000C020100C8910020B2
:1006C0008CD70020000000000E080008FE01090081
:1006D0008C93002090D7002000000000C94303083D
:1006E000000000000000000000000000000000000A
:1006F00000000000000000000000000000000000FA
:1007000000000000000000000000000000000000E9
:1007100000000000000001000000000000000000D8
:10072000000000001118000003000005000028016F
:1007300000000401F40119000000000000000000A6
:100740000000000000000000000000002000010187
:1007500000002B21231E64010100000001000A019A
:100760002900000000000000010000000500000159
:100770000203000000000000000000000000000074
:10078000040101006C1600000000000020030000BE
:10079000E8036400040A00017E05EA05B40532009E
:1007A0000000C409000019012828023C24010000AF
:1007B000000000004A01B400D60100000800040057
:1007C000900100002E0000000100C800141E01006E
:1007D00064002C01280000300100005A00000000D5
:1007E000000090012C01C80064000200000000001D
:1007F000000000000000000001010101FFFFFFFFF9
:0F080000000000010000054F42463400000001D7
:10080F00010000005001000007000000020000007E
:10081F0000000000000000000102030406070809A1
:10082F00010102FFFF000000685E0C00FFFFFFFFE9
:10083F00FF000000D6010000A59401080000000091
:10084F000000000001000000000101010000000095
:10085F00FFFFFFFF01000000040309041201000263
:10086F00020200408304405700020102030100000E
:10087F0009024300020100C0320904000001020214
:10088F0001000524001001052401000104240202C7
:10089F000524060001070582030800FF0904010073
:1008AF00020A00000007050102400000070581024F
:1008BF0040000000FF00000000FFFF0000000000EC
:1008CF00AA55050100000101000000000102030408
:1008DF0001020304060708090F3902080D3E02083A
:1008EF008939020865150208D11A02087515020820
:1008FF00911502083F15020831150208000000008B
:10090F00000000002D202D2D202D2D2D2D202D2DE3
:10091F002D2D00000000000000000000000000006E
:10092F00000000AA550B010000AA5507010000AAFC
:10093F00550902000000000001000000C012AA5576
:10094F0003009F00FF1FFF1F00F0040800000000BE
:10095F000000000041430308A086010004000000CE
:10096F000000000000000000000000000000000078
:10097F000000000000000000000000000C0A050845
:10098F0050EF040800000000A9D902087D00000004
:10099F000600000000000000000000000000000042
:1009AF000000000000000000000000000000000038
:1009BF0058EF040800000000000000006D7A0108E5
:1009CF00E80300000300000000000000000000002A
:1009DF000000000000000000000000000000000008
:1009EF000000000050FE040800000000000000009E
:1009FF00B59302081027000003000000000000005C
:100A0F0000000000000000000000000000000000D7
:100A1F0000000000000000005CFE04080000000061
:100A2F00C1A10108F1530108204E0000050000008C
:100A3F0000000000000000000000000000000000A7
:100A4F00000000000000000000000000A0F10408FA
:100A5F000000000000000000C17F01081027000007
:100A6F000100000000000000000000000000000076
:100A7F000000000000000000000000000000000067
:100A8F0060FE040800000000000000009D0901083E
:100A9F00E803000005000000000000000000000057
:100AAF000000000000000000000000000000000037
:100ABF00000000006CFE04080000000000000000B1
:100ACF00B5510308204E0000030000000000000095
:100ADF000000000000000000000000000000000007
:100AEF0000000000000000007CFE04080000000071
:100AFF0000000000A94F0308204E00000300000073
:100B0F0000000000000000000000000000000000D6
:100B1F000000000000000000000000008CFE040830
:100B2F000000000000000000F1090108400D030063
:100B3F0003000000000000000000000000000000A3
:100B4F000000000000000000000000000000000096
:100B5F00C4F004080000000000000000AD630308AB
:100B6F00102700000100000000000000000000003E
:100B7F000000000000000000000000000000000066
:100B8F000000000070EF04080000000000000000EB
:100B9F00C9DC03081027000003000000000000005C
:100BAF000000000000000000000000000000000036
:100BBF0000000000000000009CFE04080000000080
:100BCF00000000000DF40108A086010001000000E4
:100BDF000000000000000000000000000000000006
:100BEF000000000000000000000000005CEF04089F
:100BFF000000000000000000353A010850C300005B
:100C0F0001000000000000000000000000000000D4
:100C1F0000000000000000000000000000000000C5
:100C2F0064EF04080000000000000000212102080A
:100C3F007011010001000000000000000000000022
:100C4F000000000000000000000000000000000095
:100C5F0000000000A4FE04080000000000000000D7
:100C6F00A9320108A8610000010000000000000087
:100C7F000000000000000000000000000000000065
:100C8F000000000000000000B0FE0408000000009B
:100C9F0000000000DDF30308A08601000100000042
:100CAF000000000000000000000000000000000035
:100CBF00000000000000000000000000A8F1040880
:100CCF000000000000000000610C0108A00F0000F0
:100CDF000100000000000000000000000000000004
:100CEF0000000000000000000000000000000000F5
:100CFF00BCFE04080000000000000000BD33020825
:100D0F00102700000100000000000000000000009C
:100D1F0000000000000000000000000000000000C4
:100D2F0000000000F0F004080000000000000000C8
:100D3F0079450308A00F000001000000000000002B
:100D4F000000000000000000000000000000000094
:100D5F000000000000000000CCF0040800000000BC
:100D6F0000000000FD7902081A4100000100000098
:100D7F000000000000000000000000000000000064
:100D8F0000000000000000000000000008F204084E
:100D9F000000000000000000A11D02081027000045
:100DAF000100000000000000000000000000000033
:100DBF000000000000000000000000000000000024
:100DCF0014FE04080000000000000000EDCA030834
:100DDF001A410000010000000000000000000000A8
:100DEF0000000000000000000000000000000000F4
:100DFF0000000000C8FE0408000000000000000012
:100E0F0089540208400D030000000000000000009C
:100E1F0000000000000000000000000000000000C3
:100E2F000000000000000000D0FE040800000000D9
:100E3F000000000059090108400D030000000000E8
:100E4F000000000000000000000000000000000093
:100E5F00000000000000000000000000D8FE0408A1
:100E6F000000000000000000F1E20308A08601006E
:100E7F000300000000000000000000000000000060
:100E8F000000000000000000000000000000000053
:100E9F00E4FE04080000000000000000754F030886
:100EAF0040420F00000000000000000000000000A2
:100EBF000000000000000000000000000000000023
:100ECF0000000000F0FE0408000000000000000019
:100EDF000966030850C30000000000000000000076
:100EEF0000000000000000000000000000000000F3
:100EFF00000000000000000001000000FFFFFFFFE6
:100F0F000000803F00000000000000000000000013
:100F1F000000803F00000000000000000000000003
:100F2F0000000000000000000000000000000000B2
:100F3F0000000000000000000000803F00000000E3
:100F4F000000000000000000010000000000803FD2
:100F5F000000000000000000000000000000803FC3
:100F6F0000000000C4850020080000000000000001
:100F7F00B48500200800000008B804080508040024
:100F8F0000000000BCBE040854AC0408A8BE04084E
:100F9F00000000000000000034B8040805080A0033
:100FAF0000000000BCBE040854AC040878BD04085F
:100FBF00000000000000000000000100E001000040
:100FCF00FFFFFFFF0101010009A00308000000005F
:100FDF003C09002020100508000000000000000060
:100FEF000000000000000000641105080000000070
:100FFF0000000000DA09002004000000CC0F0508F3
:10100F000D00000039C50308002300200000000078
:10101F007C0905080D00000061C50308F4220020BB
:10102F0000000000EC0A05080800000000000000A6
:10103F00E822002004000000E80905080D00000068
:10104F00BDA00308DC220020000000009C0A050858
:10105F000300000071C70308D02200200000000029
:10106F00301005080300000071C70308C4220020D8
:10107F0000000000780605080100000000000000D5
:10108F000000000000000000000000000E00000043
:10109F000000000000000000000000002010050804
:1010AF000000000000000000000000000000000031
:1010BF00641105080000000000000000DA0900209C
:1010CF0004000000780F050803000000A9B403080E
:1010DF00B822002008000000E80905080D000000F4
:1010EF00BDA00308DC220020000000009C0A0508B8
:1010FF000300000071C70308D02200200000000089
:10110F00301005080300000071C70308C422002037
:10111F000000000078060508010000000000000034
:10112F000000000000000000000000000E000000A2
:10113F00000000000000000000000000381005084B
:10114F000000000000000000000000000000000090
:10115F00641105080000000000000000DA090020FB
:10116F0004000000800F05080300000071C703088A
:10117F000C23002000000000780605080100000085
:10118F000000000000000000000000000000000050
:10119F000E00000000000000000000000000000032
:1011AF0020700020702D72000800000042570200CE
:1011BF000000010642570200000001060000000077
:1011CF0000000000741E0020FFFFFFFFFA00000068
:1011DF000100000001000000FFFF2D202D2D202D0C
:1011EF002D2D2D202D2D2D000000000000000000C2
:1011FF000000000000000000000000004C06050881
:10120F0054060508700605080000000000000000E5
:10121F000000000000000000E205050804000000C7
:10122F0001C3030800000000000000007806050855
:10123F00010000000000000000000000000000009E
:10124F00000000000E000000000000000000000081
:10125F0000000000C2CB00200100C4090000000004
:10126F00C0CB00200100C40900000000BECB00204D
:10127F000100C40900000000BCCB00200100C4091C
:10128F0000000000B8CB00200100C40900000000DE
:10129F00BACB00200100C40900000000B6CB00202B
:1012AF000100C40900000000B4CB00200100C409F4
:1012BF00000000006E8800200100C800010000003F
:1012CF006C88002032003075320000006A880020E0
:1012DF00055A05006788002000FF0100698800207B
:1012EF0001000000FC0900206588002002000000BA
:1012FF0050AD04086688002000FF010068880020B8
:10130F0001000000FC09002064880020020000009A
:10131F0050AD04085A88002080C1803E05000000AF
:10132F005888002080C1803E0500000052880020B0
:10133F0080C1803E050000005088002080C1803EA3
:10134F00050000004A88002000FF010046880020A9
:10135F000A320100458800200400000058BD04082F
:10136F0044880020020000006CBD0408000000004B
:10137F0000000000040A0020505300209CFF2C01A5
:10138F0000000000C40700200A00000078BD040818
:10139F003A880020E0150C1700000000C607002057
:1013AF000800000054AC0408C50700200500000029
:1013BF00BCBE04083C8800200200000090BD040859
:1013CF00588A00200100FF7F01000000578A00208B
:1013DF00020000009CBD0408C98800200300000023
:1013EF00ACBD0408C888002003000000ACBD040891
:1013FF00C68900200000F40101000000C48900200C
:10140F000000F40101000000C28900200000F40177
:10141F0001000000C08900200000F401010000005D
:10142F00BE89002000FF0100E2890020E803D007F9
:10143F000A000000E0890020006401000A0000009B
:10144F00D589002000640100D489002000640100C8
:10145F00DC890020006401000A000000DB89002005
:10146F00006401000A000000DA8900200064010016
:10147F000A000000DF890020006401000A0000005C
:10148F00DE890020006401000A000000DD890020D1
:10149F00006401000A000000D989002000FF01004C
:1014AF000A000000D889002000FF01000A00000098
:1014BF00D789002000FF01000A000000D08800201B
:1014CF000000F40101000000CE8800200000F401AC
:1014DF0001000000CC8800200000F4010100000092
:1014EF00CA8800200000F40101000000D08900200C
:1014FF001400E80301000000CE890020E8033075D6
:10150F0001000000CD89002000C80100CC89002017
:10151F0000C80100CB89002000C80100CA89002043
:10152F00006401000A000000C989002000FF0100CB
:10153F000A0000004D8A002000C801004C8A0020DC
:10154F0000C801004B8A002000C801004A8A002011
:10155F0000C80100498A002000C80100488A002005
:10156F0000C80100478A002000C80100468A0020F9
:10157F0000C80100458A002000C80100A006050828
:10158F00000000000000000000000000000000004C
:10159F00B00605080900000000000000A80A00209E
:1015AF0004000000B8060508090000000000000054
:1015BF009C0A002004000000680D050809000000C7
:1015CF0000000000900A00200400000038CA040840
:1015DF000900000000000000840A00200400000041
:1015EF00C00605080900000000000000780A00206E
:1015FF0004000000C80605080900000000000000F4
:10160F006C0A002004000000D00605080900000045
:10161F0000000000600A002004000000D806050842
:10162F000900000000000000540A00200400000020
:10163F00780605080100000000000000000000000F
:10164F0000000000000000000E000000000000007D
:10165F0000000000000000007008050800000000F6
:10166F00000000000000000000000000B4EF0408BC
:10167F000700000000000000CC0A0020000000005E
:10168F00800805080800000000000000C00A0020C4
:10169F00000000008C080508080000000000000092
:1016AF00B40A0020000000007806050801000000C1
:1016BF00000000000000000000000000000000001B
:1016CF000E000000000000000000000000000000FD
:1016DF009408050800000000000000000000000052
:1016EF0000000000A40805080D0000000000000025
:1016FF00080B002000000000AC0805080D000000DA
:10170F0000000000FC0A002000000000B4080508DB
:10171F000700000000000000F40A00200000000095
:10172F00BC0805080D00000000000000E80A0020BA
:10173F0000000000C40805080D00000000000000B4
:10174F00DC0A002000000000CC080508070000009C
:10175F0000000000D40A00200000000078060508F1
:10176F000100000000000000000000000000000069
:10177F00000000000E00000000000000000000004C
:10178F0000000000D4080508000000000000000061
:10179F000000000000000000B4EF04080C0000007F
:1017AF00000000007088002000000000E808050815
:1017BF000C000000000000007288002000000000F4
:1017CF00F80805080C00000000000000A8880020A1
:1017DF0000000000080905080C00000000000000D0
:1017EF009C880020000000001C0905080C00000068
:1017FF00000000007488002000000000DC020508D3
:10180F000C0000000000000076880020000000009F
:10181F00280905080C00000000000000788800204F
:10182F00000000003C0905080C000000000000004B
:10183F007A88002000000000440905080C00000011
:10184F00000000007C880020000000004C09050803
:10185F000C00000000000000BA880020000000000B
:10186F00640905080C000000000000007E880020BD
:10187F0000000000700905080C00000000000000C7
:10188F008088002000000000D4FD04080C00000038
:10189F000000000082880020000000007809050881
:1018AF000C000000000000008488002000000000F1
:1018BF00840905080C000000000000008688002045
:1018CF0000000000900905080C0000000000000057
:1018DF0088880020000000009C0905080C0000000B
:1018EF00000000008A88002000000000A8090508F9
:1018FF000C000000000000008C8800200000000099
:10190F00B40905080C00000000000000A0880020AA
:10191F0000000000BC0905080C00000000000000DA
:10192F009E88002000000000C40905080C0000007C
:10193F0000000000AC88002000000000D00905085E
:10194F000C00000000000000AE8800200000000026
:10195F00DC0905080C00000000000000B48800201E
:10196F0000000000A4FE04080C00000000000000AE
:10197F008E88002000000000E80905080C00000018
:10198F00000000009688002000000000F009050804
:10199F000C000000000000009088002000000000F4
:1019AF00FC0905080C0000000000000092880020D0
:1019BF0000000000080A05080C00000000000000ED
:1019CF009488002000000000100A05080C00000099
:1019DF00000000009888002000000000D4EF0408E9
:1019EF000C00000000000000A28800200000000092
:1019FF001C0A05080C000000000000009A88002057
:101A0F0000000000280A05080C000000000000007C
:101A1F00AA88002000000000340A05080C0000000E
:101A2F0000000000A4880020000000003C0A050808
:101A3F000C00000000000000A6880020000000003D
:101A4F00440A05080C00000000000000B0880020C8
:101A5F00000000004C0A05080C0000000000000008
:101A6F00B288002000000000780605080100000081
:101A7F000000000000000000000000000000000057
:101A8F000E00000000000000000000000000000039
:101A9F00540A0508000000000000000000000000CC
:101AAF0000000000600A05080D00000000000000A3
:101ABF00600B002000000000680A05080D00000000
:101ACF0000000000540B002000000000700A050801
:101ADF0007000000000000004C0B00200000000079
:101AEF007C0A05080700000000000000440B0020DE
:101AFF0000000000880A050809000000000000002F
:101B0F00380B002000000000940A050809000000AF
:101B1F00000000002C0B002000000000A00A0508A8
:101B2F000900000000000000200B00200000000052
:101B3F00B00A05080900000000000000140B002087
:101B4F0000000000780605080100000000000000FA
:101B5F000000000000000000000000000E00000068
:101B6F00000000000000000000000000C40A05088B
:101B7F000000000000000000000000000000000056
:101B8F00D40A05080500000000000000C7880020E7
:101B9F0000000000780605080100000000000000AA
:101BAF000000000000000000000000000E00000018
:101BBF00000000000000000000000000DC0A050823
:101BCF000000000000000000000000000000000006
:101BDF00641105080000000000000000040100204F
:101BEF0004000000E80A05080D00000065C30308A3
:101BFF00B40B002000000000CC0F05080D00000002
:101C0F00C19F0308A80B0020000000007C090508F5
:101C1F000D000000A59F03089C0B00200000000092
:101C2F00EC0A05080800000000000000900B0020DF
:101C3F0004000000E80905080D000000ED9E0308F0
:101C4F00840B002000000000F40A050809000000C2
:101C5F0000000000780B0020040000009C0A05081B
:101C6F000300000071C703086C0B00200000000088
:101C7F0078060508010000000000000000000000C9
:101C8F0000000000000000000E0000000000000037
:101C9F000000000000000000FC0A05080000000022
:101CAF000000000000000000000000000C0B050801
:101CBF000D00000000000000CC0B00200000000011
:101CCF00140B05080A00000000000000818D0020A1
:101CDF0000000000200B05080A00000000000000B3
:101CEF00898D002000000000280B05080A00000065
:101CFF0000000000918D002000000000300B05084F
:101D0F000800000000000000C00B002000000000D1
:101D1F00380B05080400000009C903080000000083
:101D2F000000000078060508010000000000000018
:101D3F000000000000000000000000000E00000086
:101D4F00000000000000000000000000440B050828
:101D5F000000000000000000000000000000000074
:101D6F00580B05080D00000000000000E40B0020D8
:101D7F0000000000680B050804000000ADC5030853
:101D8F000000000000000000700B05080D000000AF
:101D9F0000000000D80B002000000000840B050895
:101DAF000400000089C503080000000000000000C7
:101DBF007806050801000000000000000000000088
:101DCF0000000000000000000E00000000000000F6
:101DDF0000000000000000008C0B05080000000050
:101DEF00000000000000000000000000A00B05082C
:101DFF000700000000000000200C00200000000081
:101E0F00AC0B05080800000000000000140C0020B7
:101E1F0000000000B80B05080800000000000000DB
:101E2F00080C002000000000C40B0508080000008B
:101E3F0000000000FC0B002000000000D00B050884
:101E4F000800000000000000F00B00200000000060
:101E5F0078060508010000000000000000000000E7
:101E6F0000000000000000000E0000000000000055
:101E7F000000000000000000DC0B0508000000005F
:101E8F0000000000A309002000000000E80B050877
:101E9F000B00000000000000B00C0020000000004C
:101EAF00F40B05080B00000000000000A40C00203C
:101EBF0000000000000C05080B00000000000000EF
:101ECF00980C0020000000000C0C05080B0000000F
:101EDF00000000008C0C002000000000180C05080A
:101EEF000B00000000000000800C0020000000002C
:101EFF00240C05080B00000000000000740C0020EB
:101F0F0000000000300C05080B000000000000006E
:101F1F00680C0020000000003C0C05080B000000BE
:101F2F00000000005C0C002000000000480C0508B9
:101F3F000B00000000000000500C0020000000000B
:101F4F00540C05080700000000000000480C00209A
:101F5F00000000005C0C05080700000000000000F6
:101F6F00400C002000000000680C05080B0000006A
:101F7F0000000000340C002000000000740C050865
:101F8F000800000000000000280C002000000000E6
:101F9F0078060508010000000000000000000000A6
:101FAF0000000000000000000E0000000000000014
:101FBF000000000000000000800C05080000000079
:101FCF00000000000000000000000000940C050855
:101FDF000800000000000000E00C002000000000DE
:101FEF00A00C05080800000000000000D40C002021
:101FFF0000000000AC0C0508080000000000000005
:10200F00C80C002000000000B80C050808000000F4
:10201F0000000000BC0C002000000000780605083E
:10202F0001000000000000000000000000000000A0
:10203F00000000000E000000000000000000000083
:10204F0000000000C00C05080000000000000000A8
:10205F00A009002000000000D00C05080B000000B4
:10206F0000000000280D002000000000DC0C050817
:10207F000B000000000000001C0D002000000000FD
:10208F00E80C05080700000000000000140D0020F8
:10209F0000000000F40C050807000000000000001D
:1020AF000C0D002000000000000D050807000000C7
:1020BF0000000000040D0020000000000C0D0508BA
:1020CF000800000000000000F80C002000000000D5
:1020DF00140D05080800000000000000EC0C0020A3
:1020EF000000000078060508010000000000000055
:1020FF000000000000000000000000000E000000C3
:10210F000000000000000000000000001C0D05088A
:10211F000000000000000000A009002000000000E7
:10212F00280D05080700000000000000740D0020B6
:10213F0000000000300D050807000000000000003F
:10214F006C0D002000000000380D0508070000008E
:10215F0000000000640D00200000000000CA040809
:10216F0007000000000000005C0D002000000000D0
:10217F0008CA04080700000000000000540D0020EA
:10218F000000000010CA0408070000000000000053
:10219F004C0D002000000000400D05080700000056
:1021AF0000000000440D002000000000480D05084D
:1021BF0007000000000000003C0D002000000000A0
:1021CF00500D05080700000000000000340D00202E
:1021DF000000000078060508010000000000000064
:1021EF000000000000000000000000000E000000D2
:1021FF0000000000000000000000000000000000D0
:10220F0031A303087C0D0020C58800202F0000009B
:10221F00BCBD0408C488002000C80100C28800208B
:10222F00E803D007010000004F4D4E494255534679
:10223F003400000063880020000301006288002042
:10224F000003010079A2030851A20308580E0020D1
:10225F000DA20308C1A10308D00E0020B9A20308E4
:10226F00A1A20308840F00202DA10308E1A00308F9
:10227F009012002047A3030861AF03086C130020DE
:10228F002D9F030800000000BC130020E5C80308C1
:10229F00B1A50308981400206DA3030800000000E7
:1022AF004C15002011A40308E1A30308D815002042
:1022BF009DA40308E1A4030878160020D28900200A
:1022CF0001060100ADA3030881A30308B81700207E
:1022DF0041A40308D1C50308441800200DA5030825
:1022EF002DC603080C190020C88900200103010026
:1022FF00580D05080000000000000000000000005D
:10230F0000000000640D0508080000000000000038
:10231F001C1A0020000000006C0D050807000000CB
:10232F0000000000141A0020000000007C0D0508BA
:10233F000D00000000000000081A0020000000003F
:10234F00880D05080300000071C70308FC19002061
:10235F0000000000780605080100000000000000E2
:10236F000000000000000000000000000E00000050
:10237F00000000000000000000000000900D0508A4
:10238F00000000000000000000000000000000003E
:10239F00A00D05080A00000000000000B4020508A7
:1023AF0000000000A80D05080A0000000000000052
:1023BF005ACB040800000000B00D05080A00000009
:1023CF00000000004E8A002000000000B80D050834
:1023DF000A00000000000000281A00200000000082
:1023EF007806050801000000000000000000000052
:1023FF0000000000000000000E00000000000000C0
:10240F000000000000000000C00D050800000000E3
:10241F00000000000000000000000000CC0D0508C7
:10242F000300000071C703085C1A002000000000C1
:10243F00D80D05080300000071C70308501A0020CB
:10244F0000000000E00D05080300000071C703083D
:10245F00441A002000000000E80D050805000000E8
:10246F00000000006188002000000000F00D05084A
:10247F0007000000000000003C1A002000000000D0
:10248F00FC0D05080700000000000000341A0020B2
:10249F0000000000780605080100000000000000A1
:1024AF000000000000000000000000000E0000000F
:1024BF00000000000000000000000000080E0508EA
:1024CF0000000000000000000000000000000000FD
:1024DF00900305080300000071C703088C1A002041
:1024EF00000000001C0E05080300000071C7030860
:1024FF00C807002000000000240E0508030000009C
:10250F0071C70308801A0020000000002C0E050878
:10251F000300000071C70308741A002000000000B8
:10252F00E80905080300000071C70308681A0020B6
:10253F000000000078060508010000000000000000
:10254F000000000000000000000000000E0000006E
:10255F00000000000000000000000000380E050819
:10256F00000000000000000000000000000000005C
:10257F00440E05080700000079C60308E81A00207A
:10258F00000000000C0A05080300000071C70308D3
:10259F00DC1A002000000000500E050803000000A8
:1025AF0071C70308D01A002000000000580E05085C
:1025BF000300000071C70308C41A002000000000C8
:1025CF00600E0508070000005DC60308BC1A002056
:1025DF000000000094C904080300000071C703083D
:1025EF00B01A0020000000006C0E05080300000068
:1025FF0071C70308A41A002000000000780E050818
:10260F000300000071C70308981A002000000000A3
:10261F00780605080100000000000000000000001F
:10262F0000000000000000000E000000000000008D
:10263F00000000000000000001A30308D1A203085E
:10264F00F01A00207DA50308000000007C1B00206D
:10265F009DA1030879A10308081C002000000000B9
:10266F0000000000BC1C002055A5030895C60308F8
:10267F005C1D0020840E0508000000000000000013
:10268F000000000000000000900E0508030000008D
:10269F0071C70308681E002000000000980E05088F
:1026AF000300000071C703085C1E0020000000003B
:1026BF00CCF004080300000071C70308501E00206F
:1026CF0000000000A40E05080300000071C70308F6
:1026DF00441E002000000000B00E0508030000009B
:1026EF0071C70308381E002000000000B80E05084F
:1026FF000200000055C903080000000000000000A0
:10270F00C00E05080200000055C9030801000000B3
:10271F0000000000CC0E05080200000055C9030898
:10272F000200000000000000000000000E0000008A
:10273F0000000000000000000000000040880020A2
:10274F0088136F17010000004288002088136F174D
:10275F0000000000D80E0508000000000000000077
:10276F000000000000000000E80E0508080000004F
:10277F0000000000481F002004000000F40E0508B0
:10278F0008000000000000003C1F002000000000B7
:10279F009C0A0508040000008DC303080000000018
:1027AF00000000007806050801000000000000008E
:1027BF000000000000000000000000000E000000FC
:1027CF000000000000000000000000003E88002014
:1027DF0088136F17010000008C53002088136F17A8
:1027EF000000000071A0030800000000541F00202B
:1027FF00258D0020010000007CBE04088E530020B0
:10280F000100000088BE040884530020020000006D
:10281F0090BE0408AACD00200000000000000000B8
:10282F00A8CD00200000000000000000A6CD002071
:10283F000000000000000000A4CD002000000000F8
:10284F0000000000A2CD00200000000000000000EA
:10285F00A0CD002000000000000000003C0100207F
:10286F0000000000000000003D8800200200000072
:10287F009CBE0408300F0508000000000000000097
:10288F000000000000000000E80E0508080000002E
:10289F0000000000D81F002004000000F40E0508FF
:1028AF000800000000000000CC1F00200000000006
:1028BF009C0A05080400000041A003080000000066
:1028CF00000000007806050801000000000000006D
:1028DF000000000000000000000000000E000000DB
:1028EF00000000000000000000000000400F05087D
:1028FF0000000000000000000000000000000000C9
:10290F00500F05080D000000DDC40308082000204B
:10291F00040000005C0F05080D00000099A00308DB
:10292F00FC1F002004000000680F05080D000000C8
:10293F00A1C40308F01F002000000000740F050859
:10294F0003000000C9B40308E41F002008000000C2
:10295F00800F05080300000071C703080C23002037
:10296F0000000000780605080100000000000000CC
:10297F000000000000000000000000000E0000003A
:10298F0000000000000000000000000070060508B5
:10299F000000000000000000000000000000000028
:1029AF00E205050804000000A5C3030800000000AD
:1029BF00000000007806050801000000000000007C
:1029CF000000000000000000000000000E000000EA
:1029DF00000000000000000000000000D40F0508F8
:1029EF0000000000000000000000000000000000D8
:1029FF009CF204080D000000000000006820002079
:102A0F0004000000E40F05080800000000000000AB
:102A1F005C20002004000000F00F050808000000F3
:102A2F00000000005020002004000000F80F0508EF
:102A3F0008000000000000004420002004000000F7
:102A4F0000100508080000000000000038200020DA
:102A5F000400000008100508080000000000000036
:102A6F002C200020040000001010050808000000B2
:102A7F0000000000202000200400000018100508AE
:102A8F0008000000000000001420002004000000D7
:102A9F00780605080100000000000000000000009B
:102AAF0000000000000000000E0000000000000009
:102ABF00000000000000000059A003080000000003
:102ACF00742000200000000000000000EC20002017
:102ADF0000000000000000008C2100208A5300201D
:102AEF0004000000A8BE040888530020E0150C174E
:102AFF0000000000875300200800000054AC0408B9
:102B0F008653002005000000BCBE04080000000032
:102B1F0000000000DC210020080000000000000180
:102B2F00000000000000000000000000431A02082F
:102B3F00AF190208C9230208000000000D15020892
:102B4F006518020847190208D31702080000000091
:102B5F000000000001150208E5140208E314020842
:102B6F00E1140208DB140208D9140208DF1402086A
:102B7F00DD140208F5140208E7140208A123020865
:102B8F00B52302088D230208792302086323020864
:102B9F0001000000006002401060024000000000D1
:102BAF0000000000000B000000000000000000000B
:102BBF000000000000600240286002400100000099
:102BCF0000000000060C00000000000000000000E4
:102BDF000000000000600240406002400200000060
:102BEF0000000000100D00000000000000000000B9
:102BFF000000000000600240586002400300000027
:102C0F0000000000160E0000000000000000000091
:102C1F0000000000006002407060024004000000ED
:102C2F0000000000200F0000000000000000000066
:102C3F0000000000006002408860024005000000B4
:102C4F00000000002610000000000000000000003F
:102C5F000000000000600240A0600240060000007B
:102C6F000000000030110000000000000000000014
:102C7F000000000000600240B86002400700000042
:102C8F0000000000362F00000000000000000000D0
:102C9F0000000000006402401064024000000000C9
:102CAF0000000000003800000000000000000000DD
:102CBF000000000000640240286402400100000090
:102CCF0000000000063900000000000000000000B6
:102CDF000000000000640240406402400200000057
:102CEF0000000000103A000000000000000000008B
:102CFF00000000000064024058640240030000001E
:102D0F0000000000163B0000000000000000000063
:102D1F0000000000006402407064024004000000E4
:102D2F0000000000203C0000000000000000000038
:102D3F0000000000006402408864024005000000AB
:102D4F00000000002644000000000000000000000A
:102D5F000000000000640240A06402400600000072
:102D6F0000000000304500000000000000000000DF
:102D7F000000000000640240B86402400700000039
:102D8F0000000000364600000000000000000000B8
:102D9F00000000000000803F0000803F6F12033AE8
:102DAF00A42500200000000000000000000000002B
:102DBF000000000000000000000000000000000004
:102DCF0000000000000000000000000000000000F4
:102DDF0000000000000000000000000000000000E4
:102DEF0000000000000000000000000000000000D4
:102DFF0000000000000000000000000000000000C4
:102E0F000000000043000000000000000000000070
:102E1F0000000000000000000000000000000000A3
:102E2F000000000043000000000000000000000050
:102E3F000000000000000000000000000000000083
:102E4F000000000043000000000000000000000030
:102E5F000000000000000000000000000000000063
:102E6F000000000043000000000000000000000010
:102E7F000000000000000000000000000000000043
:102E8F0000000000430000000000000000000000F0
:102E9F000000000000000000000000000000000023
:102EAF0000000000430000000000000000000000D0
:102EBF000000000000000000000000000000000003
:102ECF0000000000430000000000000000000000B0
:102EDF0000000000000000000000000000000000E3
:102EEF00000000004F7204082B720408000000005D
:102EFF007E110508DE05050858FF040858FF040871
:102F0F0058FF040858FF040858FF040858FF040826
:102F1F0058FF040858FF040858FF0408FFFFFFFF7D
:102F2F00FFFFFFFFFFFFFFFFFFFF00000100415307
:102F3F0043494900000000000000000000000000AD
:102F4F0000000000000000000000000000004153DE
:102F5F00434949000000000000000000000000008D
:102F6F000000000000000000000000000000000052
:108000002DE9F043077B91F800C0DFF8B8E0476145
:108010000023C0E90677C0E90877C0E90A77C0E91C
:108020000C77C0E90E73C0E91033C0E91233C0E920
:108030001433C0E916336FEA0C0C5FFA8CFC03664C
:108040009846142405254CFA05F303F00103002B90
:1080500014BF19260A26434415F0010F04EB06014C
:108060005FFA83F889B214BFB9464FF0000923467E
:1080700000EB830201339BB29942C2F81490F7D10E
:10808000013D34446A1CA4B2DDD118F0010F14BFC5
:1080900019230A23E518ADB2224600EB8201013212
:1080A00092B2AA424F61F8D123449BB21A1D00EB51
:1080B000820201339BB200215160AEF800300361AF
:1080C000BDE8F08370270020254B5B880B332DE93A
:1080D000F04F8A4601F1060B1FFA83F94FF00108B1
:1080E000002100251AF801EB2C464A460127A2F18F
:1080F0000B039BB207E001339BB2B0F80CC0C6F88B
:1081000014C093420AD000EB8306002FF3D100EB9A
:10811000830601339BB293427761F4D1043300EBC1
:1081200083030134092D5960E4B20CD0092C14D01A
:1081300008FA05F313EA0E0F14BF012700270C32CB
:1081400092B20135D3E709F17809DA451FFA89F9C6
:10815000C7D1034B5980BDE8F08F0027EFE700BF80
:10816000702700202DE9F047DFF860E0BEF804300A
:1081700004338A461FFA83FC01F1090801271AF823
:10818000016BE1460025A9F1040307FA05F29BB251
:108190003240C2B1818900EB830401339BB24B456D
:1081A0006161F6D101350433082D1FFA83F9EAD154
:1081B0000CF1200CC2451FFA8CFCE0D10023AEF874
:1081C0000430BDE8F0871146E5E700BF70270020C6
:1081D00010B5027C01681F2A4FF020030ED94C68AD
:1081E000203A93401C4208D00B4A40680024147087
:1081F000026822F001020260CB6010BD0C6893405F
:108200001C42FAD0044A406800241470026822F02C
:10821000010202608B60F0E766710020436A8269A8
:10822000D154436A0169826B01338B4228BF00231A
:108230004362DAB1EFF31183502282F31288826B2A
:108240001168C9070ED470B45468FCB9D0E909515B
:108250008D4211D1012280F85C20DBB283F31188BA
:1082600070BC7047DBB283F311887047826DD368AE
:1082700043F08003D360704786690E44D6600ED900
:10828000691A51608562002180F85C10116841F024
:108290000101DBB2116083F3118870BC704705697E
:1082A000691A51608462EEE7034610B4446BD968E2
:1082B000406954B1DA6C8C1A013A005D5DF8044BE8
:1082C00008BF0A46C0B2DA6470471A6A805C01329D
:1082D0008A4228BF2246C0B21A625DF8044B70473A
:1082E000836B13B190F85C007047D0E90903181A4A
:1082F000B0FA80F040097047D0E909120369914251
:1083000038BFC9188A1A816B013B19B149680A4400
:108310009A4201D2981A704700207047436B43B1CC
:10832000C26C5B689A4291BF981AC0689B1AC018C9
:108330007047D0E907239A422FBFD01AC06880182F
:10834000C01A70470A4B30B503F1140493F90020AA
:108350005D78072AC8BF143A811804330D7313F8E7
:10836000025C855413F8012C0A769C42EED130BD94
:108370008088040803682DE9F041DD691DB12B46B2
:10838000BDE8F0411847002A174611DD04460E46A5
:108390000F4400E023689B68204698470028F9D0E6
:1083A000236816F8011B1B6820469847BE42F1D18E
:1083B000BDE8F08100232522027043708370C370F2
:1083C000704700BF0028F0B403DA2D230B70404241
:1083D0000131092804464FF0010307DD03EB830355
:1083E0005B00B0FBF3F2092AF8D883B10F48A0FB79
:1083F0000326B4FBF3F2092A02F1570C02F130070D
:1084000009DD03FB1244F30801F801CBEFD100238F
:108410000B70F0BC704703FB1244F30801F8017BBA
:10842000E5D100230B70F0BC704700BFCDCCCCCCA5
:10843000884270B44FF0010442D301FB04F4B0FB56
:10844000F4F58D42F9D2ECB142BB092D04FB1500C5
:1084500005F1570605F130020EDDB4FBF1F403F827
:10846000016B7CB1B0FBF4F5092D04FB150005F19F
:10847000570605F13002F0DCB4FBF1F403F8012BF0
:10848000002CEFD100221A7070BC704703F8016B0A
:10849000B4FBF1F4002CF5D0B0FBF4F5092D04FB8E
:1084A000150005F1370605F13002EFDCB4FBF1F4FD
:1084B00003F8012B002CEFD100221A7070BC70471A
:1084C0000546002AEAD1C0E72DE9F04714461D46CB
:1084D000064600234FF47A72204629463EF07AFA87
:1084E000DFF848814B4A4C4F88FB00310144C317E9
:1084F00082FB002CC3EB611188FB012887FB00275E
:108500008444464AC3EBEC2CC1EB011E82FB0C29D0
:10851000A0EB8E0E0744424A86F806E0C3EB2747DD
:108520004FEAEC7E08EB010ACEEBA90E82FB078234
:108530004FEAE1780EEB4E0EC8EB6A18ACEBCE0CAE
:10854000C8EB0818DFF8E8E086F804C0A1EB880162
:1085500071718EFB0010F917C1EBE21240F2B551B8
:1085600001FB1272C3EBE050B2F5896F4FEA80074E
:108570003FDA40F2DA239A4243DCB2F5B77FB4BF68
:108580004FF0000E4FF0010E4FEA4E08254B08EB5E
:108590000E0103EBC1031FFA8EFC588D224908EB34
:1085A0000E0301EBC30116310B2301E031F8020D7C
:1085B00090421BDD013BF9D11A4BC64403EBCE0EB2
:1085C0000123BEF81400B37007F2B2770132121A19
:1085D000BC44F270A6F800C0204629464FF47A72D7
:1085E00000233EF0F7F93281BDE8F0870133DBB2BA
:1085F000E9E74FF0030CE64640F296504FF00608CC
:10860000CCE74FF0020CE64640F229404FF0040858
:10861000C4E700BFC5B3A29107452EC2ABAAAA2AE0
:1086200073B06D1680880408948804088988888847
:10863000792D031103685A1C02601970704700BF3E
:108640002DE9F047089C2578002B804689460CBF11
:108650004FF0200A4FF0300A661C25B3002A26DDB1
:10866000334601E0024698B113F8011B501E002961
:10867000F8D1971E60B13D46013D51464046C8477E
:108680006B1C002BF8DC257827EAE770013045B138
:10869000041B29464046C847301916F8015B002DD7
:1086A000F7D1BDE8F087002A03DC2846F9E700206F
:1086B000EEE7571EDFE700BFD0E9012300EB83019F
:1086C00001339342D0ED037A81ED040A836004BF45
:1086D0000023836000EB830393ED047A036870EE5C
:1086E000277A9A42C0ED037A77EEC77AC0ED037A13
:1086F0000CDA013307EE103AF8EEC76AB7EE007AEB
:1087000087EEA60A036030EE070A704707EE102ACC
:10871000B8EEC77A87EE870A704700BF90ED057AFA
:1087200090ED004AD0ED066AD0ED014AD0ED047A12
:1087300090ED035AD0ED025AA4EE007AB0EE406AF2
:10874000B0EE470AB0EE667AA4EE867A67EEC07A9B
:10875000A5EE407AE5EE867A80ED057AC0ED067AE0
:10876000704700BFD0ED057A90ED013AD0ED003AA8
:10877000D0ED064A90ED024A90ED077A90ED035A4B
:1087800090ED086AD0ED045AC0ED067AF0EE406A2A
:1087900027EE830AC0ED056AA3EEA60A80ED087AEB
:1087A000A4EE240AA5EE470AA5EEC60A80ED070A44
:1087B000704700BFD0ED007A90ED017A30EE670A85
:1087C000E7EE007AB0EE670AC0ED007A704700BFAE
:1087D000704700BF0A44914215D030B40139551E8C
:1087E00041F2210211F8014F082380EA0420040419
:1087F0004CBF82EA40004000013B80B2F7D18D427D
:10880000F0D130BC704770472322032302704370BD
:1088100070470378407840EA032010FB01F04FF4E2
:10882000807190FBF1F000F30F0000B270476D4BC8
:108830002DE9F04F9C686C4BB3F80AE0B3F8048064
:108840009A894FEA0E2AB4EB0A044FEA1E6B4FF0E6
:10885000000587B065EB0B05CDE900450746009C98
:108860001889019EA0FB044500FB0655E00940EA7B
:1088700045604FEA08448C46E9114FEA184510EB71
:108880000408D888009C41EB0509CDE90489A0FBC8
:108890000445B3F8028000FB0655200A40EA056053
:1088A0004FEAC83429124FEA584510EB040841EB4F
:1088B00005090099A2FB010102FB06114FEAD05AFB
:1088C0004AEA412A1AF5FA634FEAE15B4BF10004E8
:1088D000B3F5FA6FCDE9023474F10003414E64DA66
:1088E0000524AAFB040104FB0B1100FB0BF40AFB9B
:1088F0000144DDE90423A0FB0A0121444D104FEAA5
:108900003004121B4FEA900463EB050344EA8174C0
:10891000B8EB0408CDE90423DDE9023433484FEA1B
:10892000A10569EB05094FF0FF31834274EB0103A8
:1089300026DA40F6AC501AEB00024FF000014BEB88
:10894000010302FB03F1A2FB022303EB4103D4006A
:10895000DD00101B45EA527563EB0501DDE90445B6
:1089600024184D41CDE904450B24A2FB040104FB6E
:10897000031149104FEA3000B8EB000869EB010918
:10898000DDE900325343009ADDE90201A2FB02ABAC
:108990000BEB430B4FEADA7242EA4B02801A4FEAC2
:1089A000EB7361EB0301CDE9020197B1F168A1FB23
:1089B000082301FB0933540D5D1544EAC324DDE9A6
:1089C0000423A21A65EB03031D46D30B43EA454378
:1089D0003B60BCF1000F02D0029BCCF8003007B026
:1089E000BDE8F08F70270020B03F002024FAFFFF81
:1089F0002DE9F04FDFF8DCC1754CDCF8105022880F
:108A0000B4F90AA0C2EB25135200C2EBE502B4F997
:108A100002505B436A43B4F904501B135D43AD132A
:108A200005EBE225B5F5FA324FEAE57B85B04BF16F
:108A3000FF33CDE90023DDE900325343009AA561FD
:108A4000A2FB0289CDE90201B4F90820019900983E
:108A500009EB43095143D31700FB0311A2FB002389
:108A60000B444FEAEA7B0AFB09F11F0308FB0B13D7
:108A7000AAFB080119444FEA102A4AEA016A1603C0
:108A80004FEA212B47EA12571AEB0602E6884BEB16
:108A9000070312F1000A43F5004BAAFB060106FB8F
:108AA0000B114A10CB1752EA030100F08E80B4F983
:108AB0001060009806FB09F1F71708FB0711A6FBE9
:108AC00008673944B4F90E808B4601994FEAE8797A
:108AD00008FB01F100FB0911A8FB00898944DCF8BF
:108AE00014104FEA4947C1F5801C47EAD837B2460F
:108AF0004FEA4846B4F90C801AEB060A66464BEB7F
:108B0000070BF7174FEAC806019600260096F907EB
:108B1000DDE900674FEACC7016EB0A0647EB0B075E
:108B200041EA5C01801B61EB070140F6354C894648
:108B3000A0FB0C010CFB09113DF04CFFB4F9162011
:108B4000B4F914A04E13470B47EAC14702FB06FCD9
:108B5000D31707FB03CCA2FB07236344564307FB51
:108B60000366A2FB07233344560E46EAC3163218A7
:108B70004FEA636747EB010380460AFB01F14FEAC6
:108B8000EA7B08FB0B17AAFB08013944C60C46EA2E
:108B9000413612EB06084FEAE147B4F9122043EBE5
:108BA00007094FEA182141EA096113010B44029AAF
:108BB0000AB11B0A1360039B23B105EB85058035C1
:108BC0002D121D6005B0BDE8F08F0023EFE700BF58
:108BD000C43F002070270020704770472DE9F04106
:108BE000334B344E1A8B7489B6F91450B6F904809D
:108BF000B6F90E70B6F920C0DB69121B34895443F4
:108C0000E213B6F912401544E40294FBF5F4B6F908
:108C100002501444A4F57A6E0EFB0EF20EFB05F51D
:108C20000EFB08FEB6F90C80F4611213574302FBE9
:108C300008F2121402EB6E32ED1205EBE727023256
:108C4000B6F90050B6F806E0921002F5004207EBC4
:108C500085070EFB02F207FA0CF74FEAD23E023705
:108C60004CF25032A3EBA70742FA0CF37B4355BFFB
:108C70005B00B3FBFEF3B3FBFEF35B0078B11A12AB
:108C800002FB02F540F6DE326A430B4D12145D43DF
:108C900002EB254202F6CF6203EB2213036021B1FF
:108CA0000A235C43083424110C60BDE8F08100BF46
:108CB000702700208C3F002043E3FFFF4FF4006348
:108CC00083827047012380F848307047F0B4037CFA
:108CD000456902681F2B37D9203B202154689940F1
:108CE0000C4223D010249C40D160D4605168D940FC
:108CF000CE074ED4EFF31183502282F31288AA6B71
:108D00001168C90709D45468002C52D1D5E909610A
:108D10008E4243D1012285F85C20DBB283F31188B7
:108D2000037C02681F2B194614D9203B0821506888
:108D30009940084200D0D1600421506801FA03F341
:108D4000184223D1F0BC7047202416689C4026426C
:108D50000FD11946082310688B40184200D0936049
:108D60000423106803FA01F10842EBD09160F0BCD3
:108D7000704710219940946091601168D940CC07E8
:108D8000B8D5012101FA03F39360B3E7D360F0BCD7
:108D90007047012101FA03F3D360ABE7AF690F44D9
:108DA000D7600ED82E69711A5160AC62002185F827
:108DB0005C10116841F00101DBB2116083F311888E
:108DC000AEE7711A5160AE62F0E700BF70B4037C89
:108DD00001681F2B26D9A3F1200520224C68AA4048
:108DE000224214BF01220022D2B142691B481C4C0E
:108DF00002EB420200EB4212257854682068CDB99C
:108E0000E56856892C6824F001042C6082891F2BA8
:108E100022EA060282811AD8202202FA03F38B602A
:108E200070BC704720220C689A40224214BF012275
:108E30000022D9E7A469226822F001022260828917
:108E400022F480721204120C1F2B8281E4D9A3F148
:108E5000200220239340CB6070BC7047ECB200200E
:108E6000E8B20020844B1A78002A00F00481834B7A
:108E70001978834B30B4002965D11868B3F82C51A8
:108E800041628489012A44EA05048481A3F82C11F3
:108E900057D0D3F83001B3F85C5241628489022A7A
:108EA00044EA05048481A3F85C124AD0D3F8600236
:108EB000B3F88C5341628489032A44EA050484810F
:108EC000A3F88C133DD0D3F89003B3F8BC5441629F
:108ED0008489042A44EA05048481A3F8BC1430D0B0
:108EE000D3F8C004B3F8EC5541628489052A44EAFA
:108EF00005048481A3F8EC1523D0D3F8F005B3F86A
:108F00001C5741628489062A44EA05048481A3F837
:108F10001C1716D0D3F82007B3F84C584162848947
:108F2000072A44EA05048481A3F84C1809D0D3F831
:108F30005028B3F87C495162908920439081A3F86E
:108F40007C1930BC70475C681989616025681868B5
:108F500045F0010540F20D312560A0F848108489E4
:108F6000012A44F480748481EBD0D3F83441B3F8FF
:108F70003851D3F830016560256845F0010525605A
:108F8000A0F848108489022A44F480748481D8D0DF
:108F9000D3F86442B3F86852D3F86002656025687C
:108FA00045F001052560A0F848108489032A44F49F
:108FB00080748481C5D0D3F89443B3F89853D3F820
:108FC00090036560256845F001052560A0F848100C
:108FD0008489042A44F480748481B2D0D3F8C444D0
:108FE000B3F8C854D3F8C0046560256845F001059E
:108FF0002560A0F848108489052A44F4807484818F
:109000009FD0D3F8F445B3F8F855D3F8F005656070
:10901000256845F001052560A0F848108489062AD6
:1090200044F4807484818CD0D3F82447B3F8285753
:10903000D3F820076560256845F001052560A0F894
:1090400048108489072A44F4807484813FF479AFFE
:10905000D3F85428B3F85808D3F850385060106843
:1090600040F001001060A3F848109A8942F4807221
:109070009A8130BC70477047ECB50020E8B2002000
:10908000F0B5002010B4037C02681F2B09D9203BE7
:109090002021546801FA03F31C4214D15DF8044BFB
:1090A00070472021146801FA03F31C42F6D00C49E2
:1090B000406800240C7001685DF8044B21F0010148
:1090C0000160936070470649406800240C70016895
:1090D0005DF8044B21F001010160D360704700BFCF
:1090E000495100202DE9F041C40023189B00BA49E2
:1090F000CA585268958AADB2EFB2FE070B4465D4E8
:10910000BE073AD5BFF35F8F1D7EEDB2012D00F093
:10911000C480B24E138BBFF35F8F231801EB830320
:109120001D7E022D00F0D980231801EB83031D7EE4
:10913000032D06D19B7E23B196F82130002B40F001
:109140002681938896F920C043F480639380231886
:1091500001EB83031B7E013363450CD196F822306B
:10916000002586F82150002B40F09080204401EB30
:10917000800000234375BDE8F081984E17F0040F7E
:1091800096F920C051D117F0400700F0BB80178A34
:109190001D6AFFB205F80C705FFA8CF56F1C93F82E
:1091A00018E07BB2DF1CBE4586F820309C4600F0FC
:1091B0001781271801EB87073F7EBB42C7D105F116
:1091C000020C4FFA8CFC86F820C0C0E71588834E4D
:1091D00025F400652D042D0C1580158845F4806557
:1091E00015809D7E002786F82070002D40D096F8CF
:1091F0002150002D39D0231801EB830301251B7E5C
:1092000086F82150022B03D1138843F400631380A6
:10921000231801EB83039B7D43F001031382204459
:1092200001EB8000037EBDE8F0819F7E96F821501F
:109230004FF0010E86F822E0002F60D0002D7DD186
:10924000231801EB83035B7E002B00F0A9801388B9
:109250000CF1010C4FFA8CFC43F4007386F820C02B
:1092600013801388DF05FCD471E7DB7DFF2BC2D0B0
:10927000231801EB83039D7D05F0FE051582DB7D40
:10928000FF2BCCD0FF2386F82030C8E7938823F447
:1092900040731B041B0C938068E79B7E4F4E002B92
:1092A0003FF438AF96F82130002B3FF433AF1388EA
:1092B00023F480631B041B0C1380BFF35F8F138B9D
:1092C000138886F8225043F400731380938896F92C
:1092D00020C043F48063938039E79B7E002B3FF4EA
:1092E00023AF96F82130002B3FF41EAF138896F978
:1092F00020C023F480631B041B0C138017E0002D97
:109300009ED0A4E72D067FF522AFBCF1FF3F6ED0C3
:10931000DD6915F80C5015820CF1010C1D7E4FFA19
:109320008CF39D429C4686F820307FF410AF9388E2
:1093300023F480631B041B0C938008E71F7ED3F883
:1093400020805FFA8CF5AE44022F4FFA8EFE17880C
:109350002ED927F480673F043F0C1780178AFFB28D
:1093600008F80C701788D3F820C047F400731380F6
:10937000138ADBB20CF80E30938805F1020C4FFA19
:109380008CFC43F4806386F820C0938069E793885F
:1093900096F920C023F480631B041B0C9380D6E64F
:1093A0001388012543F48073138086F8215058E711
:1093B00047F400771780178AFFB208F80C70178AF5
:1093C000D3F8208005F1030C4FFA8CFCFBB286F831
:1093D00020C008F80E3044E7F084002070270020F9
:1093E000978827F480673F043F0C9780E1E6DD7D96
:1093F00015829D7E86F820701DB91B7E002B7FF4A0
:109400000EAF938823F480631B041B0C938006E744
:10941000054B10B55A6A054C2178501C09B95A629F
:1094200010BD0246F8E700BF7027002066710020DB
:10943000F0B50C2934D8DFE801F08A3333335F33D9
:109440003333343333330700048C9689B2F802C0C7
:109450001788744D24F480542404240C0484038C51
:109460008488818B23F4005321F4E6411B04090412
:109470001B0C46EA0C06090C43EA063341EA0721B5
:10948000A8429BB2A4B289B200F09E8005F5806527
:10949000A84200F0998092688480818302640384EA
:1094A000F0BD048C9589B2F802E017885D4E24F473
:1094B00080742404240C0484038CB0F804C0818BD1
:1094C00023F400731B0421F0730145EA0E041B0C06
:1094D000090443EA0423090CB0429BB21FFA8CF53D
:1094E00041EA07015BD0504CA04258D09268858079
:1094F0008183C2630384F0BD048C9589B2F802E0D5
:10950000B2F800C0474E24F010042404240C048454
:10951000038C8788018B23F0200321F4E6411B0490
:1095200009041B0C45EA0E04090C43EA041341EA42
:109530000C21B0429BB2BFB289B25BD03A4CA04280
:1095400058D092688780018382630384F0BD048CC5
:109550009589B2F802C01788324E24F00104240421
:10956000240C0484018C8488038B21F0020123F0F5
:10957000730309041B04090C45EA0C051B0CB042DB
:1095800041EA0501A4B243EA070324D0264DA842CC
:1095900021D092688480038342630184F0BDD48922
:1095A000168A578A23F4006343EA04234FF6FF34F4
:1095B0001C40938825F440553E4344EA032345EA82
:1095C00006149BB2A5B291E7158A24F4804444EABC
:1095D0008514A4B25FE7D689158A578A21F008015D
:1095E0003143968824F4407421F004013D43314313
:1095F0002C43CEE7D489168AB2F812C023F0800338
:1096000043EA04134FF6BF741C40938827F4406567
:1096100046EA0C0644EA031345EA86049BB2A7B265
:109620008FE700BF00000140000401402DE9F84F22
:10963000DFF864828E488F4C8F4E904FDFF85C923B
:10964000DFF85CA24FF4A07200213DF03BFE4546DE
:109650008B4A8C48DFF84CC2DFF84CE208F5FC710D
:1096600034E0B3F1804F00F0CB80A34200F0CF8014
:10967000B34200F0DB80BB4200F0DB80634500F0CA
:10968000DB80734500F0DB804B4500F0DB80534509
:1096900000F0DB80DFF814B25B4500F0D9800BF5F9
:1096A000806B5B4500F0D780ABF5983B5B4500F0E5
:1096B000D5800BF5806B5B4500F0D3800BF5806B9C
:1096C0005B4500F0D1802435A9420BD02B68934232
:1096D000C7D14FF0010B436C243543EA0B03A94279
:1096E0004364F3D1684F694E4FF0030A4FF002090B
:1096F00098F80630002B7CD098F804301C09013C07
:10970000032C03F00F0374D837F8140040FA03F267
:10971000D2076ED54FF0010B0BFA03F3013B184053
:109720003DF0A8F95A4B1B5D184416EBC00460D0FD
:1097300056F83030574898F8081003F13F4202F5C8
:109740007E02920A825C02F01F005209032A0BFA81
:1097500000FB65D0042A5DD0022A04D14948426C3E
:109760004BEA02024264B4F804C0BCFA8CF2C2F1C3
:109770001F0292B2D00803EB800002F00702046AD5
:1097800092004FF00F0E0EFA02FE24EA0E0404625D
:10979000046A01FA02F2224302624FF0010E002233
:1097A0000EFA02F434EA0C0120D15000D3F800B0D4
:1097B0000AFA00F1C9430BEA010BC3F800B0D3F871
:1097C00000B009FA00F040EA0B0018609868084001
:1097D000986098689860586820EA04045C6058684B
:1097E0005860D8680140D960D968D9600132102A20
:1097F000D6D108F1240845457FF47AAFBDE8F88F4B
:109800004FF0010B036C43EA0B0303645BE74FF07B
:10981000020BF7E71B48026B4BEA02020263A2E766
:109820001848026C4BEA020202649CE74FF0040BFA
:10983000E8E74FF0080BE5E74FF0100BE2E74FF0D9
:10984000200BDFE74FF0020B45E74FF4803B42E788
:109850004FF4003B3FE74FF4802B3CE74FF0400BC9
:10986000D0E74FF0800BCDE74FF4807BCAE700BF15
:10987000EC9300200004004000080040000C004071
:1098800000000140003802403CC10408E091002083
:1098900044C10408E0BE040818BF040800040140E5
:1098A000004001400010004000140040004401400E
:1098B00000B9704703682DE9F04F03F13F4404F508
:1098C0007E04534EA40A0125345D04F01F0664098A
:1098D000032C05FA06F500F09580042C00F08D802D
:1098E000022C45D08588B5FA85F0C0F11F0080B202
:1098F000C40803EB840400F00700266A80000F27E9
:10990000874026EA07062662276A01F0030682409E
:10991000701E3A4301282262C1F3810EC1F3001880
:109920004FF000024FEA51114FF0010C25D94FF0D2
:10993000030E0CFA02F0A84315D150001F680EFA6E
:1099400000F4E44327401F60D3F8008006FA00F7D4
:1099500047EA08071F60DF683C40DC60DC6801FA0A
:1099600000F02043D8600132102AE2D1BDE8F08F28
:10997000284C666C35436564B4E74FF003090CFA74
:1099800002F737EA050033D15000D3F800A009FAF6
:1099900000F4E4430AEA040AC3F800A0D3F800B0D4
:1099A00006FA00FA4AEA0B0AC3F800A0D3F808A0A6
:1099B00004EA0A0AC3F808A0D3F808B00EFA00FABD
:1099C0004AEA0B0AC3F808A0D3F804A02AEA07075A
:1099D0005F60D3F804A008FA02F747EA0A075F605D
:1099E000DF683C40DC60DC6801FA00F02043D860AE
:1099F0000132102AC3D1BDE8F08F064C266B3543E7
:109A000025636FE7034C266C354325646AE700BF86
:109A1000E0BE04080038024003682DE9F04F03F16E
:109A20003F4404F57E04534EA40A0125345D04F03E
:109A30001F066409032C05FA06F500F09580042C36
:109A400000F08D80022C46D08588B5FA85F0C0F1F3
:109A50001F0080B2C40803EB840400F00700266AEC
:109A600080000F27874026EA07062662276A01F052
:109A7000030602FA00F0721E3843012AC1F3810E78
:109A8000C1F3001820624FEA51114FF000024FF06D
:109A9000010C25D94FF0030E0CFA02F0A84315D1A2
:109AA00050001F680EFA00F4E44327401F60D3F80B
:109AB000008006FA00F747EA08071F60DF683C40AD
:109AC000DC60DC6801FA00F02043D8600132102A23
:109AD000E2D1BDE8F08F284C666C35436564B3E78E
:109AE0004FF003090CFA02F737EA050033D15000B2
:109AF000D3F800A009FA00F4E4430AEA040AC3F820
:109B000000A0D3F800B006FA00FA4AEA0B0AC3F83C
:109B100000A0D3F808A004EA0A0AC3F808A0D3F802
:109B200008B00EFA00FA4AEA0B0AC3F808A0D3F804
:109B300004A02AEA07075F60D3F804A008FA02F736
:109B400047EA0A075F60DF683C40DC60DC6801FAD6
:109B500000F02043D8600132102AC3D1B9E7064C87
:109B6000266B354325636FE7034C266C354325642C
:109B70006AE700BFE0BE04080038024010B50409DF
:109B8000013C032C17D80E4B33F8142000F00F00C3
:109B900042FA00F313F001030FD0012303FA00F09F
:109BA000013810403CF066FF064A074B125D104436
:109BB00003EBC00010BD002010BD184610BD00BF53
:109BC0003CC1040844C10408E09100202DE9F84399
:109BD000304D2B8AB5F80C8018EA030827D02E4E9A
:109BE0004FF00047B8FA88F327FA03F2D24391B254
:109BF0001B3B08EA02082982042B15D8DFE803F092
:109C0000372D23190300D6F83C31002B39D1EB6AEC
:109C10001FFA83F9D6F8384134B123682046494603
:109C200098476468002CF8D1B8F1000FDAD1BDE88C
:109C3000F883D6F81801696B036889B29847B8F1C0
:109C4000000FCFD1F3E7D6F81C01A96B036889B2E6
:109C50009847B8F1000FC5D1E9E7D6F82001E96BC4
:109C6000036889B29847B8F1000FBBD1DFE7D6F897
:109C70002401296C036889B29847B8F1000FB1D16B
:109C8000D5E703F1FF3900231FFA89F9C6F83C3103
:109C9000C0E700BF00180040EC9300202DE9F84316
:109CA000304D2B8AB5F80C8018EA030827D02E4EC9
:109CB0004FF00047B8FA88F327FA03F2D24391B283
:109CC0001B3B08EA02082982042B15D8DFE803F0C1
:109CD000372D23190300D6F81431002B39D1EB6A44
:109CE0001FFA83F9D6F8104134B12368204649465B
:109CF00098476468002CF8D1B8F1000FDAD1BDE8BC
:109D0000F883D6F8F000696B036889B29847B8F118
:109D1000000FCFD1F3E7D6F8F400A96B036889B23E
:109D20009847B8F1000FC5D1E9E7D6F8F800E96B1C
:109D3000036889B29847B8F1000FBBD1DFE7D6F8C6
:109D4000FC00296C036889B29847B8F1000FB1D1C3
:109D5000D5E703F1FF3900231FFA89F9C6F814315A
:109D6000C0E700BF00400140EC9300202DE9F8431C
:109D7000304D2B8AB5F80C8018EA030827D02E4EF8
:109D80004FF00047B8FA88F327FA03F2D24391B2B2
:109D90001B3B08EA02082982042B15D8DFE803F0F0
:109DA000372D23190300D6F8EC30002B39D1EB6A9C
:109DB0001FFA83F9D6F8E84034B1236820464946B3
:109DC00098476468002CF8D1B8F1000FDAD1BDE8EB
:109DD000F883D6F8C800696B036889B29847B8F170
:109DE000000FCFD1F3E7D6F8CC00A96B036889B296
:109DF0009847B8F1000FC5D1E9E7D6F8D000E96B74
:109E0000036889B29847B8F1000FBBD1DFE7D6F8F5
:109E1000D400296C036889B29847B8F1000FB1D11A
:109E2000D5E703F1FF3900231FFA89F9C6F8EC30B2
:109E3000C0E700BF00040140EC9300202DE9F84387
:109E4000304D2B8AB5F80C8018EA030827D02E4E27
:109E50004FF00047B8FA88F327FA03F2D24391B2E1
:109E60001B3B08EA02082982042B15D8DFE803F01F
:109E7000372D23190300D6F8EC30002B39D1EB6ACB
:109E80001FFA83F9D6F8E84034B1236820464946E2
:109E900098476468002CF8D1B8F1000FDAD1BDE81A
:109EA000F883D6F8C800696B036889B29847B8F19F
:109EB000000FCFD1F3E7D6F8CC00A96B036889B2C5
:109EC0009847B8F1000FC5D1E9E7D6F8D000E96BA3
:109ED000036889B29847B8F1000FBBD1DFE7D6F825
:109EE000D400296C036889B29847B8F1000FB1D14A
:109EF000D5E703F1FF3900231FFA89F9C6F8EC30E2
:109F0000C0E700BF00040140EC9300202DE9F843B6
:109F1000304D2B8AB5F80C8018EA030827D02E4E56
:109F20004FF00047B8FA88F327FA03F2D24391B210
:109F30001B3B08EA02082982042B15D8DFE803F04E
:109F4000372D23190300D6F8C430002B39D1EB6A22
:109F50001FFA83F9D6F8C04034B123682046494639
:109F600098476468002CF8D1B8F1000FDAD1BDE849
:109F7000F883D6F8A000696B036889B29847B8F1F6
:109F8000000FCFD1F3E7D6F8A400A96B036889B21C
:109F90009847B8F1000FC5D1E9E7D6F8A800E96BFA
:109FA000036889B29847B8F1000FBBD1DFE7D6F854
:109FB000AC00296C036889B29847B8F1000FB1D1A1
:109FC000D5E703F1FF3900231FFA89F9C6F8C43039
:109FD000C0E700BF000C0040EC9300202DE9F843DF
:109FE0002F4D2B8AB5F80C8018EA030827D02D4E88
:109FF0004FF00047B8FA88F327FA03F2D24391B240
:10A000001B3B08EA02082982042B15D8DFE803F07D
:10A01000352B22190300D6F89C30002B37D1EB6A80
:10A020001FFA83F9D6F8984034B123682046494690
:10A0300098476468002CF8D1B8F1000FDAD1BDE878
:10A04000F883B06F696B036889B29847B8F1000F65
:10A05000D0D1F4E7F06FA96B036889B29847B8F1E3
:10A06000000FC7D1EBE7D6F88000E96B036889B22F
:10A070009847B8F1000FBDD1E1E7D6F88400296C0C
:10A08000036889B29847B8F1000FB3D1D7E703F15D
:10A09000FF3900231FFA89F9C6F89C30C2E700BFD8
:10A0A00000080040EC9300202DE9F8432C4D2B8A4A
:10A0B000B5F80C8018EA030825D02A4E4FF0004767
:10A0C000B8FA88F327FA03F2D24391B21B3B08EAAD
:10A0D00002082982042B13D8DFE803F03229201765
:10A0E0000300736F002B34D1EB6A1FFA83F9346FCE
:10A0F00034B123682046494698476468002CF8D15B
:10A10000B8F1000FDCD1BDE8F883306D696B0368EE
:10A1100089B29847B8F1000FD2D1F4E7706DA96BFE
:10A12000036889B29847B8F1000FC9D1EBE7B06D69
:10A13000E96B036889B29847B8F1000FC0D1E2E734
:10A14000F06D296C036889B29847B8F1000FB7D158
:10A15000D9E703F1FF3900231FFA89F97367C6E7CE
:10A1600000040040EC9300202DE9F8434FF08045B7
:10A170002B8AB5F80C8018EA030825D0294E4FF039
:10A180000047B8FA88F327FA03F2D24391B21B3B97
:10A1900008EA02082982042B13D8DFE803F03229E9
:10A1A00020170300F36C002B34D1EB6A1FFA83F9FC
:10A1B000B46C34B123682046494698476468002C43
:10A1C000F8D1B8F1000FDCD1BDE8F883B06A696B53
:10A1D000036889B29847B8F1000FD2D1F4E7F06A6A
:10A1E000A96B036889B29847B8F1000FC9D1EBE7B2
:10A1F000306BE96B036889B29847B8F1000FC0D1A2
:10A20000E2E7706B296C036889B29847B8F1000FD8
:10A21000B7D1D9E703F1FF3900231FFA89F9F364B5
:10A22000C6E700BFEC9300202DE9F8432C4D2B8AA4
:10A23000B5F80C8018EA030825D02A4E4FF00047E5
:10A24000B8FA88F327FA03F2D24391B21B3B08EA2B
:10A2500002082982042B13D8DFE803F032292017E3
:10A260000300736A002B34D1EB6A1FFA83F9346A56
:10A2700034B123682046494698476468002CF8D1D9
:10A28000B8F1000FDCD1BDE8F8833068696B036872
:10A2900089B29847B8F1000FD2D1F4E77068A96B82
:10A2A000036889B29847B8F1000FC9D1EBE7B068ED
:10A2B000E96B036889B29847B8F1000FC0D1E2E7B3
:10A2C000F068296C036889B29847B8F1000FB7D1DC
:10A2D000D9E703F1FF3900231FFA89F97362C6E752
:10A2E00000000140EC9300202DE9F8432C4D2B8A0F
:10A2F000B5F80C8018EA030825D02A4E4FF0004725
:10A30000B8FA88F327FA03F2D24391B21B3B08EA6A
:10A3100002082982042B13D8DFE803F03229201722
:10A320000300736A002B34D1EB6A1FFA83F9346A95
:10A3300034B123682046494698476468002CF8D118
:10A34000B8F1000FDCD1BDE8F8833068696B0368B1
:10A3500089B29847B8F1000FD2D1F4E77068A96BC1
:10A36000036889B29847B8F1000FC9D1EBE7B0682C
:10A37000E96B036889B29847B8F1000FC0D1E2E7F2
:10A38000F068296C036889B29847B8F1000FB7D11B
:10A39000D9E703F1FF3900231FFA89F97362C6E791
:10A3A00000000140EC930020F0B50668B30AA3F565
:10A3B0008013502B00F28380DFE803F0958C8F82AE
:10A3C00081812981818181818181818181818181D5
:10A3D000818181818181818181818181818181816D
:10A3E000818181818181818181818181818181815D
:10A3F0008181818181818181818181818592818138
:10A40000818181818181818181818181880007258C
:10A410004FF49C774379B6F80CE0022023FA00F45D
:10A42000A0401FFA80FCA8002346441903EB440314
:10A43000364C00295FD04CEA0E0C03F1040E44F8B0
:10A44000231044F82E20A6F80CC0E319EFF3118175
:10A45000502282F31288421904EBC202D2F810C0D3
:10A46000BCF1000F03D044F807C01369043342194C
:10A4700004EBC202576917B11F60536904334219D4
:10A4800004EBC202976917B11F6093690433421944
:10A4900004EBC202D76917B11F60D36904330027E8
:10A4A000CAB21F6082F31188284404EBC004236AF7
:10A4B000E3B9B38923F001031B041B0CB381F0BD86
:10A4C0000425C027A6E700252027A3E706254FF48B
:10A4D00088779FE7022570279CE70325982799E74F
:10A4E0000525E82796E70125482793E7B38943F038
:10A4F0000103B381F0BD2EEA0C0C03F1040EA6F8A3
:10A500000CC044F8231044F82E209EE7EC93002062
:10A5100010B503687C487D4C0139834282B02468C1
:10A5200089B200F0AF80A0F58060834200F0AA807D
:10A5300000F58040834200F0818000F58060834216
:10A540007CD000F58060834278D018886408B4FB22
:10A55000F2F4013CA4B282B2B3F1804F0AD06C484D
:10A56000834207D000F58060834203D000F580600D
:10A57000834202D122F0700292B26648834200F018
:10A580008F8000F58060834200F0938022F4407257
:10A5900000F56C4092B283421A80D9621C8540F06B
:10A5A0009180012100221A86998219885A4841F027
:10A5B00001018342198049D0B3F1804F00F08D80B2
:10A5C000534A934200F08B8002F58062934200F080
:10A5D000888002F58062934200F0858002F58062F7
:10A5E000934200F0828002F5806293427FD002F5B0
:10A5F000704293427DD002F5705293427BD002F5B7
:10A600008062934279D002F58062934277D0A2F5BE
:10A610009832934275D002F58062934215D002F5CC
:10A620008062934208BF0D2210D002A84FF0012390
:10A6300040F8043D19F058FC02B010BD1888B4FB76
:10A64000F2F4013CA4B282B286E70C22334B03EB56
:10A65000C20201A854798DF80440012300228DF82C
:10A6600005308DF807308DF8062019F03DFC1B2CC5
:10A670000FD02E2CE0D12A4B019301A819F034FC05
:10A6800002B010BD1888B4FBF2F4013CA4B282B24F
:10A6900070E7244B019301A819F026FC02B010BD0D
:10A6A00001201A80D9621C8598821A8802431A8078
:10A6B00086E701201A80D9621C8598821A88024395
:10A6C0001A8079E7104A93423FF46BAF01229A82D5
:10A6D0001A8842F001021A806EE70122B6E70222D0
:10A6E000B4E70322B2E70422B0E70522AEE7062270
:10A6F000ACE70722AAE70822A8E70922A6E70A2270
:10A70000A4E70B22A2E700BF0004014070BF0020B5
:10A710000004004000100040000001407CC104081B
:10A720002C010001190100010B4A0C4B90421B68DF
:10A7300010D0A2F5806290420CD002F58042904287
:10A7400008D002F58062904204D002F58062904207
:10A7500018BF5B08184670470004014070BF002016
:10A760002B4B98423CD0B0F1804F3BD0A3F57C43BB
:10A77000984239D003F58063984237D003F580635F
:10A78000984235D003F58063984233D003F5806357
:10A79000984233D003F57043984231D003F570539B
:10A7A000984229D003F5806398422BD003F580634B
:10A7B000984229D0A3F59833984227D003F58063B7
:10A7C000984207D003F58063984208BF0D2202D05B
:10A7D000002070470C220F4B03EBC203187970471F
:10A7E0000022F8E70122F6E70222F4E70322F2E76B
:10A7F0000422F0E70522EEE70822ECE70622EAE76A
:10A800000722E8E70922E6E70A22E4E70B22E2E76B
:10A81000000001407CC104082DE9F04F83B08E4D4B
:10A82000DFF8408201908B460BF1FF339B460133EA
:10A8300000F00E8135F002FC884C894FDFF828C209
:10A840004FF4FA7A4FF0100E4FF47A76DCF80430B9
:10A85000C3F30803002B40F0DF80EFF31183002BDC
:10A8600040F0DA802168AA6800BF23689942F9D1D4
:10A87000386806FB00F39A1AB2FBF0F206FB0121DE
:10A88000DCF80430C3F30803002B40F0A680EFF39C
:10A890001183002B40F0A1802368A86800BF2268C4
:10A8A0009342F9D1D7F8009006FB09F2101AB0FBD9
:10A8B000F9F006FB03035B1AB3F57A7FE0D3BAF134
:10A8C000010AC3D1019B581CC0B235F013FADFF85E
:10A8D00098C1DCF804304FF47A7AC3F30803564683
:10A8E0004FF0100E002B38D1EFF31183002B34D131
:10A8F0002168AA6800BF23689942F9D1386806FB2D
:10A9000000F39A1AB2FBF0F206FB0121DCF80430E6
:10A91000C3F30803002B41D1EFF31183002B3DD18A
:10A920002368A86800BF22689342F9D1D7F8009045
:10A9300006FB09F2101AB0FBF9F006FB03035B1AE1
:10A94000B3F57A7FE2D3BAF1010A3FF46DAFDCF8D8
:10A950000430C3F30803002BC6D0EFF311828EF34B
:10A960001288A8682B68D90303D50123C8F80030E2
:10A97000A8682368D8F80010D2B282F311883A6828
:10A98000194406FB02F31B1AB3FBF2F306FB013179
:10A99000DCF80430C3F30803002BBDD0EFF31180C3
:10A9A0008EF31288D5F808902B68DB0304D50123B9
:10A9B000C8F80030D5F808902368D8F80020C0B255
:10A9C00080F311883868134406FB00F2A2EB0902F9
:10A9D000B2FBF0F206FB0323B1E7EFF311808EF335
:10A9E0001288D5F808902B68DB0304D50123C8F83A
:10A9F0000030D5F808902368D8F80020C0B280F362
:10AA000011883868134406FB00F2A2EB0902B2FB7E
:10AA1000F0F206FB03234EE7EFF311828EF3128868
:10AA2000A8682B68D90303D50123C8F80030A868AB
:10AA30002368D8F80010D2B282F311883A6819441A
:10AA400006FB02F31B1AB3FBF2F306FB013117E717
:10AA500003B0BDE8F08F00BF10E000E0709300206D
:10AA6000749300206C93002000ED00E0204B5B68A5
:10AA7000C3F3080330B4BBB9EFF31183A3B91D4A84
:10AA80001D481368846800BF11688B42F9D11B4AC6
:10AA900011684FF47A7202FB01F0001B30BCB0FB6E
:10AAA000F1F002FB03007047EFF31182102383F3F0
:10AAB00012881149124D8C680B68DB0344BF0123D7
:10AAC0002B600C4B48BF8C681B682868D2B282F39D
:10AAD00011880A4A11684FF47A72184402FB01F394
:10AAE0001B1B30BCB3FBF1F302FB0030704700BF0F
:10AAF00000ED00E07093002010E000E0749300206F
:10AB00006C9300202DE9F84F0746264E264DFFF79F
:10AB1000ADFF264A2649DFF89CC04FF0100E4FF4D7
:10AB20007A744FF001086B68C3F30803CBB9EFF3F5
:10AB30001183B3B91368D1F808A000BFD2F8009010
:10AB40004B45F7D1D6F8009004FB09FBABEB0A0AA2
