:020000040800F2
:10000000F0FF0010798C0408F320010801B4000807
:100010007D8D04087D8D04087D8D0408000000009E
:10002000000000000000000000000000F9200108AE
:10003000F720010800000000F5200108E9AC0008E5
:100040007D8D04087D8D04087D8D04087D8D040858
:100050007D8D04087D8D040829B5000855B600087B
:1000600019B60008DDB50008A1B50008C5A2010851
:10007000B5A20108A5A2010895A2010881A2010864
:100080006DA2010859A201087D8D04087D8D040828
:100090007D8D04087D8D04087D8D040865B50008FC
:1000A0007D980008099E00087D8D04088D9F00083A
:1000B000499D0008899C0008BD9B000805BA0108FD
:1000C0000BBA0108F9B90108FFB901087D8D0408D0
:1000D0007D8D040855AE00087D8D0408B9AD00087B
:1000E000EDB400087D8D0408A56A0108AD970008ED
:1000F0004D9900087D8D04081D9A000845A201084D
:100100007D8D04087D8D0408ED9A00087D8D04081E
:100110007D8D04087D8D040895C0020879C0020811
:1001200031A201081DA2010809A20108F5A10108D8
:10013000E1A101087D8D04087D8D04087D8D0408F2
:100140007D8D04087D8D04087D8D0408BD41010866
:10015000CDA10108B9A10108A5A101081DAD0008A4
:10016000EDB90108F3B901087D8D04087D8D0408FF
:100170007D8D04087D8D04087D8D04087D8D040827
:080180007D8D04087D8D04084B
:080188002088040001000000C2
:100190000B201000D4320020543B0020000000004F
:1001A000E00600081F101C005C320020643B0020A9
:1001B00000000000F00600080502010038390020A8
:1001C000803B0020000000000C07000803010A002B
:1001D00086320020843B0020000000000E0700084B
:1001E00010020100FC3F0020F83F0020000000004A
:1001F000180700082C001000804E0020704E0020D0
:1002000000000000ABE001082B002400B44E0020E9
:10021000904E0020000000007DE0010829006400ED
:10022000904D0020D84E002000000000000000008B
:1002300004120200F84C00203C4F00200000000097
:100240001C0700080F020100F44C0020404F002062
:10025000000000001E07000814000200C44800202F
:10026000444F00200000000020070008101002008A
:10027000744C0020484F00200000000022070008B6
:1002800028001000644C00204C4F002000000000AB
:10029000E1C0010823001000B04600205C4F0020A0
:1002A00000000000FBC00108190005005C4C0020A4
:1002B0006C4F00200000000024070008F821060011
:1002C000544C0020744F0020000000002A07000852
:1002D0000E20EA008A4000207C4F00200000000031
:1002E0004DB2030813000400A04500206850002010
:1002F0000000000030070008010104001040002049
:100300006C5000200000000000000000000104000C
:100310000840002070500020000000003407000852
:100320000201030003400020745000200000000080
:1003300039AA0208160008007C5000205C540020F6
:10034000000000003807000807020200706B002060
:10035000B86B0020000000004007000802000C00FD
:10036000486B0020BC6B0020000000000000000073
:1003700006020C003C6B0020C86B0020000000004F
:1003800045B1020808020900C46A0020D46B0020AD
:1003900000000000B5AA0208F7010600B86A0020B4
:1003A000E06B002000000000420700080A020A007B
:1003B000105A0020E86B00200000000048070008E9
:1003C0001D000100DC5C0020F46B00200000000038
:1003D0005207000827000400F45C0020F86B00209E
:1003E00000000000540700080902010054830020A7
:1003F000C883002000000000580700080C106000AF
:10040000FE7F0020CC83002000000000B9A9020874
:1004100001020500647F00202C8400200000000001
:10042000614D030800020500006E002034840020A6
:1004300000000000000000001E000400487D0020B5
:100440003C840020000000005A07000822000C0035
:100450005082002040840020000000005E07000859
:100460001B00F400746C00204C840020000000008D
:10047000ED5103080E020200B081002040850020EB
:10048000000000006A0700082F0011007C83002094
:1004900044850020000000006C07000805100600DD
:1004A000A283002058850020000000007E0700087D
:1004B000F5216E00FC6B002060850020000000002C
:1004C0000B45030826000E00E0850020D0850020A3
:1004D00000000000E14403080120080054900020BF
:1004E0002C92002000000000840700081A000A0077
:1004F0003490002034920020000000008C07000897
:1005000003000100889000204092002000000000BD
:1005100000000000031233003D870020F691002008
:10052000000000009607000825005A00E48700201C
:100530009C9100200000000000000000F6110C005B
:10054000B49000209091002000000000CC0700082B
:1005500015007000F48500202091002000000000AC
:10056000000000002A00600084870020C090002066
:1005700000000000E1B103080400800054CC00201A
:1005800090D500200000000000000000F9010400E8
:1005900018C1002010D6002000000000318400089F
:1005A000FD012400F0C0002014D60020000000004F
:1005B000C1830008061016000CB4002038D60020B5
:1005C00000000000A1B20308FB01010048B30020B5
:1005D00050D600200000000079AA0208FC010900A2
:1005E00014B2002054D600200000000081AA0208A6
:1005F0000A101E00DCB1002060D6002000000000C0
:10060000D80700083400100080A8002080D6002001
:100610000000000009B203081102080058A80020D9
:1006200090D6002000000000F60700081212040017
:1006300050A8002098D6002000000000FE07000807
:1006400012200D003CA800209CD6002000000000D5
:100650000208000811000C00C89C0020ACD6002045
:1006600000000000FFAA0208FF010800289C0020EB
:10067000B8D60020000000002DB4020818202C007D
:10068000C89B0020C0D600200000000059040208CA
:100690000D003400F49B0020ECD600200000000088
:1006A00061B1020802020300A092002020D70020BE
:1006B00000000000000000000C02010090920020E9
:1006C00024D700200000000010080008FE010900E7
:1006D0005494002028D7002000000000E1AA02085E
:1006E0002B21231E64010100000001000A012900E2
:1006F00000000000000001000000050000010203EE
:1007000000000000000000000000000000000401E4
:1007100001006C160000000000000000111800002D
:10072000030000050000280100000401F401190085
:100730000800040090010000C409000019012828E5
:10074000023C24010000000000004A01B400D60170
:100750000000000020030000280000000100C80085
:10076000141E010064002C0128000000000000009D
:100770000000000000000000000000000000200059
:1007800002010000E8036400040A00017E05EA0596
:10079000B40532000000000000000000000000006E
:1007A0000000000000000000000000000000000049
:1007B0000000000000000000000000000000000039
:1007C0000000000000000000010000000000000028
:1007D000000000000000000000300100005A00008E
:1007E0000000000090012C01C8006400020000001D
:1007F0000000000000000000000001010101FFFFF7
:10080000FFFF000000010000054F425344000000BC
:0108100001E6
:10081100FF0000000403090412010002020200406B
:100821008304405700020102030100000902430052
:10083100020100C032090400000102020100052486
:100841000010010524010001042402020524060010
:1008510001070582030800FF09040100020A0000E4
:100861000007050102400000070581024000000069
:10087100FF00000000FFFF0000000000AA55050175
:100881000000010000000000010203040102030452
:1008910006070809B73A0108B53F0108313B0108CD
:1008A10069030108D50801087903010895030108C6
:1008B10043030108350301080000000000000000A7
:1008C1002D202D2D202D2D2D2D202D2D2D2D0000D8
:1008D100000000000000000000000000000000AA6D
:1008E100550B010000AA5507010000AA5509020095
:1008F1000000000001000000C012AA5503009F0083
:10090100FF1FFF1F01000000500100000700000051
:1009110002000000000000000000000001020304CA
:100921000607080920700020702D7200D601000012
:1009310009D00108000000000000000001000000D3
:100941000000000000000000B8150020FFFFFFFFBD
:10095100FA00000001000000010000000001010197
:1009610000010000D8DD0408E0DD040800DE040811
:100971000000000000000000000000000000000076
:1009810093D80408040000005D740308000000000F
:100991000000000008DE0408010000000000000063
:1009A1000000000000000000000000000E00000038
:1009B10000000000000000000000000006CD002043
:1009C1000100C4090000000004CD00200100C40999
:1009D1000000000002CD00200100C4090000000059
:1009E10000CD00200100C40900000000FCCC002063
:1009F1000100C40900000000FECC00200100C40970
:100A010000000000FACC00200100C4090000000031
:100A1100F8CC00200100C40900000000244000209F
:100A21000100C800010000002240002032003075A2
:100A31003200000021400020055A05001E40002020
:100A410000FF0100204000200100000054010020AF
:100A51001C4000200200000008AF04081D400020D7
:100A610000FF01001F400020010000005401002090
:100A71001B4000200200000008AF040816400020BF
:100A810080C1803E050000001440002080C1803EEE
:100A9100050000000E40002080C1803E05000000DE
:100AA1000C40002080C1803E05000000064000206F
:100AB10000FF0100024000200A3201000140002035
:100AC1000400000060A204080040002002000000B1
:100AD10074A2040800000000000000005C01002076
:100AE100F03800209CFF2C010000000010170020AE
:100AF1000A00000080A20408E47C0020E0150C1725
:100B0100000000001217002008000000A09D04084A
:100B1100111700200500000054AF0408E67C0020F6
:100B21000200000098A20408AE4100200100FF7FEE
:100B310001000000AD41002002000000A4A2040851
:100B41007F40002003000000B4A204087E40002082
:100B510003000000B4A204087C4100200000F4015D
:100B6100010000007A4100200000F40101000000B2
:100B7100784100200000F4010100000076410020CE
:100B81000000F401010000007441002000FF010099
:100B910098410020E803D0070A0000009641002098
:100BA100006401000A0000008B4100200064010084
:100BB1008A4100200064010092410020006401008C
:100BC1000A00000091410020006401000A000000B9
:100BD10090410020006401000A00000095410020BE
:100BE100006401000A00000094410020006401003B
:100BF1000A00000093410020006401000A00000087
:100C01008F41002000FF01000A0000008E410020FA
:100C110000FF01000A0000008D41002000FF0100DB
:100C21000A000000864000200000F40101000000DD
:100C3100844000200000F4010100000082400020F7
:100C41000000F40101000000804000200000F401D8
:100C510001000000864100201400E80301000000AB
:100C610084410020E8033075010000008341002029
:100C710000C801008241002000C80100814100201C
:100C810000C8010080410020006401000A0000004A
:100C91007F41002000FF01000A000000A341002065
:100CA10000C80100A241002000C80100A1410020AC
:100CB10000C80100A041002000C801009F410020A0
:100CC10000C801009E41002000C801009D41002094
:100CD10000C801009C41002000C801009B41002088
:100CE10000C8010038DE0408000000000000000018
:100CF100000000000000000048DE040809000000B8
:100D010000000000000200200400000050DE040882
:100D11000900000000000000F401002004000000B0
:100D210040E504080900000000000000E80100207F
:100D310004000000B4D7040809000000000000000E
:100D4100DC0100200400000058DE04080900000056
:100D510000000000D00100200400000060DE040853
:100D61000900000000000000C40100200400000090
:100D710068DE04080900000000000000B80100203E
:100D81000400000070DE04080900000000000000FB
:100D9100AC0100200400000008DE0408010000008E
:100DA1000000000000000000000000000000000042
:100DB1000E00000000000000000000000000000024
:100DC10038E00408000000000000000000000000FE
:100DD100000000006C15050807000000000000007D
:100DE100240200200000000048E004080800000080
:100DF10000000000180200200000000054E0040878
:100E010008000000000000000C02002000000000AB
:100E110008DE0408010000000000000000000000DE
:100E210000000000000000000E00000000000000B3
:100E310000000000000000005CE004080000000069
:100E41000000000000000000000000006CE0040849
:100E51000D00000000000000600200200000000002
:100E610074E004080D00000000000000540200209E
:100E7100000000007CE00408070000000000000002
:100E81004C0200200000000084E004080D00000076
:100E91000000000040020020000000008CE0040877
:100EA1000D000000000000003402002000000000DE
:100EB10094E0040807000000000000002C0200205C
:100EC1000000000008DE040801000000000000002E
:100ED1000000000000000000000000000E00000003
:100EE1000000000000000000000000009CE0040879
:100EF10000000000000000000000000000000000F1
:100F01006C1505080C0000000000000026400020C0
:100F110000000000B0E004080C0000000000000028
:100F21002840002000000000C0E004080C00000080
:100F3100000000005E40002000000000D0E0040836
:100F41000C000000000000005240002000000000E2
:100F5100E4E004080C000000000000002A4000202A
:100F610000000000F0E004080C0000000000000098
:100F71002C40002000000000F8E004080C000000F4
:100F8100000000002E400020000000000CE10408D9
:100F91000C000000000000003040002000000000B4
:100FA10014E104080C0000000000000032400020A1
:100FB100000000001CE104080C000000000000001B
:100FC100704000200000000034E104080C00000023
:100FD10000000000344000200000000040E104084F
:100FE1000C0000000000000036400020000000005E
:100FF10048E104080C000000000000003840002017
:101001000000000054E104080C0000000000000092
:101011003A4000200000000060E104080C000000DC
:10102100000000003C400020000000006CE10408CA
:101031000C000000000000003E4000200000000005
:1010410078E104080C00000000000000404000208E
:101051000000000084E104080C0000000000000012
:10106100424000200000000090E104080C00000054
:1010710000000000564000200000000098E1040834
:101081000C0000000000000054400020000000009F
:10109100A0E104080C0000000000000062400020F4
:1010A10000000000ACE104080C000000000000009A
:1010B1006440002000000000B8E104080C000000BA
:1010C100000000006A4000200000000014DF040856
:1010D1000C0000000000000044400020000000005F
:1010E100C4E104080C000000000000004C40002096
:1010F10000000000CCE104080C000000000000002A
:101101004640002000000000D8E104080C00000067
:10111100000000004840002000000000E4E1040855
:101121000C000000000000004A4000200000000008
:10113100ECE104080C000000000000004E4000201B
:1011410000000000F8E104080C00000000000000AD
:10115100584000200000000000E204080C000000DC
:101161000000000050400020000000000CE20408D4
:101171000C000000000000006040002000000000A2
:1011810018E204080C000000000000005A40002092
:101191000000000020E204080C0000000000000034
:1011A1005C4000200000000028E204080C00000060
:1011B10000000000664000200000000030E204084A
:1011C1000C0000000000000068400020000000004A
:1011D10008DE04080100000000000000000000001B
:1011E10000000000000000000E00000000000000F0
:1011F100000000000000000038E2040800000000C8
:1012010000000000000000000000000044E20408AB
:101211000D00000000000000B802002000000000E6
:101221004CE204080D00000000000000AC020020A8
:101231000000000054E20408070000000000000064
:10124100A40200200000000060E204080700000082
:10125100000000009C020020000000006CE2040875
:1012610009000000000000009002002000000000C2
:1012710078E2040809000000000000008402002058
:101281000000000084E204080900000000000000E2
:10129100780200200000000094E204080900000028
:1012A100000000006C0200200000000008DE0408BD
:1012B100010000000000000000000000000000002C
:1012C100000000000E00000000000000000000000F
:1012D10000000000A8E20408000000000000000077
:1012E1000000000000000000B8E204080500000052
:1012F100000000007D4000200000000008DE04081E
:1013010001000000000000000000000000000000DB
:10131100000000000E0000000000000000000000BE
:1013210000000000C0E2040800000000000000000E
:101331000000000000000000E0F0040800000000D0
:1013410000000000B000002004000000CCE204080E
:101351000D000000C17403080C0300200000000010
:1013610044EF04080D0000001151030800030020A0
:101371000000000058E104080D000000F5500308CA
:10138100F402002000000000D0E204080800000080
:1013910000000000E802002004000000C4E104088D
:1013A1000D0000003D500308DC0200200000000099
:1013B100D8E204080900000000000000D00200206B
:1013C1000400000080E2040803000000E9E50108D0
:1013D100C40200200000000008DE04080100000033
:1013E10000000000000000000000000000000000FC
:1013F1000E000000000000000000000000000000DE
:10140100E0E204080000000000000000000000000D
:1014110000000000F0E204080D00000000000000E0
:101421002403002000000000F8E204080A00000084
:1014310000000000A44500200000000004E30408AF
:101441000A00000000000000AC4500200000000080
:101451000CE304080A00000000000000B44500206D
:101461000000000014E30408080000000000000070
:10147100180300200000000008DE0408010000003D
:10148100000000000000000000000000000000005B
:101491000E0000000000000000000000000000003D
:1014A1001CE3040800000000000000000000000030
:1014B1000000000030E304080D00000000000000FF
:1014C1003C0300200000000040E304080400000089
:1014D100D5E20108000000000000000048E3040814
:1014E1000D0000000000000030030020000000009B
:1014F1005CE3040804000000B1E201080000000000
:101501000000000008DE04080100000000000000E7
:101511000000000000000000000000000E000000BC
:1015210000000000000000000000000064E3040867
:1015310000000000000000000000000000000000AA
:1015410078E3040807000000000000007803002091
:101551000000000084E3040808000000000000000F
:101561006C0300200000000090E304080800000064
:101571000000000060030020000000009CE304085C
:1015810008000000000000005403002000000000DB
:10159100A8E3040808000000000000004803002040
:1015A1000000000008DE0408010000000000000047
:1015B1000000000000000000000000000E0000001C
:1015C100000000000000000000000000B4E3040877
:1015D10000000000000000001701002000000000D2
:1015E100C0E304080B000000000000000804002014
:1015F10000000000CCE304080B0000000000000024
:10160100FC03002000000000D8E304080B000000E8
:1016110000000000F003002000000000E4E30408E3
:101621000B00000000000000E403002000000000A7
:10163100F0E304080B00000000000000D8030020C4
:1016410000000000FCE304080B00000000000000A3
:10165100CC0300200000000008E404080B00000097
:1016610000000000C00300200000000014E4040892
:101671000B00000000000000B40300200000000087
:1016810020E404080B00000000000000A803002073
:10169100000000002CE40408070000000000000026
:1016A100A00300200000000034E40408070000004B
:1016B10000000000980300200000000040E404083E
:1016C1000B000000000000008C030020000000005F
:1016D1004CE4040808000000000000008003002022
:1016E1000000000008DE0408010000000000000006
:1016F1000000000000000000000000000E000000DB
:1017010000000000000000000000000058E4040890
:1017110000000000000000000000000000000000C8
:101721006CE40408080000000000000038040020F8
:101731000000000078E40408080000000000000038
:101741002C0400200000000084E4040808000000CC
:1017510000000000200400200000000090E40408C4
:101761000800000000000000140400200000000038
:1017710008DE040801000000000000000000000075
:1017810000000000000000000E000000000000004A
:10179100000000000000000098E4040800000000C0
:1017A100000000001401002000000000A8E404086B
:1017B1000B00000000000000800400200000000079
:1017C100B4E404080B0000000000000074040020D1
:1017D10000000000C0E40408070000000000000051
:1017E1006C04002000000000CCE4040807000000A5
:1017F100000000006404002000000000D8E4040898
:1018010007000000000000005C0400200000000050
:10181100E4E4040808000000000000005004002077
:1018210000000000ECE404080800000000000000D3
:10183100440400200000000008DE0408010000004C
:101841000000000000000000000000000000000097
:101851000E00000000000000000000000000000079
:10186100F4E404080000000000000000140100205E
:101871000000000000E5040807000000000000006F
:10188100CC0400200000000008E504080700000067
:1018910000000000C40400200000000010E504085E
:1018A1000700000000000000BC0400200000000050
:1018B1007CD704080700000000000000B4040020E9
:1018C1000000000084D704080700000000000000A9
:1018D100AC040020000000008CD7040807000000C1
:1018E10000000000A40400200000000018E5040826
:1018F10007000000000000009C0400200000000020
:1019010020E5040807000000000000009404002006
:101911000000000028E504080700000000000000A6
:101921008C0400200000000008DE04080100000013
:1019310000000000000000000000000000000000A6
:101941000E00000000000000000000000000000088
:101951000000000021BD0108D40400207B400020CC
:1019610028000000C4A204087A40002000C8010039
:1019710078400020E803D007010000004F4D4E4998
:1019810042555346345344001A40002000030100DD
:1019910019400020000301006DBC010849BC010889
:1019A100B00500200DBC0108C9BB010828060020B4
:1019B100A9BC010891BC0108DC06002061BB01083B
:1019C10031BB0108E809002037BD010881E20108A7
:1019D100C40A00207D50030800000000140B002001
:1019E100D9E301089DBF0108F00B00205DBD01088E
:1019F10000000000900C002001BE0108D1BD0108CB
:101A01001C0D00208DBE0108D1BE0108BC0D0020B7
:101A110088410020010601009DBD010871BD01083A
:101A2100FC0E002031BE0108F9E20108880F0020F8
:101A3100FDBE010855E30108501000207E41002041
:101A41000103010030E5040800000000000000006F
:101A510000000000000000003CE504080800000050
:101A610000000000601100200000000044E50408AF
:101A710007000000000000005811002000000000D5
:101A810054E504080D000000000000004C11002086
:101A91000000000060E5040803000000E9E501081A
:101AA100401100200000000008DE040801000000D1
:101AB1000000000000000000000000000000000025
:101AC1000E00000000000000000000000000000007
:101AD10068E50408000000000000000000000000AC
:101AE1000000000078E504080A0000000000000082
:101AF10080E504080000000088E504080A000000F1
:101B01000000000000D904080000000090E504086E
:101B11000A00000000000000A441002000000000B5
:101B210098E504080A000000000000006C11002084
:101B31000000000008DE04080100000000000000B1
:101B41000000000000000000000000000E00000086
:101B5100000000000000000000000000A0E50408F3
:101B61000000000000000000000000000000000074
:101B7100ACE5040803000000E9E50108A01100201C
:101B810000000000B8E5040803000000E9E50108D1
:101B91009411002000000000C0E5040803000000CB
:101BA100E9E501088811002000000000C8E50408EB
:101BB10005000000000000001840002000000000A7
:101BC100D0E504080700000000000000801100209B
:101BD10000000000DCE50408070000000000000030
:101BE100781100200000000008DE04080100000058
:101BF10000000000000000000000000000000000E4
:101C01000E000000000000000000000000000000C5
:101C1100E8E50408000000000000000000000000EA
:101C210000000000FCE5040803000000E9E50108EC
:101C3100D01100200000000008E6040803000000A5
:101C4100E9E50108141700200000000010E604086F
:101C510003000000E9E50108C411002000000000B4
:101C610018E6040803000000E9E50108B8110020A6
:101C710000000000C4E1040803000000E9E50108D8
:101C8100AC1100200000000008DE04080100000083
:101C91000000000000000000000000000000000043
:101CA1000E00000000000000000000000000000025
:101CB10024E604080000000000000000000000000D
:101CC1000000000030E6040807000000A1E301085D
:101CD1002C12002000000000E8E1040803000000CD
:101CE100E9E5010820120020000000003CE604089C
:101CF10003000000E9E501081412002000000000C3
:101D010044E6040803000000E9E501080812002088
:101D1100000000004CE604080700000085E301080C
:101D2100001200200000000010D70408030000008A
:101D3100E9E50108F41100200000000058E604085C
:101D410003000000E9E50108E8110020000000009F
:101D510064E6040803000000E9E50108DC11002045
:101D61000000000008DE040801000000000000007F
:101D71000000000000000000000000000E00000054
:101D8100000000000000000000000000F1BC01089C
:101D9100C1BC01083412002069BF01080000000025
:101DA100C0120020ADBB010891BB01084C130020FB
:101DB10000000000000000000014002041BF0108E5
:101DC100BDE30108A014002070E604080000000033
:101DD1000000000000000000000000007CE6040894
:101DE10003000000E9E50108AC1500200000000037
:101DF10084E6040803000000E9E50108A0150020BD
:101E01000000000090E6040803000000E9E5010875
:101E1100941500200000000094E60408030000006F
:101E2100E9E501088815002000000000A0E604088B
:101E310003000000E9E501087C1500200000000016
:101E4100A8E604080200000069E60108000000009D
:101E510000000000B0E604080200000069E6010885
:101E61000100000000000000BCE6040802000000C0
:101E710069E6010802000000000000000000000007
:101E81000E00000000000000000000000000000043
:101E9100010102FFFF000000685E0C00FFFFFFFF71
:101EA10000000000A86B00200800000000000000F6
:101EB100986B0020080000000000803F0000000037
:101EC10000000000000000000000803F96000000BC
:101ED1000000803F9CA804080508040000000000E1
:101EE10054AF0408A09D040840AF0408000000009E
:101EF10000000000C8A8040805080A00000000004E
:101F010054AF0408A09D040880A20408000000004A
:101F11000000000000000100E0010000FFFFFFFFE2
:101F2100010101002D510308000000008818002064
:101F310098EF04080000000000000000000000000D
:101F410000000000E0F004080000000000000000B4
:101F5100942200200400000044EF04080D0000005A
:101F610059E201087C2200200000000058E1040829
:101F71000D00000031E20108702200200000000085
:101F8100D0E20408080000000000000064220020E4
:101F910004000000C4E104080D0000000DBB0108AD
:101FA100582200200000000080E204080300000025
:101FB100E9E501084C22002000000000A8EF040818
:101FC10003000000E9E501084022002000000000B4
:101FD10008DE04080100000000000000000000000D
:101FE10000000000000000000E00000000000000E2
:101FF100000000000000000098EF0408000000004D
:10200100000000000000000000000000E0F00408F3
:1020110000000000000000009422002004000000E5
:10202100ECEE0408030000003153030834220020C1
:1020310008000000C4E104080D0000000DBB010808
:10204100582200200000000080E204080300000084
:10205100E9E501084C22002000000000A8EF040877
:1020610003000000E9E50108402200200000000013
:1020710008DE04080100000000000000000000006C
:1020810000000000000000000E0000000000000041
:102091000000000000000000B0EF04080000000094
:1020A100000000000000000000000000E0F0040853
:1020B1000000000000000000942200200400000045
:1020C100F4EE040803000000E9E50108882200207D
:1020D1000000000008DE040801000000000000000C
:1020E1000000000000000000000000000E000000E1
:1020F10000000000000000000000000001080000D6
:10210100425702000000010642570200000001068A
:102111006CF1040800000000000000004DAA020854
:10212100A086010004000000000000000000000083
:10213100000000000000000000000000000000009E
:1021410000000000E8E104088CDE04080000000043
:1021510071DA02087D0000000600000000000000A6
:10216100000000000000000000000000000000006E
:1021710000000000000000005CEB0408000000000B
:10218100000000003DC10008E8030000030000005A
:10219100000000000000000000000000000000003E
:1021A10000000000000000000000000004E004083E
:1021B100000000000000000035B7030810270000F0
:1021C100030000000000000000000000000000000B
:1021D10000000000000000000000000000000000FE
:1021E100C8EF04080000000025DD0108A9D9000896
:1021F100204E00000500000000000000000000006B
:1022010000000000000000000000000000000000CD
:102211000000000030170508000000000000000069
:1022210071CB000810270000010000000000000031
:10223100000000000000000000000000000000009D
:10224100000000000000000074F10408000000001C
:102251000000000049800008E803000005000000BC
:10226100000000000000000000000000000000006D
:1022710000000000000000000000000080F10408E0
:1022810000000000000000002DC50208204E0000E3
:10229100030000000000000000000000000000003A
:1022A100000000000000000000000000000000002D
:1022B10090F10408000000000000000005C30208BE
:1022C100204E00000300000000000000000000009C
:1022D10000000000000000000000000000000000FD
:1022E10000000000A0F10408000000000000000050
:1022F1003D880008400D03000300000000000000BD
:1023010000000000000000000000000000000000CC
:10231100000000000000000068E90408000000005F
:1023210000000000FD31030810270000010000003B
:10233100000000000000000000000000000000009C
:10234100000000000000000000000000C4EF0408CD
:10235100000000000000000065890308102700004C
:102361000300000000000000000000000000000069
:10237100000000000000000000000000000000005C
:10238100B0F104080000000000000000A92F0208BD
:10239100A086010001000000000000000000000014
:1023A100000000000000000000000000000000002C
:1023B1000000000008E9040800000000000000001F
:1023C1007183020850C300000100000000000000FA
:1023D10000000000000000000000000000000000FC
:1023E10000000000000000008CDF04080000000075
:1023F10000000000D1440308701101000100000039
:1024010000000000000000000000000000000000CB
:1024110000000000000000000000000014DF0408BC
:102421000000000000000000297C0208A8610000F3
:10243100010000000000000000000000000000009A
:10244100000000000000000000000000000000008B
:10245100B8F104080000000000000000959E030888
:10246100A086010001000000000000000000000043
:10247100000000000000000000000000000000005B
:1024810000000000ACE904080000000000000000AA
:1024910095550208A00F0000010000000000000097
:1024A100000000000000000000000000000000002B
:1024B1000000000000000000C4F10408000000005A
:1024C100000000004D540308102700000100000027
:1024D10000000000000000000000000000000000FB
:1024E100000000000000000000000000D0F104081E
:1024F100000000000000000055B40208A00F000019
:1025010001000000000000000000000000000000C9
:1025110000000000000000000000000000000000BA
:1025210090E604080000000000000000EDA9030887
:102531001A4100000100000000000000000000003E
:10254100000000000000000000000000000000008A
:1025510000000000D4DE04080000000000000000BC
:10256100A50B010810270000010000000000000079
:10257100000000000000000000000000000000005A
:10258100000000000000000034F104080000000019
:1025910000000000FDE701081A41000001000000F1
:1025A100000000000000000000000000000000002A
:1025B100000000000000000000000000DCF1040841
:1025C10000000000000000008D580108400D0300CC
:1025D10000000000000000000000000000000000FA
:1025E10000000000000000000000000000000000EA
:1025F100E4F1040800000000000000002944020882
:10260100400D030000000000000000000000000079
:1026110000000000000000000000000000000000B9
:1026210000000000ECF104080000000000000000C0
:10263100818F0308A0860100030000000000000054
:102641000000000000000000000000000000000089
:102651000000000000000000F8F104080000000084
:1026610000000000D1C2020840420F00000000003B
:102671000000000000000000000000000000000059
:1026810000000000000000000000000004F2040847
:1026910000000000000000002534030850C30000C2
:1026A1000000000000000000000000000000000029
:1026B1000000000000000000000000000000000019
:1026C100FFFF0100FFFFFFFFEA7C002088136F1767
:1026D10001000000EC7C002088136F17000000004F
:1026E10048EE0408000000000000000000000000A7
:1026F1000000000058EE040808000000000000007F
:10270100C41E00200400000064EE0408080000005C
:1027110000000000B81E00200000000080E2040854
:1027210004000000E974030800000000000000003C
:1027310008DE0408010000000000000000000000A5
:1027410000000000000000000E000000000000007A
:102751000000000000000000E87C002088136F17D3
:10276100010000002C39002088136F1700000000C1
:102771009551030800000000D01E00205E8000205B
:102781000100000014AF04082E39002001000000F0
:1027910020AF0408243900200200000028AF0408FB
:1027A1004ECD002000000000000000004CCD0020B4
:1027B10000000000000000004ACD002000000000E1
:1027C1000000000048CD00200000000000000000D3
:1027D10046CD0020000000000000000044CD002094
:1027E1000000000000000000E800002000000000E0
:1027F10000000000E77C00200200000034AF040864
:10280100A4EE040800000000000000000000000029
:102811000000000058EE040808000000000000005D
:10282100541F00200400000064EE040808000000AA
:1028310000000000481F00200000000080E20408A2
:1028410004000000655103080000000000000000C2
:1028510008DE040801000000000000000000000084
:1028610000000000000000000E0000000000000059
:102871000000000000000000B4EE040800000000A9
:10288100000000000000000000000000C4EE040889
:102891000D000000D9E10108841F002004000000A0
:1028A100D0EE04080D00000081E10108781F00202E
:1028B10004000000DCEE04080D000000A5E10108A1
:1028C1006C1F002000000000E8EE04080300000077
:1028D10051530308601F002008000000F4EE0408B3
:1028E10003000000E9E50108882200200000000043
:1028F10008DE0408010000000000000000000000E4
:1029010000000000000000000E00000000000000B8
:10291100000000000000000000DE040800000000CC
:10292100000000000000000000000000FCEE0408B0
:102931000400000001750308000000000000000011
:1029410008DE040801000000000000000000000093
:1029510000000000000000000E0000000000000068
:1029610000000000000000004CEF0408000000001F
:10297100000000000000000000000000141805081D
:102981000D00000000000000E41F00200400000012
:102991005CEF04080800000000000000D81F0020C0
:1029A1000400000068EF04080800000000000000B7
:1029B100CC1F00200400000070EF04080800000094
:1029C10000000000C01F00200400000078EF040890
:1029D1000800000000000000B41F002004000000F7
:1029E10080EF04080800000000000000A81F00207C
:1029F1000400000088EF0408080000000000000047
:102A01009C1F00200400000090EF04080800000053
:102A110000000000901F00200400000008DE0408F0
:102A210001000000000000000000000000000000A4
:102A3100000000000E000000000000000000000087
:102A4100000000007D51030800000000F01F00207D
:102A510000000000000000006820002000000000CD
:102A610000000000082100202A3900200400000095
:102A710040AF040828390020E0150C1700000000C1
:102A81002739002008000000A09D040826390020F5
:102A91000500000054AF0408000000000000000021
:102AA100582100202D202D2D202D2D2D2D202D2D97
:102AB1002D000000000000000000000000000000E8
:102AC100000000000000803F000000000000000046
:102AD100000000000000803F000000000000000036
:102AE10000000000000000000000000000000000E5
:102AF1000000000000000000000000000000803F16
:102B0100000000000000000000000000FFFFFFFFC8
:102B1100010000000800000047080108B307010890
:102B2100E91201080000000011030108690601080B
:102B31004B070108D7050108000000000000000054
:102B410005030108350101083301010831010108BC
:102B51002B010108290101082F0101082D0101089C
:102B610045010108370101086D10010881100108B4
:102B710059100108451001082F100108006002409A
:102B8100106002400000000000000000000B000087
:102B91000000000000000000000000000060024092
:102BA100286002400100000000000000060C000047
:102BB1000000000000000000000000000060024072
:102BC100406002400200000000000000100D000003
:102BD1000000000000000000000000000060024052
:102BE100586002400300000000000000160E0000C3
:102BF1000000000000000000000000000060024032
:102C0100706002400400000000000000200F00007E
:102C11000000000000000000000000000060024011
:102C2100886002400500000000000000261000003E
:102C310000000000000000000000000000600240F1
:102C4100A0600240060000000000000030110000FA
:102C510000000000000000000000000000600240D1
:102C6100B86002400700000000000000362F00009D
:102C710000000000000000000000000000640240AD
:102C81001064024000000000000000000038000055
:102C9100000000000000000000000000006402408D
:102CA1002864024001000000000000000639000015
:102CB100000000000000000000000000006402406D
:102CC100406402400200000000000000103A0000D1
:102CD100000000000000000000000000006402404D
:102CE100586402400300000000000000163B000091
:102CF100000000000000000000000000006402402D
:102D0100706402400400000000000000203C00004C
:102D1100000000000000000000000000006402400C
:102D21008864024005000000000000002644000005
:102D310000000000000000000000000000640240EC
:102D4100A0640240060000000000000030450000C1
:102D510000000000000000000000000000640240CC
:102D6100B864024007000000000000003646000081
:102D71000000000000000000000000000100000051
:102D81000000803F782500200000000000000000C6
:102D91000000000000000000000000000000000032
:102DA1000000000000000000000000000000000022
:102DB1000000000000000000000000000000000012
:102DC1000000000000000000000000000000000002
:102DD10000000000000000000000000000000000F2
:102DE100000000000000000043000000000000009F
:102DF10000000000000000000000000000000000D2
:102E0100000000000000000043000000000000007E
:102E110000000000000000000000000000000000B1
:102E2100000000000000000043000000000000005E
:102E31000000000000000000000000000000000091
:102E4100000000000000000043000000000000003E
:102E51000000000000000000000000000000000071
:102E6100000000000000000043000000000000001E
:102E71000000000000000000000000000000000051
:102E810000000000000000004300000000000000FE
:102E91000000000000000000000000000000000031
:102EA10000000000000000004300000000000000DE
:102EB1000000000000000000000000000000000011
:102EC10000000000000000004F9104082B9104084D
:102ED10000000000761F05088FD804085BF2040883
:102EE1005BF204085BF204085BF204085BF204087D
:102EF1005BF204085BF204085BF204085BF204086D
:102F0100FFFFFFFFFFFFFFFFFFFFFFFFFFFF0000CE
:102F11000100415343494900000000000000000046
:102F210000000000000000000000000000000000A0
:102F31000000415343494900000000000000000027
:102F41000000000000000000000000000000000080
:042F5100000000007C
:1080000090ED057A90ED004AD0ED066AD0ED014A78
:10801000D0ED047A90ED035AD0ED025AA4EE007A26
:10802000B0EE406AB0EE470AB0EE667AA4EE867A09
:1080300067EEC07AA5EE407AE5EE867A80ED057AA5
:10804000C0ED067A704700BF38B50B4C23688BB182
:108050005A68821A002A054604DA0BE05A68AA1AFE
:10806000002A07DB9A68226018461A68904723683E
:10807000002BF3D138BD00BFB44300202DE9F043FD
:10808000077B91F800C0DFF8B8E047610023C0E942
:108090000677C0E90877C0E90A77C0E90C77C0E93C
:1080A0000E73C0E91033C0E91233C0E91433C0E9DC
:1080B00016336FEA0C0C5FFA8CFC036698461424A6
:1080C00005254CFA05F303F00103002B14BF192614
:1080D0000A26434415F0010F04EB06015FFA83F80A
:1080E00089B214BFB9464FF00009234600EB830262
:1080F00001339BB29942C2F81490F7D1013D344448
:108100006A1CA4B2DDD118F0010F14BF19230A2391
:10811000E518ADB2224600EB8201013292B2AA42CA
:108120004F61F8D123449BB21A1D00EB8202013348
:108130009BB200215160AEF800300361BDE8F083CE
:1081400048270020254B5B880B332DE9F04F8A46EA
:1081500001F1060B1FFA83F94FF0010800210025F9
:108160001AF801EB2C464A460127A2F10B039BB2F9
:1081700007E001339BB2B0F80CC0C6F814C09342BC
:108180000AD000EB8306002FF3D100EB8306013306
:108190009BB293427761F4D1043300EB8303013443
:1081A000092D5960E4B20CD0092C14D008FA05F35B
:1081B00013EA0E0F14BF012700270C3292B20135CB
:1081C000D3E709F17809DA451FFA89F9C7D1034BDA
:1081D0005980BDE8F08F0027EFE700BF4827002057
:1081E0002DE9F047DFF860E0BEF8043004338A463A
:1081F0001FFA83FC01F1090801271AF8016BE14617
:108200000025A9F1040307FA05F29BB23240C2B17E
:10821000818900EB830401339BB24B456161F6D148
:1082200001350433082D1FFA83F9EAD10CF1200C33
:10823000C2451FFA8CFCE0D10023AEF80430BDE843
:10824000F0871146E5E700BF4827002010B5027C03
:1082500001681F2A4FF020030ED94C68203A934042
:108260001C4208D00B4A406800241470026822F0B7
:1082700001020260CB6010BD0C6893401C42FAD032
:10828000044A406800241470026822F0010202606F
:108290008B60F0E7EA590020436A8269D154436A4F
:1082A0000169826B01338B4228BF00234362DAB13C
:1082B000EFF31183502282F31288826B1168C90791
:1082C0000ED470B45468FCB9D0E909518D4211D173
:1082D000012280F85C20DBB283F3118870BC704708
:1082E000DBB283F311887047826DD36843F080035B
:1082F000D360704786690E44D6600ED9691A516002
:108300008562002180F85C10116841F00101DBB248
:10831000116083F3118870BC70470569691A516058
:108320008462EEE7034610B4446BD968406954B1E7
:10833000DA6C8C1A013A005D5DF8044B08BF0A46FE
:10834000C0B2DA6470471A6A805C01328A4228BF80
:108350002246C0B21A625DF8044B7047836B13B1BA
:1083600090F85C007047D0E90903181AB0FA80F061
:1083700040097047D0E909120369914238BFC91812
:108380008A1A816B013B19B149680A449A4201D2A9
:10839000981A704700207047436B43B1C26C5B680A
:1083A0009A4291BF981AC0689B1AC0187047D0E9CA
:1083B00007239A422FBFD01AC0688018C01A70478E
:1083C0000A4B30B503F1140493F900205D78072AB5
:1083D000C8BF143A811804330D7313F8025C855436
:1083E00013F8012C0A769C42EED130BD5C9A040849
:1083F00003682DE9F041DD691DB12B46BDE8F04170
:108400001847002A174611DD04460E460F4400E0C7
:1084100023689B68204698470028F9D0236816F8FF
:10842000011B1B6820469847BE42F1D1BDE8F08190
:1084300000232522027043708370C370704700BF11
:108440000028F0B403DA2D230B70404201310928D3
:1084500004464FF0010307DD03EB83035B00B0FB31
:10846000F3F2092AF8D883B10F48A0FB0326B4FB26
:10847000F3F2092A02F1570C02F1300709DD03FB80
:108480001244F30801F801CBEFD100230B70F0BCCC
:10849000704703FB1244F30801F8017BE5D1002388
:1084A0000B70F0BC704700BFCDCCCCCC884270B410
:1084B0004FF0010442D301FB04F4B0FBF4F58D420C
:1084C000F9D2ECB142BB092D04FB150005F15706AA
:1084D00005F130020EDDB4FBF1F403F8016B7CB161
:1084E000B0FBF4F5092D04FB150005F1570605F165
:1084F0003002F0DCB4FBF1F403F8012B002CEFD1D7
:1085000000221A7070BC704703F8016BB4FBF1F4E1
:10851000002CF5D0B0FBF4F5092D04FB150005F196
:10852000370605F13002EFDCB4FBF1F403F8012B60
:10853000002CEFD100221A7070BC70470546002A4B
:10854000EAD1C0E72DE9F04714461D460646002350
:108550004FF47A722046294640F0C2F9DFF848818C
:108560004B4A4C4F88FB00310144C31782FB002C5F
:10857000C3EB611188FB012887FB00278444464A2E
:10858000C3EBEC2CC1EB011E82FB0C29A0EB8E0E81
:108590000744424A86F806E0C3EB27474FEAEC7EE1
:1085A00008EB010ACEEBA90E82FB07824FEAE178C5
:1085B0000EEB4E0EC8EB6A18ACEBCE0CC8EB0818ED
:1085C000DFF8E8E086F804C0A1EB880171718EFB4A
:1085D0000010F917C1EBE21240F2B55101FB127223
:1085E000C3EBE050B2F5896F4FEA80073FDA40F203
:1085F000DA239A4243DCB2F5B77FB4BF4FF0000EE6
:108600004FF0010E4FEA4E08254B08EB0E0103EB2D
:10861000C1031FFA8EFC588D224908EB0E0301EBB3
:10862000C30116310B2301E031F8020D90421BDD2E
:10863000013BF9D11A4BC64403EBCE0E0123BEF821
:108640001400B37007F2B2770132121ABC44F27010
:10865000A6F800C0204629464FF47A72002340F065
:108660003FF93281BDE8F0870133DBB2E9E74FF033
:10867000030CE64640F296504FF00608CCE74FF068
:10868000020CE64640F229404FF00408C4E700BF60
:10869000C5B3A29107452EC2ABAAAA2A73B06D1624
:1086A0005C9A0408709A040889888888792D0311D7
:1086B00003685A1C02601970704700BF2DE9F0472B
:1086C000089C2578002B804689460CBF4FF0200A75
:1086D0004FF0300A661C25B3002A26DD334601E040
:1086E000024698B113F8011B501E0029F8D1971EBD
:1086F00060B13D46013D51464046C8476B1C002BCA
:10870000F8DC257827EAE770013045B1041B2946DB
:108710004046C847301916F8015B002DF7D1BDE877
:10872000F087002A03DC2846F9E70020EEE7571E11
:10873000DFE700BFD0E9012300EB8301013393425F
:10874000D0ED037A81ED040A836004BF00238360C7
:1087500000EB830393ED047A036870EE277A9A4264
:10876000C0ED037A77EEC77AC0ED037A0CDA0133F5
:1087700007EE103AF8EEC76AB7EE007A87EEA60A5F
:10878000036030EE070A704707EE102AB8EEC77A8A
:1087900087EE870A704700BFD0ED057A90ED013A69
:1087A000D0ED003AD0ED064A90ED024A90ED077AFE
:1087B00090ED035A90ED086AD0ED045AC0ED067AA8
:1087C000F0EE406A27EE830AC0ED056AA3EEA60A22
:1087D00080ED087AA4EE240AA5EE470AA5EEC60AA3
:1087E00080ED070A704700BFD0ED007A90ED017A66
:1087F00030EE670AE7EE007AB0EE670AC0ED007A65
:10880000704700BF704700BF0A44914215D030B492
:108810000139551E41F2210211F8014F082380EA67
:10882000042004044CBF82EA40004000013B80B2B7
:10883000F7D18D42F0D130BC704770472DE9F04739
:108840008C4A8D4B12781C78D207064648D58B4D42
:10885000012C00F091801ED3022C40F09B808849AF
:10886000884A09881288884F914201D901241C70D6
:10887000EB7AFBB12B89EBB1844B1B78D3B123F09E
:1088800043FC002800F0E2802B7B83422CBF0123B5
:1088900000233B700FE0DFF8E8C17B4F7C4CBCF855
:1088A00000002288697B521A8242DFDAEB7A0024C8
:1088B000002BDFD13B782A79632A07D87549022C2F
:1088C000087800F0B880002840F0A0807249AA7AA9
:1088D0009C4238BF1C460C70002A44D1BDE8F0878A
:1088E000DFF89CC1654DBCF80000BCF8021095F89B
:1088F00003E06A4F411A0029A4F10302B8BF4942BC
:10890000704597F80080D2B211D32F7887420ED3EA
:10891000012A45D9B8F1020F9AD15C48604A007823
:1089200090800229CCBF00210121D18090E7B0EBDB
:108930004E0FEDDC012A40F28C800229EADC032490
:10894000514F524852494F4A1C70B8F1020F4FF034
:1089500000033C7003700B80138089D1504A0121C1
:108960009380D18084E7012C6BD0022CB6D10720F4
:10897000BDE8F04724F0BABC424A41491288687BFE
:108980000988121A914207DD414A12888A423CBF87
:1089900000241C703C4F6BE702241C703A4F67E7C1
:1089A0000229B7DC95F800E090FBFEFE0EF1010E07
:1089B000BEF1080FDFF8D4A0AA786978DFF8C49078
:1089C000334C314FA8BF4FF0080E8AF800E01FFA71
:1089D0008EFA11FB0AF112FB0AF2DFF8B8A0A9F82F
:1089E000001092B200214FF06409B8F1020F22800A
:1089F00039701970CAF804108AF801907FF452AFE8
:108A0000274A0121A2F804E0D18048E74868301ADB
:108A1000244EB042C8BF4A703FF758AFC2F164025B
:108A2000214E00FB02F086FB0062C017A0EBA250B3
:108A3000643048704AE70028E8D101274E600F7083
:108A4000ECE70820BDE8F04724F050BC02233B705F
:108A500031E7032C7FF471AFB8F1020F9AD10B4AC2
:108A60000F4B12789A800229CCBF00210121D980B6
:108A7000054FFDE69032002044590020D4320020FA
:108A8000BC32002048590020A4590020C2320020E6
:108A9000465900204C5900206A6C00209192002019
:108AA000949200207F9698006BCA5F6B30B50446A5
:108AB000806D61718389A26823F400531B041B0C31
:108AC000838185B0A379009213F0040F4FEA03323B
:108AD0004FEA03230CBF00254FF4805503F4806355
:108AE00002F40052ADF80450ADF80830002511F042
:108AF0000103ADF80620ADF80C501ED1ADF80A30D8
:108B000008238D07694648BFADF80A300BF070FEA8
:108B1000A279A36DD10715D412F0080F9A8A05BF68
:108B200022F00802120442F00802120C9A829A897A
:108B300042F400529A8105B030BD0423ADF80A30EA
:108B40000C23DEE70A498B4210D0A1F548418B4245
:108B500005D001F54C418B42DED1052000E002201A
:108B6000012111F075F8A279A36DD5E70020F7E790
:108B70000010014030B50446806DA160838923F464
:108B800000531B041B0C838185B0A379009113F063
:108B9000040F61794FEA03324FEA032303F4806341
:108BA000ADF808300CBF00254FF48055CB0748BF07
:108BB0000423ADF804504FF00005ADF80A5002F45C
:108BC00000524ABFADF80A3008230C23ADF80C5010
:108BD0008D07694648BFADF80A30ADF806200BF0A6
:108BE00007FEA279A36DD10710D412F0080F9A8A5C
:108BF00005BF22F00802120442F00802120C9A8209
:108C00009A8942F400529A8105B030BD0A498B42DC
:108C100010D0A1F548418B4205D001F54C418B4263
:108C2000E3D1052000E00220012111F011F8A27922
:108C3000A36DDAE70020F7E7001001404B0901F0CF
:108C40001F0150F82320012303FA01F1114214BF40
:108C500018460020704700BFDFED317A30EE277AEA
:108C6000FDEEC76A16EE903A2033402B02D99FEDF5
:108C70002D0A7047B4EEE70AF1EE10FA4DDD9FEDD4
:108C80002A6ADFED2A6A01E0B0EE677AB4EEE67A8E
:108C9000F1EE10FA77EE467AF6DC9FED257AF4EEE7
:108CA000C77AF1EE10FA35D5DFED1F6A9FED217A14
:108CB00001E0F0EE407AF4EEC77AF1EE10FA37EE0A
:108CC000A60AF6D4DFED167AB4EEE70AF1EE10FA52
:108CD0001BDCDFED197AB4EEE70AF1EE10FA44BFBF
:108CE000DFED137A37EEC00A60EE006A9FED136A7B
:108CF0009FED137ADFED137AA6EE867A20EE266AD0
:108D0000E6EE877AA6EE270A7047DFED0F7A37EE98
:108D1000C00AE9E7B0EE670AD4E7F0EE477ABCE7AD
:108D2000DB0FC93F00000000DB0FC940E4CB164158
:108D3000DB0F49C0E4CB16C1DB0FC9BF92E741B9D5
:108D40009730083C15A82ABEDB0F4940FDEEC07ADB
:108D500017EE903A2033402B45D8DFED2D7AB4EE54
:108D6000E70AF1EE10FA4DDDDFED2A6A9FED2A7A6F
:108D700001E0B0EE670AB4EEC70AF1EE10FA70EE49
:108D8000667AF6DC9FED257AF4EEC77AF1EE10FAFA
:108D90003BD5DFED206A9FED227A01E0F0EE407ACC
:108DA000F4EEC77AF1EE10FA37EEA60AF6D4DFED4C
:108DB0001D7AB4EEE70AF1EE10FA17DDDFED147A52
:108DC00037EEC00A60EE006A9FED176A9FED177AD2
:108DD000DFED177AA6EE867A20EE266AE6EE877A2F
:108DE000A6EE270A70479FED130A7047DFED127A4F
:108DF000B4EEE70AF1EE10FA44BFDFED087A37EE81
:108E0000C00ADFE7F0EE407ABCE7B0EE670ACEE7D3
:108E1000DB0F4940DB0FC940E4CB1641DB0F49C0F3
:108E2000E4CB16C1DB0FC93F92E741B99730083C4C
:108E300015A82ABE00000000DB0FC9BF022828BF0A
:108E4000022010B4084C094B207000EB8002C0EBEC
:108E5000C20207495DF8044B013003EB4203C0B284
:108E60000B6024F04FBD00BF3CA800208A400020CA
:108E70002C3B00203F4B9A89D989914210B524BFE1
:108E800000229A81598A1A8A914224BF00221A82AA
:108E9000D978394A92F8502081B107290ED0374C41
:108EA000012000210A2A20709870D97159D00C2A0B
:108EB00001D00A2A5BD0DFED327A0AE00A2AD9799A
:108EC00052D0DFED307A9FED307A0C2A18BFF0EEE9
:108ED000477A9FED2E7A002918BFF0EE477A2C4C86
:108EE000A278062A97BF2B49DFED286A01EB8201A1
:108EF000D1ED1D6A217971B1013A032A0AD8B7EE82
:108F0000000A80EE260A40F037FB2388984228BFEB
:108F10001846208010BD9B78184907EE103A0A7851
:108F2000B8EEC77A67EE277A07EE102AB8EEC77A4E
:108F300027EE277AF4EEC76AF1EE10FAEADD86EE44
:108F4000A77AFDEEC77A17EE903A102BA8BF102330
:108F5000012BB8BF0123DBB29A4238BF1A460A7010
:108F600010BDDFED0D7ABAE7DFED0C7AB1E7DFED8A
:108F70000A7AAEE7DCB100208CA90020544C002016
:108F80006F12833A0AD7A3396F1203396F1203386D
:108F90000CB400205C9A04080F506E3A5304E93870
:108FA00038B50C4C0C4DAC4206D2616820461434E6
:108FB00023F018FDAC42F8D3084A094B094C146061
:108FC000002209491A705A7008480860BDE8384004
:108FD0002EF0C2BE90010008E00600082C3B0020E5
:108FE0003CA800208A400020303B0020FE7F00206B
:108FF000054B10B59A68054C2178501C09B99A6048
:1090000010BD0246F8E700BF48270020EA590020BB
:10901000F0B50C2934D8DFE801F08A3333335F33FD
:109020003333343333330700048C9689B2F802C0EB
:109030001788744D24F480542404240C0484038C75
:109040008488818B23F4005321F4E6411B04090436
:109050001B0C46EA0C06090C43EA063341EA0721D9
:10906000A8429BB2A4B289B200F09E8005F580654B
:10907000A84200F09980926884808183026403840E
:10908000F0BD048C9589B2F802E017885D4E24F497
:1090900080742404240C0484038CB0F804C0818BF5
:1090A00023F400731B0421F0730145EA0E041B0C2A
:1090B000090443EA0423090CB0429BB21FFA8CF561
:1090C00041EA07015BD0504CA04258D0926885809D
:1090D0008183C2630384F0BD048C9589B2F802E0F9
:1090E000B2F800C0474E24F010042404240C048479
:1090F000038C8788018B23F0200321F4E6411B04B5
:1091000009041B0C45EA0E04090C43EA041341EA66
:109110000C21B0429BB2BFB289B25BD03A4CA042A4
:1091200058D092688780018382630384F0BD048CE9
:109130009589B2F802C01788324E24F00104240445
:10914000240C0484018C8488038B21F0020123F019
:10915000730309041B04090C45EA0C051B0CB042FF
:1091600041EA0501A4B243EA070324D0264DA842F0
:1091700021D092688480038342630184F0BDD48946
:10918000168A578A23F4006343EA04234FF6FF3418
:109190001C40938825F440553E4344EA032345EAA6
:1091A00006149BB2A5B291E7158A24F4804444EAE0
:1091B0008514A4B25FE7D689158A578A21F0080181
:1091C0003143968824F4407421F004013D43314337
:1091D0002C43CEE7D489168AB2F812C023F080035C
:1091E00043EA04134FF6BF741C40938827F440658C
:1091F00046EA0C0644EA031345EA86049BB2A7B28A
:109200008FE700BF00000140000401402DE9F84F46
:10921000DFF864828E488F4C8F4E904FDFF85C925F
:10922000DFF85CA24FF4B47200213FF0CBFF45465B
:109230008B4A8C48DFF84CC2DFF84CE208F5077126
:1092400034E0B3F1804F00F0CB80A34200F0CF8038
:10925000B34200F0DB80BB4200F0DB80634500F0EE
:10926000DB80734500F0DB804B4500F0DB8053452D
:1092700000F0DB80DFF814B25B4500F0D9800BF51D
:10928000806B5B4500F0D780ABF5983B5B4500F009
:10929000D5800BF5806B5B4500F0D3800BF5806BC0
:1092A0005B4500F0D1802435A9420BD02B68934256
:1092B000C7D14FF0010B436C243543EA0B03A9429D
:1092C0004364F3D1684F694E4FF0030A4FF002092F
:1092D00098F80630002B7CD098F804301C09013C2B
:1092E000032C03F00F0374D837F8140040FA03F28C
:1092F000D2076ED54FF0010B0BFA03F3013B184078
:109300003FF03EFB5A4B1B5D184416EBC00460D087
:1093100056F83030574898F8081003F13F4202F5EC
:109320007E02920A825C02F01F005209032A0BFAA5
:1093300000FB65D0042A5DD0022A04D14948426C62
:109340004BEA02024264B4F804C0BCFA8CF2C2F1E7
:109350001F0292B2D00803EB800002F00702046AF9
:1093600092004FF00F0E0EFA02FE24EA0E04046281
:10937000046A01FA02F2224302624FF0010E002257
:109380000EFA02F434EA0C0120D15000D3F800B0F8
:109390000AFA00F1C9430BEA010BC3F800B0D3F895
:1093A00000B009FA00F040EA0B0018609868084025
:1093B000986098689860586820EA04045C6058686F
:1093C0005860D8680140D960D968D9600132102A44
:1093D000D6D108F1240845457FF47AAFBDE8F88F6F
:1093E0004FF0010B036C43EA0B0303645BE74FF0A0
:1093F000020BF7E71B48026B4BEA02020263A2E78B
:109400001848026C4BEA020202649CE74FF0040B1E
:10941000E8E74FF0080BE5E74FF0100BE2E74FF0FD
:10942000200BDFE74FF0020B45E74FF4803B42E7AC
:109430004FF4003B3FE74FF4802B3CE74FF0400BED
:10944000D0E74FF0800BCDE74FF4807BCAE700BF39
:109450006C9400200004004000080040000C004014
:10946000000001400038024030CF0408A8920020DC
:1094700038CF0408B0CC0408E8CC0408000401404C
:109480000040014000100040001400400044014032
:1094900000B9704703682DE9F04F03F13F4404F52C
:1094A0007E04534EA40A0125345D04F01F066409AE
:1094B000032C05FA06F500F09580042C00F08D8051
:1094C000022C45D08588B5FA85F0C0F11F0080B226
:1094D000C40803EB840400F00700266A80000F270D
:1094E000874026EA07062662276A01F003068240C3
:1094F000701E3A4301282262C1F3810EC1F30018A5
:109500004FF000024FEA51114FF0010C25D94FF0F6
:10951000030E0CFA02F0A84315D150001F680EFA92
:1095200000F4E44327401F60D3F8008006FA00F7F8
:1095300047EA08071F60DF683C40DC60DC6801FA2E
:1095400000F02043D8600132102AE2D1BDE8F08F4C
:10955000284C666C35436564B4E74FF003090CFA98
:1095600002F737EA050033D15000D3F800A009FA1A
:1095700000F4E4430AEA040AC3F800A0D3F800B0F8
:1095800006FA00FA4AEA0B0AC3F800A0D3F808A0CA
:1095900004EA0A0AC3F808A0D3F808B00EFA00FAE1
:1095A0004AEA0B0AC3F808A0D3F804A02AEA07077E
:1095B0005F60D3F804A008FA02F747EA0A075F6081
:1095C000DF683C40DC60DC6801FA00F02043D860D2
:1095D0000132102AC3D1BDE8F08F064C266B35430B
:1095E00025636FE7034C266C354325646AE700BFAB
:1095F000B0CC04080038024003682DE9F04F03F1B5
:109600003F4404F57E04534EA40A0125345D04F062
:109610001F066409032C05FA06F500F09580042C5A
:1096200000F08D80022C46D08588B5FA85F0C0F117
:109630001F0080B2C40803EB840400F00700266A10
:1096400080000F27874026EA07062662276A01F076
:10965000030602FA00F0721E3843012AC1F3810E9C
:10966000C1F3001820624FEA51114FF000024FF091
:10967000010C25D94FF0030E0CFA02F0A84315D1C6
:1096800050001F680EFA00F4E44327401F60D3F82F
:10969000008006FA00F747EA08071F60DF683C40D1
:1096A000DC60DC6801FA00F02043D8600132102A47
:1096B000E2D1BDE8F08F284C666C35436564B3E7B2
:1096C0004FF003090CFA02F737EA050033D15000D6
:1096D000D3F800A009FA00F4E4430AEA040AC3F844
:1096E00000A0D3F800B006FA00FA4AEA0B0AC3F861
:1096F00000A0D3F808A004EA0A0AC3F808A0D3F827
:1097000008B00EFA00FA4AEA0B0AC3F808A0D3F828
:1097100004A02AEA07075F60D3F804A008FA02F75A
:1097200047EA0A075F60DF683C40DC60DC6801FAFA
:1097300000F02043D8600132102AC3D1B9E7064CAB
:10974000266B354325636FE7034C266C3543256450
:109750006AE700BFB0CC04080038024010B5040925
:10976000013C032C17D80E4B33F8142000F00F00E7
:1097700042FA00F313F001030FD0012303FA00F0C3
:10978000013810403FF0FCF8064A074B125D1044C8
:1097900003EBC00010BD002010BD184610BD00BF77
:1097A00030CF040838CF0408A89200202DE9F843F0
:1097B000304D2B8AB5F80C8018EA030827D02E4EBE
:1097C0004FF00047B8FA88F327FA03F2D24391B278
:1097D0001B3B08EA02082982042B15D8DFE803F0B6
:1097E000372D23190300D6F86431002B39D1EB6AE9
:1097F0001FFA83F9D6F8604134B123682046494600
:1098000098476468002CF8D1B8F1000FDAD1BDE8B0
:10981000F883D6F84001696B036889B29847B8F1BC
:10982000000FCFD1F3E7D6F84401A96B036889B2E2
:109830009847B8F1000FC5D1E9E7D6F84801E96BC0
:10984000036889B29847B8F1000FBBD1DFE7D6F8BB
:109850004C01296C036889B29847B8F1000FB1D167
:10986000D5E703F1FF3900231FFA89F9C6F86431FF
:10987000C0E700BF001800406C9400202DE9F843B9
:10988000304D2B8AB5F80C8018EA030827D02E4EED
:109890004FF00047B8FA88F327FA03F2D24391B2A7
:1098A0001B3B08EA02082982042B15D8DFE803F0E5
:1098B000372D23190300D6F81431002B39D1EB6A68
:1098C0001FFA83F9D6F8104134B12368204649467F
:1098D00098476468002CF8D1B8F1000FDAD1BDE8E0
:1098E000F883D6F8F000696B036889B29847B8F13D
:1098F000000FCFD1F3E7D6F8F400A96B036889B263
:109900009847B8F1000FC5D1E9E7D6F8F800E96B40
:10991000036889B29847B8F1000FBBD1DFE7D6F8EA
:10992000FC00296C036889B29847B8F1000FB1D1E7
:10993000D5E703F1FF3900231FFA89F9C6F814317E
:10994000C0E700BF004001406C9400202DE9F843BF
:10995000304D2B8AB5F80C8018EA030827D02E4E1C
:109960004FF00047B8FA88F327FA03F2D24391B2D6
:109970001B3B08EA02082982042B15D8DFE803F014
:10998000372D23190300D6F8EC30002B39D1EB6AC0
:109990001FFA83F9D6F8E84034B1236820464946D7
:1099A00098476468002CF8D1B8F1000FDAD1BDE80F
:1099B000F883D6F8C800696B036889B29847B8F194
:1099C000000FCFD1F3E7D6F8CC00A96B036889B2BA
:1099D0009847B8F1000FC5D1E9E7D6F8D000E96B98
:1099E000036889B29847B8F1000FBBD1DFE7D6F81A
:1099F000D400296C036889B29847B8F1000FB1D13F
:109A0000D5E703F1FF3900231FFA89F9C6F8EC30D6
:109A1000C0E700BF000401406C9400202DE9F8432A
:109A2000304D2B8AB5F80C8018EA030827D02E4E4B
:109A30004FF00047B8FA88F327FA03F2D24391B205
:109A40001B3B08EA02082982042B15D8DFE803F043
:109A5000372D23190300D6F8EC30002B39D1EB6AEF
:109A60001FFA83F9D6F8E84034B123682046494606
:109A700098476468002CF8D1B8F1000FDAD1BDE83E
:109A8000F883D6F8C800696B036889B29847B8F1C3
:109A9000000FCFD1F3E7D6F8CC00A96B036889B2E9
:109AA0009847B8F1000FC5D1E9E7D6F8D000E96BC7
:109AB000036889B29847B8F1000FBBD1DFE7D6F849
:109AC000D400296C036889B29847B8F1000FB1D16E
:109AD000D5E703F1FF3900231FFA89F9C6F8EC3006
:109AE000C0E700BF000401406C9400202DE9F8435A
:109AF000304D2B8AB5F80C8018EA030827D02E4E7B
:109B00004FF00047B8FA88F327FA03F2D24391B234
:109B10001B3B08EA02082982042B15D8DFE803F072
:109B2000372D23190300D6F8C430002B39D1EB6A46
:109B30001FFA83F9D6F8C04034B12368204649465D
:109B400098476468002CF8D1B8F1000FDAD1BDE86D
:109B5000F883D6F8A000696B036889B29847B8F11A
:109B6000000FCFD1F3E7D6F8A400A96B036889B240
:109B70009847B8F1000FC5D1E9E7D6F8A800E96B1E
:109B8000036889B29847B8F1000FBBD1DFE7D6F878
:109B9000AC00296C036889B29847B8F1000FB1D1C5
:109BA000D5E703F1FF3900231FFA89F9C6F8C4305D
:109BB000C0E700BF000C00406C9400202DE9F84382
:109BC0002F4D2B8AB5F80C8018EA030827D02D4EAC
:109BD0004FF00047B8FA88F327FA03F2D24391B264
:109BE0001B3B08EA02082982042B15D8DFE803F0A2
:109BF000352B22190300D6F89C30002B37D1EB6AA5
:109C00001FFA83F9D6F8984034B1236820464946B4
:109C100098476468002CF8D1B8F1000FDAD1BDE89C
:109C2000F883B06F696B036889B29847B8F1000F89
:109C3000D0D1F4E7F06FA96B036889B29847B8F107
:109C4000000FC7D1EBE7D6F88000E96B036889B253
:109C50009847B8F1000FBDD1E1E7D6F88400296C30
:109C6000036889B29847B8F1000FB3D1D7E703F181
:109C7000FF3900231FFA89F9C6F89C30C2E700BFFC
:109C8000000800406C9400202DE9F8432C4D2B8AED
:109C9000B5F80C8018EA030825D02A4E4FF000478B
:109CA000B8FA88F327FA03F2D24391B21B3B08EAD1
:109CB00002082982042B13D8DFE803F03229201789
:109CC0000300736F002B34D1EB6A1FFA83F9346FF2
:109CD00034B123682046494698476468002CF8D17F
:109CE000B8F1000FDCD1BDE8F883306D696B036813
:109CF00089B29847B8F1000FD2D1F4E7706DA96B23
:109D0000036889B29847B8F1000FC9D1EBE7B06D8D
:109D1000E96B036889B29847B8F1000FC0D1E2E758
:109D2000F06D296C036889B29847B8F1000FB7D17C
:109D3000D9E703F1FF3900231FFA89F97367C6E7F2
:109D4000000400406C9400202DE9F8434FF080455A
:109D50002B8AB5F80C8018EA030825D0294E4FF05D
:109D60000047B8FA88F327FA03F2D24391B21B3BBB
:109D700008EA02082982042B13D8DFE803F032290D
:109D800020170300F36C002B34D1EB6A1FFA83F920
:109D9000B46C34B123682046494698476468002C67
:109DA000F8D1B8F1000FDCD1BDE8F883B06A696B77
:109DB000036889B29847B8F1000FD2D1F4E7F06A8E
:109DC000A96B036889B29847B8F1000FC9D1EBE7D6
:109DD000306BE96B036889B29847B8F1000FC0D1C6
:109DE000E2E7706B296C036889B29847B8F1000FFD
:109DF000B7D1D9E703F1FF3900231FFA89F9F364DA
:109E0000C6E700BF6C9400202DE9F8435C4D2B8A17
:109E1000B5F80C8018EA030826D05A4E4FF00047D8
:109E2000B8FA88F327FA03F2D24391B21B3B08EA4F
:109E300002082982042B14D8DFE803F04C433A319E
:109E40000300736A002B40F09480EB6A1FFA83F9D9
:109E5000346A34B123682046494698476468002C28
:109E6000F8D1B8F1000FDBD1474D2B8AB5F80C8043
:109E700018EA03084BD0434E4FF00047B8FA88F376
:109E800027FA03F2D24391B21B3B08EA0208298267
:109E9000042B39D8DFE803F05B51473D27003068D9
:109EA000696B036889B29847B8F1000FB8D1DBE756
:109EB0007068A96B036889B29847B8F1000FAFD1F9
:109EC000D2E7B068E96B036889B29847B8F1000F30
:109ED000A6D1C9E7F068296C036889B29847B8F140
:109EE000000F9DD1C0E7D6F83C31002B39D1EB6A89
:109EF0001FFA83F9D6F8384134B123682046494621
:109F000098476468002CF8D1B8F1000FB6D1BDE8CD
:109F1000F883D6F81801696B036889B29847B8F1DD
:109F2000000FABD1F3E7D6F81C01A96B036889B227
:109F30009847B8F1000FA1D1E9E7D6F82001E96B05
:109F4000036889B29847B8F1000F97D1DFE7D6F8D8
:109F50002401296C036889B29847B8F1000F8DD1AC
:109F6000D5E703F1FF3900231FFA89F9C6F83C3120
:109F7000C0E703F1FF3900231FFA89F9736267E72D
:109F8000000001406C940020004401402DE9F8439A
:109F90002C4D2B8AB5F80C8018EA030825D02A4EE0
:109FA0004FF00047B8FA88F327FA03F2D24391B290
:109FB0001B3B08EA02082982042B13D8DFE803F0D0
:109FC000322920170300736A002B34D1EB6A1FFA81
:109FD00083F9346A34B12368204649469847646857
:109FE000002CF8D1B8F1000FDCD1BDE8F88330685F
:109FF000696B036889B29847B8F1000FD2D1F4E7D2
:10A000007068A96B036889B29847B8F1000FC9D18D
:10A01000EBE7B068E96B036889B29847B8F1000FC5
:10A02000C0D1E2E7F068296C036889B29847B8F1BB
:10A03000000FB7D1D9E703F1FF3900231FFA89F9DF
:10A040007362C6E7000001406C940020F0B506681A
:10A05000B30AA3F58013512B00F28380DFE803F0ED
:10A060008F929589818129818181818181818181FD
:10A0700081818181818181818181818181818181D0
:10A0800081818181818181818181818181818181C0
:10A0900081818181818181818181818181818181B0
:10A0A0008C82818181818181818181818181818194
:10A0B000988508254FF4B0774379B6F80CE0022074
:10A0C00023FA00F4A0401FFA80FCA800234644199C
:10A0D00003EB4403384C002963D04CEA0E0C03F127
:10A0E000040E44F8231044F82E20A6F80CC0E319FF
:10A0F000EFF31181502282F31288421904EBC2025D
:10A10000D2F810C0BCF1000F03D044F807C01369A7
:10A110000433421904EBC202576917B11F60536937
:10A120000433421904EBC202976917B11F609369A7
:10A130000433421904EBC202D76917B11F60D36917
:10A1400004330027CAB21F6082F31188284404EB4D
:10A15000C004236A03BBB38923F001031B041B0C57
:10A16000B381F0BD0525E827A6E707254FF49C77C6
:10A17000A2E70425C0279FE7002520279CE70125AB
:10A18000482799E70225702796E70325982793E744
:10A1900006254FF488778FE7B38943F00103B38135
:10A1A000F0BD2EEA0C0C03F1040EA6F80CC044F826
:10A1B000231044F82E209AE76C94002010B5036811
:10A1C0007C487D4C0139834282B0246889B200F01A
:10A1D000AF80A0F58060834200F0AA8000F5804047
:10A1E000834200F0818000F5806083427CD000F5DE
:10A1F0008060834278D018886408B4FBF2F4013C94
:10A20000A4B282B2B3F1804F0AD06C48834207D027
:10A2100000F58060834203D000F58060834202D164
:10A2200022F0700292B26648834200F08F8000F5FF
:10A230008060834200F0938022F4407200F56C400D
:10A2400092B283421A80D9621C8540F0918001212C
:10A2500000221A86998219885A4841F001018342E6
:10A26000198049D0B3F1804F00F08D80534A93425A
:10A2700000F08B8002F58062934200F0888002F546
:10A280008062934200F0858002F58062934200F084
:10A29000828002F5806293427FD002F57042934241
:10A2A0007DD002F5705293427BD002F580629342DA
:10A2B00079D002F58062934277D0A2F5983293422A
:10A2C00075D002F58062934215D002F58062934208
:10A2D00008BF0D2210D002A84FF0012340F8043D22
:10A2E00009F0D6FE02B010BD1888B4FBF2F4013CB0
:10A2F000A4B282B286E70C22334B03EBC20201A860
:10A3000054798DF80440012300228DF805308DF832
:10A3100007308DF8062009F0BBFE1B2C0FD02E2C29
:10A32000E0D12A4B019301A809F0B2FE02B010BDA2
:10A330001888B4FBF2F4013CA4B282B270E7244B5B
:10A34000019301A809F0A4FE02B010BD01201A80FB
:10A35000D9621C8598821A8802431A8086E70120F8
:10A360001A80D9621C8598821A8802431A8079E77C
:10A37000104A93423FF46BAF01229A821A8842F04E
:10A3800001021A806EE70122B6E70222B4E7032237
:10A39000B2E70422B0E70522AEE70622ACE70722C7
:10A3A000AAE70822A8E70922A6E70A22A4E70B22C7
:10A3B000A2E700BF00040140B8C000200004004034
:10A3C000001000400000014074CF04082C0100017F
:10A3D000190100012B4B98423CD0B0F1804F3BD08B
:10A3E000A3F57C43984239D003F58063984237D077
:10A3F00003F58063984235D003F58063984233D0EB
:10A4000003F58063984233D003F57043984231D00E
:10A4100003F57053984229D003F5806398422BD0FE
:10A4200003F58063984229D0A3F59833984227D04A
:10A4300003F58063984207D003F58063984208BF14
:10A440000D2202D0002070470C220F4B03EBC203F9
:10A45000187970470022F8E70122F6E70222F4E7B4
:10A460000322F2E70422F0E70522EEE70822ECE7F8
:10A470000622EAE70722E8E70922E6E70A22E4E7FC
:10A480000B22E2E70000014074CF04082DE9804868
:10A49000013083B0C3B20193834C844E844DDFF806
:10A4A00014820A239B4638F011FCDFF80CC24FF4EB
:10A4B000FA7A4FF0100E4FF47A77DCF80430C3F3D9
:10A4C0000803002B40F0D480EFF31183002B40F001
:10A4D000CF802168AA6800BF23689942F9D130680B
:10A4E00007FB00F39A1AB2FBF0F207FB0121DCF83C
:10A4F0000430C3F30803002B7FD1EFF31183002B4B
:10A500007BD12368A86800BF22689342F9D1D6F8AE
:10A51000009007FB09F2101AB0FBF9F007FB0303E8
:10A520005B1AB3F57A7FE2D3BAF1010AC5D101987B
:10A5300038F028FA4FF47A7ADFF87CC157464FF0AA
:10A54000100EDCF80430C3F30803002B74D1EFF3D2
:10A550001183002B70D12168AA6800BF236899423B
:10A56000F9D1306807FB00F39A1AB2FBF0F207FB4F
:10A570000121DCF80430C3F30803FBB9EFF31183C6
:10A58000E3B92368A86800BF22689342F9D1D6F8DE
:10A59000009007FB09F2101AB0FBF9F007FB030368
:10A5A0005B1AB3F57A7FE4D3BAF1010AC9D15B46ED
:10A5B000013B9B467FF477AF0FF02EFBEFF311804A
:10A5C0008EF31288D5F808902B68DB0304D501239D
:10A5D000C8F80030D5F808902368D8F80020C0B239
:10A5E00080F311883068134407FB00F2A2EB0902E4
:10A5F000B2FBF0F207FB0323D2E7EFF311808EF3F7
:10A600001288D5F808902B68DB0304D50123C8F81D
:10A610000030D5F808902368D8F80020C0B280F345
:10A6200011883068134407FB00F2A2EB0902B2FB69
:10A63000F0F207FB032373E7EFF311828EF3128826
:10A64000A8682B68D90303D50123C8F80030A8688F
:10A650002368D8F80010D2B282F311883268194406
:10A6600007FB02F31B1AB3FBF2F307FB013180E790
:10A67000EFF311828EF31288A8682B68D90303D5F3
:10A680000123C8F80030A8682368D8F80010D2B2B7
:10A6900082F311883268194407FB02F31B1AB3FBDB
:10A6A000F2F307FB013122E7389400203C940020AC
:10A6B00010E000E03494002000ED00E0F8B50468FC
:10A6C000C4F30D0405460E4604B32F680AF0E4FAFD
:10A6D000092840F08780454C236923F440732361A7
:10A6E000236943F400732361236943F00103236169
:10A6F0003E600AF0D1FA2369092823F0010323619F
:10A7000070D12B6804332B60002034E0384B394A79
:10A7100093422AD902F58042934225D902F580421C
:10A72000934229D902F58042934227D902F580321B
:10A73000934225D902F50032934223D902F5003223
:10A74000934221D902F5003293421FD902F500321B
:10A7500093421DD902F5802293421BD9B3F1016FB8
:10A760001AD30520FFF792FE08240AF095FA09286B
:10A7700014D04FF0FF30F8BD1024F6E71824F4E7AA
:10A780002024F2E72824F0E73024EEE73824ECE731
:10A790004024EAE74824E8E75824E6E7134F3B69FA
:10A7A00023F440733B613B6943F400733B613B69B5
:10A7B00023F0F8033B613B6943F002031C433C6117
:10A7C0003B6943F480333B610AF066FA3B6923F04E
:10A7D00002033B613B69092823F0F8033B613FF426
:10A7E00074AFC6E76FF00100C5E700BF003C024050
:10A7F00000400008FF3F0008F8B504460D468E18DB
:10A800000027B542206900D1F8BDE368591CE1601A
:10A81000234415F8012B1A720429F2D118B9A16842
:10A820002046FFF74BFFC4E90370EAE72DE9F04F3C
:10A8300083B08E4DDFF8408201908B460BF1FF33E1
:10A840009B46013300F00E8138F040FA884C894F66
:10A85000DFF828C24FF4FA7A4FF0100E4FF47A76F0
:10A86000DCF80430C3F30803002B40F0DF80EFF383
:10A870001183002B40F0DA802168AA6800BF2368AA
:10A880009942F9D1386806FB00F39A1AB2FBF0F24C
:10A8900006FB0121DCF80430C3F30803002B40F071
:10A8A000A680EFF31183002B40F0A1802368A868F5
:10A8B00000BF22689342F9D1D7F8009006FB09F255
:10A8C000101AB0FBF9F006FB03035B1AB3F57A7FAD
:10A8D000E0D3BAF1010AC3D1019B581CC0B238F0D1
:10A8E00051F8DFF898C1DCF804304FF47A7AC3F3FA
:10A8F000080356464FF0100E002B38D1EFF31183AA
:10A90000002B34D12168AA6800BF23689942F9D18D
:10A91000386806FB00F39A1AB2FBF0F206FB01213D
:10A92000DCF80430C3F30803002B41D1EFF31183AB
:10A93000002B3DD12368A86800BF22689342F9D15B
:10A94000D7F8009006FB09F2101AB0FBF9F006FBED
:10A9500003035B1AB3F57A7FE2D3BAF1010A3FF43D
:10A960006DAFDCF80430C3F30803002BC6D0EFF35F
:10A9700011828EF31288A8682B68D90303D50123AE
:10A98000C8F80030A8682368D8F80010D2B282F363
:10A9900011883A68194406FB02F31B1AB3FBF2F361
:10A9A00006FB0131DCF80430C3F30803002BBDD0F3
:10A9B000EFF311808EF31288D5F808902B68DB0333
:10A9C00004D50123C8F80030D5F808902368D8F8DA
:10A9D0000020C0B280F311883868134406FB00F2EF
:10A9E000A2EB0902B2FBF0F206FB0323B1E7EFF39F
:10A9F00011808EF31288D5F808902B68DB0304D5FC
:10AA00000123C8F80030D5F808902368D8F8002052
:10AA1000C0B280F311883868134406FB00F2A2EB41
:10AA20000902B2FBF0F206FB03234EE7EFF31182BB
:10AA30008EF31288A8682B68D90303D50123C8F8C0
:10AA40000030A8682368D8F80010D2B282F31188C9
:10AA50003A68194406FB02F31B1AB3FBF2F306FB38
:10AA6000013117E703B0BDE8F08F00BF10E000E050
:10AA7000389400203C9400203494002000ED00E045
:10AA8000204B5B68C3F3080330B4BBB9EFF3118309
:10AA9000A3B91D4A1D481368846800BF11688B4222
:10AAA000F9D11B4A11684FF47A7202FB01F0001BC6
:10AAB00030BCB0FBF1F002FB03007047EFF31182F2
:10AAC000102383F312881149124D8C680B68DB0345
:10AAD00044BF01232B600C4B48BF8C681B6828685F
:10AAE000D2B282F311880A4A11684FF47A7218447C
:10AAF00002FB01F31B1B30BCB3FBF1F302FB003084
:10AB0000704700BF00ED00E03894002010E000E046
:10AB10003C940020349400202DE9F84F0746264E3F
:10AB2000264DFFF7ADFF264A2649DFF89CC04FF0BF
:10AB3000100E4FF47A744FF001086B68C3F30803EA
:10AB4000CBB9EFF31183B3B91368D1F808A000BFF4
:10AB5000D2F800904B45F7D1D6F8009004FB09FBE2
:10AB6000ABEB0A0ABAFBF9FA04FB03A31B1ABB42BC
:10AB7000E3D3BDE8F88FEFF3118A8EF31288D1F892
